:020000040800F2
:1000000000000220C15E00085D5C0008655C00081D
:100010006D5C0008755C00087D5C00080000000055
:1000200000000000000000000000000001D30008F4
:10003000855C00080000000051D50008935C0008B2
:10004000115F0008115F0008115F0008115F0008D0
:10005000115F0008115F0008115F0008115F0008C0
:10006000115F0008115F0008115F0008115F0008B0
:10007000115F0008115F0008115F0008115F0008A0
:10008000115F0008115F0008115F0008115F000890
:10009000115F0008115F0008115F0008115F000880
:1000A000115F0008115F0008115F0008115F000870
:1000B000115F0008115F0008115F0008115F000860
:1000C000115F0008115F0008115F0008115F000850
:1000D000115F0008115F0008115F0008AD5C0008A7
:1000E000115F0008115F0008115F0008C15C000883
:1000F000115F0008115F0008115F0008115F000820
:10010000115F0008115F0008DD5C0008115F000846
:10011000115F0008115F0008115F0008115F0008FF
:10012000115F0008115F0008115F0008115F0008EF
:10013000115F0008115F0008115F0008115F0008DF
:10014000115F0008115F0008115F0008115F0008CF
:10015000115F0008115F0008115F0008115F0008BF
:10016000115F0008115F0008115F0008115F0008AF
:10017000115F0008115F0008115F00080000000017
:08018000115F0008115F000887
:1001900010B5054C237833B9044B13B10448AFF3C1
:1001A00000800123237010BD5402002000000000D5
:1001B000E41E010808B5034B1BB103490348AFF324
:1001C000008008BD0000000058020020E41E010865
:1001D00010F8012B11F8013B012A28BF9A42F7D0F1
:1001E000D01A70470000000000000000000000006E
:1001F00001F0FF01102A2BDB10F0070F08D010F8D8
:10020000013B013A8B422DD010F0070F42B3F6D1DB
:10021000F0B441EA012141EA014122F007047FF0F4
:1002200000070023F0E80256083C85EA010586EA4B
:10023000010685FA47F5A3FA87F586FA47F6A5FA87
:1002400087F68EB9EED1F0BC01F0FF0102F0070293
:1002500032B110F8013B013A83EA010313B1F8D13E
:100260000020704701387047002D06BF354603381F
:10027000073815F0010F07D1013015F4807F02BF58
:10028000013015F4C03F0130F0BC0138704700BFA9
:10029000034613F8012B002AFBD1181A01387047C6
:1002A00081F0004102E000BF83F0004330B54FEA27
:1002B00041044FEA430594EA050F08BF90EA020F94
:1002C0001FBF54EA000C55EA020C7FEA645C7FEA27
:1002D000655C00F0E2804FEA5454D4EB5555B8BF4A
:1002E0006D420CDD2C4480EA020281EA030382EABB
:1002F000000083EA010180EA020281EA0303362D4D
:1003000088BF30BD11F0004F4FEA01314FF4801C1F
:100310004CEA113102D0404261EB410113F0004F31
:100320004FEA03334CEA133302D0524263EB4303E8
:1003300094EA050F00F0A780A4F10104D5F1200E86
:100340000DDB02FA0EFC22FA05F2801841F10001E1
:1003500003FA0EF2801843FA05F359410EE0A5F1B5
:1003600020050EF1200E012A03FA0EFC28BF4CF0E6
:10037000020C43FA05F3C01851EBE37101F000459C
:1003800007D54FF0000EDCF1000C7EEB00006EEBA9
:100390000101B1F5801F1BD3B1F5001F0CD3490833
:1003A0005FEA30004FEA3C0C04F101044FEA44528A
:1003B00012F5800F80F09A80BCF1004F08BF5FEA11
:1003C000500C50F1000041EB045141EA050130BDF1
:1003D0005FEA4C0C404141EB0101013C28BFB1F503
:1003E000801FE9D291F0000F04BF01460020B1FA4E
:1003F00081F308BF2033A3F10B03B3F120020CDA21
:100400000C3208DD02F1140CC2F10C0201FA0CF0FE
:1004100021FA02F10CE002F11402D8BFC2F1200C63
:1004200001FA02F120FA0CFCDCBF41EA0C01904019
:10043000E41AA2BF01EB0451294330BD6FEA040462
:100440001F3C1CDA0C340EDC04F11404C4F120024D
:1004500020FA04F001FA02F340EA030021FA04F35F
:1004600045EA030130BDC4F10C04C4F1200220FAB6
:1004700002F001FA04F340EA0300294630BD21FAF4
:1004800004F0294630BD94F0000F83F4801306BFBA
:1004900081F480110134013D4EE77FEA645C18BFAE
:1004A0007FEA655C29D094EA050F08BF90EA020F45
:1004B00005D054EA000C04BF1946104630BD91EA3D
:1004C000030F1EBF0021002030BD5FEA545C05D140
:1004D0004000494128BF41F0004130BD14F580047F
:1004E0003CBF01F5801130BD01F0004545F0FE41F3
:1004F00041F470014FF0000030BD7FEA645C1ABF28
:10050000194610467FEA655C1CBF0B46024650EA5E
:10051000013406BF52EA033591EA030F41F400218A
:1005200030BD00BF90F0000F04BF0021704730B510
:100530004FF4806404F132044FF000054FF00001E5
:1005400050E700BF90F0000F04BF0021704730B5A6
:100550004FF4806404F1320410F0004548BF40427B
:100560004FF000013EE700BF42004FEAE2014FEAD0
:1005700031014FEA02701FBF12F07F4393F07F4FAB
:1005800081F06051704732F07F4208BF704793F0AE
:100590007F4F04BF41F40021704730B54FF46074C1
:1005A00001F0004521F000411CE700BF50EA0102C4
:1005B00008BF704730B54FF000050AE050EA01026D
:1005C00008BF704730B511F0004502D5404261EBDD
:1005D00041014FF4806404F132045FEA915C3FF41E
:1005E000D8AE4FF003025FEADC0C18BF03325FEABB
:1005F000DC0C18BF033202EBDC02C2F1200300FA6C
:1006000003FC20FA02F001FA03FE40EA0E0021FA90
:1006100002F11444BDE600BF70B54FF0FF0C4CF47E
:10062000E06C1CEA11541DBF1CEA135594EA0C0F30
:1006300095EA0C0F00F0DEF82C4481EA030621EA6B
:100640004C5123EA4C5350EA013518BF52EA0335A6
:1006500041F4801143F4801338D0A0FB02CE4FF058
:100660000005E1FB02E506F00042E0FB03E54FF088
:100670000006E1FB03569CF0000F18BF4EF0010E80
:10068000A4F1FF04B6F5007F64F5407404D25FEA7C
:100690004E0E6D4146EB060642EAC62141EA55512F
:1006A0004FEAC52040EA5E504FEACE2EB4F1FD0C71
:1006B00088BFBCF5E06F1ED8BEF1004F08BF5FEAEF
:1006C000500E50F1000041EB045170BD06F00046A1
:1006D00046EA010140EA020081EA0301B4EB5C044E
:1006E000C2BFD4EB0C0541EA045170BD41F4801146
:1006F0004FF0000E013C00F3AB8014F1360FDEBF6B
:10070000002001F0004170BDC4F10004203C35DA46
:100710000C341BDC04F11404C4F1200500FA05F3C9
:1007200020FA04F001FA05F240EA020001F000426A
:1007300021F0004110EBD37021FA04F642EB0601E0
:100740005EEA430E08BF20EAD37070BDC4F10C040A
:10075000C4F1200500FA04F320FA05F001FA04F2CE
:1007600040EA020001F0004110EBD37041F10001BA
:100770005EEA430E08BF20EAD37070BDC4F12005C5
:1007800000FA05F24EEA020E20FA04F301FA05F22D
:1007900043EA020321FA04F001F0004121FA04F2D5
:1007A00020EA020000EBD3705EEA430E08BF20EAA5
:1007B000D37070BD94F0000F0FD101F000464000DF
:1007C00041EB010111F4801F08BF013CF7D041EA61
:1007D000060195F0000F18BF704703F00046520065
:1007E00043EB030313F4801F08BF013DF7D043EA36
:1007F0000603704794EA0C0F0CEA135518BF95EAEC
:100800000C0F0CD050EA410618BF52EA4306D1D172
:1008100081EA030101F000414FF0000070BD50EA91
:10082000410606BF1046194652EA430619D094EA1B
:100830000C0F02D150EA013613D195EA0C0F05D105
:1008400052EA03361CBF104619460AD181EA030159
:1008500001F0004141F0FE4141F470014FF0000011
:1008600070BD41F0FE4141F4780170BD70B54FF0AC
:10087000FF0C4CF4E06C1CEA11541DBF1CEA13552C
:1008800094EA0C0F95EA0C0F00F0A7F8A4EB05040E
:1008900081EA030E52EA03354FEA013100F0888005
:1008A0004FEA03334FF0805545EA131343EA1263CE
:1008B0004FEA022245EA111545EA10654FEA002683
:1008C0000EF000419D4208BF964244F1FD0404F53C
:1008D000407402D25B084FEA3202B61A65EB030598
:1008E0005B084FEA32024FF480104FF4002CB6EB55
:1008F000020E75EB030E22BFB61A754640EA0C00D5
:100900005B084FEA3202B6EB020E75EB030E22BF14
:10091000B61A754640EA5C005B084FEA3202B6EB55
:10092000020E75EB030E22BFB61A754640EA9C0014
:100930005B084FEA3202B6EB020E75EB030E22BFE4
:10094000B61A754640EADC0055EA060E18D04FEAA2
:10095000051545EA16754FEA06164FEAC30343EA42
:1009600052734FEAC2025FEA1C1CC0D111F4801F0F
:100970000BD141EA00014FF000004FF0004CB6E708
:1009800011F4801F04BF01430020B4F1FD0C88BFA7
:10099000BCF5E06F3FF6AFAEB5EB030C04BFB6EBB2
:1009A000020C5FEA500C50F1000041EB045170BDA5
:1009B0000EF0004E4EEA113114EB5C04C2BFD4EBD2
:1009C0000C0541EA045170BD41F480114FF0000E56
:1009D000013C90E645EA060E8DE60CEA135594EAD2
:1009E0000C0F08BF95EA0C0F3FF43BAF94EA0C0FD5
:1009F0000AD150EA01347FF434AF95EA0C0F7FF44A
:100A000025AF104619462CE795EA0C0F06D152EA9D
:100A100003353FF4FDAE1046194622E750EA410681
:100A200018BF52EA43067FF4C5AE50EA41047FF492
:100A30000DAF52EA43057FF4EBAE12E74FF0FF3CF7
:100A400006E000BF4FF0010C02E000BF4FF0010CC8
:100A50004DF804CD4FEA410C7FEA6C5C4FEA430C41
:100A600018BF7FEA6C5C1BD001B050EA410C0CBF90
:100A700052EA430C91EA030F02BF90EA020F0020F2
:100A8000704710F1000F91EA030F58BF994208BF59
:100A900090422CBFD8176FEAE37040F00100704716
:100AA0004FEA410C7FEA6C5C02D150EA013C07D16D
:100AB0004FEA430C7FEA6C5CD6D152EA033CD3D0B8
:100AC0005DF8040B704700BF8446104662468C46B2
:100AD0001946634600E000BF01B5FFF7B7FF0028E5
:100AE00048BF10F1000F01BD4DF808EDFFF7F4FF0E
:100AF0000CBF012000205DF808FB00BF4DF808ED99
:100B0000FFF7EAFF34BF012000205DF808FB00BFBB
:100B10004DF808EDFFF7E0FF94BF012000205DF8DD
:100B200008FB00BF4DF808EDFFF7CEFF94BF012092
:100B300000205DF808FB00BF4DF808EDFFF7C4FF8B
:100B400034BF012000205DF808FB00BF4FEA410CD4
:100B50007FEA6C5C02D150EA013C0AD14FEA430CB7
:100B60007FEA6C5C02D152EA033C02D14FF00000F4
:100B700070474FF0010070474FEA410212F5001232
:100B800015D211D56FF47873B3EB625212D94FEAD4
:100B9000C12343F0004343EA505311F0004F23FABE
:100BA00002F018BF404270474FF00000704750EA13
:100BB000013005D111F0004008BF6FF000407047D0
:100BC0004FF00000704700BF4A0011D212F500122A
:100BD00011D20DD56FF47873B3EB62520ED44FEA95
:100BE000C12343F0004343EA505323FA02F0704715
:100BF0004FF00000704750EA013002D14FF0FF3053
:100C000070474FF0000070474FEA4102B2F1E043F5
:100C100024BFB3F5001CDCF1FE5C0DD901F0004CE3
:100C20004FEAC0024CEA5070B2F1004F40EB830033
:100C300008BF20F00100704711F0804F21D113F15F
:100C40003872BCBF01F00040704741F480114FEA98
:100C50005252C2F11802C2F1200C10FA0CF320FA21
:100C600002F018BF40F001004FEAC1234FEAD3233E
:100C700003FA0CFC40EA0C0023FA02F34FEA4303A8
:100C8000CCE77FEA625307D150EA01331EBF4FF031
:100C9000FE4040F44000704701F0004040F0FE404C
:100CA00040F40000704700BF53B94AB9002908BF9B
:100CB00000281CBF4FF0FF314FF0FF3000F0BEB9ED
:100CC000ADF1080C6DE904CE00F03CF8DDF804E06D
:100CD000DDE9022304B0704738B500220023044642
:100CE0000D46FFF70BFF28B920462946BDE83840DE
:100CF00000F00AB8204605F1004100F005F8404236
:100D000061EB410138BD00BFD0B50C4B0022064657
:100D10000F46FFF781FCFFF757FF0446FFF702FC81
:100D2000074B0022FFF778FC02460B463046394657
:100D3000FFF7BAFAFFF748FF2146D0BD0000F03DAB
:100D40000000F0412DE9F047089D8E460446884694
:100D5000002B4AD18A42174662D9B2FA82F64EB1C6
:100D6000C6F1200301FA06F820FA03F3B74043EA7C
:100D70000808B4404FEA174E1FFA87FCB8FBFEF193
:100D8000230C0EFB118843EA084301FB0CF29A4244
:100D900009D9FB1801F1FF3080F0EA809A4240F255
:100DA000E78002393B449A1AA3B2B2FBFEF00EFB75
:100DB000102243EA024300FB0CFC9C4509D9FB18B6
:100DC00000F1FF3280F0D6809C4540F2D3803B4456
:100DD000023840EA0140A3EB0C0300211DB1F340AF
:100DE0000022C5E90032BDE8F0878B4205D90DB17C
:100DF000C5E9000100210846F5E7B3FA83F10029AF
:100E000046D1734502D3824200F20581841A6EEB0B
:100E1000030201209046002DE5D0C5E90048E2E735
:100E2000002A00F09080B2FA82F6002E40F0A480F2
:100E30008A1A030C4FEA174E80B2BCB20121B2FBF2
:100E4000FEFC0EFB1C2243EA024304FB0CF29A4216
:100E500007D9FB180CF1FF3802D29A4200F2E08069
:100E6000C4469B1AB3FBFEF20EFB123340EA034367
:100E700002FB04F49C4207D9FB1802F1FF3002D2B6
:100E80009C4200F2CA8002461B1B42EA0C40A5E7C6
:100E9000C1F120068B4022FA06F71F430EFA01F437
:100EA00020FA06F32EFA06FE4FEA1749234300FA0A
:100EB00001F81FFA87FCBEFBF9F01C0C09FB10EED1
:100EC00044EA0E4400FB0CFEA64502FA01F209D9E1
:100ED0003C1900F1FF3A80F09C80A64540F29980D1
:100EE00002383C44A4EB0E041FFA83FEB4FBF9F372
:100EF00009FB13444EEA044403FB0CFCA44508D947
:100F00003C1903F1FF3E80F08280A4457FD9023B6B
:100F10003C4443EA0040A4EB0C04A0FB02EC644513
:100F20007346E14662D35FD05DB1B8EB030264EB78
:100F3000090404FA06F622FA01F31E43CC40C5E97F
:100F4000006400214FE7B1FBF2FC010C41EA0E41C5
:100F500080B240EA01423B4638463C46B846BE466F
:100F60002026B1FBF7F1A2EB080241EA0C4166E74B
:100F7000014618E710462CE7C6F120022EFA02F3CC
:100F8000B740B14020FA02F24FEA174E0A43B3FBD2
:100F9000FEF8BCB20EFB1833110C41EA034108FB0A
:100FA00004F9B04089454FEA104380B23ED9791820
:100FB00008F1FF3C01D289451FD8A1EB0901B1FB23
:100FC000FEF909FB04F80EFB191192B242EA014244
:100FD000424529D2BA1809F1FF31C4D24245C2D2E2
:100FE000A9F102013A44BEE7F0459DD2BEEB0203EF
:100FF0006CEB070C0138E14696E7A7EB0909494479
:10100000A8F1020CB1FBFEF909FB04F8DBE773461B
:101010007FE7504666E70846FDE63B44023A33E781
:10102000ACF1020C3B441CE749469CE7A1EB0901EB
:10103000C446B1FBFEF909FB04F8C4E7704700BFE2
:1010400080B58AB004AFF8600B467A60FB7200236B
:10105000FB757B68DBB21B01DBB27B75FB7A002B77
:1010600001D1682300E06923BB75BB7D9BB25B00A7
:1010700099B20A2302930123019307F11503009308
:1010800001237F22F86805F091FC0346FB75FB7D88
:1010900018461837BD4680BD80B588B004AF78606B
:1010A000084611461A460346FB700B46BB701346B2
:1010B0007B700023FB73FB78002B01D1682300E0D9
:1010C0006923BB73BB7B9BB25B0099B2BB789AB2BE
:1010D0000A230293012301937B1C00930123786868
:1010E00005F064FC0346FB73FB7B18461037BD46D6
:1010F00080BD80B588B004AF7860084611461A46B6
:101100000346FB700B46BB7013463B800023FB730A
:10111000FB78002B01D1682300E06923BB73BB7B04
:101120009BB25B0099B2BB789AB20A2302933B88C8
:101130000193BB6900930123786805F031FD0346F4
:10114000FB73FB7B18461037BD4680BD80B584B06D
:1011500000AF786032230522D021786805F052FF75
:101160000346FB73FB7B002B0CBF01230023DBB288
:1011700018461037BD4680BD80B584B000AF78609A
:1011800032230522D221786805F03CFF0346FB7329
:10119000FB7B002B0CBF01230023DBB2184610376A
:1011A000BD4680BD80B584B000AF78600B46FB7053
:1011B0001346BB700023FB73FB7800221946786846
:1011C000FFF73EFF0346FB73F97880230622786819
:1011D000FFF762FF0346FB73C82004F00DFFF978A8
:1011E000012306227868FFF757FF0346FB73F9785F
:1011F000002307227868FFF74FFF0346FB73FB7855
:10120000022219467868FFF71BFF0346FB73BB7881
:1012100043F01803DBB2F97801227868FFF73CFF4E
:101220000346FB73F978192314227868FFF734FF1B
:101230000346FB73F978162300227868FFF72CFF2A
:101240000346FB73FB78002219467868FFF7F8FE27
:101250000346FB73F978002303227868FFF71CFF2D
:101260000346FB73F97802230F227868FFF714FF17
:101270000346FB7300BF1037BD4680BD80B586B006
:1012800002AFF8607B600B46FB721346BB72F97AC3
:101290000B4B009302233722F868FFF72AFF084B15
:1012A0001B781BB21B021AB2054B5B781BB21343AF
:1012B0001AB27B681A8000BF1037BD4680BD00BFE0
:1012C0007002002080B584B000AF78600B46FB70E0
:1012D000FB78002219467868FFF7B2FE0346002B20
:1012E00002D04FF0FF331DE0F97800230322786825
:1012F000FFF7D2FE0346002B02D04FF0FF3311E080
:10130000012004F079FE0223FB73FB7BF9780F22A6
:101310007868FFF7C1FE0346002B02D04FF0FF3381
:1013200000E0002318461037BD4680BD80B588B068
:1013300004AF78600B46FB70344B1B78002B01D058
:1013400000235FE0FB7819467868FFF7BBFF034690
:10135000002B02D04FF0FF3354E0052004F04CFE88
:101360000023FB730023BB73142302930123019317
:1013700007F10F030093012300221821786805F07C
:101380000FFC142302930123019307F10E03009332
:10139000012301221821786805F002FC01237B73E8
:1013A000142302930123019307F10D0300930123FA
:1013B00032221821786805F0F9FA0346002B02D092
:1013C0004FF0FF331EE0012004F016FE00237B7374
:1013D000142302930123019307F10D0300930123CA
:1013E00031221821786805F0E1FA0346002B02D07B
:1013F0004FF0FF3306E0022004F0FEFD034B012214
:101400001A70002318461037BD4680BD72020020B6
:1014100080B582B000AF0F4B1B687B600CE07B682F
:101420009B693B607B681B6918460CF017FE786867
:101430000CF014FE3B687B607B68002BEFD1054B02
:1014400000221A60044B00221A6000BF0837BD4614
:1014500080BD00BF740200207802002080B59CB0DF
:1014600000AFF860B9601346FB80FB68002B00F00A
:101470000082BB68002B00F0FC81FB88002B00F091
:10148000F881FB88402B00F2F681FA8807F11403FB
:10149000B96818460EF070F8FB8870333B440022A0
:1014A00003F85C2CFB88013B70333B4413F85C3C35
:1014B0000A2B06D1FB88013B70333B44002203F822
:1014C0005C2C3B7D87F8673097F86730002B00F085
:1014D000D48197F86730502B00F0CF8100F01DFACF
:1014E00038663B6E002B00F0CA81FB88DAB23B6E97
:1014F0001A75FB8818460CF0A9FD03461A463B6E88
:101500001A613B6E1B69002B03D1386E0CF0A6FDEF
:10151000B6E13B6E1B69FA88B96818460EF02CF8E4
:101520003B6E00225A803B6E4FF000025A603B6EC9
:101530004FF000029A603B6E01225A733B6E01220B
:101540001A703B6E00225A703B6E00221A7307F12C
:1015500014031946386E00F06BFA0346002B40F076
:1015600070813B7D87F85F3097F85F30002B03D0A8
:1015700097F85F30502B08D13B6E1B6918460CF072
:101580006DFD386E0CF06AFD7AE10023FB667B7D11
:10159000002B22D007F114030133BB66BB6E1B780E
:1015A0007C2B06D1BB6E0133BB6602E0BB6E013300
:1015B000BB66BB6E1B78002B09D0BB6E1B7801335A
:1015C000B14A13441B7803F00803002BEED1BB6E25
:1015D0001B78002B01D0BB6EFB66F86E00F00CFA96
:1015E00087ED160A97F85F30443B302B00F22081DC
:1015F00001A252F823F000BF21180008311800089A
:101600003118000831180008311800083118000896
:10161000311800083118000821170008291800089F
:101620003118000831180008311800083118000876
:1016300063170008BD160008CB1600083118000813
:1016400031180008E51600083118000831180008A4
:101650003118000831180008311800083118000846
:101660003118000831180008311800083118000836
:101670003118000831180008311800083118000826
:101680003118000831180008311800083118000816
:101690003118000831180008A11700083118000897
:1016A00031180008311800083118000831180008F6
:1016B000E317000831180008071700083B6E0322E3
:1016C0001A703B6E00225A70BBE03B6E01221A700A
:1016D0003B6E01225A703B6E00221A733B6EBA6D4C
:1016E0009A60AEE03B6E01221A703B6E01225A7086
:1016F0003B6E01221A73D7ED167AF0EEE77A3B6E55
:10170000C3ED027A9DE03B6E01221A703B6EFF2210
:101710005A703B6E00221A733B6EBA6D9A6090E06D
:101720003B6E02221A703B6E01225A70D7ED167A78
:10173000F5EE407AF1EE10FA06D0D7ED167AF0EE1B
:10174000E77AF1EE677A01E0FFEE007A3B6EC3EDD7
:10175000017AD7ED167AF0EEE77A3B6EC3ED027AA6
:101760006FE03B6E02221A703B6E01225A70D7ED79
:10177000167AF5EE407AF1EE10FA04D0D7ED167A2B
:10178000F0EEE77A01E0F7EE007A3B6EC3ED017A06
:10179000D7ED167AF0EEE77A3B6EC3ED027A50E0B1
:1017A0003B6E02221A703B6EFF225A70D7ED167AFA
:1017B000F5EE407AF1EE10FA06D0D7ED167AF0EE9B
:1017C000E77AF1EE677A01E0FFEE007A3B6EC3ED57
:1017D000017AD7ED167AF0EEE77A3B6EC3ED027A26
:1017E0002FE03B6E02221A703B6EFF225A70D7ED3B
:1017F000167AF5EE407AF1EE10FA04D0D7ED167AAB
:10180000F0EEE77A01E0F7EE007A3B6EC3ED017A85
:10181000D7ED167AF0EEE77A3B6EC3ED027A10E070
:101820003B6E04221A700CE03B6E05221A7008E031
:101830003B6E1B6918460CF011FC386E0CF00EFC68
:101840001EE0124B1B68002B06D1104A3B6E136042
:101850000F4A3B6E136006E00D4B1B683A6E9A61AF
:101860000B4A3B6E13607222396EF86800F085F8FF
:1018700006E000BF04E000BF02E000BF00E000BFE0
:101880007037BD4680BD00BF902D01087402002056
:101890007802002080B483B000AF0D4B1B687B60E2
:1018A0007B68002B0DD07B689B69094A1360084B4D
:1018B0001B68002B02D1074B00221A607B680022B4
:1018C0009A617B6818460C37BD465DF8047B70470B
:1018D000740200207802002080B582B000AF7860EA
:1018E00039603B68002B14D07B68002B08D03B6824
:1018F0005B7B002B04D066223968786800F03DF8E5
:101900003B681B6918460CF0A9FB38680CF0A6FB75
:1019100000E000BF0837BD4680BD80B582B000AF93
:101920001C200CF093FB03467B607B68002B1FD0D0
:101930007B6801221A707B6800225A707B68002243
:101940005A807B684FF000025A607B684FF00002BB
:101950009A607B6800221A737B6801225A737B6845
:1019600000221A617B6800221A757B6800229A6146
:101970007B6818460837BD4680BD80B586B000AF8D
:10198000F860B9601346FB71FB68002B2ED0BB6872
:10199000002B2BD0BB681B69002B27D0BB681B7D9D
:1019A000012B23D9BB681B7D0133FB82FB8A1846C0
:1019B0000CF04CFB03463B613B69002B18D03B69A4
:1019C000FA791A703B69581CBB681969BB681B7DA2
:1019D0001A460DF0D1FDFA8A4FF0FF333969F868E5
:1019E00008F0A2FA38690CF039FB02E000BF00E011
:1019F00000BF1837BD4680BD80B582B000AF7860AB
:101A00007B68002B03D07B681B78002B02D1DFEDB5
:101A1000077A05E0002178680DF03EFCF0EE407A90
:101A2000B0EE670A0837BD4680BD00BF0000000069
:101A300080B586B000AF786039607B68002B02D03B
:101A40003B68002B01D1002343E00422234938687E
:101A50000DF03DFD0346002B01D0002339E03B682B
:101A600004333B610023FB6007F10C030A22194693
:101A700038690DF0EFFC7861FB68002B07D0FB683C
:101A800017491846FEF7A4FB0346002B01D000239C
:101A90001FE07B69002B01DA00237B617B69114A1F
:101AA000934201DD0F4B7B617B6806221A707B68D5
:101AB00000225A737B6907EE903AF8EEE77A7B686A
:101AC000C3ED027A7B6800225A707B6800221A7389
:101AD000012318461837BD4680BD00BF001F01080E
:101AE000081F010840420F0080B400AF034B1B7871
:101AF000DBB21846BD465DF8047B7047300300201A
:101B000080B400AF034B00221A7000BFBD465DF8E1
:101B1000047B70473003002080B584B000AF194AC1
:101B20003B1D07CA83E807003B1DDFED171A9FED39
:101B3000171ADFED160A9FED160A1946154803F02D
:101B400069F93B1DDFED101A9FED101ADFED0F0A4A
:101B50009FED0F0A1946104803F05CF902F014FAE1
:101B600003460E4A136002F01DFA03460C4A136046
:101B70000C4B01221A700C4806F0F6FB00BF103720
:101B8000BD4680BD0C1F01080AD7233C000020423F
:101B90000000C8427C020020C80200202803002068
:101BA0002C030020000000208C04002080B582B0AF
:101BB00000AF786039607B68002B05D0304B1B6824
:101BC000002B01D0012300E0002303F00103DBB26E
:101BD000002B13D07B68002BCCBF01230023DAB28B
:101BE000274B1B68002BCCBF01230023DBB25340E3
:101BF000DBB2002B02D0234803F06DFA3B68002BC8
:101C000005D0214B1B68002B01D0012300E00023ED
:101C100003F00103DBB2002B13D03B68002BCCBFD9
:101C200001230023DAB2184B1B68002BCCBF012321
:101C30000023DBB25340DBB2002B02D0134803F089
:101C40004AFA7B68002B06D10D4B1B68002B02D093
:101C50000C4803F040FA3B68002B06D10A4B1B6886
:101C6000002B02D0094803F036FA054A7B6813605E
:101C7000054A3B68136000BF0837BD4680BD00BF02
:101C8000140300207C02002018030020C80200205A
:101C900080B500AF02F078F90346064A136002F0FF
:101CA00081F90346044A1360044B01221A7000BFF5
:101CB00080BD00BF280300202C030020000000206E
:101CC00080B58AB000AF02F05FF9386202F06AF9BD
:101CD000F861524B1B683A6AD31ABB61504B1B68C0
:101CE000FA69D31A7B614D4A3B6A13604C4AFB691F
:101CF00013604C4B1B78002B03D04A4B00221A7008
:101D000088E0494ABB691360484A7B691360484BC5
:101D10001B68002B12D1474B1B68002B0ED1464885
:101D200003F0D9F9454803F0D6F9454B00221A7063
:101D3000444B00221A7002F0CFF86BE0BB6907EE4B
:101D4000903AF8EEE77A3A4B1B6807EE103AB8EE95
:101D5000C77AF0EE470AB0EE670A374803F0BEF8DC
:101D600087ED040A7B6907EE903AF8EEE77A314B8B
:101D70001B6807EE103AB8EEC77AF0EE470AB0EEED
:101D8000670A2E4803F0AAF887ED030AD7ED047A14
:101D9000FDEEE77AC7ED017A3B7987F82730D7ED7A
:101DA000037AFDEEE77AC7ED017A3B7987F82630B2
:101DB0000523FB7297F9272097F90B309A4209DA2D
:101DC00097F9272097F90B305B429A4202DD0023F6
:101DD00087F8273097F9262097F90B309A4209DACD
:101DE00097F9262097F90B305B429A4202DD0023D7
:101DF00087F82630124A97F827301370114A97F85F
:101E00002630137097F9262097F927301146184687
:101E100001F092FF2837BD4680BD00BF2803002097
:101E20002C030020000000201C03002020030020C1
:101E300014030020180300207C020020C8020020A8
:101E4000240300202503002080B483B000AF786015
:101E50007B681B68054A934202D1054B01221A7028
:101E600000BF0C37BD465DF8047B7047000C004096
:101E70003003002080B400AF0A4B0B4A1A60094BB4
:101E80006FF400025A60074B074A9A60054B6FF4E3
:101E90000002DA60034B00221A7400BFBD465DF8F1
:101EA000047B704748030020FFFF7F7F80B483B02E
:101EB00000AF87ED010AD7ED017A9FED157AF4EEB8
:101EC000C77AF1EE10FA07DDD7ED017A9FED117AAE
:101ED00077EEC77AC7ED017AD7ED017A9FED0E7ADA
:101EE000F4EEC77AF1EE10FA07D5D7ED017A9FED3F
:101EF000097A77EE877AC7ED017A7B6807EE903A28
:101F0000B0EE670A0C37BD465DF8047B704700BF32
:101F1000000034430000B443000034C380B586B0F1
:101F200000AF7860244B1B68002B40D07B68002BEF
:101F30003DDD4FF000037B6100233B6126E0002381
:101F40007B811D4B18681D4B19781D4B1A7807F1C2
:101F50000A03FFF793F9B7F90A3007EE903AF8EE63
:101F6000E76A184B93ED007AC6EE877AC7ED037ADD
:101F700097ED057AD7ED037A77EE277AC7ED057AE4
:101F8000022004F039F83B6901333B613A697B6810
:101F90009A42D4DB7B6807EE903AB8EEE77AD7ED49
:101FA000056AC6EE877A084BC3ED007A00E000BFF1
:101FB0001837BD4680BD00BF340300203803002021
:101FC0000C000020080000204003002080B584B0F1
:101FD00000AF78603960264A7B6813607868FFF745
:101FE000B5F80346002B03D0224B00221A700BE0F9
:101FF0007868FFF7C1F80346002B03D01D4B012280
:102000001A7001E001F06CFE3B68002B03D0194B05
:102010001A783B681A700223FB73164B1B78FA7B05
:1020200019467868FFF7BEF8134AFB7B1370134B11
:10203000134A1A60134B4FF07F521A60124B4FF045
:1020400000021A600B4B1B7819467868FFF76EF98F
:102050000346002B05D10D4B01221A70FFF70AFF32
:1020600002E00A4B00221A7000BF1037BD4680BD47
:1020700034030020380300200C000020080000205A
:1020800000008342400300203C0300204403002062
:1020900080B586B000AF7860164B1B68002B24D04B
:1020A0007868FFF73BFF144B7B614FF07E533B6139
:1020B000124B1B68FB6097ED047AD7ED037A27EE8D
:1020C000277AF7EE006AD7ED047A76EEE76AD7ED65
:1020D000057A66EEA77A77EE277A084BC3ED007A89
:1020E000074B4FF000021A6000E000BF1837BD46F2
:1020F00080BD00BF34030020B4C8B6BE400300203A
:102100003C03002080B400AF044B1B6807EE903AFC
:10211000B0EE670ABD465DF8047B70473C030020C3
:1021200080B400AF044B4FF000021A6000BFBD4600
:102130005DF8047B704700BF3C03002080B582B08F
:1021400000AF2F4B1B7883F00103DAB22C4B1A70CF
:102150002B4B1B78002B4FD000237B80294B18681A
:10216000294B1978294B1A78BB1CFFF787F8B7F968
:10217000023007EE903AF8EEE76A254B93ED007ACD
:10218000C6EE877AC7ED017A224BD3ED007A97ED40
:10219000017A77EE677AC7ED017AD7ED017A9FED84
:1021A0001E7AF4EEC77AF1EE10FA0BDDD7ED017A64
:1021B0009FED1A7AF4EEC77AF1EE10FA02D54FF0DD
:1021C00000037B60D7ED017A9FED157A27EE877AC1
:1021D000144BD3ED007A27EE277A134BD3ED007A18
:1021E00077EE277AB0EE670AFFF760FEF0EE407AEE
:1021F0000D4BC3ED007A00E000BF0837BD4680BD3F
:102200005C03002034030020380300200C00002071
:102210000800002040030020CDCCCCBECDCCCC3E6D
:102220000AD7A33C040000203C03002080B582B004
:1022300000AF78607B685B8A1946786803F0B9F96B
:1022400000BF0837BD4680BD80B584B000AF786060
:102250007B681B681F4A934238D11F4B1B889BB277
:10226000184601F013F90346FB811C4B1B889BB2F7
:10227000FA899A4209D1194B1B889BB2184601F082
:1022800005F903461A46154B1A80134B1B889BB25F
:102290001A46134B1978134B99540F4AFB89138034
:1022A0000F4B1B780133104A13441B7803F097033C
:1022B000002B06D00A4B1A780C4B1A700C4B0122DB
:1022C0001A70012206490B4807F0B9FE00BF10370B
:1022D000BD4680BD004800402C0700202E0700208E
:1022E000800700202C060020902D010829060020E0
:1022F0002A060020AC05002080B582B000AF7860CF
:102300007B681B68074A934207D1074B00221A805B
:1023100001220649064807F092FE00BF0837BD4675
:1023200080BD00BF004800407007002080070020EB
:10233000AC05002080B58AB000AF7860396000231A
:102340007B62454B3B6277E03B6A01333B623B6A11
:102350001B78002B07D03B6A1B78272B03D03B6AE6
:102360001B78222BF0D13B6A1B78002B6ED03B6A86
:1023700001331B78002B69D03B6A1B78FB763B6AE4
:1023800001331B78BB763B6A0233FA7E114618464E
:102390000DF090F878617B69002B56D07B69013392
:1023A000FB6106E0FB691B785B2B15D0FB690133F1
:1023B000FB61FB691B78002B0FD0FB691B782D2B71
:1023C0000BD0FB691B780133244A13441B7803F0BC
:1023D0000403002BE6D000E000BFFB691B78002B54
:1023E00003D0FB691B785B2B03D17B6901333B6214
:1023F00022E00023FB6007F10C030A221946F8696A
:102400000DF028F83861FB68FA699A4203D17B69BC
:1024100001333B6210E07B6ADB007A681344BA7ECA
:102420001A707B6ADB007A6813443A695A607B6AE7
:1024300001337B62FB683B623B6A1B78002B05D053
:102440007A6A3B689A4282D300E000BF7B6A1846F2
:102450002837BD4680BD00BF10000020902D010828
:1024600080B586B002AF05F01BFFF860FB68BB606B
:102470001A4B5B68013307EE903AB8EE677ABB6897
:1024800007EE903AF8EE676A9FED156AC6EE267A77
:1024900067EE277AC7ED017A40F65613019340F2B2
:1024A000E253009340F2154397ED010A00220B49D5
:1024B0000C4803F031F80B4803F057F80346002BA3
:1024C00004D04FF47A7008F051FEFAE70548FFF7A0
:1024D000ADFE00BF1037BD4680BD00BFD404002054
:1024E000002474490406002080B582B000AF0F4B71
:1024F00001221A7001F0F0FC44F620637B607868DA
:10250000FFF7C6FDFFF70CFE084B00221A70084BC0
:102510004FF000025A60064B4FF000029A60044BE5
:1025200000221A7000BF0837BD4680BD1D0600207E
:102530007407002080B500AF01F0E4FD0021002009
:10254000FFF734FB322001F0E3FC01F0C5FC0D483D
:10255000FFF76CFE0C4B01221A70642008F006FE97
:10256000FFF7DEFD084B00221A70084B4FF0000207
:102570005A60064B4FF000029A60044B00221A701A
:1025800000BF80BD040600201D0600207407002047
:1025900080B500AF0648FFF749FE00210020FFF795
:1025A00005FB01F099FC034B00221A7000BF80BDAF
:1025B000040600201C06002080B5B4B002AF07F16D
:1025C000300310211846FFF7B5FEC7F8BC00002302
:1025D000C7F8C43095E0D7F8C430DB00C8333B44BB
:1025E00013F8983C87F8BB30D7F8C430DB00C83309
:1025F0003B4453F8943CC7F8B43097F8BB30542BA5
:1026000003D097F8BB30742B2DD197F8BB30742BC7
:102610000AD1D7F8B43007EE903AF8EEE77AF0EE48
:10262000E77AF1EE677A07E0D7F8B43007EE903A30
:10263000F8EEE77AF0EEE77AC7ED2C7A97F8BB2050
:102640003846D7F8B43000931346344A30210BF0A3
:102650003BFF3B46184600F0F3FE322097ED2C0A74
:1026600000F064F83EE097F8BB304C2B0BD097F8A5
:10267000BB30522B07D097F8BB306C2B03D097F8A8
:10268000BB30722B37D1D7F8B43007EE903AF8EE62
:10269000E77AF0EEE77AC7ED307AD7ED307AF5EEEB
:1026A000C07AF1EE10FA02D81D4BC7F8C03097F887
:1026B000BB30D7ED307AFDEEE77A17EE902A384638
:1026C0000092184A30210BF0FFFE3B46184600F0FE
:1026D000B7FE97F8BB30322197ED300A184600F06C
:1026E00059F800BF1048FFF7A1FD01F0F5FB1420D9
:1026F00008F03CFD00E000BFD7F8C4300133C7F854
:10270000C430D7F8C420D7F8BC309A42FFF463AF86
:1027100000BF00BFC837BD4680BD00BF481F0108CD
:102720000000B442581F01080406002080B582B0A2
:1027300000AF87ED010A3860D7ED017AF5EE407AF7
:10274000F1EE10FA20D0D7ED017AF5EEC07AF1EE75
:1027500010FA01DB542200E074220D4B1A7097ED41
:10276000010A01F0F7FC00F0F5FE094B00221A7097
:1027700000210020FFF71AFA3B689BB2184601F0CF
:10278000C7FB01F0A9FB00E000BF0837BD4680BDD4
:102790001C06002090B585B000AF034687ED020A05
:1027A0007960FB73104AFB7B1370FC7BB868FDF704
:1027B000DBFE02460B4643EC102B204601F086FD63
:1027C00000F0C8FE084B00221A7000210020FFF71D
:1027D000EDF97B689BB2184601F09AFB01F07CFB97
:1027E00000BF1437BD4690BD1C06002080B582B0E6
:1027F00000AF03F08FFB00F095F800F02BFC00F029
:10280000C5F900F033FB00F019F900F06BF900F0A6
:102810003FFA00F08BFA00F0E3F800F0F1FB00F073
:1028200093FB02F069FA01F061FAFFF775F94FF4D2
:1028300000422949294802F0D5FC0023FB70FB1C0B
:1028400019462748FFF7C2FBFFF76AFC254B4FF0FC
:1028500000025A60234B4FF000029A60214B002285
:102860001A70FEF7D5FD01221F49204807F0E7FB4B
:102870001F4B7B607868FDF70BFD03469AB24FF063
:10288000FF337968194807F04FFB08F093FB194AAA
:102890000021194808F0D8FB0346184A1360184A6B
:1028A0000021184808F0D0FB0346174A1360174A66
:1028B0000021174808F0C8FB0346164A1360164A61
:1028C0000021164808F0C0FB0346154A136008F0C3
:1028D00095FB00BFFDE700BF000402406405002037
:1028E000600300207407002080070020AC05002052
:1028F0006C1F01085C200108D9390008F40500208C
:1029000080200108B13A0008F8050020A420010841
:10291000D93A0008FC050020C8200108A13C0008A5
:102920000006002080B594B000AF07F120033022EC
:10293000002118460CF0B6FD07F10C0300221A60C6
:102940005A609A60DA601A610023BB60224B1B6CEC
:10295000214A43F0805313641F4B1B6C03F08053D8
:10296000BB60BB6800237B601C4B1B681B4A43F4A5
:1029700080431360194B1B6803F480437B607B68C2
:1029800002233B620123FB6210233B630023BB63F2
:1029900007F12003184605F03FF80346002B01D04D
:1029A00001F09EF90F23FB6000233B6100237B6154
:1029B0000023BB610023FB6107F10C0300211846D3
:1029C00005F0A2FA0346002B01D001F089F900BFFF
:1029D0005037BD4680BD00BF003802400070004047
:1029E00080B500AF124B134A1A60114B124A5A605D
:1029F0000F4B00229A600E4B0022DA600C4B4FF412
:102A000080421A610A4B00225A61094B00229A61E6
:102A1000074B0022DA61064B00221A62044803F0D9
:102A200081FE0346002B01D001F05AF900BF80BDA2
:102A30006003002000580040A086010080B58CB0E3
:102A400000AF07F10C032422002118460CF02AFDE8
:102A50003B1D00221A605A60214B4FF080421A60E1
:102A60001F4B00225A601E4B00229A601C4B4FF6EF
:102A7000FF72DA601A4B00221A61194B00229A6128
:102A80000323FB6000233B6101237B610023BB61C7
:102A90000A23FB6100233B6201237B620023BB62AC
:102AA0000A23FB6207F10C0319460D4806F01EF8D5
:102AB0000346002B01D001F013F900237B600023B3
:102AC000BB603B1D1946064807F0FCF80346002B87
:102AD00001D001F005F900BF3037BD4680BD00BF11
:102AE000B403002080B58CB000AF07F10C032422A2
:102AF000002118460CF0D6FC3B1D00221A605A60DB
:102B0000204B214A1A601F4B00225A601D4B0022A5
:102B10009A601C4B4FF6FF72DA601A4B00221A6162
:102B2000184B00229A610323FB6000233B610123C1
:102B30007B610023BB610A23FB6100233B6201230D
:102B40007B620023BB620A23FB6207F10C03194678
:102B50000C4805F0CBFF0346002B01D001F0C0F874
:102B600000237B600023BB603B1D1946054807F02E
:102B7000A9F80346002B01D001F0B2F800BF3037AE
:102B8000BD4680BDFC0300200004004080B58EB02F
:102B900000AF07F1280300221A605A609A60DA60D9
:102BA00007F1200300221A605A603B1D00221A60C0
:102BB0005A609A60DA601A615A619A61324B334AFC
:102BC0001A60314B00225A602F4B00229A602E4B24
:102BD00040F21F32DA602C4B00221A612A4B80220D
:102BE0009A61294805F070FB0346002B01D001F0E3
:102BF00077F84FF48053BB6207F128031946224847
:102C000006F0F6FA0346002B01D001F069F81E48E1
:102C100005F01AFC0346002B01D001F061F82023D7
:102C20003B6200237B6207F120031946164807F038
:102C300049F80346002B01D001F052F860237B6075
:102C40000023BB600023FB6000237B613B1D082247
:102C500019460D4806F00AFA0346002B01D001F090
:102C60003FF83B1D0C221946074806F0FFF90346C2
:102C7000002B01D001F034F8034802F015FF00BF2B
:102C80003837BD4680BD00BF440400200008004026
:102C900080B586B000AF07F1080300221A605A60C1
:102CA0009A60DA603B4600221A605A601D4B1E4A49
:102CB0001A601C4B40F23F625A601A4B00229A6025
:102CC000184B6322DA60174B00221A61154B002261
:102CD0009A61144805F0F8FA0346002B01D000F081
:102CE000FFFF4FF48053BB6007F1080319460D48FE
:102CF00006F07EFA0346002B01D000F0F1FF00231E
:102D00003B6000237B603B461946064806F0DAFF2D
:102D10000346002B01D000F0E3FF00BF1837BD468B
:102D200080BD00BF8C040020000C004080B596B030
:102D300000AF07F1480300221A605A609A60DA6017
:102D400007F1400300221A605A6007F124030022B1
:102D50001A605A609A60DA601A615A619A613B1D82
:102D60002022002118460CF09DFB3E4B3E4A1A6083
:102D70003C4B0F225A603B4B00229A60394B44F681
:102D80001F62DA60374B00221A61364B00225A610B
:102D9000344B80229A61334805F096FA0346002BA3
:102DA00001D000F09DFF4FF48053BB6407F148034E
:102DB00019462C4806F01CFA0346002B01D000F0FF
:102DC0008FFF284805F040FB0346002B01D000F0A0
:102DD00087FF00233B6400237B6407F1400319460F
:102DE000204806F06FFF0346002B01D000F078FF6B
:102DF00060237B620023BB620023FB6200233B63F2
:102E000000237B630023BB630023FB6307F12403E0
:102E100000221946134806F029F90346002B01D079
:102E200000F05EFF00237B600023BB600023FB609B
:102E300000233B6100237B614FF40053BB610023FF
:102E40003B623B1D1946074806F0B8FF0346002BBE
:102E500001D000F045FF034802F026FE00BF5837BE
:102E6000BD4680BDD40400200004014080B58CB074
:102E700000AF07F1200300221A605A609A60DA60FE
:102E80003B1D00221A605A609A60DA601A615A612A
:102E90009A612B4B2B4A1A60294B00225A60284B0F
:102EA00000229A60264B40F21F32DA60244B002247
:102EB0001A61234B80229A61214805F005FA0346E6
:102EC000002B01D000F00CFF4FF480533B6207F160
:102ED000200319461A4806F08BF90346002B01D04F
:102EE00000F0FEFE164805F0AFFA0346002B01D0B5
:102EF00000F0F6FE60237B600023BB600023FB60D4
:102F000000237B613B1D002219460D4806F0AEF8F8
:102F10000346002B01D000F0E3FE3B1D04221946BE
:102F2000074806F0A3F80346002B01D000F0D8FEB6
:102F3000034802F0B9FD00BF3037BD4680BD00BF79
:102F40001C0500200040014080B588B000AF07F1AB
:102F5000100300221A605A609A60DA603B46002231
:102F60001A605A609A60DA60234B244A1A60224B36
:102F70000F225A60204B00229A601F4B4FF6FF72BF
:102F8000DA601D4B00221A611B4B00229A611A481D
:102F900005F09AF90346002B01D000F0A1FE4FF492
:102FA00080533B6107F110031946134806F020F9DE
:102FB0000346002B01D000F093FE0F4805F066FB9E
:102FC0000346002B01D000F08BFE0A233B60012357
:102FD0007B600023BB600023FB603B460022194658
:102FE000054805F0A7FF0346002B01D000F078FE4E
:102FF00000BF2037BD4680BD64050020001800409A
:1030000080B500AF114B124A1A60104B4FF4E132F9
:103010005A600E4B00229A600C4B0022DA600B4B78
:1030200000221A61094B0C225A61084B00229A6156
:10303000064B0022DA61054806F026FF0346002B06
:1030400001D000F04DFE00BF80BD00BFAC050020E8
:103050000048004080B58AB000AF07F11403002299
:103060001A605A609A60DA601A6100233B61494B2A
:103070001B6B484A43F010031363464B1B6B03F072
:1030800010033B613B690023FB60424B1B6B414AD1
:1030900043F0020313633F4B1B6B03F00203FB601F
:1030A000FB680023BB603B4B1B6B3A4A43F00803B1
:1030B0001363384B1B6B03F00803BB60BB68002332
:1030C0007B60344B1B6B334A43F004031363314B77
:1030D0001B6B03F004037B607B6800233B602D4B7C
:1030E0001B6B2C4A43F0010313632A4B1B6B03F049
:1030F00001033B603B6800224FF48071264803F0D7
:10310000F7FA00224FF40041244803F0F1FA0022BC
:103110004FF4F041224803F0EBFA4FF480737B61E7
:103120000123BB610023FB6100233B6207F1140311
:103130001946194803F028F94FF400437B61012335
:10314000BB610023FB6100233B6207F114031946B6
:10315000124803F019F94FF4F0437B610123BB617E
:103160000023FB6100233B6207F1140319460C485E
:1031700003F00AF901237B610023BB610023FB619B
:1031800007F114031946044803F0FEF800BF28377E
:10319000BD4680BD003802400010024000040240DD
:1031A000000C024080B500AF01F082FC094A00210A
:1031B000002001F06FFD084A1821002001F06AFD8F
:1031C000064A3021002001F065FD01F0EBFB00BF55
:1031D00080BD00BF801F01088C1F0108981F0108D7
:1031E00080B58CB004AFF860B9607A6087ED000AF2
:1031F000D7ED007AB2EE047A67EE877A97ED007A1F
:10320000B5EEC07AF1EE10FA02DBB6EE007A01E01C
:10321000BEEE007A77EE277AFDEEE77A17EE903A67
:10322000FB61FB69002B02DA4FF0FF3300E0012362
:10323000BB61FB69002B02DAFB695B42FB61FB6946
:10324000144A82FB03129210DB17D31A7B61FA69CE
:10325000104B83FB02139910D317C91A0B469B001E
:103260000B445B00D31A3B61BB69002B01DA2D23B1
:1032700000E020233A6902927A69019200937B6808
:10328000054AB968F8680BF01FF900BF2037BD4642
:1032900080BD00BF67666666A41F010880B58EB05A
:1032A00002AF87ED010AC7ED000A01F001FC5A4A9E
:1032B0000021002001F0EEFCD7ED017AF0EEE77A74
:1032C0009FED567AF4EEC77AF1EE10FA09DD07F1B8
:1032D000080397ED010A524A15211846FFF780FFAF
:1032E00006E007F108034F4A152118460BF0ECF8E9
:1032F00007F108031A461021002001F0CBFCD7ED9E
:10330000007AF0EEE77A9FED457AF4EEC77AF1EEB7
:1033100010FA09DD07F1080397ED000A424A15216A
:103320001846FFF75DFF06E007F108033F4A152145
:1033300018460BF0C9F807F108031A4620210020AF
:1033400001F0A8FCD7ED017AF0EEE77A9FED337A31
:10335000F4EEC77AF1EE10FA49DDD7ED007AF0EE1F
:10336000E77A9FED2E7AF4EEC77AF1EE10FA3EDDA1
:10337000D7ED016A97ED007AC6EE877AC7ED0B7A32
:10338000D7ED0B7A9FED2A7A67EE877A97ED0B7A65
:10339000B5EEC07AF1EE10FA02DBB6EE007A01E08B
:1033A000BEEE007A77EE277AFDEEE77A17EE903AD6
:1033B000BB62BB6A1F4A82FB03125211DB17D31A8E
:1033C0007B62BB6A1B4A82FB03125111DA178A1A0D
:1033D000642101FB02F29B1A3B6207F108003B6A81
:1033E00000937B6A144A15210BF06EF806E007F192
:1033F0000803124A152118460BF066F807F1080376
:103400001A463021002001F045FC01F0CBFA00BF44
:103410003037BD4680BD00BFB41F01080AD7233C2A
:10342000C41F0108CC1F0108DC1F0108E41F0108AC
:103430000000C8421F85EB51F41F01080420010859
:1034400080B584B000AF78607B68002B15D07868B9
:10345000FCF71EFFF860FB68002B10D0FB68B3F58B
:10346000803F02D34FF6FF73FB60FB689AB2642380
:103470007968054806F058FD02E000BF00E000BF93
:103480001037BD4680BD00BFAC05002080B483B0BE
:1034900000AF0346FB80FB8801339BB2DBB29BB2DB
:1034A00018460C37BD465DF8047B704780B582B086
:1034B00000AF35E0214B1B889BB21A46204B9B5C2A
:1034C000FB711E4B1B889BB21846FFF7DFFF0346BC
:1034D0001A461A4B1A80FB790D2B20D0194B1B88EA
:1034E0003F2B0DD8174B1B885A1C91B2154A1180DF
:1034F0001946154AFB795354FB790A2B10D103E086
:10350000104B00221A800BE00E4B1B881A460E4906
:103510000E48FDF7A3FF0B4B00221A8000E000BF0E
:10352000064B1B889AB20A4B1B889BB29A42C1D1A8
:1035300000BF00BF0837BD4680BD00BF2E0700207A
:103540002C0600207007002030070020AC0500206A
:103550002C07002080B500AF04E0052007F006FE30
:10356000FFF7A4FF00F0C2FD0346002BF5D100BF1A
:1035700000BF80BD80B483B000AF78607B68002B53
:1035800001D14C231BE07B6893F90130002B0BDA4F
:103590007B68D3ED017AF5EEC07AF1EE10FA01DB2B
:1035A00072230CE06C230AE07B68D3ED017AF5EE20
:1035B000C07AF1EE10FA01DB522300E04C231846EA
:1035C0000C37BD465DF8047B7047000080B584B0C1
:1035D00000AF78607B68002B01D1002366E07B6838
:1035E0001B78013B052B4BD801A252F823F000BFFA
:1035F000173600080D360008093600087536000831
:10360000793600087D36000853234FE07868FFF7CD
:10361000B1FF03464AE07B681B7B052B28D801A23B
:1036200052F823F03D3600084F3600086136000896
:1036300065360008693600086D3600087B6893F926
:103640000130002B01DA742330E054232EE07B6834
:1036500093F90130002B01DA772327E0572325E087
:103660004C2323E0522321E06C231FE072231DE052
:1036700000BF06E0442319E04D2317E0432315E083
:1036800000BF7B681B69002B0FD07B681B7D002B64
:103690000BD07B681B691B78FB73FB7B002B04D072
:1036A000FB7B0A2B01D0FB7B00E000231846103780
:1036B000BD4680BD90B58FB000AF78607B68002BB1
:1036C00000F07A817868FFF781FF034687F82D3094
:1036D000BB4A97F82D3013707B681B78013B052B94
:1036E00000F2568101A252F823F000BF873700088C
:1036F0000F37000805370008913900089139000894
:103700003B39000800F0FEFC00F0E6FB47E178687A
:10371000FFF730FF034687F827307B68D3ED027A46
:10372000F0EEE77AC7ED0D7AD7ED0D7AF5EEC07AB7
:10373000F1EE10FA06D87B68D3ED017AF0EEE77A65
:10374000C7ED0D7AD7ED0D7AF5EEC07AF1EE10FAED
:1037500001D89C4B7B6397F82740786BFCF704FFFC
:1037600002460B4643EC102B204600F0AFFDFFF75E
:10377000F1FE00210020FEF719FA322000F0C8FB0C
:1037800000F0AAFB0BE17B681B7B002B29D17B6837
:10379000D3ED027AF0EEE77AC7ED0C7AD7ED0C7A2A
:1037A000F5EEC07AF1EE10FA40F2F4807B6893F9FE
:1037B0000130002B05DAD7ED0C7AF1EE677AC7ED10
:1037C0000C7A97ED0C0A00F0C5FCFFF7C3FE002150
:1037D0000020FEF7EBF9322000F09AFB00F07CFBB2
:1037E000DAE07B681B7B012B40F0D6807B68D3ED51
:1037F000027AF0EEE77AC7ED087AD7ED087AF5EEAF
:10380000C07AF1EE10FA40F2C9806F4BFB6197ED80
:10381000080A00F09FFC002387F82F30002387F868
:103820002E303BE00A2007F0A1FCFFF73FFE01F03D
:10383000EDFC322007F09AFC01F054FD87ED060AFA
:10384000D7ED067AF5EEC07AF1EE10FA23DD97EDAA
:10385000067AD7ED077AB4EEE77AF1EE10FA1AD5C8
:1038600097F82F30013387F82F3097F82F30012B3E
:1038700014D900F047FC5548FEF7D8FC322007F079
:1038800075FC00210020FEF791F900F025FB0123D3
:1038900087F82E3007E0002387F82F3000F026FC51
:1038A0000346002BBED197F82E30002B0BD1FFF72B
:1038B00051FE00210020FEF779F9322000F028FBAC
:1038C00000F00AFB68E04FF47A637B616FF002035B
:1038D0003B6102F085FBF86039693869FEF766F9EB
:1038E0003C2007F043FCFFF7E1FD01F08FFC3220A4
:1038F00007F03CFC01F0F6FC87ED020A97ED027A36
:10390000D7ED077AB4EEE77AF1EE10FA08DC02F0B0
:1039100067FB0246FB68D31A7A699A4202D3DFE753
:1039200000BF00E000BF00210020FEF73FF9322079
:1039300000F0EEFA00F0D0FA2EE000F0E3FB0021F8
:103940000020FEF733F9322000F0E2FA00F0C4FA6A
:103950001E48FEF76BFC1E4B01221A70642007F014
:1039600005FC4FF4FA63BB62B86AFEF791FBFEF701
:10397000D7FB174B00221A70164B4FF000025A600B
:10398000144B4FF000029A60124B00221A7006E0AE
:1039900000BF04E000BF02E000BF00E000BF084B32
:1039A00000221A700948FEF741FC00210020FEF7B2
:1039B000FDF800F091FA00E000BF3C37BD4690BD35
:1039C0001C0600200000B4420000C841040600208C
:1039D0001D0600207407002080B584B000AF786019
:1039E000FEF73EFDFEF7D4FDFEF77EFD02F058FA2D
:1039F0000346FB730023BB7301237B73FFF756FD64
:103A000002F04EFA03463B73FB7B002B04D13B7B59
:103A1000002B01D00123BB733B7BFB73BB7B002BD3
:103A200014D000F063FB0346002B0FD17B7B002BEF
:103A300005D1FEF759FDFEF7ABFD01237B73FEF7C1
:103A4000BBFDFEF7A5FD0023BB732CE000F04EFB91
:103A50000346002B03D0052007F088FB23E0FDF789
:103A600019FFB860BB68002B03D1052007F07EFB6F
:103A700019E00D4B1B78002B06D10B4B01221A705D
:103A8000FEF758FDFFF712FDB868FFF713FE05209B
:103A900007F06CFBB9680548FDF71EFFFFF706FD50
:103AA000052007F063FBA9E71E060020AC050020F7
:103AB00080B582B000AF7860FEF716F80346002BA1
:103AC00005D0FEF7FDF800F0CDFCFEF719F8012057
:103AD00007F04CFBF0E7000080B592B002AF7860D1
:103AE00002F07EFAF863002387F83B30FFF75AFBB9
:103AF000604B1B7887F8333097F83330002B16D0A3
:103B000097F83B30002B0ED15B4BD3ED007A5B4B2B
:103B100093ED007AF0EE470AB0EE670AFFF7BEFBBE
:103B2000012387F83B30322007F020FBA1E097F813
:103B30003B30002B07D0002387F83B30FFF732FBE8
:103B400002F04EFAF86302F04BFAF862FA6AFB6B85
:103B5000D31AC72B40F28A80FB6AFB6301F056FB45
:103B6000322007F003FB01F0BDFB87ED0A0AD7ED19
:103B70000A7AB2EE047A67EE877A97ED0A7AB5EEA2
:103B8000C07AF1EE10FA02DBB6EE007A01E0BEEE8A
:103B9000007A77EE277AFDEEE77A17EE903A7B63AC
:103BA0007B6B002B01DA00237B637B6B344A82FB47
:103BB00003129210DB17D31A7B627A6B304B83FBB4
:103BC00002139910D317C91A0B469B000B445B00D4
:103BD000D31A3B6207F10C003B6A00937B6A294AC7
:103BE00010210AF071FC284A0021482001F052F807
:103BF00007F10C031A460021482001F04BF8234B33
:103C00001B78FB77224B1B78BB77FB7F002B0DD0FB
:103C1000204A1821482001F03DF8BA7F0123009383
:103C20000C231821482000F0C3FF04E01A4A182191
:103C3000482001F02FF8194B1B787B777B7F002BF6
:103C40000DD0144A3021302001F024F87A7F01236E
:103C500000930C233021302000F0AAFF04E00E4A2C
:103C60003021302001F016F800F09CFE052007F00E
:103C70007DFA3DE7280600202006002024060020CB
:103C800067666666142001081C2001082A060020C9
:103C90002906002024200108282001081C060020F5
:103CA00080B586B000AF78600023FB7532233B619E
:103CB0000023FB60FFF7FAFB02F092F9B860FB7D8E
:103CC000002B06D10548FFF7BBFB0123FB75BB6842
:103CD000FB60052007F04AFAECE700BF2C20010842
:103CE00080B400AF72B600BF00BFFDE780B500AF83
:103CF0000C210D4804F002FC08210B4804F0FEFBE7
:103D000000210A4804F0FAFB0421084804F0F6FBFD
:103D10003C21074804F090FF3C21064804F08CFF4A
:103D200000F0DAF800BF80BD440400201C0500202C
:103D3000B4030020FC03002080B489B000AF034628
:103D40000A46FB711346BB7197F90730642B01DDFE
:103D50006423FB7197F9073013F1640F01DA9C2398
:103D6000FB7197F90630642B01DD6423BB7197F971
:103D7000063013F1640F01DA9C23BB71514B1B68B1
:103D8000DB6AFB61504B1B68DB6ABB6197F907304C
:103D9000002B08D14B4B1B6800221A64494B1B684F
:103DA0000022DA633DE097F9073007EE903AF8EE2B
:103DB000E77AB0EEE77ADFED456AC7EE267A9FED47
:103DC000447A67EE877A9FED437A77EE877AC7ED7C
:103DD000057AFB69013307EE903AB8EE677AD7EDC2
:103DE000057A27EE277ADFED396AC7EE267AFCEEF0
:103DF000E77A17EE903A3B6197F90730002B08DD20
:103E0000304B1B683A691A642E4B1B680022DA6338
:103E100007E02C4B1B6800221A642A4B1B683A6986
:103E2000DA6397F90630002B08D1274B1B68002274
:103E30005A63254B1B6800229A633DE097F90630D0
:103E400007EE903AF8EEE77AB0EEE77ADFED1F6A18
:103E5000C7EE267A9FED1E7A67EE877A9FED1D7A70
:103E600077EE877AC7ED037ABB69013307EE903AA4
:103E7000B8EE677AD7ED037A27EE277ADFED136A7B
:103E8000C7EE267AFCEEE77A17EE903ABB6097F918
:103E90000630002B08DD0C4B1B6800225A630A4BCE
:103EA0001B68BA689A6307E0074B1B68BA685A63D5
:103EB000054B1B6800229A6300BF2437BD465DF89E
:103EC000047B7047440400201C0500200000C84209
:103ED000000038420000584280B400AF0A4B1B6813
:103EE0000022DA63084B1B6800221A64074B1B6828
:103EF00000225A63054B1B6800229A6300BFBD462F
:103F00005DF8047B704700BF440400201C050020BE
:103F100080B584B000AF0346FB80194B1B68DB6A99
:103F2000FB60184B1B68DB6ABB60154B1B68FA68AB
:103F30001A64134B1B68FA68DA63124B1B68BA6881
:103F40005A63104B1B68BA689A63FB88002B03D036
:103F5000FB88184602F050F8094B1B680022DA6310
:103F6000074B1B6800221A64064B1B6800225A6329
:103F7000044B1B6800229A6300BF1037BD4680BD0A
:103F8000440400201C05002080B400AF044B1B68D3
:103F90005B6A1BB21846BD465DF8047B704700BFE4
:103FA000B403002080B400AF044B1B685B6A1BB2F3
:103FB0005B421846BD465DF8047B7047FC03002059
:103FC00080B400AF064B1B6800225A62054B1B6889
:103FD00000225A6200BFBD465DF8047B704700BFF7
:103FE000B4030020FC03002080B582B000AF7860ED
:103FF0007B685B8A1946786801F0DBFA00BF0837F6
:10400000BD4680BD80B400AF074B1B78002B01D1AB
:10401000064B00E0064B07EE903AB0EE670ABD464D
:104020005DF8047B704700BFB0070020CDCCB542DF
:104030000000C84280B400AF074B1B78002B01D1B1
:10404000064B00E0064B07EE903AB0EE670ABD461D
:104050005DF8047B704700BFB0070020E926E13F10
:104060000000A04080B584B000AF87ED010A0D4B81
:10407000D3ED087A97ED017A77EE677AF0EEE77A7A
:10408000C7ED037AD7ED037A77EEA77AC7ED027A08
:1040900097ED020A0DF0F8FE034618461037BD46AC
:1040A00080BD00BF8407002080B582B000AF0D4BFB
:1040B00093F91030002B02DD4FF4C86301E040F2A9
:1040C000AA53FB80FB881946074801F072FA054B9A
:1040D000012283F82820034B05225A8500BF0837A8
:1040E000BD4680BD840700200406002080B400AFD8
:1040F000034B1B781846BD465DF8047B704700BF34
:104100008407002080B500AF104B1B78002B1AD01D
:104110000E4B00221A700D4B00225A700021002015
:10412000FDF744FDFFF7D8FE084B002283F8282056
:10413000064B00225A85054B4FF000021A620448D4
:10414000FFF752FF00E000BF80BD00BF84070020E2
:104150000406002080B588B000AF87ED010AFFF7A4
:104160002FFFFDF795FDFDF7DBFF524B00221A7084
:10417000504B01225A70D7ED017AF5EEC07AF1EE7C
:1041800010FA01DB012201E04FF0FF32494B9A7037
:10419000484B002283F82820464B00225A85464887
:1041A000FFF722FF9FED450AFFF75CFF78617B690F
:1041B000002B02D0786906F0D9FF3E4B4FF0000289
:1041C0001A62D7ED017AF0EEE77A9FED3D7A67EE5D
:1041D000877AB0EE670A0DF057FE0346354A536002
:1041E000344B5B68092B60DD364BD3ED007AF5EE7E
:1041F000C07AF1EE10FA02D54FF0000301E0314B26
:104200001B683B61304BD3ED007AF5EEC07AF1EEDE
:1042100010FA02D54FF0000301E02B4B1B68FB6046
:104220009FED277AD7ED047A67EE277AB0EE670A1A
:104230000DF02AFEF8619FED227AD7ED037A67EE42
:10424000277AB0EE670A0DF01FFEB861FB69002BFC
:1042500001DA0023FB61BB69002B01DA0023BB619B
:10426000144B5A68F969BB690B449A420CDC114B38
:104270005B68DA0F13445B101A460E4B9A600D4BC5
:104280009B680C4AD36008E00A4AFB699360094BBB
:104290005A68BB69D31A074AD36000210020FDF792
:1042A00085FC044B01221A7000E000BF2037BD4698
:1042B00080BD00BF8407002004060020000000002D
:1042C00049799642680000206C00002080B588B0D3
:1042D00000AF034687ED000AFB71FFF771FEFDF7A3
:1042E000D7FCFDF71DFF5A4B02225A70584B002293
:1042F0001A70574B002283F82820554B00225A850C
:10430000FB794C2B06D1524B01221A74504B0122DF
:104310005A7419E0FB79522B06D14D4BFF221A74C7
:104320004B4B01225A740FE0FB796C2B06D1484BA2
:1043300001221A74464BFF225A7405E0444BFF22B7
:104340001A74434BFF225A74D7ED007AF0EEE77AE5
:10435000C7ED077AD7ED077A9FED3E7AF4EEC77A7C
:10436000F1EE10FA01D83C4BFB61394B93F9103058
:1043700007EE903AF8EEE77A97ED077A67EE277A3C
:10438000C7ED067A324B93F91130002B05DAD7EDE1
:10439000067AF1EE677AC7ED067A2D4ABB6953615A
:1043A000FFF730FE87ED050A294B93F91030002BFB
:1043B00004DDD7ED057AF1EE677A01E0D7ED057AF5
:1043C000C7ED047A00210020FDF7F0FBFFF784FD24
:1043D00097ED040A214801F037F997ED040AFFF739
:1043E00041FEF860FB68002B02D0F86806F0BEFEC4
:1043F000174A3B691362164B4FF000029A61144B47
:104400004FF00002DA61164B1A88114BDA84104B18
:10441000DA8C0F4B9A8400210020FDF7C7FB0C4B70
:1044200001221A700A4B93F911301A4613465B00A9
:104430001A44074B93F9113019460B465B000B44A5
:1044400019461046FDF7B2FB00BF2037BD4680BDC0
:10445000840700200AD7233C0000B4420406002051
:104460007000002080B59CB000AFFDF767FEBD4B2B
:104470001B78002B20D1BB4B93F82830002B00F089
:104480008482B84B5B8D002B05D0B64B5B8D013B16
:104490009AB2B44B5A85B34B5B8D002B40F07582BA
:1044A000B148FFF7A1FDAF4B4FF000021A62AD4BD0
:1044B000002283F8282068E2FDF724FE87ED0F0A2A
:1044C000A84B5B78022B40F07481A64BD3ED077AA2
:1044D00097ED0F7A77EE677AC7ED1B7AD7ED1B7AE7
:1044E0009FEDA27AF4EEC77AF1EE10FA08DDD7ED6F
:1044F0001B7A9FED9F7A77EEC77AC7ED1B7A10E0A3
:10450000D7ED1B7A9FED9B7AF4EEC77AF1EE10FAA5
:1045100007D5D7ED1B7A9FED967A77EE877AC7EDB0
:104520001B7A904B93ED067AD7ED1B7A77EE277ABC
:104530008C4BC3ED067A8B4AFB6BD361894BD3ED71
:10454000087AB0EE670A884801F07EF8854B93ED53
:10455000057A844BD3ED067A77EE677AC7ED077A52
:10456000804BD3ED057AF0EEE77AC7ED067A7D4B06
:10457000D3ED067AF0EEE77AC7ED057AD7ED077A44
:10458000F0EEE77A9FED7C7AF4EEC77AF1EE10FA5E
:104590000FD9D7ED067AF5EEC07AF1EE10FA1ADDF2
:1045A00097ED057AD7ED067AB4EEE77AF1EE10FAD8
:1045B00011DB6C4B00221A706A4B00225A700021EA
:1045C0000020FDF7F3FA3220FFF7A2FCFFF784FC8E
:1045D000FFF76AFDDAE1D7ED077AF0EEE77AC7ED8B
:1045E000047A604B9B8C002B5CD05E4BDB8C7B8118
:1045F0007B89002B05D11423BB665A4B00229A8479
:1046000075E0584B9B8C7A89D31A3B813B8907EE26
:10461000903AF8EE677AB7EE007A77EE876A7B8990
:1046200007EE903AB8EE677AC6EE877AC7ED197A48
:10463000D7ED197AB7EE007AF4EEC77AF1EE10FAF8
:1046400002DD4FF07E537B66D7ED197AB3EE017A27
:1046500067EE877AB0EE087A77EE877AC7ED187A38
:10466000D7ED187AB0EE087AF4EEC77AF1EE10FAC8
:1046700001D5424B3B66D7ED187AB3EE047AF4EEDF
:10468000C77AF1EE10FA01DD3D4B3B6697ED180A53
:104690000DF0FAFBB866334B9B8C013B9AB2314B61
:1046A0009A8424E01423BB66D7ED047AB2EE087A2C
:1046B000F4EEC77AF1EE10FA19D597ED047AF2EE1E
:1046C000086AC7EE267AC7ED037AD7ED037AB3EE10
:1046D000047A67EE877AB0EE670A0DF0D5FBF865CD
:1046E000FB6D022B01DC0323FB65FB6DBB66BB6E20
:1046F000BB65BB6D022B01DC0323BB65FFF79AFC96
:1047000087ED150AD7ED157AB7EE007AF4EEC77A81
:10471000F1EE10FA02D54FF07E537B65BB6D07EECC
:10472000903AB8EEE77AD7ED157A67EE277AB0EED1
:10473000670A0DF0A9FB38653B6D022B01DC0323F2
:104740003B65084B93F91030002B01DDBB6D00E099
:104750003B6D7B60034B93F91030002B12DD3B6DFA
:1047600011E000BF8407002004060020000034434D
:104770000000B443000034C3CDCC4C3E00004040A8
:104780000000A041BB6D3B60824B93F911301A468B
:104790007B6802FB03F37B607E4B93F911301A4672
:1047A0003B6802FB03F33B6039687868FDF7FEF96C
:1047B000ECE0784AFB6BD361FFF7E6FBB863FFF7E9
:1047C000F1FB7863BB6B83EAE372A2EBE3727B6B72
:1047D000002BB8BF5B421344DA0F13445B103B63FA
:1047E0006C4B5B683A6B9A420CDB6A4B00221A7086
:1047F00000210020FDF7DAF95020FFF789FBFFF7D1
:104800006BFBC3E0634B9B683A6B9A421BDA3B6BD2
:1048100007EE903AF8EEE76A5E4B9B6807EE903A37
:10482000B8EEE77AC6EE877AC7ED0A7AD7ED0A7A4C
:10483000B3EE0B7A67EE877AB0EE087A77EE877A76
:10484000C7ED137A28E0534BDB683A6B9A4221DDBF
:10485000504B5A683B6BD31A07EE903AF8EEE76A72
:104860004C4B5A684B4BDB68D31A07EE903AB8EEC4
:10487000E77AC6EE877AC7ED0B7AD7ED0B7AB3EEFF
:104880000B7A67EE877AB0EE087A77EE877AC7ED13
:10489000137A01E0404BFB64D7ED137AB0EE087A4F
:1048A000F4EEC77AF1EE10FA01D53C4BFB64394BBC
:1048B0005A683B6BD31ABB64BB6C002B01DA002334
:1048C000BB6497ED130A0DF0DFFA78647A6CBB6C69
:1048D0009A4201DDBB6C7B647B6C002B01DA002308
:1048E0007B647B6C002B04D1BB6C002B01DD0123AE
:1048F0007B64D7ED0F7AF1EE677A9FED297A67EE48
:10490000877AB0EE670A0DF0BFFA3864214B93F94D
:104910000230002B02DA3B6C5B423B647B6CDA0FAB
:1049200013445B101A463B6C934204DD7B6CDA0F38
:1049300013445B103B647B6CDA0F13445B105B42E7
:104940001A463B6C934205DA7B6CDA0F13445B101A
:104950005B423B647A6C3B6CD31A7B627A6C3B6C37
:1049600013443B620B4B93F902301A467B6A03FBFC
:1049700002F2084B93F9023019463B6A01FB03F33C
:1049800019461046FDF712F900E000BF7037BD462A
:1049900080BD00BF840700200000F04100004040BF
:1049A0006666B64080B582B000AF0023FB7126E09A
:1049B000FB79503BDBB20021184600F02BF80021B8
:1049C000002000F027F80021102000F023F8002339
:1049D000BB710DE0BA79FB790D49D2000A4413444A
:1049E0001B780121184600F015F8BB790133BB7123
:1049F00097F90630002BEDDAFB790133FB71FB7977
:104A0000072BD5D900BF00BF0837BD4680BD00BF0A
:104A1000B407002080B584B000AF03460A46FB719E
:104A20001346BB71BB79002B06D001224FF4006105
:104A30001E4801F05DFE05E000224FF400611B48B6
:104A400001F056FE0023FB7322E000224FF4804168
:104A5000164801F04DFE97F90730002B06DA0122C7
:104A60004FF40051114801F043FE05E000224FF4DD
:104A700000510E4801F03CFE01224FF480410B48EA
:104A800001F036FEFB795B00FB71FB7B0133FB73AE
:104A9000FB7B072BD9D901224FF40061034801F0B9
:104AA00027FE00BF1037BD4680BD00BF000C02408E
:104AB00080B582B000AF0023FB7114E00023BB710E
:104AC0000AE0BA79FB790C49D2000A441344002267
:104AD0001A70BB790133BB7197F90630002BF0DAFD
:104AE000FB790133FB71FB79072BE7D9FFF75AFFFD
:104AF00000BF0837BD4680BDB407002080B485B034
:104B000000AF0346FB710B46BB7113467B7100235C
:104B1000FB7397F90730002B41DBBB793F2B3ED865
:104B2000BB79DB08DBB2C3F10703BB73BB7903F0CE
:104B300007037B737B7BC3F10703012202FA03F3B4
:104B4000FB737B79002B12D0FA79BB7B1749D2001B
:104B50000A4413441878FA79BB7BF97B0143C8B245
:104B60001249D2000A44134402461A7018E0FA7936
:104B7000BB7B0E49D2000A4413441B785AB297F902
:104B80000F30DB435BB2134059B2FA79BB7BC8B23A
:104B90000649D2000A44134402461A7000E000BFDE
:104BA0001437BD465DF8047B704700BFB407002092
:104BB00090B585B000AF0446084611461A46234614
:104BC000FB710346BB710B467B7113463B71BB798E
:104BD0003B737B79203B7B710023BB734DE03B79BA
:104BE0000C2B0BD17A79B97B284813465B00134410
:104BF0009B0003440B441B78FB7307E07A79BB7B73
:104C0000234912010A4413441B78FB7300237B736E
:104C10002DE097F90F30002B07DA97F82020B979AB
:104C2000FB791846FFF76AFF0CE097F82030002B5D
:104C30000CBF01230023DBB21A46B979FB79184671
:104C4000FFF75CFFFB7B5B00FB73BB790133BB7140
:104C5000BA793B7BD21A3B799A4205D13B7BBB7137
:104C6000FB790133FB7105E07B7B01337B737B7B3D
:104C7000072BCED9BB7B0133BB73BA7B3B799A42FE
:104C8000ADD300BF00BF1437BD4690BDEC20010876
:104C90006025010880B584B002AF03463A60FB711D
:104CA0000B46BB711FE0FB797A2B04D90023FB7103
:104CB000BB791033BB71BB793A2B05D90023FB714B
:104CC000FB79BB71FFF7F4FE3B681A78B979F87984
:104CD000012300930C23FFF76BFFFB790833FB7173
:104CE0003B6801333B603B681B78002BDBD100BF86
:104CF00000BF0837BD4680BD80B500AF02F064FE3E
:104D0000424B1B6F414A23F0010313673F4B1B6F5C
:104D10003E4A23F00403136702F06AFE00224FF4B8
:104D200080513B4801F0E4FC642001F065F9012268
:104D30004FF48051364801F0DBFC0021AE20FFF734
:104D400069FE0021D520FFF765FE00215020FFF706
:104D500061FE0021A820FFF75DFE00213F20FFF744
:104D600059FE0021D320FFF755FE00210020FFF758
:104D700051FE00214020FFF74DFE00218D20FFF75E
:104D800049FE00211420FFF745FE00212020FFF7F7
:104D900041FE00210220FFF73DFE0021A120FFF788
:104DA00039FE0021C020FFF735FE0021DA20FFF791
:104DB00031FE00211220FFF72DFE00218120FFF798
:104DC00029FE0021EF20FFF725FE0021D920FFF763
:104DD00021FE0021F120FFF71DFE0021DB20FFF75F
:104DE00019FE00213020FFF715FE0021A420FFF757
:104DF00011FE0021A620FFF70DFE0021AF20FFF7D6
:104E000009FEFFF755FE00BF80BD00BF003802401D
:104E1000000C024080B487B000AF7861396187ED43
:104E2000030AC7ED020A87ED011AC7ED001A7B6974
:104E3000002B4DD03B69002B4AD03B691A687B6937
:104E40001A603B6904331A687B695A603B6908330E
:104E50001A687B699A607B69FA685A627B69BA68EA
:104E60009A627B697A68DA627B693A681A637B695D
:104E70004FF000029A647B699A6C7B695A647B6983
:104E80005A6C7B691A647B694FF00002DA637B69B4
:104E9000DA6B7B699A637B699A6B7B695A637B697E
:104EA0004FF000025A617B695A697B691A627B691B
:104EB0001A6A7B69DA617B69DA697B699A617B6965
:104EC0004FF000021A617B691A697B69DA6000E0C1
:104ED00000BF1C37BD465DF8047B704780B485B0C9
:104EE00000AFF86087ED020AC7ED010AFB68002BEE
:104EF00002D14FF00003E5E0FB689A6BFB68DA63D0
:104F0000FB685A6BFB689A63FB687A68DA60FB6837
:104F1000BA681A6197ED017AD7ED027A77EE677A6F
:104F2000FB68C3ED0D7AFB6893ED007AFB68D3ED67
:104F30000D7A67EE277AFB68C3ED067AFB6893ED7E
:104F4000077AFB68D3ED016AFB68D3ED0D7A66EE54
:104F5000A76AFB68D3ED0C7A66EEA77A77EE277A1C
:104F6000FB68C3ED077AFB6893ED077AFB68D3ED26
:104F70000A7AB4EEE77AF1EE10FA04DDFB689A6A79
:104F8000FB68DA6114E0FB6893ED077AFB68D3ED08
:104F90000A7AF1EE677AB4EEE77AF1EE10FA07D505
:104FA000FB68D3ED0A7AF1EE677AFB68C3ED077A06
:104FB000FB685A6CFB689A64FB681A6CFB685A645D
:104FC000FB6893ED0D7AFB68D3ED0E7A77EE677A86
:104FD000FB68C3ED107AFB68D3ED026AFB6893EDC2
:104FE000106AFB68D3ED0C7AF5EEC07AF1EE10FA98
:104FF00003DDFB68D3ED0C7A01E0F7EE007A86EE74
:10500000277A66EE877AFB68C3ED087AFB6893ED32
:10501000087AFB68D3ED0B7AB4EEE77AF1EE10FA7A
:1050200004DDFB68DA6AFB681A6214E0FB6893ED42
:10503000087AFB68D3ED0B7AF1EE677AB4EEE77A83
:10504000F1EE10FA07D5FB68D3ED0B7AF1EE677A33
:10505000FB68C3ED087AFB6893ED067AFB68D3ED35
:10506000077A37EE277AFB68D3ED087A77EE277A4E
:10507000FB68C3ED057AFB6893ED057AFB68D3ED19
:10508000097AB4EEE77AF1EE10FA04DDFB685A6AA9
:10509000FB685A6114E0FB6893ED057AFB68D3ED79
:1050A000097AF1EE677AB4EEE77AF1EE10FA07D5F5
:1050B000FB68D3ED097AF1EE677AFB68C3ED057AF8
:1050C000FB685B6907EE903AB0EE670A1437BD469D
:1050D0005DF8047B704780B483B000AF78607B6874
:1050E000002B30D07B684FF00002DA637B68DA6B0C
:1050F0007B689A637B689A6B7B685A637B684FF026
:1051000000029A647B689A6C7B685A647B685A6C6C
:105110007B681A647B684FF000021A627B681A6A27
:105120007B68DA617B68DA697B689A617B689A6977
:105130007B685A617B684FF00002DA607B68DA684E
:105140007B681A6100E000BF0C37BD465DF8047B48
:105150007047000080B487B000AF78613961FA60B1
:1051600087ED010A7B81184A7B691360174AFB6847
:105170001360174A7B891380164A3B691360D7ED89
:10518000017AF5EEC07AF1EE10FA01DD7B6801E0FC
:105190004FF07E53104A13600B4B1B68002B08D056
:1051A000094B1B681A680D4B1B689A4201D10123F9
:1051B00000E00023DAB20A4B1A7000BF1C37BD466C
:1051C0005DF8047B704700BFB40B0020C00B0020CB
:1051D000C40B0020B80B002074000020D404002071
:1051E000BC0B002080B584B000AFF860B9601346F6
:1051F000FB80FB88B7EE000ABA680021F868FFF769
:10520000A9FF00BF1037BD4680BD000080B586B045
:1052100000AF2D4B1B78002B4FD12C4B1B68002B64
:105220004BD02B4B1B68002B47D02A4B1B78DBB293
:10523000002B44D1264B1B68274A118801221846AF
:1052400001F056FA00237B6102E07B6901337B6148
:105250007B69632BF9DD1E4B1B681F4A11880022F6
:10526000184601F045FA3B1D00221A605A609A6008
:10527000DA6000237B600123BB600023FB60002316
:105280003B61124B1B68154A1268391D184603F022
:1052900051FE134B01221A700E4B01221A700B4B58
:1052A0001B681B6800225A62084B1B680B4A126875
:1052B0001146184603F044FA02E000BF00E000BFC8
:1052C0001837BD4680BD00BFBC0B0020B40B0020CA
:1052D000C00B0020C60B0020C40B0020B80B002020
:1052E0007800002080B400AF044B1B6807EE903AB2
:1052F000B0EE670ABD465DF8047B7047D00B002016
:1053000080B58AB000AF78604B4B1B78002B40F023
:105310008F804A4B1B68002B00F08A807B681A68DC
:10532000464B1B681B689A4240F08380444B1B78B5
:10533000DBB2002B32D0434B1B681946786804F06F
:105340001FF80346404A13603D4B00221A703F4B42
:1053500002221A7007F10C0300221A605A609A6048
:10536000DA600223FB6001233B6100237B610023A1
:10537000BB61344B1B681946786803F009FB314B5D
:105380001A6807F10C031946786803F0D3FD2D4B1A
:105390001B681946786803F0D3F94AE0294B1B686B
:1053A0001946786803F0ECFF0346294A1360254B41
:1053B0001B681946786803F0EBFA254B1A68224BF4
:1053C0001B689A4206D3224B1A681F4B1B68D31ADC
:1053D0007B620DE0194B1B681B68DB6A3B621A4B52
:1053E0001B683A6AD21A1A4B1B68134401337B625A
:1053F0007B6A07EE903AB8EE677A164BD3ED007AE7
:1054000067EE277AC7ED077AD7ED077A9FED127A14
:1054100027EE877AF0EE006AC7EE267A0F4BC3EDCF
:10542000007A074B01221A70084B00221A7000E024
:1054300000BF2837BD4680BDBC0B0020B40B002048
:1054400078000020B80B0020C80B0020C60B0020FD
:10545000CC0B002074000020287E0C3DD00B0020D7
:1054600080B582B000AF78607B685B8A1946786847
:1054700000F09FF800BF0837BD4680BD80B485B0FE
:1054800000AF78600B467B807B8807EE903AF8EEA1
:10549000E76A7B6893ED027AC6EE877AC7ED037AF6
:1054A000D7ED037AF5EEC07AF1EE10FA02D54FF09F
:1054B0000003FB607B68DB6807EE903AF8EE677AE2
:1054C00097ED037AB4EEE77AF1EE10FA07DD7B6828
:1054D000DB6807EE903AF8EE677AC7ED037AD7ED0E
:1054E000037AB6EE007A77EE877AFCEEE77A17EE6B
:1054F000903A18461437BD465DF8047B704780B477
:1055000083B000AF78607B681B68DB6A18460C3795
:10551000BD465DF8047B704780B586B000AF78610A
:105520003961FA6087ED020AFB807B69002B18D095
:105530007B693A691A607B69FA685A607B69BA6864
:105540009A603869FFF7DBFF02467B69DA607B69A6
:10555000FA881A827B693A8C5A827B69BA8C9A8261
:1055600000E000BF1837BD4680BD80B584B000AFF5
:1055700078607B68002B03D07B681B68002B01D10F
:10558000012312E07B681A687B685B681946104645
:1055900002F0B4FF0346FB73FB7B002B01D0FB7BC7
:1055A00003E07868FFF75CFF002318461037BD461C
:1055B00080BD80B584B000AF78600B467B807B688F
:1055C000002B3DD07B681B68002B39D07B681B8A81
:1055D0007A889A4202D27B681B8A7B807B689B8A8E
:1055E0007A889A4202D97B689B8A7B807B8819469D
:1055F0007868FFF743FFF8607B685B68002B05D194
:105600007B681B681B68FA685A631AE07B685B68F2
:10561000042B05D17B681B681A68FB68936310E054
:105620007B685B68082B05D17B681B681A68FB6880
:10563000D36306E07B681B681A68FB68136400E0AC
:1056400000BF1037BD4680BD80B586B000AF786022
:1056500087ED000A7B68002B58D0D7ED007AF5EE75
:10566000C07AF1EE10FA28D597ED007ADFED296ABD
:10567000C7EE267AC7ED037A7B685B8A07EE903A1D
:10568000B8EE677A7B685B8A1A467B681B8AD31AF6
:1056900007EE903AF8EEE76AD7ED037A66EEA77A5E
:1056A00077EE677AFCEEE77A17EE903A7B817B899A
:1056B00019467868FFF77DFF29E097ED007ADFED66
:1056C000166AC7EE267AC7ED057A7B685B8A07EE15
:1056D000903AB8EE677A7B689B8A1A467B685B8A49
:1056E000D31A07EE903AF8EEE76AD7ED057A66EE40
:1056F000A77A77EE277AFCEEE77A17EE903A7B826C
:105700007B8A19467868FFF754FF00E000BF18371E
:10571000BD4680BD0000C8C20000C84280B582B04E
:1057200000AF00237B60124B5B6C114A43F4804353
:1057300053640F4B5B6C03F480437B607B680023F6
:105740003B600B4B1B6C0A4A43F080531364084BBD
:105750001B6C03F080533B603B6800220F216FF00D
:10576000010000F048FD00BF0837BD4680BD00BF06
:105770000038024080B58AB000AF786007F11403AA
:1057800000221A605A609A60DA601A617B681B68AE
:10579000194A93422CD100233B61184B1B6B174ACB
:1057A00043F002031363154B1B6B03F002033B61D1
:1057B0003B694FF440637B611223BB610023FB61B3
:1057C00003233B6204237B6207F1140319460C4850
:1057D00000F0DAFD0023FB60084B1B6C074A43F422
:1057E00080031364054B1B6C03F48003FB60FB68B0
:1057F00000BF2837BD4680BD005800400038024039
:105800000004024080B58CB000AF786007F11C0343
:1058100000221A605A609A60DA601A617B681B681D
:10582000B3F1804F4BD10023BB613F4B1B6C3E4A11
:1058300043F0010313643C4B1B6C03F00103BB6199
:10584000BB6900237B61384B1B6B374A43F0010374
:105850001363354B1B6B03F001037B617B690023F2
:105860003B61314B1B6B304A43F0020313632E4BF9
:105870001B6B03F002033B613B694FF40043FB6188
:1058800002233B6200237B620023BB620123FB6295
:1058900007F11C031946254800F076FD0823FB613B
:1058A00002233B6200237B620023BB620123FB6275
:1058B00007F11C0319461E4800F066FD30E07B68C6
:1058C0001B681C4A93422BD10023FB60164B1B6CB8
:1058D000154A43F002031364134B1B6C03F00203DD
:1058E000FB60FB680023BB600F4B1B6B0E4A43F051
:1058F000020313630C4B1B6B03F00203BB60BB681A
:105900003023FB6102233B6200237B620023BB62E6
:105910000223FB6207F11C031946054800F034FD21
:1059200000BF3037BD4680BD003802400000024055
:10593000000402400004004080B58EB000AF7860E3
:1059400007F1240300221A605A609A60DA601A6133
:105950007B681B684D4A93420ED100233B624C4B3F
:105960001B6C4B4A43F004031364494B1B6C03F05C
:1059700004033B623B6A85E07B681B68454A9342AF
:1059800016D10023FB61424B1B6C414A43F00803D4
:1059900013643F4B1B6C03F00803FB61FB6900229F
:1059A0000521322000F027FC322000F040FC69E0A5
:1059B0007B681B68384A934216D10023BB61344B85
:1059C0005B6C334A43F002035364314B5B6C03F06E
:1059D0000203BB61BB69002205212B2000F00BFCF8
:1059E0002B2000F024FC4DE07B681B682B4A93427F
:1059F0000ED100237B61264B5B6C254A43F4803338
:105A00005364234B5B6C03F480337B617B6939E027
:105A10007B681B68224A934234D100233B611C4BB4
:105A20001B6C1B4A43F040031364194B1B6C03F0BF
:105A300040033B613B690023FB60154B1B6B144A21
:105A400043F002031363124B1B6B03F00203FB6072
:105A5000FB684FF480437B620223BB620023FB623E
:105A600000233B6309237B6307F1240319460D4898
:105A700000F08AFC002205212B2000F0BCFB2B202B
:105A800000F0D5FB00BF3837BD4680BD00080040A0
:105A900000380240000C004000040140004001407A
:105AA000001800400004024080B58AB000AF786062
:105AB00007F1140300221A605A609A60DA601A61D2
:105AC0007B681B68364A93421FD100233B61354BEC
:105AD0001B6B344A43F002031363324B1B6B03F01E
