:020000040800F2
:1000000000000220F16000088D5E0008955E000887
:100010009D5E0008A55E0008AD5E000800000000BF
:1000200000000000000000000000000031D50008C2
:10003000B55E00080000000081D70008C35E00081C
:100040004161000841610008416100084161000808
:1000500041610008416100084161000841610008F8
:1000600041610008416100084161000841610008E8
:1000700041610008416100084161000841610008D8
:1000800041610008416100084161000841610008C8
:1000900041610008416100084161000841610008B8
:1000A00041610008416100084161000841610008A8
:1000B0004161000841610008416100084161000898
:1000C0004161000841610008416100084161000888
:1000D000416100084161000841610008DD5E0008DF
:1000E000416100084161000841610008F15E0008BB
:1000F0004161000841610008416100084161000858
:1001000041610008416100080D5F0008416100087D
:100110004161000841610008416100084161000837
:100120004161000841610008416100084161000827
:100130004161000841610008416100084161000817
:100140004161000841610008416100084161000807
:1001500041610008416100084161000841610008F7
:1001600041610008416100084161000841610008E7
:100170004161000841610008416100080000000081
:08018000416100084161000823
:1001900010B5054C237833B9044B13B10448AFF3C1
:1001A00000800123237010BDFC010020000000002E
:1001B000F420010808B5034B1BB103490348AFF312
:1001C000008008BD0000000000020020F4200108AB
:1001D00010F8012B11F8013B012A28BF9A42F7D0F1
:1001E000D01A70470000000000000000000000006E
:1001F00001F0FF01102A2BDB10F0070F08D010F8D8
:10020000013B013A8B422DD010F0070F42B3F6D1DB
:10021000F0B441EA012141EA014122F007047FF0F4
:1002200000070023F0E80256083C85EA010586EA4B
:10023000010685FA47F5A3FA87F586FA47F6A5FA87
:1002400087F68EB9EED1F0BC01F0FF0102F0070293
:1002500032B110F8013B013A83EA010313B1F8D13E
:100260000020704701387047002D06BF354603381F
:10027000073815F0010F07D1013015F4807F02BF58
:10028000013015F4C03F0130F0BC0138704700BFA9
:10029000034613F8012B002AFBD1181A01387047C6
:1002A00081F0004102E000BF83F0004330B54FEA27
:1002B00041044FEA430594EA050F08BF90EA020F94
:1002C0001FBF54EA000C55EA020C7FEA645C7FEA27
:1002D000655C00F0E2804FEA5454D4EB5555B8BF4A
:1002E0006D420CDD2C4480EA020281EA030382EABB
:1002F000000083EA010180EA020281EA0303362D4D
:1003000088BF30BD11F0004F4FEA01314FF4801C1F
:100310004CEA113102D0404261EB410113F0004F31
:100320004FEA03334CEA133302D0524263EB4303E8
:1003300094EA050F00F0A780A4F10104D5F1200E86
:100340000DDB02FA0EFC22FA05F2801841F10001E1
:1003500003FA0EF2801843FA05F359410EE0A5F1B5
:1003600020050EF1200E012A03FA0EFC28BF4CF0E6
:10037000020C43FA05F3C01851EBE37101F000459C
:1003800007D54FF0000EDCF1000C7EEB00006EEBA9
:100390000101B1F5801F1BD3B1F5001F0CD3490833
:1003A0005FEA30004FEA3C0C04F101044FEA44528A
:1003B00012F5800F80F09A80BCF1004F08BF5FEA11
:1003C000500C50F1000041EB045141EA050130BDF1
:1003D0005FEA4C0C404141EB0101013C28BFB1F503
:1003E000801FE9D291F0000F04BF01460020B1FA4E
:1003F00081F308BF2033A3F10B03B3F120020CDA21
:100400000C3208DD02F1140CC2F10C0201FA0CF0FE
:1004100021FA02F10CE002F11402D8BFC2F1200C63
:1004200001FA02F120FA0CFCDCBF41EA0C01904019
:10043000E41AA2BF01EB0451294330BD6FEA040462
:100440001F3C1CDA0C340EDC04F11404C4F120024D
:1004500020FA04F001FA02F340EA030021FA04F35F
:1004600045EA030130BDC4F10C04C4F1200220FAB6
:1004700002F001FA04F340EA0300294630BD21FAF4
:1004800004F0294630BD94F0000F83F4801306BFBA
:1004900081F480110134013D4EE77FEA645C18BFAE
:1004A0007FEA655C29D094EA050F08BF90EA020F45
:1004B00005D054EA000C04BF1946104630BD91EA3D
:1004C000030F1EBF0021002030BD5FEA545C05D140
:1004D0004000494128BF41F0004130BD14F580047F
:1004E0003CBF01F5801130BD01F0004545F0FE41F3
:1004F00041F470014FF0000030BD7FEA645C1ABF28
:10050000194610467FEA655C1CBF0B46024650EA5E
:10051000013406BF52EA033591EA030F41F400218A
:1005200030BD00BF90F0000F04BF0021704730B510
:100530004FF4806404F132044FF000054FF00001E5
:1005400050E700BF90F0000F04BF0021704730B5A6
:100550004FF4806404F1320410F0004548BF40427B
:100560004FF000013EE700BF42004FEAE2014FEAD0
:1005700031014FEA02701FBF12F07F4393F07F4FAB
:1005800081F06051704732F07F4208BF704793F0AE
:100590007F4F04BF41F40021704730B54FF46074C1
:1005A00001F0004521F000411CE700BF50EA0102C4
:1005B00008BF704730B54FF000050AE050EA01026D
:1005C00008BF704730B511F0004502D5404261EBDD
:1005D00041014FF4806404F132045FEA915C3FF41E
:1005E000D8AE4FF003025FEADC0C18BF03325FEABB
:1005F000DC0C18BF033202EBDC02C2F1200300FA6C
:1006000003FC20FA02F001FA03FE40EA0E0021FA90
:1006100002F11444BDE600BF70B54FF0FF0C4CF47E
:10062000E06C1CEA11541DBF1CEA135594EA0C0F30
:1006300095EA0C0F00F0DEF82C4481EA030621EA6B
:100640004C5123EA4C5350EA013518BF52EA0335A6
:1006500041F4801143F4801338D0A0FB02CE4FF058
:100660000005E1FB02E506F00042E0FB03E54FF088
:100670000006E1FB03569CF0000F18BF4EF0010E80
:10068000A4F1FF04B6F5007F64F5407404D25FEA7C
:100690004E0E6D4146EB060642EAC62141EA55512F
:1006A0004FEAC52040EA5E504FEACE2EB4F1FD0C71
:1006B00088BFBCF5E06F1ED8BEF1004F08BF5FEAEF
:1006C000500E50F1000041EB045170BD06F00046A1
:1006D00046EA010140EA020081EA0301B4EB5C044E
:1006E000C2BFD4EB0C0541EA045170BD41F4801146
:1006F0004FF0000E013C00F3AB8014F1360FDEBF6B
:10070000002001F0004170BDC4F10004203C35DA46
:100710000C341BDC04F11404C4F1200500FA05F3C9
:1007200020FA04F001FA05F240EA020001F000426A
:1007300021F0004110EBD37021FA04F642EB0601E0
:100740005EEA430E08BF20EAD37070BDC4F10C040A
:10075000C4F1200500FA04F320FA05F001FA04F2CE
:1007600040EA020001F0004110EBD37041F10001BA
:100770005EEA430E08BF20EAD37070BDC4F12005C5
:1007800000FA05F24EEA020E20FA04F301FA05F22D
:1007900043EA020321FA04F001F0004121FA04F2D5
:1007A00020EA020000EBD3705EEA430E08BF20EAA5
:1007B000D37070BD94F0000F0FD101F000464000DF
:1007C00041EB010111F4801F08BF013CF7D041EA61
:1007D000060195F0000F18BF704703F00046520065
:1007E00043EB030313F4801F08BF013DF7D043EA36
:1007F0000603704794EA0C0F0CEA135518BF95EAEC
:100800000C0F0CD050EA410618BF52EA4306D1D172
:1008100081EA030101F000414FF0000070BD50EA91
:10082000410606BF1046194652EA430619D094EA1B
:100830000C0F02D150EA013613D195EA0C0F05D105
:1008400052EA03361CBF104619460AD181EA030159
:1008500001F0004141F0FE4141F470014FF0000011
:1008600070BD41F0FE4141F4780170BD70B54FF0AC
:10087000FF0C4CF4E06C1CEA11541DBF1CEA13552C
:1008800094EA0C0F95EA0C0F00F0A7F8A4EB05040E
:1008900081EA030E52EA03354FEA013100F0888005
:1008A0004FEA03334FF0805545EA131343EA1263CE
:1008B0004FEA022245EA111545EA10654FEA002683
:1008C0000EF000419D4208BF964244F1FD0404F53C
:1008D000407402D25B084FEA3202B61A65EB030598
:1008E0005B084FEA32024FF480104FF4002CB6EB55
:1008F000020E75EB030E22BFB61A754640EA0C00D5
:100900005B084FEA3202B6EB020E75EB030E22BF14
:10091000B61A754640EA5C005B084FEA3202B6EB55
:10092000020E75EB030E22BFB61A754640EA9C0014
:100930005B084FEA3202B6EB020E75EB030E22BFE4
:10094000B61A754640EADC0055EA060E18D04FEAA2
:10095000051545EA16754FEA06164FEAC30343EA42
:1009600052734FEAC2025FEA1C1CC0D111F4801F0F
:100970000BD141EA00014FF000004FF0004CB6E708
:1009800011F4801F04BF01430020B4F1FD0C88BFA7
:10099000BCF5E06F3FF6AFAEB5EB030C04BFB6EBB2
:1009A000020C5FEA500C50F1000041EB045170BDA5
:1009B0000EF0004E4EEA113114EB5C04C2BFD4EBD2
:1009C0000C0541EA045170BD41F480114FF0000E56
:1009D000013C90E645EA060E8DE60CEA135594EAD2
:1009E0000C0F08BF95EA0C0F3FF43BAF94EA0C0FD5
:1009F0000AD150EA01347FF434AF95EA0C0F7FF44A
:100A000025AF104619462CE795EA0C0F06D152EA9D
:100A100003353FF4FDAE1046194622E750EA410681
:100A200018BF52EA43067FF4C5AE50EA41047FF492
:100A30000DAF52EA43057FF4EBAE12E74FF0FF3CF7
:100A400006E000BF4FF0010C02E000BF4FF0010CC8
:100A50004DF804CD4FEA410C7FEA6C5C4FEA430C41
:100A600018BF7FEA6C5C1BD001B050EA410C0CBF90
:100A700052EA430C91EA030F02BF90EA020F0020F2
:100A8000704710F1000F91EA030F58BF994208BF59
:100A900090422CBFD8176FEAE37040F00100704716
:100AA0004FEA410C7FEA6C5C02D150EA013C07D16D
:100AB0004FEA430C7FEA6C5CD6D152EA033CD3D0B8
:100AC0005DF8040B704700BF8446104662468C46B2
:100AD0001946634600E000BF01B5FFF7B7FF0028E5
:100AE00048BF10F1000F01BD4DF808EDFFF7F4FF0E
:100AF0000CBF012000205DF808FB00BF4DF808ED99
:100B0000FFF7EAFF34BF012000205DF808FB00BFBB
:100B10004DF808EDFFF7E0FF94BF012000205DF8DD
:100B200008FB00BF4DF808EDFFF7CEFF94BF012092
:100B300000205DF808FB00BF4DF808EDFFF7C4FF8B
:100B400034BF012000205DF808FB00BF4FEA410CD4
:100B50007FEA6C5C02D150EA013C0AD14FEA430CB7
:100B60007FEA6C5C02D152EA033C02D14FF00000F4
:100B700070474FF0010070474FEA410212F5001232
:100B800015D211D56FF47873B3EB625212D94FEAD4
:100B9000C12343F0004343EA505311F0004F23FABE
:100BA00002F018BF404270474FF00000704750EA13
:100BB000013005D111F0004008BF6FF000407047D0
:100BC0004FF00000704700BF4A0011D212F500122A
:100BD00011D20DD56FF47873B3EB62520ED44FEA95
:100BE000C12343F0004343EA505323FA02F0704715
:100BF0004FF00000704750EA013002D14FF0FF3053
:100C000070474FF0000070474FEA4102B2F1E043F5
:100C100024BFB3F5001CDCF1FE5C0DD901F0004CE3
:100C20004FEAC0024CEA5070B2F1004F40EB830033
:100C300008BF20F00100704711F0804F21D113F15F
:100C40003872BCBF01F00040704741F480114FEA98
:100C50005252C2F11802C2F1200C10FA0CF320FA21
:100C600002F018BF40F001004FEAC1234FEAD3233E
:100C700003FA0CFC40EA0C0023FA02F34FEA4303A8
:100C8000CCE77FEA625307D150EA01331EBF4FF031
:100C9000FE4040F44000704701F0004040F0FE404C
:100CA00040F40000704700BF53B94AB9002908BF9B
:100CB00000281CBF4FF0FF314FF0FF3000F0BEB9ED
:100CC000ADF1080C6DE904CE00F03CF8DDF804E06D
:100CD000DDE9022304B0704738B500220023044642
:100CE0000D46FFF70BFF28B920462946BDE83840DE
:100CF00000F00AB8204605F1004100F005F8404236
:100D000061EB410138BD00BFD0B50C4B0022064657
:100D10000F46FFF781FCFFF757FF0446FFF702FC81
:100D2000074B0022FFF778FC02460B463046394657
:100D3000FFF7BAFAFFF748FF2146D0BD0000F03DAB
:100D40000000F0412DE9F047089D8E460446884694
:100D5000002B4AD18A42174662D9B2FA82F64EB1C6
:100D6000C6F1200301FA06F820FA03F3B74043EA7C
:100D70000808B4404FEA174E1FFA87FCB8FBFEF193
:100D8000230C0EFB118843EA084301FB0CF29A4244
:100D900009D9FB1801F1FF3080F0EA809A4240F255
:100DA000E78002393B449A1AA3B2B2FBFEF00EFB75
:100DB000102243EA024300FB0CFC9C4509D9FB18B6
:100DC00000F1FF3280F0D6809C4540F2D3803B4456
:100DD000023840EA0140A3EB0C0300211DB1F340AF
:100DE0000022C5E90032BDE8F0878B4205D90DB17C
:100DF000C5E9000100210846F5E7B3FA83F10029AF
:100E000046D1734502D3824200F20581841A6EEB0B
:100E1000030201209046002DE5D0C5E90048E2E735
:100E2000002A00F09080B2FA82F6002E40F0A480F2
:100E30008A1A030C4FEA174E80B2BCB20121B2FBF2
:100E4000FEFC0EFB1C2243EA024304FB0CF29A4216
:100E500007D9FB180CF1FF3802D29A4200F2E08069
:100E6000C4469B1AB3FBFEF20EFB123340EA034367
:100E700002FB04F49C4207D9FB1802F1FF3002D2B6
:100E80009C4200F2CA8002461B1B42EA0C40A5E7C6
:100E9000C1F120068B4022FA06F71F430EFA01F437
:100EA00020FA06F32EFA06FE4FEA1749234300FA0A
:100EB00001F81FFA87FCBEFBF9F01C0C09FB10EED1
:100EC00044EA0E4400FB0CFEA64502FA01F209D9E1
:100ED0003C1900F1FF3A80F09C80A64540F29980D1
:100EE00002383C44A4EB0E041FFA83FEB4FBF9F372
:100EF00009FB13444EEA044403FB0CFCA44508D947
:100F00003C1903F1FF3E80F08280A4457FD9023B6B
:100F10003C4443EA0040A4EB0C04A0FB02EC644513
:100F20007346E14662D35FD05DB1B8EB030264EB78
:100F3000090404FA06F622FA01F31E43CC40C5E97F
:100F4000006400214FE7B1FBF2FC010C41EA0E41C5
:100F500080B240EA01423B4638463C46B846BE466F
:100F60002026B1FBF7F1A2EB080241EA0C4166E74B
:100F7000014618E710462CE7C6F120022EFA02F3CC
:100F8000B740B14020FA02F24FEA174E0A43B3FBD2
:100F9000FEF8BCB20EFB1833110C41EA034108FB0A
:100FA00004F9B04089454FEA104380B23ED9791820
:100FB00008F1FF3C01D289451FD8A1EB0901B1FB23
:100FC000FEF909FB04F80EFB191192B242EA014244
:100FD000424529D2BA1809F1FF31C4D24245C2D2E2
:100FE000A9F102013A44BEE7F0459DD2BEEB0203EF
:100FF0006CEB070C0138E14696E7A7EB0909494479
:10100000A8F1020CB1FBFEF909FB04F8DBE773461B
:101010007FE7504666E70846FDE63B44023A33E781
:10102000ACF1020C3B441CE749469CE7A1EB0901EB
:10103000C446B1FBFEF909FB04F8C4E7704700BFE2
:1010400080B58AB004AFF8600B467A60FB7200236B
:10105000FB757B68DBB21B01DBB27B75FB7A002B77
:1010600001D1682300E06923BB75BB7D9BB25B00A7
:1010700099B20A2302930123019307F11503009308
:1010800001237F22F86805F0A9FD0346FB75FB7D6F
:1010900018461837BD4680BD80B588B004AF78606B
:1010A000084611461A460346FB700B46BB701346B2
:1010B0007B700023FB73FB78002B01D1682300E0D9
:1010C0006923BB73BB7B9BB25B0099B2BB789AB2BE
:1010D0000A230293012301937B1C00930123786868
:1010E00005F07CFD0346FB73FB7B18461037BD46BD
:1010F00080BD80B588B004AF7860084611461A46B6
:101100000346FB700B46BB7013463B800023FB730A
:10111000FB78002B01D1682300E06923BB73BB7B04
:101120009BB25B0099B2BB789AB20A2302933B88C8
:101130000193BB6900930123786805F049FE0346DB
:10114000FB73FB7B18461037BD4680BD80B584B06D
:1011500000AF786032230522D021786806F06AF863
:101160000346FB73FB7B002B0CBF01230023DBB288
:1011700018461037BD4680BD80B584B000AF78609A
:1011800032230522D221786806F054F80346FB7317
:10119000FB7B002B0CBF01230023DBB2184610376A
:1011A000BD4680BD80B584B000AF78600B46FB7053
:1011B0001346BB700023FB73FB7800221946786846
:1011C000FFF73EFF0346FB73F97880230622786819
:1011D000FFF762FF0346FB73C82005F025F8F97896
:1011E000012306227868FFF757FF0346FB73F9785F
:1011F000002307227868FFF74FFF0346FB73FB7855
:10120000022219467868FFF71BFF0346FB73BB7881
:1012100043F01803DBB2F97801227868FFF73CFF4E
:101220000346FB73F978192314227868FFF734FF1B
:101230000346FB73F978162300227868FFF72CFF2A
:101240000346FB73FB78002219467868FFF7F8FE27
:101250000346FB73F978002303227868FFF71CFF2D
:101260000346FB73F97802230F227868FFF714FF17
:101270000346FB7300BF1037BD4680BD80B586B006
:1012800002AFF8607B600B46FB721346BB72F97AC3
:101290000B4B009302233722F868FFF72AFF084B15
:1012A0001B781BB21B021AB2054B5B781BB21343AF
:1012B0001AB27B681A8000BF1037BD4680BD00BFE0
:1012C0001802002080B584B000AF78600B46FB7038
:1012D000FB78002219467868FFF7B2FE0346002B20
:1012E00002D04FF0FF331DE0F97800230322786825
:1012F000FFF7D2FE0346002B02D04FF0FF3311E080
:10130000012004F091FF0223FB73FB7BF9780F228D
:101310007868FFF7C1FE0346002B02D04FF0FF3381
:1013200000E0002318461037BD4680BD80B588B068
:1013300004AF78600B46FB70344B1B78002B01D058
:1013400000235FE0FB7819467868FFF7BBFF034690
:10135000002B02D04FF0FF3354E0052004F064FF6F
:101360000023FB730023BB73142302930123019317
:1013700007F10F030093012300221821786805F07C
:1013800027FD142302930123019307F10E03009319
:10139000012301221821786805F01AFD01237B73CF
:1013A000142302930123019307F10D0300930123FA
:1013B00032221821786805F011FC0346002B02D078
:1013C0004FF0FF331EE0012004F02EFF00237B735B
:1013D000142302930123019307F10D0300930123CA
:1013E00031221821786805F0F9FB0346002B02D062
:1013F0004FF0FF3306E0022004F016FF034B0122FA
:101400001A70002318461037BD4680BD1A0200200E
:1014100080B582B000AF0F4B1B687B600CE07B682F
:101420009B693B607B681B6918460CF02FFF78684E
:101430000CF02CFF3B687B607B68002BEFD1054BE9
:1014400000221A60044B00221A6000BF0837BD4614
:1014500080BD00BF1C0200202002002080B5ACB07F
:1014600000AFF860B9601346FB80FB68002B00F00A
:101470005082BB68002B00F04C82FB88002B00F0F0
:101480004882FB88802B00F24682FA8807F1140319
:10149000B96818460EF07AF9FB88B0333B44002255
:1014A00003F89C2CFB88013BB0333B4413F89C3C75
:1014B0000A2B06D1FB88013BB0333B44002203F8E2
:1014C0009C2C3B7D87F8A73097F8A730002B00F0C5
:1014D000248297F8A730502B00F01F8200F06DFA9D
:1014E000C7F8A000D7F8A030002B00F01882FB88C6
:1014F000DAB2D7F8A0301A75FB8818460CF0BEFE99
:1015000003461A46D7F8A0301A61D7F8A0301B69F5
:10151000002B04D1D7F8A0000CF0B8FE00E2D7F8F9
:10152000A0301B69FA88B96818460EF02FF9D7F871
:10153000A03000225A80D7F8A0304FF000025A6045
:10154000D7F8A0304FF000029A60D7F8A0300122FF
:101550005A73D7F8A03001221A70D7F8A0300022B1
:101560005A70D7F8A03000221A7307F114031946F5
:10157000D7F8A00000F0ACFA0346002B40F0A3819E
:101580003B7D87F89F3097F89F30002B03D097F86A
:101590009F30502B0AD1D7F8A0301B6918460CF0A9
:1015A00075FED7F8A0000CF071FEB9E10023C7F872
:1015B000AC307B7D002B2DD007F114030133C7F82D
:1015C000A830D7F8A8301B787C2B0AD1D7F8A830E0
:1015D0000133C7F8A83004E0D7F8A8300133C7F8C2
:1015E000A830D7F8A8301B78002B0AD0D7F8A8303D
:1015F0001B780133CC4A13441B7803F00803002BFB
:10160000EAD1D7F8A8301B78002B03D0D7F8A83040
:10161000C7F8AC30D7F8AC0000F03EFA87ED260AE8
:1016200097F89F30443B302B00F2428101A252F8E0
:1016300023F000BF9D180008B1180008B118000879
:10164000B1180008B1180008B1180008B118000856
:10165000B11800087D170008A7180008B118000885
:10166000B1180008B1180008B1180008C717000821
:10167000F91600080B170008B1180008B118000887
:101680002F170008B1180008B1180008B118000899
:10169000B1180008B1180008B1180008B118000806
:1016A000B1180008B1180008B1180008B1180008F6
:1016B000B1180008B1180008B1180008B1180008E6
:1016C000B1180008B1180008B1180008B1180008D6
:1016D000B11800080D180008B1180008B11800086A
:1016E000B1180008B1180008B11800085718000810
:1016F000B118000859170008D7F8A03003221A7053
:10170000D7F8A03000225A70DDE0D7F8A0300122CF
:101710001A70D7F8A03001225A70D7F8A0300022F2
:101720001A73D7F8A030D7F898209A60CBE0D7F892
:10173000A03001221A70D7F8A03001225A70D7F8D1
:10174000A03001221A73D7ED267AF0EEE77AD7F8A7
:10175000A030C3ED027AB6E0D7F8A03001221A70AB
:10176000D7F8A030FF225A70D7F8A03000221A73A1
:10177000D7F8A030D7F898209A60A4E0D7F8A03026
:1017800002221A70D7F8A03001225A70D7ED267ABB
:10179000F5EE407AF1EE10FA06D0D7ED267AF0EEAB
:1017A000E77AF1EE677A01E0FFEE007AD7F8A03031
:1017B000C3ED017AD7ED267AF0EEE77AD7F8A030BC
:1017C000C3ED027A7FE0D7F8A03002221A70D7F872
:1017D000A03001225A70D7ED267AF5EE407AF1EE6C
:1017E00010FA04D0D7ED267AF0EEE77A01E0F7EEB2
:1017F000007AD7F8A030C3ED017AD7ED267AF0EE63
:10180000E77AD7F8A030C3ED027A5CE0D7F8A030D1
:1018100002221A70D7F8A030FF225A70D7ED267A2C
:10182000F5EE407AF1EE10FA06D0D7ED267AF0EE1A
:10183000E77AF1EE677A01E0FFEE007AD7F8A030A0
:10184000C3ED017AD7ED267AF0EEE77AD7F8A0302B
:10185000C3ED027A37E0D7F8A03002221A70D7F829
:10186000A030FF225A70D7ED267AF5EE407AF1EEDD
:1018700010FA04D0D7ED267AF0EEE77A01E0F7EE21
:10188000007AD7F8A030C3ED017AD7ED267AF0EED2
:10189000E77AD7F8A030C3ED027A14E0D7F8A03089
:1018A00004221A700FE0D7F8A03005221A700AE05F
:1018B000D7F8A0301B6918460CF0E8FCD7F8A00058
:1018C0000CF0E4FC2CE0194B1B68002B08D1174AE4
:1018D000D7F8A0301360164AD7F8A030136008E09C
:1018E000134B1B68D7F8A0209A61114AD7F8A03093
:1018F0001360D7F8A0301B78062B03D14FF4FA7091
:1019000004F092FC7222D7F8A010F86800F085F875
:1019100006E000BF04E000BF02E000BF00E000BF3F
:10192000B037BD4680BD00BF802F01081C020020DB
:101930002002002080B483B000AF0D4B1B687B6099
:101940007B68002B0DD07B689B69094A1360084BAC
:101950001B68002B02D1074B00221A607B68002213
:101960009A617B6818460C37BD465DF8047B70476A
:101970001C0200202002002080B582B000AF7860F9
:1019800039603B68002B14D07B68002B08D03B6883
:101990005B7B002B04D066223968786800F03DF844
:1019A0003B681B6918460CF071FC38680CF06EFC43
:1019B00000E000BF0837BD4680BD80B582B000AFF3
:1019C0001C200CF05BFC03467B607B68002B1FD067
:1019D0007B6801221A707B6800225A707B680022A3
:1019E0005A807B684FF000025A607B684FF000021B
:1019F0009A607B6800221A737B6801225A737B68A5
:101A000000221A617B6800221A757B6800229A61A5
:101A10007B6818460837BD4680BD80B586B000AFEC
:101A2000F860B9601346FB71FB68002B2ED0BB68D1
:101A3000002B2BD0BB681B69002B27D0BB681B7DFC
:101A4000012B23D9BB681B7D0133FB82FB8A18461F
:101A50000CF014FC03463B613B69002B18D03B693A
:101A6000FA791A703B69581CBB681969BB681B7D01
:101A70001A460DF08BFEFA8A4FF0FF333969F86889
:101A800008F06AFB38690CF001FC02E000BF00E0DE
:101A900000BF1837BD4680BD80B582B000AF78600A
:101AA0007B68002B03D07B681B78002B02D1DFED15
:101AB000077A05E0002178680DF006FDF0EE407A27
:101AC000B0EE670A0837BD4680BD00BF00000000C9
:101AD00080B586B000AF786039607B68002B02D09B
:101AE0003B68002B01D1002355E004222C493868C3
:101AF0000DF0F8FD0346002B01D000234BE03B68BE
:101B000004333B610023FB6007F10C030A221946F2
:101B100038690DF0B7FD7861FB68002B01D1002317
:101B200039E0FB681F491846FEF752FB0346002BBD
:101B300011D0FB681C491846FEF74AFB0346002BF0
:101B400009D0FB6819491846FEF742FB0346002BF3
:101B500001D000231FE07B69002B01DA00237B61A9
:101B60007B69134A934201DD114B7B617B6806223E
:101B70001A707B6800225A737B6907EE903AF8EE80
:101B8000E77A7B68C3ED027A7B6800225A707B6833
:101B900000221A73012318461837BD4680BD00BFC6
:101BA00010210108182101081C2101082021010829
:101BB00040420F0080B400AF034B1B78DBB21846E5
:101BC000BD465DF8047B7047D802002080B400AFAA
:101BD000034B00221A7000BFBD465DF8047B7047BE
:101BE000D802002080B584B000AF194A3B1D07CA57
:101BF00083E807003B1DDFED171A9FED171ADFED95
:101C0000160A9FED160A1946154803F01BFA3B1DEC
:101C1000DFED101A9FED101ADFED0F0A9FED0F0A8E
:101C20001946104803F00EFA01F00EFE03460E4A64
:101C3000136001F017FE03460C4A13600C4B01229F
:101C40001A700C4806F0A8FC00BF1037BD4680BDD6
:101C5000242101080AD7233C000020420000C8428A
:101C60002402002070020020D0020020D4020020B4
:101C7000000000203404002080B582B000AF7860FE
:101C800039607B68002B05D0304B1B68002B01D0DE
:101C9000012300E0002303F00103DBB2002B13D08B
:101CA0007B68002BCCBF01230023DAB2274B1B68D3
:101CB000002BCCBF01230023DBB25340DBB2002B4F
:101CC00002D0234803F01FFB3B68002B05D0214BBB
:101CD0001B68002B01D0012300E0002303F0010367
:101CE000DBB2002B13D03B68002BCCBF01230023B9
:101CF000DAB2184B1B68002BCCBF01230023DBB2E8
:101D00005340DBB2002B02D0134803F0FCFA7B688F
:101D1000002B06D10D4B1B68002B02D00C4803F0A2
:101D2000F2FA3B68002B06D10A4B1B68002B02D04D
:101D3000094803F0E8FA054A7B681360054A3B68E6
:101D4000136000BF0837BD4680BD00BFBC02002045
:101D500024020020C00200207002002080B500AFE5
:101D600001F072FD0346064A136001F07BFD034655
:101D7000044A1360044B01221A7000BF80BD00BFEB
:101D8000D0020020D40200200000002080B58AB0DC
:101D900000AF01F059FD386201F064FDF861524B6B
:101DA0001B683A6AD31ABB61504B1B68FA69D31A95
:101DB0007B614D4A3B6A13604C4AFB6913604C4B94
:101DC0001B78002B03D04A4B00221A7088E0494A46
:101DD000BB691360484A7B691360484B1B68002B42
:101DE00012D1474B1B68002B0ED1464803F08BFAEB
:101DF000454803F088FA454B00221A70444B0022F4
:101E00001A7001F0C9FC6BE0BB6907EE903AF8EE7E
:101E1000E77A3A4B1B6807EE103AB8EEC77AF0EE55
:101E2000470AB0EE670A374803F070F987ED040AF5
:101E30007B6907EE903AF8EEE77A314B1B6807EEC4
:101E4000103AB8EEC77AF0EE470AB0EE670A2E48AD
:101E500003F05CF987ED030AD7ED047AFDEEE77A2B
:101E6000C7ED017A3B7987F82730D7ED037AFDEE8D
:101E7000E77AC7ED017A3B7987F826300523FB72B4
:101E800097F9272097F90B309A4209DA97F927201A
:101E900097F90B305B429A4202DD002387F8273026
:101EA00097F9262097F90B309A4209DA97F92620FC
:101EB00097F90B305B429A4202DD002387F8263007
:101EC000124A97F827301370114A97F8263013708A
:101ED00097F9262097F927301146184601F08CFB18
:101EE0002837BD4680BD00BFD0020020D4020020AC
:101EF00000000020C4020020C8020020BC02002014
:101F0000C00200202402002070020020CC02002029
:101F1000CD02002080B483B000AF78607B681B687E
:101F2000054A934202D1054B01221A7000BF0C37BB
:101F3000BD465DF8047B7047000C0040D8020020CD
:101F400080B400AF0A4B0B4A1A60094B6FF40002D1
:101F50005A60074B074A9A60054B6FF40002DA603B
:101F6000034B00221A7400BFBD465DF8047B704726
:101F7000F0020020FFFF7F7F80B483B000AF87EDC9
:101F8000010AD7ED017A9FED157AF4EEC77AF1EEEA
:101F900010FA07DDD7ED017A9FED117A77EEC77A57
:101FA000C7ED017AD7ED017A9FED0E7AF4EEC77A8C
:101FB000F1EE10FA07D5D7ED017A9FED097A77EEA9
:101FC000877AC7ED017A7B6807EE903AB0EE670A30
:101FD0000C37BD465DF8047B704700BF00003443FA
:101FE0000000B443000034C380B586B000AF786011
:101FF000244B1B68002B40D07B68002B3DDD4FF04D
:1020000000037B6100233B6126E000237B811D4BA5
:1020100018681D4B19781D4B1A7807F10A03FFF752
:102020002DF9B7F90A3007EE903AF8EEE76A184B47
:1020300093ED007AC6EE877AC7ED037A97ED057ABD
:10204000D7ED037A77EE277AC7ED057A022004F000
:10205000EBF83B6901333B613A697B689A42D4DB18
:102060007B6807EE903AB8EEE77AD7ED056AC6EEE0
:10207000877A084BC3ED007A00E000BF1837BD46F1
:1020800080BD00BFDC020020E00200200C00002028
:1020900008000020E802002080B584B000AF78601E
:1020A0003960264A7B6813607868FFF74FF803466B
:1020B000002B03D0224B00221A700BE07868FFF748
:1020C0005BF80346002B03D01D4B01221A7001E080
:1020D00001F066FA3B68002B03D0194B1A783B6875
:1020E0001A700223FB73164B1B78FA7B194678682B
:1020F000FFF758F8134AFB7B1370134B134A1A600F
:10210000134B4FF07F521A60124B4FF000021A60CF
:102110000B4B1B7819467868FFF708F90346002B2C
:1021200005D10D4B01221A70FFF70AFF02E00A4B9E
:1021300000221A7000BF1037BD4680BDDC020020AF
:10214000E00200200C000020080000200000834274
:10215000E8020020E4020020EC02002080B586B0F6
:1021600000AF7860164B1B68002B24D07868FFF70F
:102170003BFF144B7B614FF07E533B61124B1B685E
:10218000FB6097ED047AD7ED037A27EE277AF7EE16
:10219000006AD7ED047A76EEE76AD7ED057A66EE47
:1021A000A77A77EE277A084BC3ED007A074B4FF0FA
:1021B00000021A6000E000BF1837BD4680BD00BFB6
:1021C000DC020020B4C8B6BEE8020020E402002011
:1021D00080B400AF044B1B6807EE903AB0EE670A7C
:1021E000BD465DF8047B7047E402002080B400AF78
:1021F000044B4FF000021A6000BFBD465DF8047B3F
:10220000704700BFE402002080B582B000AF2F4BC2
:102210001B7883F00103DAB22C4B1A702B4B1B781E
:10222000002B4FD000237B80294B1868294B19784D
:10223000294B1A78BB1CFFF721F8B7F9023007EEDB
:10224000903AF8EEE76A254B93ED007AC6EE877A6E
:10225000C7ED017A224BD3ED007A97ED017A77EE44
:10226000677AC7ED017AD7ED017A9FED1E7AF4EE19
:10227000C77AF1EE10FA0BDDD7ED017A9FED1A7AED
:10228000F4EEC77AF1EE10FA02D54FF000037B604E
:10229000D7ED017A9FED157A27EE877A144BD3EDAF
:1022A000007A27EE277A134BD3ED007A77EE277A60
:1022B000B0EE670AFFF760FEF0EE407A0D4BC3ED1B
:1022C000007A00E000BF0837BD4680BD040300204F
:1022D000DC020020E00200200C00002008000020AA
:1022E000E8020020CDCCCCBECDCCCC3E0AD7A33C5E
:1022F00004000020E402002080B582B000AF7860C6
:102300007B685B8A1946786803F06BFA00BF083770
:10231000BD4680BD80B584B000AF78607B681B6827
:102320001F4A934238D11F4B1B889BB2184600F0BE
:1023300035FF0346FB811C4B1B889BB2FA899A42EE
:1023400009D1194B1B889BB2184600F027FF0346A2
:102350001A46154B1A80134B1B889BB21A46134B17
:102360001978134B99540F4AFB8913800F4B1B7834
:102370000133104A13441B7803F09703002B06D057
:102380000A4B1A780C4B1A700C4B01221A7001225E
:1023900006490B4807F06BFF00BF1037BD4680BDF4
:1023A00000480040D4070020D6070020680800201D
:1023B000D4050020802F0108D1050020D20500207F
:1023C0005405002080B582B000AF78607B681B6840
:1023D000074A934207D1074B00221A80012206497F
:1023E000064807F044FF00BF0837BD4680BD00BF68
:1023F00000480040580800206808002054050020CC
:1024000080B586B002AF06F063F8F860FB68BB6089
:102410001A4B5B68013307EE903AB8EE677ABB68F7
:1024200007EE903AF8EE676A9FED156AC6EE267AD7
:1024300067EE277AC7ED017A40F67E13019340F2EA
:10244000E25300934FF4826397ED010A00220B4997
:102450000C4803F079F90B4803F09FF90346002B71
:1024600004D04FF47A7008F099FFFAE70548FFF7B7
:1024700043FF00BF1037BD4680BD00BF7C04002075
:1024800000247449AC05002080B582B000AF0F4B2A
:1024900001221A7001F080F94FF47A637B6078684A
:1024A000FFF75CFEFFF7A2FE084B00221A70084BF4
:1024B0004FF000025A60064B4FF000029A60044B46
:1024C00000221A7000BF0837BD4680BDC505002038
:1024D0005C08002080B500AF0648FFF70DFF002123
:1024E0000020FFF7C9FB01F057F9034B00221A70D7
:1024F00000BF80BDAC050020C405002080B582B0BF
:1025000000AF03F01FFE00F095F800F02BFC00F088
:10251000C5F900F033FB00F019F900F06BF900F099
:102520003FFA00F08BFA00F0E3F800F0F1FB00F066
:1025300093FB02F0F9FC01F039F8FFF753FB4FF47D
:1025400000422949294802F065FF0023FB70FB1C6B
:1025500019462748FFF7A0FDFFF748FE254B4FF02F
:1025600000025A60234B4FF000029A60214B002278
:102570001A70FEF74DFF01221F49204807F077FE31
:102580001F4B7B607868FDF783FE03469AB24FF0DD
:10259000FF337968194807F0DFFD08F023FE194A78
:1025A0000021194808F068FE0346184A1360184ACB
:1025B0000021184808F060FE0346174A1360174AC6
:1025C0000021174808F058FE0346164A1360164AC1
:1025D0000021164808F050FE0346154A136008F023
:1025E00025FE00BFFDE700BF000402400C050020EF
:1025F000080300205C080020680800205405002023
:102600006021010850220108B13200089C05002019
:102610007422010871330008A005002098220108E7
:1026200099330008A4050020BC2201086135000888
:10263000A805002080B594B000AF07F12003302238
:10264000002118460DF046F807F10C0300221A602D
:102650005A609A60DA601A610023BB60224B1B6CDF
:10266000214A43F0805313641F4B1B6C03F08053CB
:10267000BB60BB6800237B601C4B1B681B4A43F498
:1026800080431360194B1B6803F480437B607B68B5
:1026900002233B620123FB6210233B630023BB63E5
:1026A00007F12003184605F0CFFA0346002B01D0AE
:1026B00000F076FF0F23FB6000233B6100237B616A
:1026C0000023BB610023FB6107F10C0300211846C6
:1026D00005F032FD0346002B01D000F061FF00BF82
:1026E0005037BD4680BD00BF00380240007000403A
:1026F00080B500AF124B134A1A60114B124A5A6050
:102700000F4B00229A600E4B0022DA600C4B4FF404
:1027100080421A610A4B00225A61094B00229A61D9
:10272000074B0022DA61064B00221A62044804F0CB
:1027300011F90346002B01D000F032FF00BF80BD2D
:102740000803002000580040A086010080B58CB02E
:1027500000AF07F10C032422002118460CF0BAFF49
:102760003B1D00221A605A60214B4FF080421A60D4
:102770001F4B00225A601E4B00229A601C4B4FF6E2
:10278000FF72DA601A4B00221A61194B00229A611B
:102790000323FB6000233B6101237B610023BB61BA
:1027A0000A23FB6100233B6201237B620023BB629F
:1027B0000A23FB6207F10C0319460D4806F0AEFA36
:1027C0000346002B01D000F0EBFE00237B600023CA
:1027D000BB603B1D1946064807F08CFB0346002BE7
:1027E00001D000F0DDFE00BF3037BD4680BD00BF28
:1027F0005C03002080B58CB000AF07F10C032422ED
:10280000002118460CF066FF3B1D00221A605A603A
:10281000204B214A1A601F4B00225A601D4B002298
:102820009A601C4B4FF6FF72DA601A4B00221A6155
:10283000184B00229A610323FB6000233B610123B4
:102840007B610023BB610A23FB6100233B62012300
:102850007B620023BB620A23FB6207F10C0319466B
:102860000C4806F05BFA0346002B01D000F098FEFE
:1028700000237B600023BB603B1D1946054807F021
:1028800039FB0346002B01D000F08AFE00BF303731
:10289000BD4680BDA40300200004004080B58EB07A
:1028A00000AF07F1280300221A605A609A60DA60CC
:1028B00007F1200300221A605A603B1D00221A60B3
:1028C0005A609A60DA601A615A619A61324B334AEF
:1028D0001A60314B00225A602F4B00229A602E4B17
:1028E00040F21F32DA602C4B00221A612A4B802200
:1028F0009A61294805F000FE0346002B01D000F044
:102900004FFE4FF48053BB6207F12803194622485B
:1029100006F086FD0346002B01D000F041FE1E4864
:1029200005F0AAFE0346002B01D000F039FE20235B
:102930003B6200237B6207F120031946164807F02B
:10294000D9FA0346002B01D000F02AFE60237B60F9
:102950000023BB600023FB6000237B613B1D08223A
:1029600019460D4806F09AFC0346002B01D000F0F2
:1029700017FE3B1D0C221946074806F08FFC034644
:10298000002B01D000F00CFE034803F0A5F900BFB6
:102990003837BD4680BD00BFEC0300200008004072
:1029A00080B586B000AF07F1080300221A605A60B4
:1029B0009A60DA603B4600221A605A601D4B1E4A3C
:1029C0001A601C4B40F23F625A601A4B00229A6018
:1029D000184B6322DA60174B00221A61154B002254
:1029E0009A61144805F088FD0346002B01D000F0E1
:1029F000D7FD4FF48053BB6007F1080319460D481B
:102A000006F00EFD0346002B01D000F0C9FD0023A7
:102A10003B6000237B603B461946064807F06AFA94
:102A20000346002B01D000F0BBFD00BF1837BD46A8
:102A300080BD00BF34040020000C004080B596B07B
:102A400000AF07F1480300221A605A609A60DA600A
:102A500007F1400300221A605A6007F124030022A4
:102A60001A605A609A60DA601A615A619A613B1D75
:102A70002022002118460CF02DFE3E4B3E4A1A60E3
:102A80003C4B0F225A603B4B00229A60394B44F674
:102A90001F62DA60374B00221A61364B00225A61FE
:102AA000344B80229A61334805F026FD0346002B03
:102AB00001D000F075FD4FF48053BB6407F148036B
:102AC00019462C4806F0ACFC0346002B01D000F060
:102AD00067FD284805F0D0FD0346002B01D000F02B
:102AE0005FFD00233B6400237B6407F1400319462C
:102AF000204807F0FFF90346002B01D000F050FDFD
:102B000060237B620023BB620023FB6200233B63E4
:102B100000237B630023BB630023FB6307F12403D3
:102B200000221946134806F0B9FB0346002B01D0DA
:102B300000F036FD00237B600023BB600023FB60B8
:102B400000233B6100237B614FF40053BB610023F2
:102B50003B623B1D1946074807F048FA0346002B25
:102B600001D000F01DFD034803F0B6F800BF583750
:102B7000BD4680BD7C0400200004014080B58CB0BF
:102B800000AF07F1200300221A605A609A60DA60F1
:102B90003B1D00221A605A609A60DA601A615A611D
:102BA0009A612B4B2B4A1A60294B00225A60284B02
:102BB00000229A60264B40F21F32DA60244B00223A
:102BC0001A61234B80229A61214805F095FC034647
:102BD000002B01D000F0E4FC4FF480533B6207F17E
:102BE000200319461A4806F01BFC0346002B01D0AF
:102BF00000F0D6FC164805F03FFD0346002B01D03F
:102C000000F0CEFC60237B600023BB600023FB60F0
:102C100000237B613B1D002219460D4806F03EFB58
:102C20000346002B01D000F0BBFC3B1D04221946DB
:102C3000074806F033FB0346002B01D000F0B0FC40
:102C4000034803F049F800BF3037BD4680BD00BFE0
:102C5000C40400200040014080B588B000AF07F1F7
:102C6000100300221A605A609A60DA603B46002224
:102C70001A605A609A60DA60234B244A1A60224B29
:102C80000F225A60204B00229A601F4B4FF6FF72B2
:102C9000DA601D4B00221A611B4B00229A611A4810
:102CA00005F02AFC0346002B01D000F079FC4FF41C
:102CB00080533B6107F110031946134806F0B0FB3F
:102CC0000346002B01D000F06BFC0F4805F0F6FD29
:102CD0000346002B01D000F063FC0A233B60012374
:102CE0007B600023BB600023FB603B46002219464B
:102CF000054806F037FA0346002B01D000F050FCDF
:102D000000BF2037BD4680BD0C05002000180040E4
:102D100080B500AF114B124A1A60104B4FF4E132EC
:102D20005A600E4B00229A600C4B0022DA600B4B6B
:102D300000221A61094B0C225A61084B00229A6149
:102D4000064B0022DA61054807F0B6F90346002B6E
:102D500001D000F025FC00BF80BD00BF540500205D
:102D60000048004080B58AB000AF07F1140300228C
:102D70001A605A609A60DA601A6100233B61494B1D
:102D80001B6B484A43F010031363464B1B6B03F065
:102D900010033B613B690023FB60424B1B6B414AC4
:102DA00043F0020313633F4B1B6B03F00203FB6012
:102DB000FB680023BB603B4B1B6B3A4A43F00803A4
:102DC0001363384B1B6B03F00803BB60BB68002325
:102DD0007B60344B1B6B334A43F004031363314B6A
:102DE0001B6B03F004037B607B6800233B602D4B6F
:102DF0001B6B2C4A43F0010313632A4B1B6B03F03C
:102E000001033B603B6800224FF48071264803F0C9
:102E100087FD00224FF40041244803F081FD002289
:102E20004FF4F041224803F07BFD4FF480737B6147
:102E30000123BB610023FB6100233B6207F1140304
:102E40001946194803F0B8FB4FF400437B61012396
:102E5000BB610023FB6100233B6207F114031946A9
:102E6000124803F0A9FB4FF4F0437B610123BB61DF
:102E70000023FB6100233B6207F1140319460C4851
:102E800003F09AFB01237B610023BB610023FB61FC
:102E900007F114031946044803F08EFB00BF2837DE
:102EA000BD4680BD003802400010024000040240D0
:102EB000000C024080B500AF01F012FF094A00216A
:102EC000002001F0FFFF084A1821002001F0FAFF5E
:102ED000064A3021002001F0F5FF01F07BFE00BF23
:102EE00080BD00BF74210108802101088C210108E8
:102EF00080B58CB004AFF860B9607A6087ED000AE5
:102F0000D7ED007AB2EE047A67EE877A97ED007A11
:102F1000B5EEC07AF1EE10FA02DBB6EE007A01E00F
:102F2000BEEE007A77EE277AFDEEE77A17EE903A5A
:102F3000FB61FB69002B02DA4FF0FF3300E0012355
:102F4000BB61FB69002B02DAFB695B42FB61FB6939
:102F5000144A82FB03129210DB17D31A7B61FA69C1
:102F6000104B83FB02139910D317C91A0B469B0011
:102F70000B445B00D31A3B61BB69002B01DA2D23A4
:102F800000E020233A6902927A69019200937B68FB
:102F9000054AB968F8680BF0AFFB00BF2037BD46A3
:102FA00080BD00BF676666669821010880B58EB057
:102FB00002AF87ED010AC7ED000A01F091FE5A4AFF
:102FC0000021002001F07EFFD7ED017AF0EEE77AD4
:102FD0009FED567AF4EEC77AF1EE10FA09DD07F1AB
:102FE000080397ED010A524A15211846FFF780FFA2
:102FF00006E007F108034F4A152118460BF07CFB49
:1030000007F108031A461021002001F05BFFD7EDFD
:10301000007AF0EEE77A9FED457AF4EEC77AF1EEAA
:1030200010FA09DD07F1080397ED000A424A15215D
:103030001846FFF75DFF06E007F108033F4A152138
:1030400018460BF059FB07F108031A46202100200F
:1030500001F038FFD7ED017AF0EEE77A9FED337A91
:10306000F4EEC77AF1EE10FA49DDD7ED007AF0EE12
:10307000E77A9FED2E7AF4EEC77AF1EE10FA3EDD94
:10308000D7ED016A97ED007AC6EE877AC7ED0B7A25
:10309000D7ED0B7A9FED2A7A67EE877A97ED0B7A58
:1030A000B5EEC07AF1EE10FA02DBB6EE007A01E07E
:1030B000BEEE007A77EE277AFDEEE77A17EE903AC9
:1030C000BB62BB6A1F4A82FB03125211DB17D31A81
:1030D0007B62BB6A1B4A82FB03125111DA178A1A00
:1030E000642101FB02F29B1A3B6207F108003B6A74
:1030F00000937B6A144A15210BF0FEFA06E007F1F3
:103100000803124A152118460BF0F6FA07F10803D6
:103110001A463021002001F0D5FE01F05BFD00BF12
:103120003037BD4680BD00BFA82101080AD7233C27
:10313000B8210108C0210108D0210108D8210108C7
:103140000000C8421F85EB51E8210108F821010861
:1031500080B584B000AF78607B68002B15D07868AC
:10316000FDF796F8F860FB68002B10D0FB68B3F50C
:10317000803F02D34FF6FF73FB60FB689AB2642373
:103180007968054806F0E8FF02E000BF00E000BFF4
:103190001037BD4680BD00BF5405002080B483B009
:1031A00000AF0346FB80FB8801339BB2C3F30803E7
:1031B0009BB218460C37BD465DF8047B7047000093
:1031C00080B582B000AF48E02A4B1B889BB21A46FC
:1031D000294B9B5CFB71274B1B889BB21846FFF762
:1031E000DDFF03461A46234B1A80FB790D2B31D0A5
:1031F000224B1B78002B09D0FB790A2B2CD11F4BBB
:1032000000221A701E4B00221A8025E01C4B1B88DE
:103210007F2B0DD81A4B1B885A1C91B2184A11806B
:103220001946184AFB795354FB790A2B15D106E04D
:10323000134B00221A80114B01221A700DE0104B23
:103240001B881A460F491048FEF708F90C4B00225C
:103250001A8002E000BF00E000BF064B1B889AB254
:103260000A4B1B889BB29A42AED100BF00BF083701
:10327000BD4680BDD6070020D40500205A08002096
:1032800058080020D807002054050020D40700204B
:1032900080B500AF04E0052008F080F8FFF790FF4C
:1032A00000F030FC0346002BF5D100BF00BF80BD0D
:1032B00080B584B000AF7860FFF7A2F8FFF70AF995
:1032C000FFF7E2F802F004FF0346FB73FFF778FF15
:1032D00002F0FEFE0346BB73FB7B002B2DD1BB7BB4
:1032E000002B2AD02048B3EE0E0A00F079FEFFF73B
:1032F00067FF4FF0FF3000F0C9FDFFF7C9FFFFF790
:10330000E9F8FFF75DFF1848B3EE0E0A00F068FE1B
:10331000FFF756FF9FED120B4C2000F0EBFCFFF780
:10332000B7FFFFF7D7F8FFF74BFFBBEE0E0A00F031
:1033300021FCFFF7ADFFFFF7CDF8FEF7FBFAB86011
:10334000BB68002B03D0B9680848FEF715FBBB7BB0
:10335000FB730A2008F022F8B8E700BFAFF3008043
:103360000000000000000000C131000854050020EA
:1033700080B582B000AF7860FEF71CFC0346002BDE
:1033800005D0FEF703FD00F0EDFFFEF71FFC012066
:1033900008F004F8F0E7000080B592B002AF786062
:1033A00002F036FFF863002387F83B30FFF782FD19
:1033B000604B1B7887F8333097F83330002B16D0EA
:1033C00097F83B30002B0ED15B4BD3ED007A5B4B73
:1033D00093ED007AF0EE470AB0EE670AFFF7E6FDDC
:1033E000012387F83B30322007F0D8FFA1E097F89F
:1033F0003B30002B07D0002387F83B30FFF75AFD06
:1034000002F006FFF86302F003FFF862FA6AFB6B52
:10341000D31AC72B40F28A80FB6AFB6302F00EF8D6
:10342000322007F0BBFF02F075F887ED0A0AD7EDEE
:103430000A7AB2EE047A67EE877A97ED0A7AB5EEE9
:10344000C07AF1EE10FA02DBB6EE007A01E0BEEED1
:10345000007A77EE277AFDEEE77A17EE903A7B63F3
:103460007B6B002B01DA00237B637B6B344A82FB8E
:1034700003129210DB17D31A7B627A6B304B83FBFB
:1034800002139910D317C91A0B469B000B445B001B
:10349000D31A3B6207F10C003B6A00937B6A294A0E
:1034A00010210BF029F9284A0021482001F00AFDDB
:1034B00007F10C031A460021482001F003FD234BBD
:1034C0001B78FB77224B1B78BB77FB7F002B0DD043
:1034D000204A1821482001F0F5FCBA7F012300930F
:1034E0000C231821482001F07BFC04E01A4A182123
:1034F000482001F0E7FC194B1B787B777B7F002B82
:103500000DD0144A3021302001F0DCFC7A7F0123F9
:1035100000930C233021302001F062FC04E00E4ABD
:103520003021302001F0CEFC01F054FB052007F0E3
:1035300035FF3DE7D0050020C8050020CC05002060
:10354000676666660822010810220108D20500207D
:10355000D1050020182201081C220108C405002002
:1035600080B586B000AF78600023FB7532233B61E5
:103570000023FB60FFF724FE02F04AFEB860FB7DEB
:10358000002B06D10548FFF7E3FD0123FB75BB685F
:10359000FB60052007F002FFECE700BF20220108D6
:1035A00080B400AF72B600BF00BFFDE780B500AFCA
:1035B0000C210D4805F0BAF808210B4805F0B6F8C3
:1035C00000210A4805F0B2F80421084805F0AEF8D9
:1035D0003C21074805F048FC3C21064805F044FC26
:1035E00000F0DAF800BF80BDEC030020C404002026
:1035F0005C030020A403002080B489B000AF034620
:103600000A46FB711346BB7197F90730642B01DD45
:103610006423FB7197F9073013F1640F01DA9C23DF
:10362000FB7197F90630642B01DD6423BB7197F9B8
:10363000063013F1640F01DA9C23BB71514B1B68F8
:10364000DB6AFB61504B1B68DB6ABB6197F9073093
:10365000002B08D14B4B1B6800221A64494B1B6896
:103660000022DA633DE097F9073007EE903AF8EE72
:10367000E77AB0EEE77ADFED456AC7EE267A9FED8E
:10368000447A67EE877A9FED437A77EE877AC7EDC3
:10369000057AFB69013307EE903AB8EE677AD7ED09
:1036A000057A27EE277ADFED396AC7EE267AFCEE37
:1036B000E77A17EE903A3B6197F90730002B08DD67
:1036C000304B1B683A691A642E4B1B680022DA6380
:1036D00007E02C4B1B6800221A642A4B1B683A69CE
:1036E000DA6397F90630002B08D1274B1B680022BC
:1036F0005A63254B1B6800229A633DE097F9063018
:1037000007EE903AF8EEE77AB0EEE77ADFED1F6A5F
:10371000C7EE267A9FED1E7A67EE877A9FED1D7AB7
:1037200077EE877AC7ED037ABB69013307EE903AEB
:10373000B8EE677AD7ED037A27EE277ADFED136AC2
:10374000C7EE267AFCEEE77A17EE903ABB6097F95F
:103750000630002B08DD0C4B1B6800225A630A4B15
:103760001B68BA689A6307E0074B1B68BA685A631C
:10377000054B1B6800229A6300BF2437BD465DF8E5
:10378000047B7047EC030020C40400200000C84202
:10379000000038420000584280B400AF0A4B1B685A
:1037A0000022DA63084B1B6800221A64074B1B686F
:1037B00000225A63054B1B6800229A6300BFBD4676
:1037C0005DF8047B704700BFEC030020C4040020B8
:1037D00080B584B000AF0346FB80194B1B68DB6AE1
:1037E000FB60184B1B68DB6ABB60154B1B68FA68F3
:1037F0001A64134B1B68FA68DA63124B1B68BA68C9
:103800005A63104B1B68BA689A63FB88002B03D07D
:10381000FB88184602F008FD094B1B680022DA639A
:10382000074B1B6800221A64064B1B6800225A6370
:10383000044B1B6800229A6300BF1037BD4680BD51
:10384000EC030020C404002080B400AF044B1B68CC
:103850005B6A1BB21846BD465DF8047B704700BF2B
:103860005C03002080B400AF044B1B685B6A1BB292
:103870005B421846BD465DF8047B7047A4030020F8
:1038800080B400AF064B1B6800225A62054B1B68D0
:1038900000225A6200BFBD465DF8047B704700BF3E
:1038A0005C030020A403002080B582B000AF7860E4
:1038B0007B685B8A1946786801F093FF00BF083780
:1038C000BD4680BD80B485B000AF87ED010A114BC5
:1038D0004FF000029A620F4B002283F82C200D4B10
:1038E000002283F82D200023FB7308E0FB7B094AAC
:1038F0009B0013447A681A60FB7B0133FB73FB7BEC
:10390000092BF3D900BF00BF1437BD465DF8047B17
:10391000704700BFB808002080B485B000AF87EDC5
:10392000010A3D4B93F82C30092B2BD83A4B93F8D6
:103930002D30394A9B0013447A681A60364B93ED58
:103940000A7AD7ED017A77EE277A334BC3ED0A7AFC
:10395000314B93F82D30591C304BA3FB0123DA086F
:1039600013469B0013445B00CA1AD2B22A4B83F859
:103970002D20294B93F82C300133DAB2264B83F8F3
:103980002C202EE0244B93F82D30234A9B00134427
:103990001B68FB60204B93F82D301F4A9B0013449B
:1039A0007A681A601C4B93ED0A7AD7ED016AD7ED5D
:1039B000037A76EEE77A77EE277A174BC3ED0A7A29
:1039C000154B93F82D30591C144BA3FB0123DA0837
:1039D00013469B0013445B00CA1AD2B20E4B83F805
:1039E0002D200D4B93F82C30002B02D1D7ED017A0E
:1039F0000BE0094BD3ED0A6A074B93F82C3007EE26
:103A0000903AB8EE677AC6EE877AB0EE670A143756
:103A1000BD465DF8047B7047B8080020CDCCCCCC07
:103A200080B400AF074B1B78002B01D1064B00E0A0
:103A3000064B07EE903AB0EE670ABD465DF8047B90
:103A4000704700BFE8080020CDCCBF420000C8424C
:103A500080B400AF074B1B78002B02D14FF07F538F
:103A600000E0054B07EE903AB0EE670ABD465DF800
:103A7000047B7047E80800200000A04080B584B0B7
:103A800000AF87ED010A0D4BD3ED087A97ED017A6F
:103A900077EE677AF0EEE77AC7ED037AD7ED037A2F
:103AA00077EEA77AC7ED027A97ED020A0EF0F4FAE4
:103AB000034618461037BD4680BD00BF6C08002085
:103AC00080B582B000AF0D4B93F91030002B02DDB2
:103AD0004FF4C86301E040F2AA53FB80FB8819460B
:103AE000074801F07EFE054B012283F82820034B96
:103AF00005225A8500BF0837BD4680BD6C080020EE
:103B0000AC05002080B400AF034B1B781846BD46BF
:103B10005DF8047B704700BF6C08002080B500AFE3
:103B2000124B1B78002B1ED0104B00221A700F4B2B
:103B300000225A7000210020FEF79EF8FFF72CFEAD
:103B40000A4B002283F82820084B00225A85074B95
:103B50004FF000021A620648FFF7A6FE034B002250
:103B6000A3F84A2000E000BF80BD00BF6C08002021
:103B7000AC05002080B588B000AF87ED010AFFF7E3
:103B80007FFEFEF7EBF8FEF731FB9FED540AFFF7DF
:103B900099FE534B00221A70514B01225A70D7EDF7
:103BA000017AF5EEC07AF1EE10FA01DB012201E0B4
:103BB0004FF0FF324A4B9A70494B002283F828207D
:103BC000474B00225A854748FFF76EFE9FED430A98
:103BD000FFF754FF78617B69002B02D0786907F00A
:103BE000DDFB3F4B4FF000021A62D7ED017AF0EE99
:103BF000E77A9FED3D7A67EE877AB0EE670A0EF0BE
:103C00004BFA0346364A5360354B5B68092B60DD3F
:103C1000364BD3ED007AF5EEC07AF1EE10FA02D50C
:103C20004FF0000301E0314B1B683B61304BD3ED9B
:103C3000007AF5EEC07AF1EE10FA02D54FF00003EB
:103C400001E02B4B1B68FB609FED277AD7ED047AD0
:103C500067EE277AB0EE670A0EF01EFAF8619FED64
:103C6000227AD7ED037A67EE277AB0EE670A0EF074
:103C700013FAB861FB69002B01DA0023FB61BB6911
:103C8000002B01DA0023BB61154B5A68F969BB6947
:103C90000B449A420CDC124B5B68DA0F13445B1046
:103CA0001A460F4B9A600E4B9B680D4AD36008E092
:103CB0000B4AFB6993600A4B5A68BB69D31A084ADE
:103CC000D36000210020FDF7D7FF054B01221A70B9
:103CD00000E000BF2037BD4680BD00BF00000000EF
:103CE0006C080020AC0500204979964210000020A5
:103CF0001400002080B588B000AF034687ED000AAD
:103D0000FB71FFF7BDFDFEF729F8FEF76FFA9FED97
:103D1000590AFFF7D7FD584B02225A70564B002222
:103D20001A70554B002283F82820534B00225A85E5
:103D3000FB794C2B06D1504B01221A744E4B0122B9
:103D40005A7419E0FB79522B06D14B4BFF221A749F
:103D5000494B01225A740FE0FB796C2B06D1464B7C
:103D600001221A74444BFF225A7405E0424BFF2291
:103D70001A74414BFF225A74D7ED007AF0EEE77ABD
:103D8000C7ED077AD7ED077A9FED3C7AF4EEC77A54
:103D9000F1EE10FA01D83A4BFB61374B93F9103032
:103DA00007EE903AF8EEE77A97ED077A67EE277A12
:103DB000C7ED067A304B93F91130002B05DAD7EDB9
:103DC000067AF1EE677AC7ED067A2B4ABB69536132
:103DD000FFF726FE87ED050A274B93F91030002BDD
:103DE00004DDD7ED057AF1EE677A01E0D7ED057ACB
:103DF000C7ED047A00210020FDF73EFFFFF7CCFC61
:103E000097ED040A1F4801F037FD97ED040AFFF70C
:103E100035FEF860FB68002B02D0F86807F0BEFAA8
:103E2000154A3B691362144B4FF000029A61124B22
:103E30004FF00002DA61144B1A880F4BDA840E4BF4
:103E4000DA8C0D4B9A8400210020FDF715FF0A4BF8
:103E500001221A70084B93F911309B00064A92F91F
:103E60001120920011461846FDF706FF00BF2037CB
:103E7000BD4680BD000000006C0800200AD7233C2E
:103E80000000B442AC0500201800002080B586B0C8
:103E900000AF0346FB7197F90730B3F1FF3F05D040
:103EA00097F90730012B01D0FF23FB71FFF7E8FCE6
:103EB000FDF754FFFEF79AF99FED420AFFF702FD66
:103EC000414B00221A70404B03225A703E4B012294
:103ED0009A703D4B002283F828203B4B00225A85E4
:103EE0003A48FFF7E1FC9FED370AFFF7C7FD78611D
:103EF0007B69002B02D0786907F050FA324B4FF003
:103F000000021A62304AFB7982F82C302E4B0022D4
:103F100083F82D202C4B0022A3F848202A4B232283
:103F2000A3F84A2097F90730B3F1FF3F01D1284B9E
:103F300000E0284B3B6197F90730B3F1FF3F01D117
:103F4000254B00E0254BFB601F4A3B691363D7ED0F
:103F5000047AF1EE677A1C4BC3ED0D7A1A4B4FF0E1
:103F600000029A63184AFB68D36397F90730B3F1EC
:103F7000FF3F01D1194B00E0174B134A1364124A5B
:103F8000FB685364104B4FF00002DA610E4B4FF0A8
:103F900000029A610C4BDB6B0B4A13620A4BD3EDA8
:103FA000087AB0EE670A094801F066FC1E211E205F
:103FB000FDF762FE044B01221A7000BF1837BD46A0
:103FC00080BD00BF000000006C080020AC05002090
:103FD00000002842000028C20000A0C20000A04249
:103FE00080B59AB000AF87ED010A3860D7ED017A4D
:103FF000F5EEC07AF1EE10FA01DD7B6800E0C24B0D
:104000003B64FFF78BFDC148FFF74EFC142007F01F
:10401000C5F93B68002B01D03B689847FFF730FC9F
:10402000FDF79CFEFEF7E2F89FEDB90AFFF74AFCA8
:10403000FFF70AFC7866FFF715FC38664FF00003BF
:10404000FB65002387F85B3000237B65002100209F
:10405000FDF712FE0A2007F0A1F93B68002B01D002
:104060003B689847FFF7F0FBF863FFF7FBFBB8638B
:10407000FA6B7B6ED31A7B63BA6B3B6ED31A3B63CE
:10408000FB6B7B66BB6B3B667B6B07EE903AF8EE97
:10409000E77AB0EEE77A3B6B07EE903AF8EEE77A14
:1040A000F0EEE77A77EE277AB6EE007A67EE877A57
:1040B000C7ED0B7ADFED976A97ED0B7AC7EE267A9C
:1040C00097ED177A77EE277AC7ED177AD7ED177A3B
:1040D0009FED917AF4EEC77AF1EE10FA80F22C811E
:1040E00097F85B30013387F85B3097F85B30032B30
:1040F00040F20581002387F85B3001F09FF928200A
:1041000007F04CF93B68002B01D03B68984701F061
:1041100001FA87ED0A0AD7ED0A7AF5EEC07AF1EED8
:1041200010FA40F2EE8097ED0A7AD7ED107A77EE2A
:10413000677AC7ED097A7B6D002B17D1D7ED097A25
:10414000F0EEE77A9FED757AF4EEC77AF1EE10FAA9
:1041500040F2F480D7ED097AF5EEC07AF1EE10FA6C
:1041600001DD012301E04FF0FF337B657B6D002B08
:1041700009DDD7ED097A9FED697AF4EEC77AF1EEA1
:1041800010FA40F2DC807B6D002B09DAD7ED097A5A
:104190009FED637AF4EEC77AF1EE10FA80F2CF80E9
:1041A000D7ED097AF0EEE77AC7ED087AD7ED087A0D
:1041B000B2EE0E7AF4EEC77AF1EE10FA2AD897ED45
:1041C000087AF2EE0E6AC7EE267AC7ED137AD7EDBB
:1041D000137AF5EEC07AF1EE10FA02D54FF0000333
:1041E000FB64D7ED137AB7EE007AF4EEC77AF1EEFE
:1041F00010FA02DD4FF07E53FB64D7ED137A9FED8A
:10420000497A67EE877AB0EE087A77EE877AC7ED5B
:10421000147A01E0444B3B65D7ED147AB0EE087A8E
:10422000F4EEC77AF1EE10FA01D5404B3B65D7EDBD
:10423000147A9FED3F7AF4EEC77AF1EE10FA01DDC1
:10424000394B3B6597ED140A0DF026FFB864BB6C43
:1042500007EE903AF8EEE77AB0EE087AF4EEC77A15
:10426000F1EE10FA01D50323BB64BB6C282B01DDF2
:104270002823BB64BB6C7A6D02FB03F3BB64FDF7C0
:10428000A7FF87ED070A97ED070AFFF745FB87EDC4
:10429000060AD7ED067AF1EE677A9FED267A67EE89
:1042A000877AB0EE670A0DF0F7FE78647B6D002B1D
:1042B00002DA7B6C5B427B64BB6C002BB8BF5B4259
:1042C000DA0F13445B107B617A6C7B699A4201DDE3
:1042D0007B697B647B695B427A6C9A4202DA7B6918
:1042E0005B427B64BA6C7B6CD31A3B61BA6C7B6CAF
:1042F0001344FB60F9683869FDF7BEFCAAE600BF0D
:10430000A8E600BFA6E600BF0000F041AC05002013
:10431000000000004979964200009643CDCC4C3E07
:10432000CDCC4CBE000014420000204200004040B2
:1043300000002042CDCC6C4000BF00E000BFC82090
:10434000FFF746FA00210020FDF796FCFFF724FA5C
:104350000348FFF7A9FA00BF6837BD4680BD00BF1C
:10436000AC05002080B5ACB000AFFDF74DFFC64BEB
:104370001B78002B20D1C44B93F82830002B00F081
:104380001784C14B5B8D002B05D0BF4B5B8D013B70
:104390009AB2BD4B5A85BC4B5B8D002B40F0088414
:1043A000BA48FFF781FAB84B4FF000021A62B64BD9
:1043B000002283F82820FBE3FDF70AFF87ED180AA7
:1043C00097ED180AFFF7A8FA87ED170AAE4B5B784E
:1043D000022B40F08A81AC4BD3ED077A97ED187A27
:1043E00077EE677AC7ED2B7AD7ED2B7A9FEDA87A17
:1043F000F4EEC77AF1EE10FA08DDD7ED2B7A9FEDD7
:10440000A57A77EEC77AC7ED2B7A10E0D7ED2B7A35
:104410009FEDA17AF4EEC77AF1EE10FA07D5D7ED49
:104420002B7A9FED9C7A77EE877AC7ED2B7A964BA5
:1044300093ED067AD7ED2B7A77EE277A924BC3ED80
:10444000067A914A3B6ED3618F4BD3ED087AB0EE7A
:10445000670A8E4801F010FA8B4B93ED057A8A4B70
:10446000D3ED067A77EE677AC7ED077A864BD3ED00
:10447000057AF0EEE77AC7ED067A834BD3ED067A3C
:10448000F0EEE77AC7ED057AD7ED077AF0EEE77A36
:104490009FED827AF4EEC77AF1EE10FA0FD9D7EDDC
:1044A000067AF5EEC07AF1EE10FA1ADD97ED057A8C
:1044B000D7ED067AB4EEE77AF1EE10FA11DB724B23
:1044C00000221A70704B00225A7000210020FDF764
:1044D000D3FB3220FFF77CF9FFF75EF9FFF7F0FA24
:1044E0006BE3D7ED077AF0EEE77AC7ED047A664B17
:1044F0009B8C002B62D0644BDB8C7B817B89002BF7
:1045000006D11823C7F8A8305F4B00229A8480E0B8
:104510005D4B9B8C7A89D31A3B813B8907EE903A9D
:10452000F8EE677AB7EE007A77EE876A7B8907EE56
:10453000903AB8EE677AC6EE877AC7ED297AD7ED5A
:10454000297AB7EE007AF4EEC77AF1EE10FA03DDBD
:104550004FF07E53C7F8A430D7ED297AB3EE047A32
:1045600067EE877AB1EE007A77EE877AC7ED287A20
:10457000D7ED287AB1EE007AF4EEC77AF1EE10FAB0
:1045800003D54FF08143C7F8A030D7ED287AB3EEBA
:10459000087AF4EEC77AF1EE10FA02DD404BC7F864
:1045A000A03097ED280A0DF077FDC7F8A800364B2C
:1045B0009B8C013B9AB2344B9A842AE01823C7F8AB
:1045C000A830D7ED047AB2EE007AF4EEC77AF1EEB5
:1045D00010FA1ED597ED047AF2EE006AC7EE267A3D
:1045E000C7ED037AD7ED037AB3EE087A67EE877AE0
:1045F000B0EE670A0DF050FDC7F89C00D7F89C306C
:10460000032B02DC0423C7F89C30D7F89C30C7F892
:10461000A830D7F8A830C7F89830D7F89830032BCF
:1046200002DC0423C7F89830FFF712FA87ED250A59
:10463000D7ED257AB7EE007AF4EEC77AF1EE10FAEC
:1046400003D54FF07E53C7F89430D7F8983007EE73
:10465000903AB8EEE77AD7ED257A67EE277AB0EE92
:10466000670A0DF019FDC7F89000D7F89030032BBA
:1046700002DC0423C7F89030034B93F91030002B71
:1046800010DDD7F898300FE06C080020AC05002052
:10469000000034430000B443000034C3CDCCCC3D13
:1046A0000000C041D7F890307B60C24B93F91030C6
:1046B000002B02DDD7F8903001E0D7F898303B604E
:1046C000BC4B93F911301A467B6802FB03F37B6005
:1046D000B84B93F911301A463B6802FB03F33B6079
:1046E00039687868FDF7C8FA67E2B24B5B78032B4C
:1046F00040F06881AF4A3B6ED361AE4B93F82D30EA
:1047000087F83B3097F83B30022B33D9AA48FFF7A4
:10471000CBF8A84B4FF000021A6200210020FDF7F1
:10472000ABFAA44B0022A3F84A20A24BB3F84830BE
:10473000002B04D19F4B0A22A3F848203DE29D4B59
:10474000B3F84830002B00F035829A4BB3F848306C
:10475000013B9AB2974BA3F84820964BB3F84830E8
:10476000002B40F02782934B00221A70914B0022BD
:104770005A701FE297F83B308E4A0A339B0013446D
:1047800008331B687B6397F83B30002B09D097F800
:104790003B30013B874A0A339B00134408331B68B4
:1047A00001E04FF000033B6397F83B30814A0E3342
:1047B0009B00134404331B68FB627E4AFB6A13624E
:1047C00097ED0B0A7C4801F057F87C4BC7F88C300A
:1047D00097ED0D7AD7ED187A77EE677AF0EEE77AF3
:1047E000C7ED0A7AD7ED0A7AB1EE087AF4EEC77A05
:1047F000F1EE10FA20D597ED0A7AF1EE086AC7EECD
:10480000267AC7ED097AD7ED097AB3EE0A7A67EE10
:10481000877AB1EE007A77EE877AC7ED237AD7ED03
:10482000237AB1EE007AF4EEC77AF1EE10FA03D5EE
:104830004FF08143C7F88C305E4BB3F84A30002B01
:104840000BD04FF08143C7F88C305A4BB3F84A3045
:10485000013B9AB2574BA3F84A2097ED230A0DF07B
:104860001BFCC7F88800D7F88830032B02DC042330
:10487000C7F88830D7F888303B62D7F8883007EE21
:10488000903AF8EEE77AB7EE087A67EE877AB0EEFC
:10489000670A0DF001FCC7F88400D7F884203B6A52
:1048A0009A4202DA3B6AC7F88430D7F88830C7F8F2
:1048B0008030D7F88830FB67D7ED0B7AF5EEC07AF9
:1048C000F1EE10FA06DDD7F88430C7F880303B6A85
:1048D000FB670CE0D7ED0B7AF5EEC07AF1EE10FA3B
:1048E00005D53B6AC7F88030D7F88430FB67F96F8D
:1048F000D7F88000FDF7C0F9002387F87B3097EDEB
:104900000D7AD7ED0C7AB4EEE77AF1EE10FA10DDFD
:10491000D7ED0D7A9FED2A7A77EEC77A97ED187A60
:10492000B4EEE77AF1EE10FA13DB012387F87B305F
:104930000FE0D7ED0D7A9FED227A77EE877A97ED2B
:10494000187AB4EEE77AF1EE10FA02D8012387F86C
:104950007B3097F87B30002B00F02E8197F83B30AE
:104960000133DAB2134B83F82D20124B93F82D301C
:10497000012B04D80F4B2322A3F84A201CE10D4B36
:1049800093F82D30022B04D10A4B2322A3F84A209E
:1049900012E10948FEF788FF064B4FF000021A6249
:1049A00000210020FDF768F9024B0A22A3F84820F5
:1049B00002E100BF6C080020AC0500200000F041BF
:1049C000CDCCCC3D7E4A3B6ED361FEF73DFFB86552
:1049D000FEF748FF7865BB6D83EAE372A2EBE372F2
:1049E0007B6D002BB8BF5B421344DA0F13445B109E
:1049F0003B65734B5B683A6D9A420CDB704B00224F
:104A00001A7000210020FDF737F95020FEF7E0FE74
:104A1000FEF7C2FED1E06A4B9B683A6D9A421BDA00
:104A20003B6D07EE903AF8EEE76A654B9B6807EE40
:104A3000903AB8EEE77AC6EE877AC7ED127AD7EDEC
:104A4000127A9FED607A67EE877AB0EE087A77EE99
:104A5000877AC7ED1D7A28E0594BDB683A6D9A4298
:104A600021DD574B5A683B6DD31A07EE903AF8EEAA
:104A7000E76A534B5A68524BDB68D31A07EE903AF9
:104A8000B8EEE77AC6EE877AC7ED137AD7ED137AD8
:104A90009FED4C7A67EE877AB0EE087A77EE877AE8
:104AA000C7ED1D7A01E0484B7B67D7ED1D7AB0EE6C
:104AB000087AF4EEC77AF1EE10FA01D5434B7B6722
:104AC0003F4B5A683B6DD31A3B673B6F002B01DAB3
:104AD00000233B6797ED1D0A0DF0DEFAF866FA6ECB
:104AE0003B6F9A4201DD3B6FFB66FB6E002B01DAE8
:104AF0000023FB66FB6E002B04D13B6F002B01DD16
:104B00000123FB66D7ED177AF1EE677A9FED307AD5
:104B100067EE877AB0EE670A0DF0BEFAB866284BEA
:104B200093F90230002B02DABB6E5B42BB66FB6E70
:104B3000DA0F13445B101A46BB6E934204DDFB6E22
:104B4000DA0F13445B10BB66FB6EDA0F13445B1085
:104B50005B421A46BB6E934205DAFB6EDA0F1344D2
:104B60005B105B42BB66FA6EBB6ED31A7B64FA6E57
:104B7000BB6E13443B64124B93F902301A467B6CB4
:104B800002FB03F37B660E4B93F902301A463B6C33
:104B900002FB03F3FB630A4B93F90230002B02DAAA
:104BA0007B6E023B7B66F96B786EFDF765F804E07F
:104BB00000BF02E000BF00E000BFB037BD4680BDCF
:104BC0006C08002000003C420000484200004040C9
:104BD000CDCC6C4080B582B000AF0023FB7126E0E5
:104BE000FB79503BDBB20021184600F02BF8002186
:104BF000002000F027F80021102000F023F8002307
:104C0000BB710DE0BA79FB790D49D2000A44134417
:104C10001B780121184600F015F8BB790133BB71F0
:104C200097F90630002BEDDAFB790133FB71FB7944
:104C3000072BD5D900BF00BF0837BD4680BD00BFD8
:104C4000EC08002080B584B000AF03460A46FB7133
:104C50001346BB71BB79002B06D001224FF40061D3
:104C60001E4801F05DFE05E000224FF400611B4884
:104C700001F056FE0023FB7322E000224FF4804136
:104C8000164801F04DFE97F90730002B06DA012295
:104C90004FF40051114801F043FE05E000224FF4AB
:104CA00000510E4801F03CFE01224FF480410B48B8
:104CB00001F036FEFB795B00FB71FB7B0133FB737C
:104CC000FB7B072BD9D901224FF40061034801F087
:104CD00027FE00BF1037BD4680BD00BF000C02405C
:104CE00080B582B000AF0023FB7114E00023BB71DC
:104CF0000AE0BA79FB790C49D2000A441344002235
:104D00001A70BB790133BB7197F90630002BF0DACA
:104D1000FB790133FB71FB79072BE7D9FFF75AFFCA
:104D200000BF0837BD4680BDEC08002080B485B0C8
:104D300000AF0346FB710B46BB7113467B7100232A
:104D4000FB7397F90730002B41DBBB793F2B3ED833
:104D5000BB79DB08DBB2C3F10703BB73BB7903F09C
:104D600007037B737B7BC3F10703012202FA03F382
:104D7000FB737B79002B12D0FA79BB7B1749D200E9
:104D80000A4413441878FA79BB7BF97B0143C8B213
:104D90001249D2000A44134402461A7018E0FA7904
:104DA000BB7B0E49D2000A4413441B785AB297F9D0
:104DB0000F30DB435BB2134059B2FA79BB7BC8B208
:104DC0000649D2000A44134402461A7000E000BFAC
:104DD0001437BD465DF8047B704700BFEC08002027
:104DE00090B585B000AF0446084611461A462346E2
:104DF000FB710346BB710B467B7113463B71BB795C
:104E00003B737B79203B7B710023BB734DE03B7987
:104E10000C2B0BD17A79B97B284813465B001344DD
:104E20009B0003440B441B78FB7307E07A79BB7B40
:104E3000234912010A4413441B78FB7300237B733C
:104E40002DE097F90F30002B07DA97F82020B97979
:104E5000FB791846FFF76AFF0CE097F82030002B2B
:104E60000CBF01230023DBB21A46B979FB7918463F
:104E7000FFF75CFFFB7B5B00FB73BB790133BB710E
:104E8000BA793B7BD21A3B799A4205D13B7BBB7105
:104E9000FB790133FB7105E07B7B01337B737B7B0B
:104EA000072BCED9BB7B0133BB73BA7B3B799A42CC
:104EB000ADD300BF00BF1437BD4690BDE02201084E
:104EC0005427010880B584B002AF03463A60FB71F5
:104ED0000B46BB711FE0FB797A2B04D90023FB71D1
:104EE000BB791033BB71BB793A2B05D90023FB7119
:104EF000FB79BB71FFF7F4FE3B681A78B979F87952
:104F0000012300930C23FFF76BFFFB790833FB7140
:104F10003B6801333B603B681B78002BDBD100BF53
:104F200000BF0837BD4680BD80B500AF02F064FE0B
:104F3000424B1B6F414A23F0010313673F4B1B6F2A
:104F40003E4A23F00403136702F06AFE00224FF486
:104F500080513B4801F0E4FC642001F065F9012236
:104F60004FF48051364801F0DBFC0021AE20FFF702
:104F700069FE0021D520FFF765FE00215020FFF7D4
:104F800061FE0021A820FFF75DFE00213F20FFF712
:104F900059FE0021D320FFF755FE00210020FFF726
:104FA00051FE00214020FFF74DFE00218D20FFF72C
:104FB00049FE00211420FFF745FE00212020FFF7C5
:104FC00041FE00210220FFF73DFE0021A120FFF756
:104FD00039FE0021C020FFF735FE0021DA20FFF75F
:104FE00031FE00211220FFF72DFE00218120FFF766
:104FF00029FE0021EF20FFF725FE0021D920FFF731
:1050000021FE0021F120FFF71DFE0021DB20FFF72C
:1050100019FE00213020FFF715FE0021A420FFF724
:1050200011FE0021A620FFF70DFE0021AF20FFF7A3
:1050300009FEFFF755FE00BF80BD00BF00380240EB
:10504000000C024080B487B000AF7861396187ED11
:10505000030AC7ED020A87ED011AC7ED001A7B6942
:10506000002B4DD03B69002B4AD03B691A687B6905
:105070001A603B6904331A687B695A603B690833DC
:105080001A687B699A607B69FA685A627B69BA68B8
:105090009A627B697A68DA627B693A681A637B692B
:1050A0004FF000029A647B699A6C7B695A647B6951
:1050B0005A6C7B691A647B694FF00002DA637B6982
:1050C000DA6B7B699A637B699A6B7B695A637B694C
:1050D0004FF000025A617B695A697B691A627B69E9
:1050E0001A6A7B69DA617B69DA697B699A617B6933
:1050F0004FF000021A617B691A697B69DA6000E08F
:1051000000BF1C37BD465DF8047B704780B485B096
:1051100000AFF86087ED020AC7ED010AFB68002BBB
:1051200002D14FF00003E5E0FB689A6BFB68DA639D
:10513000FB685A6BFB689A63FB687A68DA60FB6805
:10514000BA681A6197ED017AD7ED027A77EE677A3D
:10515000FB68C3ED0D7AFB6893ED007AFB68D3ED35
:105160000D7A67EE277AFB68C3ED067AFB6893ED4C
:10517000077AFB68D3ED016AFB68D3ED0D7A66EE22
:10518000A76AFB68D3ED0C7A66EEA77A77EE277AEA
:10519000FB68C3ED077AFB6893ED077AFB68D3EDF4
:1051A0000A7AB4EEE77AF1EE10FA04DDFB689A6A47
:1051B000FB68DA6114E0FB6893ED077AFB68D3EDD6
:1051C0000A7AF1EE677AB4EEE77AF1EE10FA07D5D3
:1051D000FB68D3ED0A7AF1EE677AFB68C3ED077AD4
:1051E000FB685A6CFB689A64FB681A6CFB685A642B
:1051F000FB6893ED0D7AFB68D3ED0E7A77EE677A54
:10520000FB68C3ED107AFB68D3ED026AFB6893ED8F
:10521000106AFB68D3ED0C7AF5EEC07AF1EE10FA65
:1052200003DDFB68D3ED0C7A01E0F7EE007A86EE41
:10523000277A66EE877AFB68C3ED087AFB6893ED00
:10524000087AFB68D3ED0B7AB4EEE77AF1EE10FA48
:1052500004DDFB68DA6AFB681A6214E0FB6893ED10
:10526000087AFB68D3ED0B7AF1EE677AB4EEE77A51
:10527000F1EE10FA07D5FB68D3ED0B7AF1EE677A01
:10528000FB68C3ED087AFB6893ED067AFB68D3ED03
:10529000077A37EE277AFB68D3ED087A77EE277A1C
:1052A000FB68C3ED057AFB6893ED057AFB68D3EDE7
:1052B000097AB4EEE77AF1EE10FA04DDFB685A6A77
:1052C000FB685A6114E0FB6893ED057AFB68D3ED47
:1052D000097AF1EE677AB4EEE77AF1EE10FA07D5C3
:1052E000FB68D3ED097AF1EE677AFB68C3ED057AC6
:1052F000FB685B6907EE903AB0EE670A1437BD466B
:105300005DF8047B704780B483B000AF78607B6841
:10531000002B30D07B684FF00002DA637B68DA6BD9
:105320007B689A637B689A6B7B685A637B684FF0F3
:1053300000029A647B689A6C7B685A647B685A6C3A
:105340007B681A647B684FF000021A627B681A6AF5
:105350007B68DA617B68DA697B689A617B689A6945
:105360007B685A617B684FF00002DA607B68DA681C
:105370007B681A6100E000BF0C37BD465DF8047B16
:105380007047000080B487B000AF78613961FA607F
:1053900087ED010A7B81184A7B691360174AFB6815
:1053A0001360174A7B891380164A3B691360D7ED57
:1053B000017AF5EEC07AF1EE10FA01DD7B6801E0CA
:1053C0004FF07E53104A13600B4B1B68002B08D024
:1053D000094B1B681A680D4B1B689A4201D10123C7
:1053E00000E00023DAB20A4B1A7000BF1C37BD463A
:1053F0005DF8047B704700BFEC0C0020F80C002027
:10540000FC0C0020F00C00201C0000207C0400207C
:10541000F40C002080B584B000AFF860B96013468A
:10542000FB80FB88B7EE000ABA680021F868FFF736
:10543000A9FF00BF1037BD4680BD000080B586B013
:1054400000AF2D4B1B78002B4FD12C4B1B68002B32
:105450004BD02B4B1B68002B47D02A4B1B78DBB261
:10546000002B44D1264B1B68274A1188012218467D
:1054700001F056FA00237B6102E07B6901337B6116
:105480007B69632BF9DD1E4B1B681F4A11880022C4
:10549000184601F045FA3B1D00221A605A609A60D6
:1054A000DA6000237B600123BB600023FB600023E4
:1054B0003B61124B1B68154A1268391D184603F0F0
:1054C00051FE134B01221A700E4B01221A700B4B26
:1054D0001B681B6800225A62084B1B680B4A126843
:1054E0001146184603F044FA02E000BF00E000BF96
:1054F0001837BD4680BD00BFF40C0020EC0C002026
:10550000F80C0020FE0C0020FC0C0020F00C002009
:105510002000002080B400AF044B1B6807EE903AD7
:10552000B0EE670ABD465DF8047B7047080D0020A9
:1055300080B58AB000AF78604B4B1B78002B40F0F1
:105540008F804A4B1B68002B00F08A807B681A68AA
:10555000464B1B681B689A4240F08380444B1B7883
:10556000DBB2002B32D0434B1B681946786804F03D
:105570001FF80346404A13603D4B00221A703F4B10
:1055800002221A7007F10C0300221A605A609A6016
:10559000DA600223FB6001233B6100237B6100236F
:1055A000BB61344B1B681946786803F009FB314B2B
:1055B0001A6807F10C031946786803F0D3FD2D4BE8
:1055C0001B681946786803F0D3F94AE0294B1B6839
:1055D0001946786803F0ECFF0346294A1360254B0F
:1055E0001B681946786803F0EBFA254B1A68224BC2
:1055F0001B689A4206D3224B1A681F4B1B68D31AAA
:105600007B620DE0194B1B681B68DB6A3B621A4B1F
:105610001B683A6AD21A1A4B1B68134401337B6227
:105620007B6A07EE903AB8EE677A164BD3ED007AB4
:1056300067EE277AC7ED077AD7ED077A9FED127AE2
:1056400027EE877AF0EE006AC7EE267A0F4BC3ED9D
:10565000007A074B01221A70084B00221A7000E0F2
:1056600000BF2837BD4680BDF40C0020EC0C0020A4
:1056700020000020F00C0020000D0020FE0C002077
:10568000040D00201C000020287E0C3D080D002089
:1056900080B582B000AF78607B685B8A1946786815
:1056A00000F09FF800BF0837BD4680BD80B485B0CC
:1056B00000AF78600B467B807B8807EE903AF8EE6F
:1056C000E76A7B6893ED027AC6EE877AC7ED037AC4
:1056D000D7ED037AF5EEC07AF1EE10FA02D54FF06D
:1056E0000003FB607B68DB6807EE903AF8EE677AB0
:1056F00097ED037AB4EEE77AF1EE10FA07DD7B68F6
:10570000DB6807EE903AF8EE677AC7ED037AD7EDDB
:10571000037AB6EE007A77EE877AFCEEE77A17EE38
:10572000903A18461437BD465DF8047B704780B444
:1057300083B000AF78607B681B68DB6A18460C3763
:10574000BD465DF8047B704780B586B000AF7861D8
:105750003961FA6087ED020AFB807B69002B18D063
:105760007B693A691A607B69FA685A607B69BA6832
:105770009A603869FFF7DBFF02467B69DA607B6974
:10578000FA881A827B693A8C5A827B69BA8C9A822F
:1057900000E000BF1837BD4680BD80B584B000AFC3
:1057A00078607B68002B03D07B681B68002B01D1DD
:1057B000012312E07B681A687B685B681946104613
:1057C00002F0B4FF0346FB73FB7B002B01D0FB7B95
:1057D00003E07868FFF75CFF002318461037BD46EA
:1057E00080BD80B584B000AF78600B467B807B685D
:1057F000002B3DD07B681B68002B39D07B681B8A4F
:105800007A889A4202D27B681B8A7B807B689B8A5B
:105810007A889A4202D97B689B8A7B807B8819466A
:105820007868FFF743FFF8607B685B68002B05D161
:105830007B681B681B68FA685A631AE07B685B68C0
:10584000042B05D17B681B681A68FB68936310E022
:105850007B685B68082B05D17B681B681A68FB684E
:10586000D36306E07B681B681A68FB68136400E07A
:1058700000BF1037BD4680BD80B586B000AF7860F0
:1058800087ED000A7B68002B58D0D7ED007AF5EE43
:10589000C07AF1EE10FA28D597ED007ADFED296A8B
:1058A000C7EE267AC7ED037A7B685B8A07EE903AEB
:1058B000B8EE677A7B685B8A1A467B681B8AD31AC4
:1058C00007EE903AF8EEE76AD7ED037A66EEA77A2C
:1058D00077EE677AFCEEE77A17EE903A7B817B8968
:1058E00019467868FFF77DFF29E097ED007ADFED34
:1058F000166AC7EE267AC7ED057A7B685B8A07EEE3
:10590000903AB8EE677A7B689B8A1A467B685B8A16
:10591000D31A07EE903AF8EEE76AD7ED057A66EE0D
:10592000A77A77EE277AFCEEE77A17EE903A7B8239
:105930007B8A19467868FFF754FF00E000BF1837EC
:10594000BD4680BD0000C8C20000C84280B582B01C
:1059500000AF00237B60124B5B6C114A43F4804321
:1059600053640F4B5B6C03F480437B607B680023C4
:105970003B600B4B1B6C0A4A43F080531364084B8B
:105980001B6C03F080533B603B6800220F216FF0DB
:10599000010000F048FD00BF0837BD4680BD00BFD4
:1059A0000038024080B58AB000AF786007F1140378
:1059B00000221A605A609A60DA601A617B681B687C
:1059C000194A93422CD100233B61184B1B6B174A99
:1059D00043F002031363154B1B6B03F002033B619F
:1059E0003B694FF440637B611223BB610023FB6181
:1059F00003233B6204237B6207F1140319460C481E
:105A000000F0DAFD0023FB60084B1B6C074A43F4EF
:105A100080031364054B1B6C03F48003FB60FB687D
:105A200000BF2837BD4680BD005800400038024006
:105A30000004024080B58CB000AF786007F11C0311
:105A400000221A605A609A60DA601A617B681B68EB
:105A5000B3F1804F4BD10023BB613F4B1B6C3E4ADF
:105A600043F0010313643C4B1B6C03F00103BB6167
:105A7000BB6900237B61384B1B6B374A43F0010342
:105A80001363354B1B6B03F001037B617B690023C0
:105A90003B61314B1B6B304A43F0020313632E4BC7
:105AA0001B6B03F002033B613B694FF40043FB6156
:105AB00002233B6200237B620023BB620123FB6263
:105AC00007F11C031946254800F076FD0823FB6109
:105AD00002233B6200237B620023BB620123FB6243
