:020000040800F2
:10000000000002202D1700082D16000835160008E4
:100010003D160008451600084D16000800000000B7
:10002000000000000000000000000000E15900088E
:100030005516000800000000315C00086316000837
:100040007D1700087D1700087D1700087D17000840
:100050007D1700087D1700087D1700087D17000830
:100060007D1700087D1700087D1700087D17000820
:100070007D1700087D1700087D1700087D17000810
:100080007D1700087D1700087D1700087D17000800
:100090007D1700087D1700087D1700087D170008F0
:1000A0007D1700087D1700087D1700087D170008E0
:1000B0007D1700087D1700087D1700087D170008D0
:1000C0007D1700087D1700087D1700087D170008C0
:1000D0007D1700087D1700087D1700087D170008B0
:1000E0007D1700087D1700087D1700087D170008A0
:1000F0007D1700087D1700087D1700087D17000890
:100100007D1700087D1700087D1700087D1700087F
:100110007D1700087D1700087D1700087D1700086F
:100120007D1700087D1700087D1700087D1700085F
:100130007D1700087D1700087D1700087D1700084F
:100140007D1700087D1700087D1700087D1700083F
:100150007D1700087D1700087D1700087D1700082F
:100160007D1700087D1700087D1700087D1700081F
:100170007D1700087D1700087D17000800000000AB
:080180007D1700087D1700083F
:1001900010B5054C237833B9044B13B10448AFF3C1
:1001A00000800123237010BD6000002000000000CB
:1001B000D86A000808B5034B1BB103490348AFF3E5
:1001C000008008BD0000000064000020D86A00081C
:1001D00001F0FF01102A2BDB10F0070F08D010F8F8
:1001E000013B013A8B422DD010F0070F42B3F6D1FC
:1001F000F0B441EA012141EA014122F007047FF015
:1002000000070023F0E80256083C85EA010586EA6B
:10021000010685FA47F5A3FA87F586FA47F6A5FAA7
:1002200087F68EB9EED1F0BC01F0FF0102F00702B3
:1002300032B110F8013B013A83EA010313B1F8D15E
:100240000020704701387047002D06BF354603383F
:10025000073815F0010F07D1013015F4807F02BF78
:10026000013015F4C03F0130F0BC0138704700BFC9
:1002700053B94AB9002908BF00281CBF4FF0FF310D
:100280004FF0FF3000F088B9ADF1080C6DE904CEF5
:1002900000F006F8DDF804E0DDE9022304B0704761
:1002A0002DE9F047089D8E4604468846002B4AD12A
:1002B0008A42174662D9B2FA82F64EB1C6F12003DD
:1002C00001FA06F820FA03F3B74043EA0808B440FD
:1002D0004FEA174E1FFA87FCB8FBFEF1230C0EFB0A
:1002E000118843EA084301FB0CF29A4209D9FB1832
:1002F00001F1FF3080F0EA809A4240F2E780023953
:100300003B449A1AA3B2B2FBFEF00EFB102243EA62
:10031000024300FB0CFC9C4509D9FB1800F1FF329D
:1003200080F0D6809C4540F2D3803B44023840EABE
:100330000140A3EB0C0300211DB1F3400022C5E9ED
:100340000032BDE8F0878B4205D90DB1C5E9000147
:1003500000210846F5E7B3FA83F1002946D1734539
:1003600002D3824200F20581841A6EEB030201205F
:100370009046002DE5D0C5E90048E2E7002A00F0EC
:100380009080B2FA82F6002E40F0A4808A1A030C04
:100390004FEA174E80B2BCB20121B2FBFEFC0EFB4D
:1003A0001C2243EA024304FB0CF29A4207D9FB18D1
:1003B0000CF1FF3802D29A4200F2E080C4469B1A48
:1003C000B3FBFEF20EFB123340EA034302FB04F4DC
:1003D0009C4207D9FB1802F1FF3002D29C4200F286
:1003E000CA8002461B1B42EA0C40A5E7C1F1200669
:1003F0008B4022FA06F71F430EFA01F420FA06F3A7
:100400002EFA06FE4FEA1749234300FA01F81FFAB5
:1004100087FCBEFBF9F01C0C09FB10EE44EA0E440D
:1004200000FB0CFEA64502FA01F209D93C1900F1C5
:10043000FF3A80F09C80A64540F2998002383C4407
:10044000A4EB0E041FFA83FEB4FBF9F309FB13447B
:100450004EEA044403FB0CFCA44508D93C1903F103
:10046000FF3E80F08280A4457FD9023B3C4443EAB2
:100470000040A4EB0C04A0FB02EC64457346E1468B
:1004800062D35FD05DB1B8EB030264EB090404FAF8
:1004900006F622FA01F31E43CC40C5E900640021B0
:1004A0004FE7B1FBF2FC010C41EA0E4180B240EA99
:1004B00001423B4638463C46B846BE462026B1FB84
:1004C000F7F1A2EB080241EA0C4166E7014618E7A2
:1004D00010462CE7C6F120022EFA02F3B740B140D5
:1004E00020FA02F24FEA174E0A43B3FBFEF8BCB201
:1004F0000EFB1833110C41EA034108FB04F9B0402C
:1005000089454FEA104380B23ED9791808F1FF3C83
:1005100001D289451FD8A1EB0901B1FBFEF909FB06
:1005200004F80EFB191192B242EA0142424529D267
:10053000BA1809F1FF31C4D24245C2D2A9F1020171
:100540003A44BEE7F0459DD2BEEB02036CEB070CCC
:100550000138E14696E7A7EB09094944A8F1020CE6
:10056000B1FBFEF909FB04F8DBE773467FE7504671
:1005700066E70846FDE63B44023A33E7ACF1020C7D
:100580003B441CE749469CE7A1EB0901C446B1FB8B
:10059000FEF909FB04F8C4E7704700BF80B500AF5F
:1005A00001F0EEF800F03EF800F032FA00F040F909
:1005B00000F0C0F900F094F800F0E6F800F048FE12
:1005C00000F072FB03F066F80D4A00210D4803F0BD
:1005D000ABF803460C4A13600C4A00210C4803F0A8
:1005E000A3F803460B4A13600B4A00210B4803F0A3
:1005F0009BF803460A4A136003F070F800BFFDE75A
:10060000446B0008190B00089C010020686B00086F
:10061000290B0008A00100208C6B0008150C0008B5
:10062000A401002080B594B000AF07F12003302270
:100630000021184605F0D2FD07F10C0300221A60D4
:100640005A609A60DA601A610023BB60224B1B6C0F
:10065000214A43F0805313641F4B1B6C03F08053FB
:10066000BB60BB6800237B601C4B1B681B4A43F4C8
:1006700080431360194B1B6803F480437B607B68E5
:1006800002233B620123FB6210233B630023BB6315
:1006900007F12003184601F0E5FB0346002B01D0CB
:1006A00000F0FCFA0F23FB6000233B6100237B6119
:1006B0000023BB610023FB6107F10C0300211846F6
:1006C00001F048FE0346002B01D000F0E7FA00BF1E
:1006D0005037BD4680BD00BF00380240007000406A
:1006E00080B58CB000AF07F10C032422002118461E
:1006F00005F074FD3B1D00221A605A60214B4FF03B
:1007000080421A601F4B00225A601E4B00229A60E2
:100710001C4B4FF6FF72DA601A4B00221A61194B1C
:1007200000229A610323FB6000233B6101237B616C
:100730000023BB610A23FB6100233B6201237B6230
:100740000023BB620A23FB6207F10C0319460D4824
:1007500002F01CF90346002B01D000F09FFA0023A1
:100760007B600023BB603B1D1946064802F0E2FE99
:100770000346002B01D000F091FA00BF3037BD4690
:1007800080BD00BF7C00002080B58CB000AF07F1B9
:100790000C0324220021184605F020FD3B1D0022F9
:1007A0001A605A60204B214A1A601F4B00225A607F
:1007B0001D4B00229A601C4B4FF6FF72DA601A4BF9
:1007C00000221A61184B00229A610323FB60002368
:1007D0003B6101237B610023BB610A23FB61002392
:1007E0003B6201237B620023BB620A23FB6207F1A9
:1007F0000C0319460C4802F0C9F80346002B01D03F
:1008000000F04CFA00237B600023BB603B1D1946BF
:10081000054802F08FFE0346002B01D000F03EFA9F
:1008200000BF3037BD4680BDC4000020000400403A
:1008300080B58EB000AF07F1280300221A605A601D
:100840009A60DA6007F1200300221A605A603B1DAB
:1008500000221A605A609A60DA601A615A619A61DD
:10086000324B334A1A60314B00225A602F4B002220
:100870009A602E4B40F21F32DA602C4B00221A6134
:100880002A4B80229A61294801F010FF0346002B71
:1008900001D000F003FA4FF48053BB6207F1280344
:1008A0001946224802F068FA0346002B01D000F0F6
:1008B000F5F91E4801F049FF0346002B01D000F076
:1008C000EDF920233B6200237B6207F120031946E8
:1008D000164802F02FFE0346002B01D000F0DEF98F
:1008E00060237B600023BB600023FB6000237B61EF
:1008F0003B1D082219460D4802F07CF90346002BE7
:1009000001D000F0CBF93B1D0C221946074802F03C
:1009100071F90346002B01D000F0C0F9034800F044
:1009200023FE00BF3837BD4680BD00BF0C0100204C
:100930000008004080B58CB000AF07F12003002212
:100940001A605A609A60DA603B1D00221A605A6091
:100950009A60DA601A615A619A612B4B2B4A1A60CD
:10096000294B00225A60284B00229A60264B40F205
:100970001F32DA60244B00221A61234B80229A61D5
:10098000214801F093FE0346002B01D000F086F9C8
:100990004FF480533B6207F1200319461A4802F0D6
:1009A000EBF90346002B01D000F078F9164801F06E
:1009B000CCFE0346002B01D000F070F960237B6071
:1009C0000023BB600023FB6000237B613B1D0022F2
:1009D00019460D4802F00EF90346002B01D000F035
:1009E0005DF93B1D04221946074802F003F903464E
:1009F000002B01D000F052F9034800F0B5FD00BF14
:100A00003037BD4680BD00BF54010020004001408A
:100A100080B58AB000AF07F1140300221A605A6053
:100A20009A60DA601A6100233B61384B1B6B374ACE
:100A300043F010031363354B1B6B03F010033B6152
:100A40003B690023FB60314B1B6B304A43F00803CA
:100A500013632E4B1B6B03F00803FB60FB68002342
:100A6000BB602A4B1B6B294A43F001031363274BDE
:100A70001B6B03F00103BB60BB6800237B60234B4F
:100A80001B6B224A43F002031363204B1B6B03F0E2
:100A900002037B607B6800224FF480711C4801F0E8
:100AA0009FF900224FF4F0411A4801F099F94FF4F0
:100AB00080737B610123BB610023FB6100233B62E8
:100AC00007F114031946124800F0D6FF4FF4F04323
:100AD0007B610123BB610023FB6100233B6207F1C3
:100AE000140319460B4800F0C7FF01237B61002364
:100AF000BB610023FB6107F114031946044800F0B1
:100B0000BBFF00BF2837BD4680BD00BF0038024094
:100B100000100240000C024080B582B000AF786047
:100B2000012002F093FEFBE780B584B000AF78604F
:100B30000023FB7300F0EAFD0346002B01D00123E4
:100B4000FB73FB7B002B60D00023BB730EE097F997
:100B50000E3097F90E201146184600F0CBF8C82049
:100B600002F074FEBB7B0533DBB2BB7397F90E302A
:100B7000642BECDD64237B730EE097F90D3097F95D
:100B80000D201146184600F0B5F8C82002F05EFEB0
:100B90007B7B053BDBB27B7397F90D30002BECDAE6
:100BA0004FF4FA7002F052FE00233B730EE097F907
:100BB0000C3097F90C201146184600F09BF8C8201D
:100BC00002F044FE3B7B053BDBB23B7397F90C30F4
:100BD00013F1640FEBDA9C23FB720EE097F90B30F4
:100BE00097F90B201146184600F084F8C82002F04F
:100BF0002DFEFB7A0533DBB2FB7297F90B30002B2D
:100C0000ECDD00F043F90023FB73142002F01EFE1C
:100C100090E7000080B590B000AF78600023FB63E0
:100C20000023BB6300F04EF9786300F059F9386394
:100C30007A6BFB6BD31AFB623A6BBB6BD31ABB624A
:100C40007B6BFB633B6BBB6300F0DEF907F10803D2
:100C5000FA6A1049184605F09FFA07F108031A4688
:100C60000021002000F0C2FA07F10803BA6A0A491D
:100C7000184605F091FA07F108031A4610210020E2
:100C800000F0B4FA00F03AF9642002F0DFFD00BF92
:100C9000C8E700BF146B0008206B000880B400AFE9
:100CA00072B600BF00BFFDE780B500AF0C210D4854
:100CB00001F0A4FD08210B4801F0A0FD00210A4825
:100CC00001F09CFD0421084801F098FD3C210748F3
:100CD00001F002FF3C21064801F0FEFE00F0D6F8CC
:100CE00000BF80BD0C010020540100207C000020CA
:100CF000C400002080B489B000AF03460A46FB71EF
:100D00001346BB7197F90730642B01DD6423FB7137
:100D100097F9073013F1640F01DA9C23FB7197F9FF
:100D20000630642B01DD6423BB7197F9063013F1A3
:100D3000640F01DA9C23BB714F4B1B68DB6AFB61BC
:100D400097F90730002B08D14B4B1B6800221A641F
:100D5000494B1B680022DA633DE097F9073007EE44
:100D6000903AF8EEE77AB0EEE77ADFED446AC7EE44
:100D7000267A9FED437A67EE877A9FED427A77EE87
:100D8000877AC7ED067AFB69013307EE903AB8EE31
:100D9000677AD7ED067A27EE277ADFED386AC7EE55
:100DA000267AFCEEE77A17EE903A7B6197F90730E6
:100DB000002B08DD304B1B687A691A642E4B1B68C8
:100DC0000022DA6307E02C4B1B6800221A642A4BCE
:100DD0001B687A69DA6397F90630002B08D12A4B31
:100DE0001B6800225A63284B1B6800229A633DE06F
:100DF00097F9063007EE903AF8EEE77AB0EEE77A28
:100E0000DFED1E6AC7EE267A9FED1D7A67EE877AC0
:100E10009FED1C7A77EE877AC7ED047AFB69013380
:100E200007EE903AB8EE677AD7ED047A27EE277A84
:100E3000DFED126AC7EE267AFCEEE77A17EE903AFB
:100E4000FB6097F90630002B08DD0F4B1B68002272
:100E50005A630D4B1B68FA689A6307E00A4B1B68DC
:100E6000FA685A63084B1B6800229A6300BF243754
:100E7000BD465DF8047B70470C0100200000C842AD
:100E800000003842000058425401002080B400AFF6
:100E90000A4B1B680022DA63084B1B6800221A64A5
:100EA000074B1B6800225A63054B1B6800229A639C
:100EB00000BFBD465DF8047B704700BF0C010020F9
:100EC0005401002080B400AF044B1B685B6A1BB266
:100ED0001846BD465DF8047B704700BF7C000020CB
:100EE00080B400AF044B1B685B6A1BB25B421846C0
:100EF000BD465DF8047B7047C400002080B582B019
:100F000000AF0023FB7126E0FB79503BDBB20021F0
:100F1000184600F02BF80021002000F027F80021EF
:100F2000102000F023F80023BB710DE0BA79FB79A3
:100F30000D49D2000A4413441B780121184600F0E1
:100F400015F8BB790133BB7197F90630002BEDDA48
:100F5000FB790133FB71FB79072BD5D900BF00BFAB
:100F60000837BD4680BD00BFA801002080B584B011
:100F700000AF03460A46FB711346BB71BB79002BD9
:100F800006D001224FF400611E4800F029FF05E061
:100F900000224FF400611B4800F022FF0023FB7386
:100FA00022E000224FF48041164800F019FF97F923
:100FB0000730002B06DA01224FF40051114800F0EF
:100FC0000FFF05E000224FF400510E4800F008FF2B
:100FD00001224FF480410B4800F002FFFB795B00D7
:100FE000FB71FB7B0133FB73FB7B072BD9D9012200
:100FF0004FF40061034800F0F3FE00BF1037BD4618
:1010000080BD00BF000C024080B582B000AF00235D
:10101000FB7114E00023BB710AE0BA79FB790C493B
:10102000D2000A44134400221A70BB790133BB7109
:1010300097F90630002BF0DAFB790133FB71FB796D
:10104000072BE7D9FFF75AFF00BF0837BD4680BD21
:10105000A801002080B485B000AF0346FB710B46A9
:10106000BB7113467B710023FB7397F90730002B8C
:1010700041DBBB793F2B3ED8BB79DB08DBB2C3F148
:101080000703BB73BB7903F007037B737B7BC3F15F
:101090000703012202FA03F3FB737B79002B12D0C2
:1010A000FA79BB7B1749D2000A4413441878FA79BD
:1010B000BB7BF97B0143C8B21249D2000A441344F6
:1010C00002461A7018E0FA79BB7B0E49D2000A4436
:1010D00013441B785AB297F90F30DB435BB21340CD
:1010E00059B2FA79BB7BC8B20649D2000A4413440C
:1010F00002461A7000E000BF1437BD465DF8047B5D
:10110000704700BFA801002090B585B000AF04462D
:10111000084611461A462346FB710346BB710B462F
:101120007B7113463B71BB793B737B79203B7B71B1
:101130000023BB734DE03B790C2B0BD17A79B97B43
:10114000284813465B0013449B0003440B441B7860
:10115000FB7307E07A79BB7B234912010A441344ED
:101160001B78FB7300237B732DE097F90F30002B66
:1011700007DA97F82020B979FB791846FFF76AFF5C
:101180000CE097F82030002B0CBF01230023DBB2CA
:101190001A46B979FB791846FFF75CFFFB7B5B00C9
:1011A000FB73BB790133BB71BA793B7BD21A3B79B4
:1011B0009A4205D13B7BBB71FB790133FB7105E0A2
:1011C0007B7B01337B737B7B072BCED9BB7B0133CE
:1011D000BB73BA7B3B799A42ADD300BF00BF1437D3
:1011E000BD4690BDB06B00082470000880B584B087
:1011F00002AF03463A60FB710B46BB711FE0FB79FF
:101200007A2B04D90023FB71BB791033BB71BB79F6
:101210003A2B05D90023FB71FB79BB71FFF7F4FE74
:101220003B681A78B979F879012300930C23FFF70A
:101230006BFFFB790833FB713B6801333B603B6814
:101240001B78002BDBD100BF00BF0837BD4680BD37
:1012500080B500AF00F0DEFD424B1B6F414A23F02A
:10126000010313673F4B1B6F3E4A23F004031367D0
:1012700000F0E4FD00224FF480513B4800F0B0FD47
:10128000642000F0EFFA01224FF48051364800F05C
:10129000A7FD0021AE20FFF769FE0021D520FFF752
:1012A00065FE00215020FFF761FE0021A820FFF716
:1012B0005DFE00213F20FFF759FE0021D320FFF7FC
:1012C00055FE00210020FFF751FE00214020FFF7CE
:1012D0004DFE00218D20FFF749FE00211420FFF76D
:1012E00045FE00212020FFF741FE00210220FFF7EC
:1012F0003DFE0021A120FFF739FE0021C020FFF7AD
:1013000035FE0021DA20FFF731FE00211220FFF721
:101310002DFE00218120FFF729FE0021EF20FFF79D
:1013200025FE0021D920FFF721FE0021F120FFF743
:101330001DFE0021DB20FFF719FE00213020FFF702
:1013400015FE0021A420FFF711FE0021A620FFF7C3
:101350000DFE0021AF20FFF709FEFFF755FE00BF8D
:1013600080BD00BF00380240000C024080B582B052
:1013700000AF00237B60124B5B6C114A43F4804347
:1013800053640F4B5B6C03F480437B607B680023EA
:101390003B600B4B1B6C0A4A43F080531364084BB1
:1013A0001B6C03F080533B603B6800220F216FF001
:1013B000010000F038FB00BF0837BD4680BD00BF0C
:1013C0000038024080B58CB000AF786007F11C0394
:1013D00000221A605A609A60DA601A617B681B68A2
:1013E000B3F1804F4BD10023BB613F4B1B6C3E4A96
:1013F00043F0010313643C4B1B6C03F00103BB611E
:10140000BB6900237B61384B1B6B374A43F00103F8
:101410001363354B1B6B03F001037B617B69002376
:101420003B61314B1B6B304A43F0020313632E4B7D
:101430001B6B03F002033B613B694FF40043FB610C
:1014400002233B6200237B620023BB620123FB6219
:1014500007F11C031946254800F00EFB0823FB6129
:1014600002233B6200237B620023BB620123FB62F9
:1014700007F11C0319461E4800F0FEFA30E07B68B5
:101480001B681C4A93422BD10023FB60164B1B6C3C
:10149000154A43F002031364134B1B6C03F0020361
:1014A000FB60FB680023BB600F4B1B6B0E4A43F0D5
:1014B000020313630C4B1B6B03F00203BB60BB689E
:1014C0003023FB6102233B6200237B620023BB626B
:1014D0000223FB6207F11C031946054800F0CCFA11
:1014E00000BF3037BD4680BD0038024000000240DA
:1014F000000402400004004080B485B000AF786072
:101500007B681B68154A93420ED10023FB60144B85
:101510001B6C134A43F004031364114B1B6C03F060
:101520000403FB60FB6812E07B681B680D4A934272
:101530000DD10023BB600A4B5B6C094A43F4803336
:101540005364074B5B6C03F48033BB60BB6800BF24
:101550001437BD465DF8047B704700BF00080040AB
:10156000003802400040014080B58AB000AF78608A
:1015700007F1140300221A605A609A60DA601A6157
:101580007B681B68244A93421FD100233B61234B95
:101590001B6B224A43F002031363204B1B6B03F0C7
:1015A00002033B613B694FF440737B610223BB61E3
:1015B0000023FB6100233B6202237B6207F11403DB
:1015C0001946174800F058FA22E07B681B68154A54
:1015D00093421DD10023FB60104B1B6B0F4A43F05D
:1015E000100313630D4B1B6B03F01003FB60FB68D0
:1015F00060237B610223BB610023FB6100233B620C
:1016000003237B6207F114031946074800F034FAFC
:1016100000BF2837BD4680BD0008004000380240AA
:1016200000040240004001400010024080B400AFBE
:1016300000BFFDE780B400AF00BFFDE780B400AF9E
:1016400000BFFDE780B400AF00BFFDE780B400AF8E
:1016500000BFFDE780B400AF00BFBD465DF8047B6E
:10166000704780B500AF00F0DDF803F017FD0346CA
:10167000012B01D004F010FB00BF80BD80B586B007
:1016800000AF7860144A154BD31A7B617B693B61CC
:10169000134B1B68002B02D1114B124A1A60104BDE
:1016A0001A687B6813443A699A4207D204F09EFD97
:1016B00003460C221A604FF0FF3309E0084B1B6809
:1016C000FB60074B1A687B681344054A1360FB688C
:1016D00018461837BD4680BD0000022000040000F7
:1016E000A80500204850002080B400AF064BD3F876
:1016F0008830054A43F47003C2F8883000BFBD4605
:101700005DF8047B704700BF00ED00E080B500AFDE
:101710000121054800F04CFB0346012B14BF0123B7
:101720000023DBB2184680BD00100240DFF834D041
:10173000FFF7DAFF0C480D490D4A002302E0D458A8
:10174000C4500433C4188C42F9D30A4A0A4C00230B
:1017500001E013600432A242FBD304F04DFDFEF71A
:101760001DFF7047000002200000002060000020E4
:10177000687600086000002048500020FEE7000066
:1017800080B500AF0E4B1B680D4A43F40073136025
:101790000B4B1B680A4A43F480631360084B1B68B9
:1017A000074A43F480731360032000F031F90F20DF
:1017B00000F008F8FFF7DAFD0023184680BD00BFEF
:1017C000003C024080B582B000AF7860124B1A68CE
:1017D000124B1B7819464FF47A73B3FBF1F3B2FB4B
:1017E000F3F3184600F03BF90346002B01D0012328
:1017F0000EE07B680F2B0AD8002279684FF0FF308B
:1018000000F011F9064A7B681360002300E0012311
:1018100018460837BD4680BD0000002008000020A3
:101820000400002080B400AF064B1B781A46064B1C
:101830001B681344044A136000BFBD465DF8047B77
:10184000704700BF08000020AC05002080B400AF46
:10185000034B1B681846BD465DF8047B704700BF0C
:10186000AC05002080B584B000AF7860FFF7EEFFD4
:10187000B8607B68FB60FB68B3F1FF3F05D00A4BA3
:101880001B781A46FB681344FB6000BFFFF7DEFFBE
:101890000246BB68D31AFA689A42F7D800BF00BF65
:1018A0001037BD4680BD00BF0800002080B485B061
:1018B00000AF78607B6803F00703FB600C4BDB68CC
:1018C000BB60BA684FF6FF031340BB60FB681A02A7
:1018D000BB68134343F0BF6343F40033BB60044A67
:1018E000BB68D36000BF1437BD465DF8047B70470A
:1018F00000ED00E080B400AF044BDB681B0A03F08E
:1019000007031846BD465DF8047B704700ED00E014
:1019100080B483B000AF03463960FB7197F907309C
:10192000002B0ADB3B68DAB20C4997F90730120149
:10193000D2B20B4483F800230AE03B68DAB20849CC
:10194000FB7903F00F03043B1201D2B20B441A7669
:1019500000BF0C37BD465DF8047B704700E100E036
:1019600000ED00E080B489B000AFF860B9607A6043
:10197000FB6803F00703FB61FB69C3F10703042B5A
:1019800028BF0423BB61FB690433062B02D9FB6922
:10199000033B00E000237B614FF0FF32BB6902FA9A
:1019A00003F3DA43BB681A407B699A404FF0FF317A
:1019B0007B6901FA03F3D9437B680B401343184654
:1019C0002437BD465DF8047B7047000080B582B0C7
:1019D00000AF78607B68013BB3F1807F01D30123C6
:1019E0000FE00A4A7B68013B53600F214FF0FF3044
:1019F000FFF78EFF054B00229A60044B07221A6006
:101A0000002318460837BD4680BD00BF10E000E047
:101A100080B582B000AF78607868FFF747FF00BFFD
:101A20000837BD4680BD80B586B000AF0346B960BB
:101A30007A60FB7300237B61FFF75CFF78617A6853
:101A4000B9687869FFF78EFF024697F90F301146A3
:101A50001846FFF75DFF00BF1837BD4680BD80B553
:101A600082B000AF78607868FFF7B0FF0346184691
:101A70000837BD4680BD000080B489B000AF7860F3
:101A8000396000237B6100233B610023BB6100239D
:101A9000FB616BE10122FB6902FA03F37B613B68A6
:101AA0001B687A6913403B613A697B699A4240F04E
:101AB0005A813B685B6803F00303012B05D03B6848
:101AC0005B6803F00303022B30D17B689B68BB612A
:101AD000FB695B00032202FA03F3DB43BA6913409C
:101AE000BB613B68DA68FB695B0002FA03F3BA6921
:101AF0001343BB617B68BA699A607B685B68BB61B2
:101B00000122FB6902FA03F3DB43BA691340BB61AC
:101B10003B685B681B0903F00102FB6902FA03F3EF
:101B2000BA691343BB617B68BA695A603B685B68FA
:101B300003F00303032B17D07B68DB68BB61FB69F1
:101B40005B00032202FA03F3DB43BA691340BB6173
:101B50003B689A68FB695B0002FA03F3BA691343B6
:101B6000BB617B68BA69DA603B685B6803F00303BA
:101B7000022B23D1FB69DA087B68083253F8223044
:101B8000BB61FB6903F007039B000F2202FA03F31A
:101B9000DB43BA691340BB613B681A69FB6903F018
:101BA00007039B0002FA03F3BA691343BB61FB69A5
:101BB000DA087B680832B96943F822107B681B6831
:101BC000BB61FB695B00032202FA03F3DB43BA69E2
:101BD0001340BB613B685B6803F00302FB695B0079
:101BE00002FA03F3BA691343BB617B68BA691A60EE
:101BF0003B685B6803F44033002B00F0B4800023A3
:101C0000FB60604B5B6C5F4A43F4804353645D4B05
:101C10005B6C03F48043FB60FB685B4AFB699B08D9
:101C2000023352F82330BB61FB6903F003039B00CE
:101C30000F2202FA03F3DB43BA691340BB617B68EE
:101C4000524A93422BD07B68514A934225D07B68FD
:101C5000504A93421FD07B684F4A934219D07B6809
:101C60004E4A934213D07B684D4A93420DD07B6815
:101C70004C4A934207D07B684B4A934201D10723D9
:101C80000EE008230CE006230AE0052308E0042305
:101C900006E0032304E0022302E0012300E0002326
:101CA000FA6902F0030292009340BA691343BB61E0
:101CB0003549FB699B080233BA6941F823203B4B45
:101CC0009B68BB613B69DB43BA691340BB613B68FE
:101CD0005B6803F48013002B03D0BA693B6913439C
:101CE000BB61324ABB699360304BDB68BB613B69C7
:101CF000DB43BA691340BB613B685B6803F40013C4
:101D0000002B03D0BA693B691343BB61274ABB6907
:101D1000D360264B5B68BB613B69DB43BA69134008
:101D2000BB613B685B6803F40033002B03D0BA69E6
:101D30003B691343BB611D4ABB6953601B4B1B6866
:101D4000BB613B69DB43BA691340BB613B685B68BD
:101D500003F48033002B03D0BA693B691343BB61A2
:101D6000124ABB691360FB690133FB61FB690F2BEE
:101D70007FF690AE00BF00BF2437BD465DF8047B00
:101D8000704700BF003802400038014000000240A8
:101D90000004024000080240000C02400010024013
:101DA0000014024000180240001C0240003C0140A8
:101DB00080B485B000AF78600B467B807B681A6981
:101DC0007B881340002B02D00123FB7301E000232A
:101DD000FB73FB7B18461437BD465DF8047B7047E8
:101DE00080B483B000AF78600B467B8013467B7075
:101DF0007B78002B03D07A887B689A6103E07B882C
:101E00001A047B689A6100BF0C37BD465DF8047BFD
:101E10007047000080B483B000AF064B01221A6007
:101E2000054B1B687B607B6800BF0C37BD465DF8C7
:101E3000047B704720000E420070004080B483B0E5
:101E400000AF064B00221A60054B1B687B607B6865
:101E500000BF0C37BD465DF8047B704720000E4282
:101E60000070004080B586B000AF78607B68002BC2
:101E700001D1012367E27B681B6803F00103002B9B
:101E800075D0884B9B6803F00C03042B0CD0854B5A
:101E90009B6803F00C03082B12D1824B5B6803F4A0
:101EA0008003B3F5800F0BD17E4B1B6803F4003326
:101EB000002B5BD07B685B68002B57D1012342E28B
:101EC0007B685B68B3F5803F06D1764B1B68754A2B
:101ED00043F4803313601DE07B685B68B3F5A02F8B
:101EE0000CD1704B1B686F4A43F4802313606D4B19
:101EF0001B686C4A43F4803313600BE0694B1B682A
:101F0000684A23F480331360664B1B68654A23F4E8
:101F1000802313607B685B68002B13D0FFF796FC6F
:101F2000386108E0FFF792FC02463B69D31A642B44
:101F300001D9032307E25B4B1B6803F40033002B3A
:101F4000F0D014E0FFF782FC386108E0FFF77EFC78
:101F500002463B69D31A642B01D90323F3E1514BA9
:101F60001B6803F40033002BF0D100E000BF7B6856
:101F70001B6803F00203002B63D04A4B9B6803F0FD
:101F80000C03002B0BD0474B9B6803F00C03082B72
:101F90001CD1444B5B6803F48003002B16D1414BEA
:101FA0001B6803F00203002B05D07B68DB68012B64
:101FB00001D00123C7E13B4B1B6823F0F8027B688B
:101FC0001B69DB00374913430B603AE07B68DB6831
:101FD000002B20D0344B01221A60FFF737FC386108
:101FE00008E0FFF733FC02463B69D31A022B01D904
:101FF0000323A8E12B4B1B6803F00203002BF0D056
:10200000284B1B6823F0F8027B681B69DB0025491D
:1020100013430B6015E0244B00221A60FFF716FCF7
:10202000386108E0FFF712FC02463B69D31A022B25
:1020300001D9032387E11B4B1B6803F00203002B2C
:10204000F0D17B681B6803F00803002B36D07B6857
:102050005B69002B16D0154B01221A60FFF7F6FBC7
:10206000386108E0FFF7F2FB02463B69D31A022B06
:1020700001D9032367E10B4B5B6F03F00203002BD5
:10208000F0D01BE0094B00221A60FFF7DFFB38613C
:102090000EE0FFF7DBFB02463B69D31A022B07D9A0
:1020A000032350E10038024000004742800E4742BF
:1020B000884B5B6F03F00203002BEAD17B681B683F
:1020C00003F00403002B00F097800023FB75814B85
:1020D0001B6C03F08053002B0FD10023BB607D4BA2
:1020E0001B6C7C4A43F0805313647A4B1B6C03F0E7
:1020F0008053BB60BB680123FB75774B1B6803F4FF
:102100008073002B18D1744B1B68734A43F480739F
:102110001360FFF79BFB386108E0FFF797FB02466F
:102120003B69D31A022B01D903230CE16A4B1B68CC
:1021300003F48073002BF0D07B689B68012B06D1E1
:10214000644B1B6F634A43F0010313671CE07B6819
:102150009B68052B0CD15F4B1B6F5E4A43F0040359
:1021600013675C4B1B6F5B4A43F0010313670BE083
:10217000584B1B6F574A23F001031367554B1B6FD6
:10218000544A23F0040313677B689B68002B15D027
:10219000FFF75CFB38610AE0FFF758FB02463B693A
:1021A000D31A41F28832934201D90323CBE0494B41
:1021B0001B6F03F00203002BEED014E0FFF746FB89
:1021C00038610AE0FFF742FB02463B69D31A41F24D
:1021D0008832934201D90323B5E03E4B1B6F03F0D5
:1021E0000203002BEED1FB7D012B05D1394B1B6C7B
:1021F000384A23F0805313647B689B69002B00F0FE
:10220000A180344B9B6803F00C03082B5CD07B68E7
:102210009B69022B41D1314B00221A60FFF716FB5C
:10222000386108E0FFF712FB02463B69D31A022B24
:1022300001D9032387E0274B1B6803F00073002BB1
:10224000F0D17B68DA697B681B6A1A437B685B6A3A
:102250009B011A437B689B6A5B08013B1B041A4382
:102260007B68DB6A1B061B4913434B601B4B012237
:102270001A60FFF7EBFA386108E0FFF7E7FA024669
:102280003B69D31A022B01D903235CE0114B1B6875
:1022900003F00073002BF0D054E0104B00221A60C2
:1022A000FFF7D4FA386108E0FFF7D0FA02463B693D
:1022B000D31A022B01D9032345E0064B1B6803F018
:1022C0000073002BF0D13DE07B689B69012B07D1A7
:1022D000012338E0003802400070004060004742AF
:1022E0001B4B5B68FB607B689B69012B28D0FB68FC
:1022F00003F480027B68DB699A4221D1FB6803F01A
:102300003F027B681B6A9A421AD1FA6847F6C0738B
:1023100013407A68526A9201934211D1FB6803F428
:1023200040327B689B6A5B08013B1B049A4207D1E1
:10233000FB6803F070627B68DB6A1B069A4201D07F
:10234000012300E0002318461837BD4680BD00BFBA
:102350000038024080B584B000AF786039607B6897
:10236000002B01D10123CCE0684B1B6803F007036D
:102370003A689A420CD9654B3A68D2B21A70634BEC
:102380001B6803F007033A689A4201D00123B8E0C2
:102390007B681B6803F00203002B20D07B681B685E
:1023A00003F00403002B05D0594B9B68584A43F4B3
:1023B000E05393607B681B6803F00803002B05D093
:1023C000534B9B68524A43F460439360504B9B6865
:1023D00023F0F0027B689B684D4913438B607B6858
:1023E0001B6803F00103002B44D07B685B68012B62
:1023F00007D1474B1B6803F40033002B19D101238D
:102400007FE07B685B68022B03D07B685B68032BF3
:1024100007D13F4B1B6803F00073002B09D1012348
:102420006FE03B4B1B6803F00203002B01D101233B
:1024300067E0374B9B6823F003027B685B68344995
:1024400013438B60FFF702FAF8600AE0FFF7FEF92A
:102450000246FB68D31A41F28832934201D9032322
:102460004FE02B4B9B6803F00C027B685B689B0082
:102470009A42EBD1254B1B6803F007033A689A4256
:102480000CD2224B3A68D2B21A70204B1B6803F070
:1024900007033A689A4201D0012332E07B681B6847
:1024A00003F00403002B08D0194B9B6823F4E0527F
:1024B0007B68DB68164913438B607B681B6803F0FD
:1024C0000803002B09D0124B9B6823F460427B6801
:1024D0001B69DB000E4913438B6000F021F80246B4
:1024E0000B4B9B681B0903F00F030A49CB5C22FAD4
:1024F00003F3094A1360094B1B681846FFF762F99A
:10250000002318461037BD4680BD00BF003C024086
:10251000003802401476000800000020040000206B
:102520002DE9B04F90B000AF00237B630023FB6325
:1025300000233B630023BB63594B9B6803F00C03F0
:10254000082B0DD0082B00F2A180002B02D0042B09
:1025500003D09BE0534BBB639BE0534BBB6398E0C2
:102560004F4B5B6803F03F037B634D4B5B6803F4A9
:102570008003002B28D04A4B5B689B0900223B62FA
:102580007A623B6AC3F308000021474B03FB01F268
:10259000002300FB03F31344434AA0FB0212FA6238
:1025A0000A46BA62FA6A1344FB627B6B0022BB6183
:1025B000FA61D7E90623D7E90A01FDF759FE024679
:1025C0000B461346FB6353E0354B5B689B090022C7
:1025D0003B617A613B69C3F3080A4FF0000B524636
:1025E0005B464FF000004FF00001590141EAD26113
:1025F000500102460B46B2EB0A0863EB0B094FF0A1
:1026000000024FF000034FEA891343EA98634FEA50
:102610008812B2EB080463EB09054FF000024FF09B
:102620000003EB0043EA5473E20014461D4614EB2A
:102630000A033B6045EB0B037B604FF000024FF059
:102640000003D7E9004529468B02214643EA91530E
:1026500021468A02104619467B6B0022BB60FA6055
:10266000D7E90223FDF704FE02460B461346FB633F
:102670000B4B5B681B0C03F0030301335B003B63F4
:10268000FA6B3B6BB2FBF3F3BB6302E0054BBB633E
:1026900000BFBB6B18464037BD46BDE8B08F00BFDA
:1026A000003802400024F40040787D0180B582B0FB
:1026B00000AF78607B68002B01D1012341E07B688B
:1026C00093F83D30DBB2002B06D17B68002283F803
:1026D0003C207868FEF710FF7B68022283F83D20DB
:1026E0007B681A687B6804331946104600F00CFCBE
:1026F0007B68012283F846207B68012283F83E2014
:102700007B68012283F83F207B68012283F8402008
:102710007B68012283F841207B68012283F84220F4
:102720007B68012283F843207B68012283F84420E0
:102730007B68012283F845207B68012283F83D20D5
:10274000002318460837BD4680BD80B582B000AF73
:1027500078607B68002B01D1012341E07B6893F80E
:102760003D30DBB2002B06D17B68002283F83C2091
:10277000786800F039F87B68022283F83D207B6896
:102780001A687B6804331946104600F0BDFB7B686D
:10279000012283F846207B68012283F83E207B6873
:1027A000012283F83F207B68012283F840207B6868
:1027B000012283F841207B68012283F842207B6854
:1027C000012283F843207B68012283F844207B6840
:1027D000012283F845207B68012283F83D200023F5
:1027E00018460837BD4680BD80B483B000AF78601E
:1027F00000BF0C37BD465DF8047B704780B584B0E0
:1028000000AF786039603B68002B09D17B6893F892
:102810003E30DBB2012B14BF01230023DBB222E0E8
:102820003B68042B09D17B6893F83F30DBB2012B66
:1028300014BF01230023DBB215E03B68082B09D14C
:102840007B6893F84030DBB2012B14BF01230023D7
:10285000DBB208E07B6893F84130DBB2012B14BF98
:1028600001230023DBB2002B01D001237CE03B6875
:10287000002B04D17B68022283F83E2013E03B68E2
:10288000042B04D17B68022283F83F200BE03B68D5
:10289000082B04D17B68022283F8402003E07B6888
:1028A000022283F841207B681B68012239681846A0
:1028B00000F01AFE7B681B682D4A934204D07B68A7
:1028C0001B682C4A934201D1012300E00023002B16
:1028D00007D07B681B685A6C7B681B6842F4004217
:1028E0005A647B681B68224A934222D07B681B682B
:1028F000B3F1804F1DD07B681B681F4A934218D0EC
:102900007B681B681D4A934213D07B681B681C4A76
:1029100093420ED07B681B68164A934209D07B68AD
:102920001B68184A934204D07B681B68164A93427E
:1029300011D17B681B689B6803F00703FB60FB6891
:10294000062B10D07B681B681A687B681B6842F0F6
:1029500001021A6007E07B681B681A687B681B68C5
:1029600042F001021A60002318461037BD4680BDB0
:102970000000014000040140000400400008004045
:10298000000C0040004001400018004080B586B0B7
:1029900000AF786039607B68002B01D1012397E09C
:1029A0007B6893F83D30DBB2002B06D17B680022B8
:1029B00083F83C207868FEF705FD7B68022283F8E7
:1029C0003D207B681B689B687A68126823F480430B
:1029D00023F0070393607B681A687B680433194609
:1029E000104600F091FA7B681B689B687B617B68EE
:1029F0001B689B693B617B681B681B6AFB603B68CB
:102A00001B687A6913437B613B6923F4407323F0AD
:102A100003033B613B689A683B689B691B02134355
:102A20003A6913433B613B6923F4406323F00C0391
:102A30003B613B6923F4704323F0F0033B613B6847
:102A4000DA683B68DB691B0213433A6913433B6155
:102A50003B681B691A013B681B6A1B0313433A69F5
:102A600013433B61FB6823F02203FB60FB6823F008
:102A70008803FB603B685A683B685B691B01134332
:102A8000FA681343FB607B681B687A699A607B680D
:102A90001B683A699A617B681B68FA681A627B68EE
:102AA000012283F846207B68012283F83E207B6860
:102AB000012283F83F207B68012283F842207B6853
:102AC000012283F843207B68012283F83D20002304
:102AD00018461837BD4680BD80B584B000AF786019
:102AE00039607B6893F83E30FB737B6893F83F3026
:102AF000BB737B6893F842307B737B6893F84330F9
:102B00003B733B68002B10D1FB7B012B02D17B7BFD
:102B1000012B01D0012369E07B68022283F83E206B
:102B20007B68022283F8422031E03B68042B10D1FD
:102B3000BB7B012B02D13B7B012B01D0012355E054
:102B40007B68022283F83F207B68022283F84320BF
:102B50001DE0FB7B012B08D1BB7B012B05D17B7BCF
:102B6000012B02D13B7B012B01D001233EE07B688E
:102B7000022283F83E207B68022283F83F207B6894
:102B8000022283F842207B68022283F843203B68BC
:102B9000002B03D03B68042B08D00FE07B681B6838
:102BA00001220021184600F09FFC16E07B681B689C
:102BB00001220421184600F097FC0EE07B681B6898
:102BC00001220021184600F08FFC7B681B6801225F
:102BD0000421184600F088FC00BF7B681B681A6857
:102BE0007B681B6842F001021A6000231846103708
:102BF000BD4680BD80B586B000AFF860B9607A6030
:102C00000023FB75FB6893F83C30012B01D10223B4
:102C1000AEE0FB68012283F83C207B680C2B00F2BD
:102C20009F8001A252F823F05D2C0008612D00085E
:102C3000612D0008612D00089D2C0008612D000801
:102C4000612D0008612D0008DF2C0008612D0008AF
:102C5000612D0008612D00081F2D0008FB681B680E
:102C6000B968184600F0F6F9FB681B689A69FB68BA
:102C70001B6842F008029A61FB681B689A69FB684E
:102C80001B6822F004029A61FB681B689969BB68A3
:102C90001A69FB681B680A439A6164E0FB681B6859
:102CA000B968184600F046FAFB681B689A69FB6829
:102CB0001B6842F400629A61FB681B689A69FB68B2
:102CC0001B6822F480629A61FB681B689969BB6883
:102CD0001B691A02FB681B680A439A6143E0FB68A0
:102CE0001B68B968184600F09BFAFB681B68DA6934
:102CF000FB681B6842F00802DA61FB681B68DA694E
:102D0000FB681B6822F00402DA61FB681B68D96962
:102D1000BB681A69FB681B680A43DA6123E0FB6839
:102D20001B68B968184600F0EFFAFB681B68DA699F
:102D3000FB681B6842F40062DA61FB681B68DA69B1
:102D4000FB681B6822F48062DA61FB681B68D96942
:102D5000BB681B691A02FB681B680A43DA6102E060
:102D60000123FB7500BFFB68002283F83C20FB7D3C
:102D700018461837BD4680BD80B584B000AF786076
:102D800039600023FB737B6893F83C30012B01D141
:102D90000223B4E07B68012283F83C207B68022296
:102DA00083F83D207B681B689B68BB60BB6823F091
:102DB0007703BB60BB6823F47F43BB607B681B6801
:102DC000BA689A603B681B68B3F5005F3ED0B3F504
:102DD000005F00F28780B3F5805F00F08680B3F576
:102DE000805F7FD8702B1AD0702B7BD8602B50D08F
:102DF000602B77D8502B3CD0502B73D8402B58D019
:102E0000402B6FD8302B64D0302B6BD8202B60D068
:102E1000202B67D8002B5CD0102B5AD062E07B6847
:102E200018683B6899683B685A683B68DB6800F043
:102E30003BFB7B681B689B68BB60BB6843F0770308
:102E4000BB607B681B68BA689A604FE07B68186853
:102E50003B6899683B685A683B68DB6800F024FB74
:102E60007B681B689A687B681B6842F480429A60A2
:102E70003CE07B6818683B6859683B68DB681A4629
:102E800000F098FA7B681B685021184600F0F1FAB0
:102E90002CE07B6818683B6859683B68DB681A4619
:102EA00000F0B7FA7B681B686021184600F0E1FA71
:102EB0001CE07B6818683B6859683B68DB681A4609
:102EC00000F078FA7B681B684021184600F0D1FAC0
:102ED0000CE07B681A683B681B681946104600F0D6
:102EE000C8FA03E00123FB7300E000BF7B68012206
:102EF00083F83D207B68002283F83C20FB7B18464A
:102F00001037BD4680BD000080B485B000AF78604A
:102F100039607B681B68FB607B68434A934213D02F
:102F20007B68B3F1804F0FD07B68404A93420BD04F
:102F30007B683F4A934207D07B683E4A934203D066
:102F40007B683D4A934208D1FB6823F07003FB6025
:102F50003B685B68FA681343FB607B68324A9342C4
:102F60002BD07B68B3F1804F27D07B682F4A9342E8
:102F700023D07B682E4A93421FD07B682D4A934210
:102F80001BD07B682C4A934217D07B682B4A934214
:102F900013D07B682A4A93420FD07B68294A934218
:102FA0000BD07B68284A934207D07B68274A93421C
:102FB00003D07B68264A934208D1FB6823F4407310
:102FC000FB603B68DB68FA681343FB60FB6823F037
:102FD00080023B685B691343FB603B689A687B68CF
:102FE000DA623B681A687B689A627B680E4A934291
:102FF00003D07B68104A934203D13B681A697B680F
:103000001A637B681B6843F004027B681A607B6864
:1030100001225A617B68FA681A6000BF1437BD4606
:103020005DF8047B704700BF0000014000040040D1
:1030300000080040000C0040000401400040014036
:10304000004401400048014000180040001C0040BE
:103050000020004080B487B000AF786039607B68A2
:103060001B6A7B617B681B6A23F001027B681A6222
:103070007B685B683B617B689B69FB60FB6823F056
:103080007003FB60FB6823F00303FB603B681B6875
:10309000FA681343FB607B6923F002037B613B68A2
:1030A0009B687A6913437B617B68204A934203D013
:1030B0007B681F4A93420CD17B6923F008037B6134
:1030C0003B68DB687A6913437B617B6923F0040307
:1030D0007B617B68154A934203D07B68144A934214
:1030E00011D13B6923F480733B613B6923F4007386
:1030F0003B613B685B693A6913433B613B689B6991
:103100003A6913433B617B683A695A607B68FA68A5
:103110009A613B685A687B685A637B687A691A626D
:1031200000BF1C37BD465DF8047B704700000140BE
:103130000004014080B487B000AF786039607B68DC
:103140001B6A7B617B681B6A23F010027B681A6232
:103150007B685B683B617B689B69FB60FB6823F471
:10316000E043FB60FB6823F44073FB603B681B6833
:103170001B02FA681343FB607B6923F020037B6129
:103180003B689B681B017A6913437B617B68224A19
:10319000934203D07B68214A93420DD17B6923F08F
:1031A00080037B613B68DB681B017A6913437B61A9
:1031B0007B6923F040037B617B68174A934203D00D
:1031C0007B68164A934213D13B6923F480633B61C9
:1031D0003B6923F400633B613B685B699B003A6990
:1031E00013433B613B689B699B003A6913433B6116
:1031F0007B683A695A607B68FA689A613B685A68EA
:103200007B689A637B687A691A6200BF1C37BD4687
:103210005DF8047B704700BF0000014000040140DE
:1032200080B487B000AF786039607B681B6A7B61CF
:103230007B681B6A23F480727B681A627B685B6818
:103240003B617B68DB69FB60FB6823F07003FB601C
:10325000FB6823F00303FB603B681B68FA681343B9
:10326000FB607B6923F400737B613B689B681B02F6
:103270007A6913437B617B68214A934203D07B6860
:10328000204A93420DD17B6923F400637B613B6844
:10329000DB681B027A6913437B617B6923F48063DB
:1032A0007B617B68164A934203D07B68154A934240
:1032B00013D13B6923F480533B613B6923F40053F2
:1032C0003B613B685B691B013A6913433B613B68A7
:1032D0009B691B013A6913433B617B683A695A60F9
:1032E0007B68FA68DA613B685A687B68DA637B68F6
:1032F0007A691A6200BF1C37BD465DF8047B7047CF
:10330000000001400004014080B487B000AF786045
:1033100039607B681B6A3B617B681B6A23F48052BF
:103320007B681A627B685B687B617B68DB69FB603A
:10333000FB6823F4E043FB60FB6823F44073FB600D
:103340003B681B681B02FA681343FB603B6923F46C
:1033500000533B613B689B681B033A6913433B6125
:103360007B68124A934203D07B68114A934209D189
:103370007B6923F480437B613B685B699B017A69CD
:1033800013437B617B687A695A607B68FA68DA610B
:103390003B685A687B681A647B683A691A6200BFA6
:1033A0001C37BD465DF8047B704700BF000001403C
:1033B0000004014080B487B000AFF860B9607A6063
:1033C000FB681B6A7B61FB681B6A23F00102FB68D8
:1033D0001A62FB689B693B613B6923F0F0033B6128
:1033E0007B681B013A6913433B617B6923F00A0345
:1033F0007B617A69BB6813437B61FB683A699A61B8
:10340000FB687A691A6200BF1C37BD465DF8047B11
:10341000704780B487B000AFF860B9607A60FB682D
:103420001B6A7B61FB681B6A23F01002FB681A624F
:10343000FB689B693B613B6923F470433B617B689C
:103440001B033A6913433B617B6923F0A0037B6153
:10345000BB681B017A6913437B61FB683A699A6117
:10346000FB687A691A6200BF1C37BD465DF8047BB1
:10347000704780B485B000AF786039607B689B6826
:10348000FB60FB6823F07003FB603A68FB68134342
:1034900043F00703FB607B68FA689A6000BF14374B
:1034A000BD465DF8047B704780B487B000AFF8601C
:1034B000B9607A603B60FB689B687B617B6923F441
:1034C0007F437B613B681A027B681A43BB681343E6
:1034D0007A6913437B61FB687A699A6000BF1C3785
:1034E000BD465DF8047B704780B487B000AFF860DC
:1034F000B9607A60BB6803F01F03012202FA03F38C
:103500007B61FB681A6A7B69DB431A40FB681A62BD
:10351000FB681A6ABB6803F01F03796801FA03F3BA
:103520001A43FB681A6200BF1C37BD465DF8047B76
:103530007047000080B485B000AF786039607B6868
:1035400093F83C30012B01D102235AE07B68012221
:1035500083F83C207B68022283F83D207B681B684F
:103560005B68FB607B681B689B68BB60FB6823F043
:103570007003FB603B681B68FA681343FB607B6861
:103580001B68FA685A607B681B68214A934222D004
:103590007B681B68B3F1804F1DD07B681B681D4A98
:1035A000934218D07B681B681B4A934213D07B68F8
:1035B0001B681A4A93420ED07B681B68184A9342D4
:1035C00009D07B681B68174A934204D07B681B684C
:1035D000154A93420CD1BB6823F08003BB603B6863
:1035E0005B68BA681343BB607B681B68BA689A6003
:1035F0007B68012283F83D207B68002283F83C2011
:10360000002318461437BD465DF8047B704700BFA1
:10361000000001400004004000080040000C004091
:1036200000040140004001400018004080B483B015
:1036300000AF03463960FB7197F90730002B0ADBB6
:103640003B68DAB20C4997F907301201D2B20B4449
:1036500083F800230AE03B68DAB20849FB7903F0FB
:103660000F03043B1201D2B20B441A7600BF0C3791
:10367000BD465DF8047B704700E100E000ED00E02E
:1036800080B500AF00216FF00400FFF7CFFF00BF4F
:1036900080BD000080B483B000AFEFF305833B60D2
:1036A0003B68002B03D06FF005037B600CE00A4BF6
:1036B0001B68002B05D1084B01221A6000237B6098
:1036C00002E04FF0FF337B607B6818460C37BD4645
:1036D0005DF8047B704700BFB005002080B582B064
:1036E00000AFEFF305833B603B68002B03D06FF026
:1036F00005037B6010E00B4B1B68012B09D1FFF722
:10370000BFFF084B02221A6001F07AF800237B60A9
:1037100002E04FF0FF337B607B6818460837BD46F8
:1037200080BD00BFB005002080B58EB004AFF8604A
:10373000B9607A6000233B61EFF305837B617B69AD
:10374000002B7ED1FB68002B7BD080233B621823AB
:10375000FB6100237B624FF0FF33BB617B68002B72
:1037600045D07B681B68002B02D07B681B687B629E
:103770007B689B69002B02D07B689B69FB61FB69BE
:10378000002B08D0FB69382B05D87B685B6803F0F9
:103790000103002B01D0002354E07B685B69002B00
:1037A00003D07B685B699B083B627B689B68002B4E
:1037B0000ED07B68DB685B2B0AD97B681B69002B0A
:1037C00006D07B685B69002B02D00123BB6110E04F
:1037D0007B689B68002B0CD17B68DB68002B08D1D1
:1037E0007B681B69002B04D10023BB6101E000232F
:1037F000BB61BB69012B10D17B681B697A68926839
:1038000002920193FB690093BB683A6A796AF8688F
:1038100000F01AFE03463B6113E0BB69002B10D198
:103820003B6A9AB207F110030193FB690093BB68EE
:10383000796AF86800F068FE0346012B01D0002386
:103840003B613B6918462837BD4680BD80B584B0D2
:1038500000AF7860EFF30583BB60BB68002B03D03B
:103860006FF00503FB6007E00023FB607B68002B23
:1038700002D0786800F08EFFFB6818461037BD460E
:1038800080BD000080B485B000AFF860B9607A6098
:10389000FB68074A1A60BB68064A1A607B68802288
:1038A0001A6000BF1437BD465DF8047B704700BF47
:1038B000B40500201006002080B485B000AFF86089
:1038C000B9607A60FB68074A1A60BB68064A1A60EA
:1038D0007B684FF480721A6000BF1437BD465DF8F4
:1038E000047B7047100800206C08002080B483B06F
:1038F00000AF78607B6803F108027B685A607B68E0
:103900004FF0FF329A607B6803F108027B68DA604F
:103910007B6803F108027B681A617B6800221A60E9
:1039200000BF0C37BD465DF8047B704780B483B0A0
:1039300000AF78607B6800221A6100BF0C37BD467B
:103940005DF8047B704780B485B000AF7860396063
:103950007B685B68FB603B68FA685A60FB689A6842
:103960003B689A60FB689B683A685A60FB683A68F3
:103970009A603B687A681A617B681B685A1C7B688E
:103980001A6000BF1437BD465DF8047B704780B4F1
:1039900085B000AF786039603B681B68BB60BB686E
:1039A000B3F1FF3F03D17B681B69FB600CE07B68D0
:1039B0000833FB6002E0FB685B68FB60FB685B68E8
:1039C0001B68BA689A42F6D2FB685A683B685A602C
:1039D0003B685B683A689A603B68FA689A60FB6883
:1039E0003A685A603B687A681A617B681B685A1C9F
:1039F0007B681A6000BF1437BD465DF8047B7047D2
:103A000080B485B000AF78607B681B69FB607B6821
:103A10005B687A6892689A607B689B687A6852688B
:103A20005A60FB685B687A689A4203D17B689A683F
:103A3000FB685A607B6800221A61FB681B685A1E8B
:103A4000FB681A60FB681B6818461437BD465DF8B2
:103A5000047B704780B584B000AF786039607B68C4
:103A6000FB60FB68002B0BD14FF0500383F31188F0
:103A7000BFF36F8FBFF34F8FBB6000BF00BFFDE789
:103A800002F07AF8FB681A68FB68DB6BF968096C6E
:103A900001FB03F31A44FB689A60FB6800229A63F7
:103AA000FB681A68FB685A60FB681A68FB68DB6B86
:103AB000013BF968096C01FB03F31A44FB68DA6007
:103AC000FB68FF2283F84420FB68FF2283F845202F
:103AD0003B68002B14D1FB681B69002B1AD0FB68D4
:103AE0001033184601F01AF90346002B12D00D4B83
:103AF0004FF080521A60BFF34F8FBFF36F8F09E012
:103B0000FB6810331846FFF7F1FEFB6824331846B4
:103B1000FFF7ECFE02F062F8012318461037BD46AD
:103B200080BD00BF04ED00E080B58EB002AFF8604C
:103B3000B9607A603B60FB68002B0BD14FF05003FB
:103B400083F31188BFF36F8FBFF34F8FBB6200BF4A
:103B500000BFFDE73B68002B0BD14FF0500383F310
:103B60001188BFF36F8FBFF34F8F7B6200BF00BF21
:103B7000FDE77B68002B02D0BB68002B01D001233E
:103B800000E00023002B0BD14FF0500383F311888A
:103B9000BFF36F8FBFF34F8F3B6200BF00BFFDE7E6
:103BA0007B68002B02D1BB68002B01D1012300E010
:103BB0000023002B0BD14FF0500383F31188BFF388
:103BC0006F8FBFF34F8FFB6100BF00BFFDE7502336
:103BD0007B617B69502B0BD04FF0500383F311882E
:103BE000BFF36F8FBFF34F8FBB6100BF00BFFDE717
:103BF0007B693B68FB62FB6A002B0DD0FB6A0122EC
:103C000083F8462097F83820FB6A009313467A68B9
:103C1000B968F86800F005F8FB6A18463037BD4609
:103C200080BD80B584B000AFF860B9607A60FB7089
:103C3000BB68002B03D1BB69BA691A6002E0BB699B
:103C40007A681A60BB69FA68DA63BB69BA681A6491
:103C50000121B869FFF7FEFEBB69FA7883F84C20B2
:103C600000BF1037BD4680BD80B58EB000AFF86094
:103C7000B9607A603B6000237B63FB683B633B6B0E
:103C8000002B0BD14FF0500383F31188BFF36F8FDC
:103C9000BFF34F8FBB6200BF00BFFDE7BB68002BC7
:103CA00003D13B6B1B6C002B01D1012300E00023EF
:103CB000002B0BD14FF0500383F31188BFF36F8FAC
:103CC000BFF34F8F7B6200BF00BFFDE73B68022B55
:103CD00003D13B6BDB6B012B01D1012300E00023FF
:103CE000002B0BD14FF0500383F31188BFF36F8F7C
:103CF000BFF34F8F3B6200BF00BFFDE701F0CEF97D
:103D00000346002B02D17B68002B01D1012300E088
:103D10000023002B0BD14FF0500383F31188BFF326
:103D20006F8FBFF34F8FFB6100BF00BFFDE701F056
:103D300023FF3B6B9A6B3B6BDB6B9A4202D33B6876
:103D4000022B29D13A68B968386B00F00FFAF86293
:103D50003B6B5B6A002B10D03B6B2433184600F0A2
:103D6000DDFF0346002B13D03F4B4FF080521A600B
:103D7000BFF34F8FBFF36F8F0AE0FB6A002B07D0B2
:103D8000394B4FF080521A60BFF34F8FBFF36F8FE4
:103D900001F024FF012363E07B68002B03D101F0D5
:103DA0001DFF00235CE07B6B002B06D107F11403A1
:103DB000184601F017F801237B6301F00FFF00F0B4
:103DC00087FD01F0D9FE3B6B93F844305BB2B3F151
:103DD000FF3F03D13B6B002283F844203B6B93F8F9
:103DE00045305BB2B3F1FF3F03D13B6B002283F858
:103DF000452001F0F3FE3A1D07F114031146184661
:103E000001F006F80346002B24D1386B00F0A6FA27
:103E10000346002B18D03B6B10337A6811461846C6
:103E200000F02AFF386B00F031FA00F05FFD034626
:103E3000002B7FF47CAF0C4B4FF080521A60BFF325
:103E40004F8FBFF36F8F72E7386B00F01FFA00F0EF
:103E50004DFD6CE7386B00F019FA00F047FD0023C8
:103E600018463837BD4680BD04ED00E080B590B0FF
:103E700000AFF860B9607A603B60FB68BB63BB6B06
:103E8000002B0BD14FF0500383F31188BFF36F8FDA
:103E9000BFF34F8FBB6200BF00BFFDE7BB68002BC5
:103EA00003D1BB6B1B6C002B01D1012300E000236D
:103EB000002B0BD14FF0500383F31188BFF36F8FAA
:103EC000BFF34F8F7B6200BF00BFFDE73B68022B53
:103ED00003D1BB6BDB6B012B01D1012300E000237D
:103EE000002B0BD14FF0500383F31188BFF36F8F7A
:103EF000BFF34F8F3B6200BF00BFFDE701F01CFF27
:103F0000EFF311824FF0500383F31188BFF36F8FEB
:103F1000BFF34F8FFA61BB61FB697B63BB6B9A6B2D
:103F2000BB6BDB6B9A4202D33B68022B2FD1BB6B7E
:103F300093F8453087F83330BB6B9B6BFB623A6874
:103F4000B968B86B00F012F997F93330B3F1FF3F5D
:103F500012D1BB6B5B6A002B16D0BB6B24331846A7
:103F600000F0DCFE0346002B0ED07B68002B0BD04C
:103F70007B6801221A6007E097F833300133DBB227
:103F80005AB2BB6B83F845200123FB6301E0002399
:103F9000FB637B6B7B617B6983F3118800BFFB6BE9
:103FA00018464037BD4680BD80B58CB000AFF86084
:103FB000B9607A600023FB62FB68BB62BB6A002BBE
:103FC0000BD14FF0500383F31188BFF36F8FBFF312
:103FD0004F8F3B6200BF00BFFDE7BB68002B03D1E2
:103FE000BB6A1B6C002B01D1012300E00023002BD6
:103FF0000BD14FF0500383F31188BFF36F8FBFF3E2
:104000004F8FFB6100BF00BFFDE701F047F803469B
:10401000002B02D17B68002B01D1012300E000239B
:10402000002B0BD14FF0500383F31188BFF36F8F38
:10403000BFF34F8FBB6100BF00BFFDE701F09CFDE8
:10404000BB6A9B6B7B627B6A002B1FD0B968B86A26
:1040500000F0F6F87B6A5A1EBB6A9A63BB6A1B695A
:10406000002B0FD0BB6A1033184600F057FE0346F2
:10407000002B07D03C4B4FF080521A60BFF34F8F9C
:10408000BFF36F8F01F0AAFD012369E07B68002B6D
:1040900003D101F0A3FD002362E0FB6A002B06D1EF
:1040A00007F11003184600F09DFE0123FB6201F0AA
:1040B00095FD00F00DFC01F05FFDBB6A93F8443004
:1040C0005BB2B3F1FF3F03D1BB6A002283F8442007
:1040D000BB6A93F845305BB2B3F1FF3F03D1BB6AD3
:1040E000002283F8452001F079FD3A1D07F1100305
:1040F0001146184600F08CFE0346002B23D1B86A07
:1041000000F016F90346002B17D0BB6A24337A68F7
:104110001146184600F0B0FDB86A00F0B7F800F09C
:10412000E5FB0346002B89D10F4B4FF080521A60FC
:10413000BFF34F8FBFF36F8F80E7B86A00F0A6F828
:1041400000F0D4FB7AE7B86A00F0A0F800F0CEFBEC
:10415000B86A00F0EDF80346002B3FF46FAF002380
:1041600018463037BD4680BD04ED00E080B586B00E
:1041700000AFF860B9607A6000237B61FB689B6BDD
:104180003B61FB681B6C002B0DD1FB681B68002B8F
:104190004DD1FB689B68184600F09EFF7861FB6874
:1041A00000229A6043E07B68002B19D1FB685868B5
:1041B000FB681B6C1A46B96802F044F8FB685A6841
:1041C000FB681B6C1A44FB685A60FB685A68FB6802
:1041D0009B689A422BD3FB681A68FB685A6026E0FA
:1041E000FB68D868FB681B6C1A46B96802F02AF8AD
:1041F000FB68DA68FB681B6C5B421A44FB68DA6098
:10420000FB68DA68FB681B689A4207D2FB689A6809
:10421000FB681B6C5B421A44FB68DA607B68022B0C
:1042200005D13B69002B02D03B69013B3B613B69F7
:104230005A1CFB689A637B6918461837BD4680BDD7
:1042400080B582B000AF786039607B681B6C002B52
:1042500018D07B68DA687B681B6C1A447B68DA606C
:104260007B68DA687B689B689A4203D37B681A682C
:104270007B68DA607B68D9687B681B6C1A46386893
:1042800001F0E0FF00BF0837BD4680BD80B584B0B7
:1042900000AF786001F070FC7B6893F84530FB73E9
:1042A00011E07B685B6A002B12D07B6824331846D0
:1042B00000F034FD0346002B01D000F00DFEFB7B27
:1042C000013BDBB2FB7397F90F30002BE9DC00E018
:1042D00000BF7B68FF2283F8452001F07FFC01F0DE
:1042E0004BFC7B6893F84430BB7311E07B681B691F
:1042F000002B12D07B681033184600F00FFD0346E8
:10430000002B01D000F0E8FDBB7B013BDBB2BB73AF
:1043100097F90E30002BE9DC00E000BF7B68FF223C
:1043200083F8442001F05AFC00BF1037BD4680BD21
:1043300080B584B000AF786001F01EFC7B689B6B99
:10434000002B02D10123FB6001E00023FB6001F0A0
:1043500045FCFB6818461037BD4680BD80B584B06B
:1043600000AF786001F008FC7B689A6B7B68DB6BC0
:104370009A4202D10123FB6001E00023FB6001F0BF
:104380002DFCFB6818461037BD4680BD80B485B053
:1043900000AF786039600023FB6014E00F4AFB68CF
:1043A00052F83330002B0BD10C49FB683A6841F8C6
:1043B00033200A4AFB68DB0013447A685A6006E03F
:1043C000FB680133FB60FB68072BE7D900BF00BF28
:1043D0001437BD465DF8047B704700BF6C0C0020AD
:1043E00080B586B000AFF860B9607A60FB687B6129
:1043F00001F0C2FB7B6993F844305BB2B3F1FF3F3D
:1044000003D17B69002283F844207B6993F845300F
:104410005BB2B3F1FF3F03D17B69002283F84520F3
:1044200001F0DCFB7B699B6B002B06D17B6924339D
:104430007A68B968184600F045FC7869FFF726FFEE
:1044400000BF1837BD4680BD80B58EB004AFF860A0
:10445000B9607A603B607B6B002B0BD14FF050034F
:1044600083F31188BFF36F8FBFF34F8F3B6200BFA1
:1044700000BFFDE7BB6B002B0BD14FF0500383F364
:104480001188BFF36F8FBFF34F8FFB6100BF00BF79
:10449000FDE75C233B613B695C2B0BD04FF0500385
:1044A00083F31188BFF36F8FBFF34F8FBB6100BFE2
:1044B00000BFFDE73B69BB6B002B1ED07B6B002B65
:1044C0001BD0BB6B7B627B6A7A6B1A637B6A0222AE
:1044D00083F85920002303937B6A029307F11403A6
:1044E00001933B6B00933B687A68B968F86800F009
:1044F00050F8786A00F0DEF801E000237B617B6908
:1045000018462837BD4680BD80B58CB004AFF86032
:10451000B9603B601346FB80FB889B00184601F0A6
:104520004DFC78617B69002B0ED05C2001F046FCCD
:10453000F861FB69002B03D0FB697A691A6305E017
:10454000786901F009FD01E00023FB61FB69002BA4
:1045500017D0FB69002283F85920FA8800230393BF
:10456000FB690293FB6A0193BB6A00933B68B968DD
:10457000F86800F00EF8F86900F09CF80123BB61C0
:1045800002E04FF0FF33BB61BB6918462037BD46E0
:1045900080BD80B588B000AFF860B9607A603B60DC
:1045A0003B6B186B7B689B001A46A52101F016FE39
:1045B0003B6B1A6B7B6803F18043013B9B00134408
:1045C000BB61BB6923F00703BB61BB6903F0070351
:1045D000002B0BD04FF0500383F31188BFF36F8F84
:1045E000BFF34F8F7B6100BF00BFFDE7BB68002BAF
:1045F0001FD00023FB6112E0BA68FB6913441978ED
:104600003A6BFB69134434330A461A70BA68FB6983
:1046100013441B78002B06D0FB690133FB61FB6957
:104620000F2BE9D900E000BF3B6B002283F8432049
:1046300003E03B6B002283F83420BB6A372B01D99F
:104640003723BB623B6BBA6ADA623B6BBA6ADA64E5
:104650003B6B00221A653B6B04331846FFF766F983
:104660003B6B18331846FFF761F93B6B3A6B1A61E5
:10467000BB6AC3F138023B6B9A613B6B3A6B5A627F
:104680003B6B00225A653B6B002283F858203A6846
:10469000F968B86901F03EF902463B6B1A60FB6AA3
:1046A000002B02D0FB6A3A6B1A6000BF2037BD4670
:1046B00080BD000080B582B000AF786001F05CFA88
:1046C0002D4B1B6801332C4A13602C4B1B68002BAD
:1046D00009D12A4A7B681360274B1B68012B10D134
:1046E00000F01EFC0DE0264B1B68002B09D1234B6C
:1046F0001B68DA6A7B68DB6A9A4202D81F4A7B68C9
:104700001360204B1B6801331E4A13601D4B1A684F
:104710007B685A647B68DA6A1B4B1B689A4203D930
:104720007B68DB6A184A13607B68DA6A13469B0071
:1047300013449B00154A1A447B68043319461046FB
:10474000FFF701F901F04AFA0D4B1B68002B0ED060
:104750000A4B1B68DA6A7B68DB6A9A4207D20C4B09
:104760004FF080521A60BFF34F8FBFF36F8F00BFBF
:104770000837BD4680BD00BF80110020AC0C002072
:104780008C1100209C11002088110020B00C00200A
:1047900004ED00E080B584B000AF78600023FB60DA
:1047A0007B68002B18D0144B1B68002B0BD04FF0EC
:1047B000500383F31188BFF36F8FBFF34F8FBB603C
:1047C00000BF00BFFDE700F083F80021786800F02B
:1047D000F3FC00F08BF8F860FB68002B07D1074B67
:1047E0004FF080521A60BFF34F8FBFF36F8F00BF3F
:1047F0001037BD4680BD00BFA811002004ED00E0C9
:1048000080B58AB004AF0023BB6000237B603A46CA
:10481000391D07F108031846FFF734F839687B683B
:10482000BA68029201930023009300230A462249AA
:104830002248FFF709FE0346214A1360204B1B68FC
:10484000002B02D001237B6101E000237B617B69A7
:10485000012B02D100F004FD78617B69012B16D198
:104860004FF0500383F31188BFF36F8FBFF34F8F67
:104870003B6100BF134B4FF0FF321A60124B012215
:104880001A60124B00221A6001F0D2F80FE07B6927
:10489000B3F1FF3F0BD14FF0500383F31188BFF307
:1048A0006F8FBFF34F8FFB6000BF00BFFDE700BFFE
:1048B0001837BD4680BD00BF2C6B0008F14E0008C4
:1048C000A4110020A01100208C11002084110020D0
:1048D00080B400AF044B1B680133034A136000BF70
:1048E000BD465DF8047B7047A811002080B584B0F8
:1048F00000AF0023FB600023BB60424B1B68002B12
:104900000BD14FF0500383F31188BFF36F8FBFF3C8
:104910004F8F3B6000BF00BFFDE701F02DF9394B21
:104920001B68013B374A1360364B1B68002B62D172
:10493000354B1B68002B5ED02FE0344BDB68DB6807
:10494000FB60FB6818331846FFF75AF8FB6804331E
:104950001846FFF755F8FB68DA6A2D4B1B689A4238
:1049600003D9FB68DB6A2A4A1360FB68DA6A1346DC
:104970009B0013449B00274A1A44FB6804331946E2
:104980001046FEF7E0FFFB68DA6A234B1B68DB6A20
:104990009A4202D3214B01221A601C4B1B68002B48
:1049A000CBD1FB68002B01D000F058FB1C4B1B68DF
:1049B0007B607B68002B10D000F046F80346002B8C
:1049C00002D0164B01221A607B68013B7B607B683A
:1049D000002BF1D1124B00221A60104B1B68002BE8
:1049E00009D00123BB600F4B4FF080521A60BFF318
:1049F0004F8FBFF36F8F01F0F1F8BB681846103787
:104A0000BD4680BDA811002080110020401100206B
:104A100088110020B00C0020AC0C00209411002064
:104A20009011002004ED00E080B483B000AF054B8E
:104A30001B687B607B6818460C37BD465DF8047BBD
:104A4000704700BF8411002080B586B000AF0023FE
:104A50007B614F4B1B68002B40F090804D4B1B68D7
:104A600001333B614B4A3B6913603B69002B21D109
:104A7000494B1B681B68002B0BD04FF0500383F38E
:104A80001188BFF36F8FBFF34F8F3B6000BF00BF34
:104A9000FDE7414B1B68FB60404B1B683E4A1360BF
:104AA0003E4AFB6813603E4B1B6801333C4A13606F
:104AB00000F0D4FA3B4B1B683A699A4249D3364B13
:104AC0001B681B68002B04D1364B4FF0FF321A6075
:104AD0003FE0314B1B68DB68DB68BB60BB685B6831
:104AE0007B603A697B689A4203D22E4A7B681360E6
:104AF0002FE0BB6804331846FEF782FFBB689B6A51
:104B0000002B04D0BB6818331846FEF779FFBB684A
:104B1000DA6A254B1B689A4203D9BB68DB6A224AD2
:104B20001360BB68DA6A13469B0013449B001F4A5C
:104B30001A44BB68043319461046FEF704FFBB68ED
:104B4000DA6A1B4B1B68DB6A9A42B8D301237B618C
:104B5000B5E7174B1B68DA6A144913469B001344E8
:104B60009B000B441B68012B01D901237B61114B76
:104B70001B68002B07D001237B6104E00E4B1B68F0
:104B800001330D4A13607B6918461837BD4680BD56
:104B9000A811002084110020381100203C110020B1
:104BA00098110020A011002088110020B00C0020D6
:104BB000AC0C0020941100209011002080B485B02E
:104BC00000AF284B1B68002B03D0274B01221A6033
:104BD00042E0254B00221A60244B1B68FB6011E069
:104BE000FB68002B0BD14FF0500383F31188BFF308
:104BF0006F8FBFF34F8F7B6000BF00BFFDE7FB6887
:104C0000013BFB601A49FA6813469B0013449B0062
:104C10000B441B68002BE3D0FA6813469B00134437
:104C20009B00134A1344BB60BB685B685A68BB684F
:104C30005A60BB685A68BB6808339A4204D1BB68A3
:104C40005B685A68BB685A60BB685B68DB68094A86
:104C50001360064AFB68136000BF1437BD465DF859
:104C6000047B7047A81100209411002088110020B7
:104C7000B00C0020AC0C002080B584B000AF786090
:104C800039607B68002B0BD14FF0500383F3118800
:104C9000BFF36F8FBFF34F8FFB6000BF00BFFDE717
:104CA000074B1B68183319467868FEF770FE012120
:104CB000386800F081FA00BF1037BD4680BD00BFE4
:104CC000AC0C002080B586B000AFF860B9607A60A7
:104CD000FB68002B0BD14FF0500383F31188BFF317
:104CE0006F8FBFF34F8F7B6100BF00BFFDE70A4BA3
:104CF0001B6818331946F868FEF725FE7B68002B01
:104D000002D04FF0FF33BB607968B86800F054FA06
:104D100000BF1837BD4680BDAC0C002080B586B002
:104D200000AF78607B68DB68DB683B613B69002B28
:104D30000BD14FF0500383F31188BFF36F8FBFF394
:104D40004F8FFB6000BF00BFFDE73B69183318467B
:104D5000FEF756FE1D4B1B68002B1DD13B6904332B
:104D60001846FEF74DFE3B69DA6A194B1B689A42FA
:104D700003D93B69DB6A164A13603B69DA6A13465A
:104D80009B0013449B00134A1A443B6904331946A1
:104D90001046FEF7D8FD05E03B69183319460E486A
:104DA000FEF7D1FD3B69DA6A0C4B1B68DB6A9A425D
:104DB00005D901237B610A4B01221A6001E000231F
:104DC0007B617B6918461837BD4680BDA81100205D
:104DD00088110020B00C002040110020AC0C0020F5
:104DE0009411002080B483B000AF7860064B1A683D
:104DF0007B681A60054B1A687B685A6000BF0C37E5
:104E0000BD465DF8047B7047981100208411002096
:104E100080B588B000AF786039607B68002B0BD11B
:104E20004FF0500383F31188BFF36F8FBFF34F8FA1
:104E30003B6100BF00BFFDE73B68002B0BD14FF08B
:104E4000500383F31188BFF36F8FBFF34F8FFB6065
:104E500000BF00BFFDE700F08FFE1D4B1B68BB616C
:104E60007B685B68BA69D31A7B613B681B68B3F1E6
:104E7000FF3F02D10023FB6123E07B681A68154BDA
:104E80001B689A4207D07B685B68BA699A4202D372
:104E90000123FB6115E03B681B687A699A420BD2DB
:104EA0003B681A687B69D21A3B681A607868FFF71A
:104EB00099FF0023FB6104E03B6800221A60012394
:104EC000FB6100F08BFEFB6918462037BD4680BDB4
:104ED000841100209811002080B400AF034B012200
:104EE0001A6000BFBD465DF8047B70479411002036
:104EF00080B582B000AF786000F052F8064B1B68B6
:104F0000012BF9D9054B4FF080521A60BFF34F8F38
:104F1000BFF36F8FF0E700BFB00C002004ED00E09E
:104F200080B582B000AF00237B600CE07A68134646
:104F30009B0013449B00124A13441846FEF7D6FC0C
:104F40007B6801337B607B68372BEFD90D48FEF718
:104F5000CDFC0D48FEF7CAFC0C48FEF7C7FC0C4818
:104F6000FEF7C4FC0B48FEF7C1FC0B4B054A1A6068
:104F70000A4B054A1A6000BF0837BD4680BD00BF16
:104F8000B00C00201011002024110020401100203E
:104F9000541100206C110020381100203C11002019
:104FA00080B582B000AF19E000F0E6FD104BDB6881
:104FB000DB687B607B6804331846FEF721FD0D4BF0
:104FC0001B68013B0B4A13600B4B1B68013B0A4AF1
:104FD000136000F003FE786800F010F8064B1B68C1
:104FE000002BE1D100BF00BF0837BD4680BD00BF28
:104FF00054110020801100206811002080B584B079
:1050000000AF78607B6893F85930002B08D17B683B
:105010001B6B184600F0A0FF786800F09DFF19E0B8
:105020007B6893F85930012B03D1786800F094FF26
:1050300010E07B6893F85930022B0BD04FF05003EF
:1050400083F31188BFF36F8FBFF34F8FFB6000BFF7
:1050500000BFFDE700BF1037BD4680BD80B483B000
:1050600000AF0C4B1B681B68002B04D10A4B4FF0A0
:10507000FF321A6008E0074B1B68DB68DB687B6067
:105080007B685B68044A136000BF0C37BD465DF85F
:10509000047B704738110020A011002080B483B039
:1050A00000AF0B4B1B68002B02D101237B6008E093
:1050B000084B1B68002B02D102237B6001E0002318
:1050C0007B607B6818460C37BD465DF8047B7047F3
:1050D0008C110020A811002080B586B000AF786048
:1050E0007B683B6100237B617B68002B58D02F4B92
:1050F0001B683A699A420BD04FF0500383F3118832
:10510000BFF36F8FBFF34F8FFB6000BF00BFFDE7A2
:105110003B691B6D002B0BD14FF0500383F31188BB
:10512000BFF36F8FBFF34F8FBB6000BF00BFFDE7C2
:105130003B691B6D5A1E3B691A653B69DA6A3B691C
:10514000DB6C9A422CD03B691B6D002B28D13B694C
:1051500004331846FEF754FC3B69DA6C3B69DA62AB
:105160003B69DB6AC3F138023B699A613B69DA6AE1
:105170000F4B1B689A4203D93B69DB6A0C4A1360E8
:105180003B69DA6A13469B0013449B00094A1A44A0
:105190003B69043319461046FEF7D5FB01237B61BA
:1051A0007B6918461837BD4680BD00BFAC0C002097
:1051B00088110020B00C002080B584B000AF78606A
:1051C0003960214B1B68FB60204B1B680433184679
:1051D000FEF716FC7B68B3F1FF3F0AD13B68002B5A
:1051E00007D01A4B1B68043319461948FEF7ABFB6E
:1051F00026E0FA687B681344BB60144B1B68BA68EE
:105200005A60BA68FB689A4209D2124B1A680F4B6F
:105210001B68043319461046FEF7B9FB10E00E4B2D
:105220001A680A4B1B68043319461046FEF7AFFB99
:105230000A4B1B68BA689A4202D2084ABB681360DC
:1052400000BF1037BD4680BD84110020AC0C00208B
:105250006C1100203C11002038110020A01100200A
:1052600080B58AB004AF00237B6100F013FB1D4BB7
:105270001B68002B21D00023FB600023BB603A1D7C
:1052800007F1080107F10C031846FEF715FB7968D2
:10529000BB68FA68029201930223009300230A4636
:1052A00011491248FFF7D0F80346114A1360104B1A
:1052B0001B68002B01D001237B617B69002B0BD184
:1052C0004FF0500383F31188BFF36F8FBFF34F8FFD
:1052D0003B6100BF00BFFDE77B6918461837BD463C
:1052E00080BD00BFDC110020346B00082D54000885
:1052F000E011002080B58AB000AFF860B9607A6034
:105300003B6000237B62FB68002B0BD14FF0500306
:1053100083F31188BFF36F8FBFF34F8F3B6200BFE2
:1053200000BFFDE7194B1B68002B2AD0BB683B610F
:105330007B687B61FB68BB61BB68052B18DCFFF7F2
:10534000ADFE0346022B09D1104B186807F110017E
:1053500000233A6BFEF788FC786212E00B4B18686A
:1053600007F1100100230022FEF77EFC786208E0BE
:10537000064B186807F1100100233A68FEF776FD26
:1053800078627B6A18462837BD4680BDDC11002054
:1053900080B588B002AF78603960234B1B68DB684A
:1053A000DB687B617B6904331846FEF729FB7B6968
:1053B00093F8283003F00403002B23D07B699A690B
:1053C0007B68D1187B683A68786900F0D5F80346A5
:1053D000002B20D00023009300237A6800217869F5
:1053E000FFF788FF38613B69002B14D14FF0500361
:1053F00083F31188BFF36F8FBFF34F8FFB6000BF44
:1054000000BFFDE77B6993F8283023F00103DAB28F
:105410007B6983F828207B691B6A7869984700BFFD
:105420001837BD4680BD00BFD411002080B584B0C0
:1054300000AF786007F10803184600F059F8F860EB
:10544000BB681946F86800F005F800F0D7F800BF0F
:10545000F0E7000080B584B000AF78603960FFF7F6
:1054600037FA07F10803184600F066F8F860BB68E1
:10547000002B30D13B68002B0AD17A68FB689A4236
:1054800006D8FFF733FAF9687868FFF781FF24E060
:105490003B68002B08D0134B1B681B68002B01D105
:1054A000012300E000233B600F4B18687A68FB681B
:1054B000D31A3A681946FEF793FFFFF717FA034627
:1054C000002B0AD1094B4FF080521A60BFF34F8F67
:1054D000BFF36F8F01E0FFF709FA00BF1037BD4639
:1054E00080BD00BFD8110020DC11002004ED00E0D9
:1054F00080B485B000AF78600E4B1B681B68002B32
:1055000001D1012200E000227B681A607B681B68E1
:10551000002B05D1074B1B68DB681B68FB6001E0B3
:105520000023FB60FB6818461437BD465DF8047B1A
:10553000704700BFD411002080B584B000AF786000
:10554000FFF772FAF8600B4B1B68FA689A4205D2B3
:1055500000F03AF97B6801221A6002E07B680022C1
:105560001A60044AFB681360FB6818461037BD4692
:1055700080BD00BFE411002080B586B000AFF860A8
:10558000B9607A603B6000237B61FB68BA685A604F
:10559000FB68FA681A61BA687B689A4212D87A681E
:1055A0003B68D21AFB689B699A4202D301237B6154
:1055B0001BE0104B1A68FB68043319461046FEF7CF
:1055C000E6F912E07A683B689A4206D2BA683B680C
:1055D0009A4202D301237B6107E0074B1A68FB68FC
:1055E000043319461046FEF7D2F97B69184618377E
:1055F000BD4680BDD8110020D411002080B58EB0EA
:1056000002AFCEE07B68002B19DA3B1D0433FB624E
:10561000FB6A002B0BD14FF0500383F31188BFF3CB
:105620006F8FBFF34F8FFB6100BF00BFFDE7FB6AC9
:105630001B68FA6A5068FA6A9268114698477B6854
:10564000002BC0F2AE80FB68BB62BB6A5B69002BBB
:1056500004D0BB6A04331846FEF7D2F93B4618461D
:10566000FFF76AFF78627B68092B00F2978001A23E
:1056700052F823F09D5600089D5600089D560008DC
:105680001357000827570008735700089D56000855
:105690009D5600081357000827570008BB6A93F867
:1056A000283043F00103DAB2BB6A83F82820BA68D5
:1056B000BB6A9B69D118BB687A6AB86AFFF75CFF5E
:1056C0000346002B6CD0BB6A1B6AB86A9847BB6A5A
:1056D00093F8283003F00403002B61D0BA68BB6A4A
:1056E0009B691A440023009300230021B86AFFF746
:1056F00001FE38623B6A002B52D14FF0500383F316
:105700001188BFF36F8FBFF34F8FBB6100BF00BF26
:10571000FDE7BB6A93F8283023F00103DAB2BB6AD5
:1057200083F828203DE0BB6A93F8283043F001035A
:10573000DAB2BB6A83F82820BA68BB6A9A61BB6A8E
:105740009B69002B0BD14FF0500383F31188BFF3FB
:105750006F8FBFF34F8F7B6100BF00BFFDE7BB6A58
:105760009A697B6AD1187B6A7A6AB86AFFF704FF84
:1057700017E0BB6A93F8283003F00203002B03D133
:10578000B86A00F0E9FB0CE0BB6A93F8283023F01C
:105790000103DAB2BB6A83F8282002E000BF00E010
:1057A00000BF084B1B68391D00221846FEF7FCFBA2
:1057B0000346002B7FF426AF00BF00BF3037BD4645
:1057C00080BD00BFDC11002080B588B002AF49E089
:1057D0002E4B1B68DB681B683B612C4B1B68DB682E
:1057E000DB68FB60FB6804331846FEF709F9FB68C9
:1057F0001B6AF8689847FB6893F8283003F00403A5
:10580000002B2FD0FB689B693A691344BB60BA68D0
:105810003B699A420ED9FB68BA685A60FB68FA681D
:105820001A611A4B1A68FB68043319461046FEF7D2
:10583000AEF817E00023009300233A690021F868CE
:10584000FFF758FD78607B68002B0BD14FF05003B9
:1058500083F31188BFF36F8FBFF34F8F3B6000BF9F
:1058600000BFFDE7094B1B681B68002BB0D1074B3D
:105870001B687B61064B1B68044A1360044A7B6902
:10588000136000BF1837BD4680BD00BFD411002093
:10589000D811002080B582B002AF00F06DF9154B31
:1058A0001B68002B20D11448FEF720F81348FEF7A0
:1058B0001DF8134B104A1A60124B104A1A6000234D
:1058C0000093114B114A10210A20FEF72DF90346CF
:1058D000084A1360074B1B68002B05D0054B1B685B
:1058E0000B491846FEF752FD00F078F900BFBD469F
:1058F00080BD00BFDC110020AC110020C0110020D1
:10590000D4110020D811002088120020E8110020B6
:105910003C6B000880B485B000AFF860B9607A6075
:10592000FB68043BFB60FB684FF080721A60FB6809
:10593000043BFB60BB6823F00102FB681A60FB6854
:10594000043BFB600C4AFB681A60FB68143BFB607D
:105950007A68FB681A60FB68043BFB60FB686FF0C9
:1059600002021A60FB68203BFB60FB681846143794
:10597000BD465DF8047B70477D59000880B485B052
:1059800000AF00237B60134B1B68B3F1FF3F0BD0CC
:105990004FF0500383F31188BFF36F8FBFF34F8F26
:1059A000FB6000BF00BFFDE74FF0500383F3118899
:1059B000BFF36F8FBFF34F8FBB6000BF00BF7B682B
:1059C000002BFCD000BF00BF1437BD465DF8047B40
:1059D000704700BF0C000020000000000000000025
:1059E000074B19680868B0E8F04F80F30988BFF3E7
:1059F0006F8F4FF0000080F311887047AFF3008085
:105A0000AC0C002000BF00BF08480068006880F3AD
:105A100008884FF0000080F3148862B661B6BFF3C7
:105A20004F8FBFF36F8F00DF00BF00BF08ED00E0B6
:105A300080B586B000AF474B1B68474A93420BD1F5
:105A40004FF0500383F31188BFF36F8FBFF34F8F75
:105A5000FB6000BF00BFFDE73E4B1B683F4A93421F
:105A60000BD14FF0500383F31188BFF36F8FBFF357
:105A70004F8F3B6100BF00BFFDE7394B7B617B6906
:105A80001B78DBB27B607B69FF221A707B691B7815
:105A9000DBB2FB70FB78DBB203F05003DAB2314BC0
:105AA0001A70314B07221A6009E02F4B1B68013B2B
:105AB0002D4A1360FB78DBB25B00DBB2FB70FB7836
:105AC000DBB203F08003802BEFD0274B1B68C3F1C0
:105AD0000703042B0BD04FF0500383F31188BFF35F
