:020000040800F2
:1000000000000220A55B000841590008495900087A
:1000100051590008595900086159000800000000B2
:10002000000000000000000000000000E1CF000818
:10003000695900080000000031D200087759000813
:10004000F55B0008F55B0008F55B0008F55B000850
:10005000F55B0008F55B0008F55B0008F55B000840
:10006000F55B0008F55B0008F55B0008F55B000830
:10007000F55B0008F55B0008F55B0008F55B000820
:10008000F55B0008F55B0008F55B0008F55B000810
:10009000F55B0008F55B0008F55B0008F55B000800
:1000A000F55B0008F55B0008F55B0008F55B0008F0
:1000B000F55B0008F55B0008F55B0008F55B0008E0
:1000C000F55B0008F55B0008F55B0008F55B0008D0
:1000D000F55B0008F55B0008F55B00089159000826
:1000E000F55B0008F55B0008F55B0008A559000802
:1000F000F55B0008F55B0008F55B0008F55B0008A0
:10010000F55B0008F55B0008C1590008F55B0008C5
:10011000F55B0008F55B0008F55B0008F55B00087F
:10012000F55B0008F55B0008F55B0008F55B00086F
:10013000F55B0008F55B0008F55B0008F55B00085F
:10014000F55B0008F55B0008F55B0008F55B00084F
:10015000F55B0008F55B0008F55B0008F55B00083F
:10016000F55B0008F55B0008F55B0008F55B00082F
:10017000F55B0008F55B0008F55B00080000000077
:08018000F55B0008F55B0008C7
:1001900010B5054C237833B9044B13B10448AFF3C1
:1001A00000800123237010BD140200200000000015
:1001B0002827010808B5034B1BB103490348AFF3D7
:1001C000008008BD00000000180200202827010858
:1001D00001F0FF01102A2BDB10F0070F08D010F8F8
:1001E000013B013A8B422DD010F0070F42B3F6D1FC
:1001F000F0B441EA012141EA014122F007047FF015
:1002000000070023F0E80256083C85EA010586EA6B
:10021000010685FA47F5A3FA87F586FA47F6A5FAA7
:1002200087F68EB9EED1F0BC01F0FF0102F00702B3
:1002300032B110F8013B013A83EA010313B1F8D15E
:100240000020704701387047002D06BF354603383F
:10025000073815F0010F07D1013015F4807F02BF78
:10026000013015F4C03F0130F0BC0138704700BFC9
:10027000034613F8012B002AFBD1181A01387047E6
:1002800081F0004102E000BF83F0004330B54FEA47
:1002900041044FEA430594EA050F08BF90EA020FB4
:1002A0001FBF54EA000C55EA020C7FEA645C7FEA47
:1002B000655C00F0E2804FEA5454D4EB5555B8BF6A
:1002C0006D420CDD2C4480EA020281EA030382EADB
:1002D000000083EA010180EA020281EA0303362D6D
:1002E00088BF30BD11F0004F4FEA01314FF4801C40
:1002F0004CEA113102D0404261EB410113F0004F52
:100300004FEA03334CEA133302D0524263EB430308
:1003100094EA050F00F0A780A4F10104D5F1200EA6
:100320000DDB02FA0EFC22FA05F2801841F1000101
:1003300003FA0EF2801843FA05F359410EE0A5F1D5
:1003400020050EF1200E012A03FA0EFC28BF4CF006
:10035000020C43FA05F3C01851EBE37101F00045BC
:1003600007D54FF0000EDCF1000C7EEB00006EEBC9
:100370000101B1F5801F1BD3B1F5001F0CD3490853
:100380005FEA30004FEA3C0C04F101044FEA4452AA
:1003900012F5800F80F09A80BCF1004F08BF5FEA31
:1003A000500C50F1000041EB045141EA050130BD11
:1003B0005FEA4C0C404141EB0101013C28BFB1F523
:1003C000801FE9D291F0000F04BF01460020B1FA6E
:1003D00081F308BF2033A3F10B03B3F120020CDA41
:1003E0000C3208DD02F1140CC2F10C0201FA0CF01F
:1003F00021FA02F10CE002F11402D8BFC2F1200C84
:1004000001FA02F120FA0CFCDCBF41EA0C01904039
:10041000E41AA2BF01EB0451294330BD6FEA040482
:100420001F3C1CDA0C340EDC04F11404C4F120026D
:1004300020FA04F001FA02F340EA030021FA04F37F
:1004400045EA030130BDC4F10C04C4F1200220FAD6
:1004500002F001FA04F340EA0300294630BD21FA14
:1004600004F0294630BD94F0000F83F4801306BFDA
:1004700081F480110134013D4EE77FEA645C18BFCE
:100480007FEA655C29D094EA050F08BF90EA020F65
:1004900005D054EA000C04BF1946104630BD91EA5D
:1004A000030F1EBF0021002030BD5FEA545C05D160
:1004B0004000494128BF41F0004130BD14F580049F
:1004C0003CBF01F5801130BD01F0004545F0FE4113
:1004D00041F470014FF0000030BD7FEA645C1ABF48
:1004E000194610467FEA655C1CBF0B46024650EA7F
:1004F000013406BF52EA033591EA030F41F40021AB
:1005000030BD00BF90F0000F04BF0021704730B530
:100510004FF4806404F132044FF000054FF0000105
:1005200050E700BF90F0000F04BF0021704730B5C6
:100530004FF4806404F1320410F0004548BF40429B
:100540004FF000013EE700BF42004FEAE2014FEAF0
:1005500031014FEA02701FBF12F07F4393F07F4FCB
:1005600081F06051704732F07F4208BF704793F0CE
:100570007F4F04BF41F40021704730B54FF46074E1
:1005800001F0004521F000411CE700BF50EA0102E4
:1005900008BF704730B54FF000050AE050EA01028D
:1005A00008BF704730B511F0004502D5404261EBFD
:1005B00041014FF4806404F132045FEA915C3FF43E
:1005C000D8AE4FF003025FEADC0C18BF03325FEADB
:1005D000DC0C18BF033202EBDC02C2F1200300FA8C
:1005E00003FC20FA02F001FA03FE40EA0E0021FAB1
:1005F00002F11444BDE600BF70B54FF0FF0C4CF49F
:10060000E06C1CEA11541DBF1CEA135594EA0C0F50
:1006100095EA0C0F00F0DEF82C4481EA030621EA8B
:100620004C5123EA4C5350EA013518BF52EA0335C6
:1006300041F4801143F4801338D0A0FB02CE4FF078
:100640000005E1FB02E506F00042E0FB03E54FF0A8
:100650000006E1FB03569CF0000F18BF4EF0010EA0
:10066000A4F1FF04B6F5007F64F5407404D25FEA9C
:100670004E0E6D4146EB060642EAC62141EA55514F
:100680004FEAC52040EA5E504FEACE2EB4F1FD0C91
:1006900088BFBCF5E06F1ED8BEF1004F08BF5FEA0F
:1006A000500E50F1000041EB045170BD06F00046C1
:1006B00046EA010140EA020081EA0301B4EB5C046E
:1006C000C2BFD4EB0C0541EA045170BD41F4801166
:1006D0004FF0000E013C00F3AB8014F1360FDEBF8B
:1006E000002001F0004170BDC4F10004203C35DA67
:1006F0000C341BDC04F11404C4F1200500FA05F3EA
:1007000020FA04F001FA05F240EA020001F000428A
:1007100021F0004110EBD37021FA04F642EB060100
:100720005EEA430E08BF20EAD37070BDC4F10C042A
:10073000C4F1200500FA04F320FA05F001FA04F2EE
:1007400040EA020001F0004110EBD37041F10001DA
:100750005EEA430E08BF20EAD37070BDC4F12005E5
:1007600000FA05F24EEA020E20FA04F301FA05F24D
:1007700043EA020321FA04F001F0004121FA04F2F5
:1007800020EA020000EBD3705EEA430E08BF20EAC5
:10079000D37070BD94F0000F0FD101F000464000FF
:1007A00041EB010111F4801F08BF013CF7D041EA81
:1007B000060195F0000F18BF704703F00046520085
:1007C00043EB030313F4801F08BF013DF7D043EA56
:1007D0000603704794EA0C0F0CEA135518BF95EA0C
:1007E0000C0F0CD050EA410618BF52EA4306D1D193
:1007F00081EA030101F000414FF0000070BD50EAB2
:10080000410606BF1046194652EA430619D094EA3B
:100810000C0F02D150EA013613D195EA0C0F05D125
:1008200052EA03361CBF104619460AD181EA030179
:1008300001F0004141F0FE4141F470014FF0000031
:1008400070BD41F0FE4141F4780170BD70B54FF0CC
:10085000FF0C4CF4E06C1CEA11541DBF1CEA13554C
:1008600094EA0C0F95EA0C0F00F0A7F8A4EB05042E
:1008700081EA030E52EA03354FEA013100F0888025
:100880004FEA03334FF0805545EA131343EA1263EE
:100890004FEA022245EA111545EA10654FEA0026A3
:1008A0000EF000419D4208BF964244F1FD0404F55C
:1008B000407402D25B084FEA3202B61A65EB0305B8
:1008C0005B084FEA32024FF480104FF4002CB6EB75
:1008D000020E75EB030E22BFB61A754640EA0C00F5
:1008E0005B084FEA3202B6EB020E75EB030E22BF35
:1008F000B61A754640EA5C005B084FEA3202B6EB76
:10090000020E75EB030E22BFB61A754640EA9C0034
:100910005B084FEA3202B6EB020E75EB030E22BF04
:10092000B61A754640EADC0055EA060E18D04FEAC2
:10093000051545EA16754FEA06164FEAC30343EA62
:1009400052734FEAC2025FEA1C1CC0D111F4801F2F
:100950000BD141EA00014FF000004FF0004CB6E728
:1009600011F4801F04BF01430020B4F1FD0C88BFC7
:10097000BCF5E06F3FF6AFAEB5EB030C04BFB6EBD2
:10098000020C5FEA500C50F1000041EB045170BDC5
:100990000EF0004E4EEA113114EB5C04C2BFD4EBF2
:1009A0000C0541EA045170BD41F480114FF0000E76
:1009B000013C90E645EA060E8DE60CEA135594EAF2
:1009C0000C0F08BF95EA0C0F3FF43BAF94EA0C0FF5
:1009D0000AD150EA01347FF434AF95EA0C0F7FF46A
:1009E00025AF104619462CE795EA0C0F06D152EABE
:1009F00003353FF4FDAE1046194622E750EA4106A2
:100A000018BF52EA43067FF4C5AE50EA41047FF4B2
:100A10000DAF52EA43057FF4EBAE12E74FF0FF3C17
:100A200006E000BF4FF0010C02E000BF4FF0010CE8
:100A30004DF804CD4FEA410C7FEA6C5C4FEA430C61
:100A400018BF7FEA6C5C1BD001B050EA410C0CBFB0
:100A500052EA430C91EA030F02BF90EA020F002012
:100A6000704710F1000F91EA030F58BF994208BF79
:100A700090422CBFD8176FEAE37040F00100704736
:100A80004FEA410C7FEA6C5C02D150EA013C07D18D
:100A90004FEA430C7FEA6C5CD6D152EA033CD3D0D8
:100AA0005DF8040B704700BF8446104662468C46D2
:100AB0001946634600E000BF01B5FFF7B7FF002805
:100AC00048BF10F1000F01BD4DF808EDFFF7F4FF2E
:100AD0000CBF012000205DF808FB00BF4DF808EDB9
:100AE000FFF7EAFF34BF012000205DF808FB00BFDC
:100AF0004DF808EDFFF7E0FF94BF012000205DF8FE
:100B000008FB00BF4DF808EDFFF7CEFF94BF0120B2
:100B100000205DF808FB00BF4DF808EDFFF7C4FFAB
:100B200034BF012000205DF808FB00BF4FEA410CF4
:100B30007FEA6C5C02D150EA013C0AD14FEA430CD7
:100B40007FEA6C5C02D152EA033C02D14FF0000014
:100B500070474FF0010070474FEA410212F5001252
:100B600015D211D56FF47873B3EB625212D94FEAF4
:100B7000C12343F0004343EA505311F0004F23FADE
:100B800002F018BF404270474FF00000704750EA33
:100B9000013005D111F0004008BF6FF000407047F0
:100BA0004FF00000704700BF4A0011D212F500124A
:100BB00011D20DD56FF47873B3EB62520ED44FEAB5
:100BC000C12343F0004343EA505323FA02F0704735
:100BD0004FF00000704750EA013002D14FF0FF3073
:100BE00070474FF0000070474FEA4102B2F1E04316
:100BF00024BFB3F5001CDCF1FE5C0DD901F0004C04
:100C00004FEAC0024CEA5070B2F1004F40EB830053
:100C100008BF20F00100704711F0804F21D113F17F
:100C20003872BCBF01F00040704741F480114FEAB8
:100C30005252C2F11802C2F1200C10FA0CF320FA41
:100C400002F018BF40F001004FEAC1234FEAD3235E
:100C500003FA0CFC40EA0C0023FA02F34FEA4303C8
:100C6000CCE77FEA625307D150EA01331EBF4FF051
:100C7000FE4040F44000704701F0004040F0FE406C
:100C800040F40000704700BF53B94AB9002908BFBB
:100C900000281CBF4FF0FF314FF0FF3000F0BEB90D
:100CA000ADF1080C6DE904CE00F03CF8DDF804E08D
:100CB000DDE9022304B0704738B500220023044662
:100CC0000D46FFF70BFF28B920462946BDE83840FE
:100CD00000F00AB8204605F1004100F005F8404256
:100CE00061EB410138BD00BFD0B50C4B0022064678
:100CF0000F46FFF781FCFFF757FF0446FFF702FCA2
:100D0000074B0022FFF778FC02460B463046394677
:100D1000FFF7BAFAFFF748FF2146D0BD0000F03DCB
:100D20000000F0412DE9F047089D8E4604468846B4
:100D3000002B4AD18A42174662D9B2FA82F64EB1E6
:100D4000C6F1200301FA06F820FA03F3B74043EA9C
:100D50000808B4404FEA174E1FFA87FCB8FBFEF1B3
:100D6000230C0EFB118843EA084301FB0CF29A4264
:100D700009D9FB1801F1FF3080F0EA809A4240F275
:100D8000E78002393B449A1AA3B2B2FBFEF00EFB95
:100D9000102243EA024300FB0CFC9C4509D9FB18D6
:100DA00000F1FF3280F0D6809C4540F2D3803B4476
:100DB000023840EA0140A3EB0C0300211DB1F340CF
:100DC0000022C5E90032BDE8F0878B4205D90DB19C
:100DD000C5E9000100210846F5E7B3FA83F10029CF
:100DE00046D1734502D3824200F20581841A6EEB2C
:100DF000030201209046002DE5D0C5E90048E2E756
:100E0000002A00F09080B2FA82F6002E40F0A48012
:100E10008A1A030C4FEA174E80B2BCB20121B2FB12
:100E2000FEFC0EFB1C2243EA024304FB0CF29A4236
:100E300007D9FB180CF1FF3802D29A4200F2E08089
:100E4000C4469B1AB3FBFEF20EFB123340EA034387
:100E500002FB04F49C4207D9FB1802F1FF3002D2D6
:100E60009C4200F2CA8002461B1B42EA0C40A5E7E6
:100E7000C1F120068B4022FA06F71F430EFA01F457
:100E800020FA06F32EFA06FE4FEA1749234300FA2A
:100E900001F81FFA87FCBEFBF9F01C0C09FB10EEF1
:100EA00044EA0E4400FB0CFEA64502FA01F209D901
:100EB0003C1900F1FF3A80F09C80A64540F29980F1
:100EC00002383C44A4EB0E041FFA83FEB4FBF9F392
:100ED00009FB13444EEA044403FB0CFCA44508D967
:100EE0003C1903F1FF3E80F08280A4457FD9023B8C
:100EF0003C4443EA0040A4EB0C04A0FB02EC644534
:100F00007346E14662D35FD05DB1B8EB030264EB98
:100F1000090404FA06F622FA01F31E43CC40C5E99F
:100F2000006400214FE7B1FBF2FC010C41EA0E41E5
:100F300080B240EA01423B4638463C46B846BE468F
:100F40002026B1FBF7F1A2EB080241EA0C4166E76B
:100F5000014618E710462CE7C6F120022EFA02F3EC
:100F6000B740B14020FA02F24FEA174E0A43B3FBF2
:100F7000FEF8BCB20EFB1833110C41EA034108FB2A
:100F800004F9B04089454FEA104380B23ED9791840
:100F900008F1FF3C01D289451FD8A1EB0901B1FB43
:100FA000FEF909FB04F80EFB191192B242EA014264
:100FB000424529D2BA1809F1FF31C4D24245C2D202
:100FC000A9F102013A44BEE7F0459DD2BEEB02030F
:100FD0006CEB070C0138E14696E7A7EB0909494499
:100FE000A8F1020CB1FBFEF909FB04F8DBE773463C
:100FF0007FE7504666E70846FDE63B44023A33E7A2
:10100000ACF1020C3B441CE749469CE7A1EB09010B
:10101000C446B1FBFEF909FB04F8C4E7704700BF02
:1010200080B58AB004AFF8600B467A60FB7200238B
:10103000FB757B68DBB21B01DBB27B75FB7A002B97
:1010400001D1682300E06923BB75BB7D9BB25B00C7
:1010500099B20A2302930123019307F11503009328
:1010600001237F22F86805F013FB0346FB75FB7D27
:1010700018461837BD4680BD80B588B004AF78608B
:10108000084611461A460346FB700B46BB701346D2
:101090007B700023FB73FB78002B01D1682300E0F9
:1010A0006923BB73BB7B9BB25B0099B2BB789AB2DE
:1010B0000A230293012301937B1C00930123786888
:1010C00005F0E6FA0346FB73FB7B18461037BD4676
:1010D00080BD80B588B004AF7860084611461A46D6
:1010E0000346FB700B46BB7013463B800023FB732B
:1010F000FB78002B01D1682300E06923BB73BB7B25
:101100009BB25B0099B2BB789AB20A2302933B88E8
:101110000193BB6900930123786805F0B3FB034694
:10112000FB73FB7B18461037BD4680BD80B584B08D
:1011300000AF78600A230222D021786805F0D4FD40
:101140000346FB73FB7B002B0CBF01230023DBB2A8
:1011500018461037BD4680BD80B584B000AF7860BA
:101160000A230222D221786805F0BEFD0346FB73F4
:10117000FB7B002B0CBF01230023DBB2184610378A
:10118000BD4680BD80B584B000AF78600B46FB7073
:101190001346BB700023FB73FB7800221946786866
:1011A000FFF73EFF0346FB73F97880230622786839
:1011B000FFF762FF0346FB73C82004F08FFDF97848
:1011C000012306227868FFF757FF0346FB73F9787F
:1011D000002307227868FFF74FFF0346FB73FB7875
:1011E000022219467868FFF71BFF0346FB73BB78A2
:1011F00043F01803DBB2F97801227868FFF73CFF6F
:101200000346FB73F978192314227868FFF734FF3B
:101210000346FB73F978162300227868FFF72CFF4A
:101220000346FB73FB78002219467868FFF7F8FE47
:101230000346FB73F978002303227868FFF71CFF4D
:101240000346FB73F97802230F227868FFF714FF37
:101250000346FB7300BF1037BD4680BD80B586B026
:1012600002AFF8607B600B46FB721346BB72F97AE3
:101270000B4B009302233722F868FFF72AFF084B35
:101280001B781BB21B021AB2054B5B781BB21343CF
:101290001AB27B681A8000BF1037BD4680BD00BF00
:1012A0003002002080B584B000AF78600B46FB7040
:1012B000FB78002219467868FFF7B2FE0346002B40
:1012C00002D04FF0FF331DE0F97800230322786845
:1012D000FFF7D2FE0346002B02D04FF0FF3311E0A0
:1012E000012004F0FBFC0223FB73FB7BF9780F2247
:1012F0007868FFF7C1FE0346002B02D04FF0FF33A2
:1013000000E0002318461037BD4680BD80B588B088
:1013100004AF78600B46FB70344B1B78002B01D078
:1013200000235FE0FB7819467868FFF7BBFF0346B0
:10133000002B02D04FF0FF3354E0052004F0CEFC28
:101340000023FB730023BB73142302930123019337
:1013500007F10F030093012300221821786805F09C
:1013600091FA142302930123019307F10E030093D2
:10137000012301221821786805F084FA01237B7388
:10138000142302930123019307F10D03009301231A
:1013900032221821786805F07BF90346002B02D031
:1013A0004FF0FF331EE0012004F098FC00237B7314
:1013B000142302930123019307F10D0300930123EA
:1013C00031221821786805F063F90346002B02D01A
:1013D0004FF0FF3306E0022004F080FC034B0122B3
:1013E0001A70002318461037BD4680BD3202002017
:1013F00080B582B000AF0F4B1B687B600CE07B6850
:101400009B693B607B681B6918460CF097FC786809
:101410000CF094FC3B687B607B68002BEFD1054BA4
:1014200000221A60044B00221A6000BF0837BD4634
:1014300080BD00BF340200203802002080B59CB07F
:1014400000AFF860B9601346FB80FB68002B00F02A
:101450008A81BB68002B00F08681FB88002B00F09E
:101460008281FB88402B00F28081FA8807F1140307
:10147000B96818460DF04CFFFB8870333B440022DE
:1014800003F85C2CFB88013B70333B4413F85C3C55
:101490000A2B06D1FB88013B70333B44002203F842
:1014A0005C2C3B7D87F8633097F86330002B00F0AD
:1014B0005E8197F86330502B00F0598100F0A9F954
:1014C000F865FB6D002B00F05481FB88DAB2FB6DF0
:1014D0001A75FB8818460CF029FC03461A46FB6D6A
:1014E0001A61FB6D1B69002B03D1F86D0CF026FC13
:1014F00040E1FB6D1B69FA88B96818460DF008FFDA
:1015000007F114030133BB650023FB660023BB66B0
:1015100000237B66BB6D1B78002B14D09749B86DF8
:101520000DF058FEF866FB6E002B04D093490020A6
:101530000DF050FEB866BB6E002B04D08F49002022
:101540000DF048FE7866F86E00F0D2F903461A46B0
:10155000FB6D5A80B86E00F00BFAF0EE407AFB6D2E
:10156000C3ED017A786E00F003FAF0EE407AFB6D7D
:10157000C3ED027AFB6D01225A73FB6D01221A70D2
:10158000FB6D00225A70FB6D00221A7397F86330CE
:10159000443B332B00F2B38001A252F823F000BF8A
:1015A000EF160008FF160008FF160008FF160008D7
:1015B000FF160008FF160008FF160008FF160008B7
:1015C000B7160008F7160008FF160008FF160008F7
:1015D000FF160008FF160008C5160008711600085F
:1015E0007F160008FF160008FF1600088D16000879
:1015F000FF160008FF160008FF160008FF16000877
:10160000FF160008FF160008FF160008FF16000866
:10161000FF160008FF160008FF160008FF16000856
:10162000FF160008FF160008FF160008FF16000846
:10163000FF160008FF160008FF160008FF16000836
:10164000D3160008FF160008FF160008FF16000852
:10165000FF160008FF160008E1160008FF16000834
:101660009B160008FF160008FF160008A9160008C0
:10167000FB6D03221A70FB6D00225A7048E0FB6D6F
:1016800001225A70FB6D00221A7341E0FB6D0122AA
:101690005A70FB6D01221A733AE0FB6DFF225A70FB
:1016A000FB6D00221A7333E0FB6DFF225A70FB6D55
:1016B00001221A732CE0FB6D01225A70FB6D02228D
:1016C0001A7325E0FB6D01225A70FB6D03221A7319
:1016D0001EE0FB6DFF225A70FB6D04221A7317E0A7
:1016E000FB6DFF225A70FB6D05221A7310E0FB6D33
:1016F00004221A700CE0FB6D05221A7008E0FB6DE5
:101700001B6918460CF01AFBF86D0CF017FB31E062
:10171000FB6D1B78012B0ED1FB6DD3ED017AF0EE42
:10172000E77A9FED177AF4EEC77AF1EE10FA02DD50
:10173000FB6D02221A70134B1B68002B06D1114A55
:10174000FB6D1360104AFB6D136006E00E4B1B68C7
:10175000FA6D9A610C4AFB6D13607222F96DF8689C
:1017600000F087F806E000BF04E000BF02E000BF21
:1017700000E000BF7037BD4680BD00BF40270108B4
:101780000AD7233C340200203802002080B483B002
:1017900000AF0D4B1B687B607B68002B0DD07B6816
:1017A0009B69094A1360084B1B68002B02D1074B49
:1017B00000221A607B6800229A617B6818460C3709
:1017C000BD465DF8047B70473402002038020020DB
:1017D00080B582B000AF786039603B68002B14D0D0
:1017E0007B68002B08D03B685B7B002B04D0662213
:1017F0003968786800F03DF83B681B6918460CF0C2
:101800009DFA38680CF09AFA00E000BF0837BD4630
:1018100080BD80B582B000AF1C200CF087FA034673
:101820007B607B68002B1FD07B6801221A707B686D
:1018300000225A707B6800225A807B684FF00002B9
:101840005A607B684FF000029A607B6800221A732E
:101850007B6801225A737B6800221A617B68002230
:101860001A757B6800229A617B6818460837BD4666
:1018700080BD80B586B000AFF860B9601346FB71DB
:10188000FB68002B2ED0BB68002B2BD0BB681B69DC
:10189000002B27D0BB681B7D002B23D0BB681B7D92
:1018A0000133FB82FB8A18460CF040FA03463B6189
:1018B0003B69002B18D03B69FA791A703B69581CB8
:1018C000BB681969BB681B7D1A460DF021FDFA8AB9
:1018D0004FF0FF333969F86808F098F938690CF06F
:1018E0002DFA02E000BF00E000BF1837BD4680BD02
:1018F00080B485B000AF78607B68002B03D07B6834
:101900001B78002B01D100232AE00023FB601FE09D
:101910007B681B780133154A13441B7803F00403DA
:10192000002B1AD0FA6813469B0013445B001A463A
:101930007B681B781344303BFB60FB68B3F5803F4A
:1019400003D34FF6FF73FB6008E07B6801337B60D5
:101950007B681B78002BDBD100E000BFFB689BB2EB
:1019600018461437BD465DF8047B70470036010801
:1019700080B582B000AF78607B68002B03D07B68B5
:101980001B78002B02D1DFED077A05E00021786893
:101990000DF0F2FAF0EE407AB0EE670A0837BD4675
:1019A00080BD00BF0000000080B400AF034B1B7877
:1019B000DBB21846BD465DF8047B7047F00200209C
:1019C00080B400AF034B00221A7000BFBD465DF823
:1019D000047B7047F002002080B584B000AF194A44
:1019E0003B1D07CA83E807003B1DDFED171A9FED7B
:1019F000171ADFED160A9FED160A1946154803F06F
:101A00007BF83B1DDFED101A9FED101ADFED0F0A7A
:101A10009FED0F0A1946104803F06EF802F042F9E4
:101A200003460E4A136002F04BF903460C4A13605A
:101A30000C4B01221A700C4806F008FB00BF10374F
:101A4000BD4680BD442701080AD7233C0000204240
:101A50000000C8423C02002088020020E80200206A
:101A6000EC020020000000204C04002080B582B071
:101A700000AF786039607B68002B05D0304B1B6865
:101A8000002B01D0012300E0002303F00103DBB2AF
:101A9000002B13D07B68002BCCBF01230023DAB2CC
:101AA000274B1B68002BCCBF01230023DBB2534024
:101AB000DBB2002B02D0234803F07FF93B68002BF8
:101AC00005D0214B1B68002B01D0012300E000232F
:101AD00003F00103DBB2002B13D03B68002BCCBF1B
:101AE00001230023DAB2184B1B68002BCCBF012363
:101AF0000023DBB25340DBB2002B02D0134803F0CB
:101B00005CF97B68002B06D10D4B1B68002B02D0C3
:101B10000C4803F052F93B68002B06D10A4B1B68B6
:101B2000002B02D0094803F048F9054A7B6813608E
:101B3000054A3B68136000BF0837BD4680BD00BF43
:101B4000D40200203C020020D8020020880200209D
:101B500080B500AF02F0A6F80346064A136002F013
:101B6000AFF80346044A1360044B01221A7000BF09
:101B700080BD00BFE8020020EC0200200000002031
:101B800080B58AB000AF02F08DF8386202F098F8A4
:101B9000F861524B1B683A6AD31ABB61504B1B6801
:101BA000FA69D31A7B614D4A3B6A13604C4AFB6960
:101BB00013604C4B1B78002B03D04A4B00221A7049
:101BC00088E0494ABB691360484A7B691360484B07
:101BD0001B68002B12D1474B1B68002B0ED14648C7
:101BE00003F0EBF8454803F0E8F8454B00221A7083
:101BF000444B00221A7001F0FDFF6BE0BB6907EE59
:101C0000903AF8EEE77A3A4B1B6807EE103AB8EED6
:101C1000C77AF0EE470AB0EE670A374802F0D0FF05
:101C200087ED040A7B6907EE903AF8EEE77A314BCC
:101C30001B6807EE103AB8EEC77AF0EE470AB0EE2E
:101C4000670A2E4802F0BCFF87ED030AD7ED047A3D
:101C5000FDEEE77AC7ED017A3B7987F82730D7EDBB
:101C6000037AFDEEE77AC7ED017A3B7987F82630F3
:101C70000523FB7297F9272097F90B309A4209DA6E
:101C800097F9272097F90B305B429A4202DD002337
:101C900087F8273097F9262097F90B309A4209DA0E
:101CA00097F9262097F90B305B429A4202DD002318
:101CB00087F82630124A97F827301370114A97F8A0
:101CC0002630137097F9262097F9273011461846C9
:101CD00001F0C0FE2837BD4680BD00BFE8020020ED
:101CE000EC02002000000020DC020020E0020020C6
:101CF000D4020020D80200203C02002088020020EC
:101D0000E4020020E502002080B483B000AF7860D8
:101D10007B681B68054A934202D1054B01221A7069
:101D200000BF0C37BD465DF8047B7047000C0040D7
:101D3000F002002080B400AF0A4B0B4A1A60094B36
:101D40006FF400025A60074B074A9A60054B6FF424
:101D50000002DA60034B00221A7400BFBD465DF832
:101D6000047B704708030020FFFF7F7F80B483B0AF
:101D700000AF87ED010AD7ED017A9FED157AF4EEF9
:101D8000C77AF1EE10FA07DDD7ED017A9FED117AEF
:101D900077EEC77AC7ED017AD7ED017A9FED0E7A1B
:101DA000F4EEC77AF1EE10FA07D5D7ED017A9FED80
:101DB000097A77EE877AC7ED017A7B6807EE903A69
:101DC000B0EE670A0C37BD465DF8047B704700BF74
:101DD000000034430000B443000034C380B586B033
:101DE00000AF7860244B1B68002B40D07B68002B31
:101DF0003DDD4FF000037B6100233B6126E00023C3
:101E00007B811D4B18681D4B19781D4B1A7807F103
:101E10000A03FFF723FAB7F90A3007EE903AF8EE13
:101E2000E76A184B93ED007AC6EE877AC7ED037A1E
:101E300097ED057AD7ED037A77EE277AC7ED057A25
:101E4000022003F04BFF3B6901333B613A697B6839
:101E50009A42D4DB7B6807EE903AB8EEE77AD7ED8A
:101E6000056AC6EE877A084BC3ED007A00E000BF32
:101E70001837BD4680BD00BFF4020020F8020020E4
:101E80000C000020080000200003002080B584B072
:101E900000AF78603960264A7B6813607868FFF786
:101EA00045F90346002B03D0224B00221A700BE0A9
:101EB0007868FFF751F90346002B03D01D4B012230
:101EC0001A7001E001F09AFD3B68002B03D0194B1A
:101ED0001A783B681A700223FB73164B1B78FA7B47
:101EE00019467868FFF74EF9134AFB7B1370134BC2
:101EF000134A1A60134B144A1A60144B4FF0000235
:101F00001A600C4B1B7819467868FFF7FFF90346F7
:101F1000002B05D10E4B01221A70FFF70BFF02E0D8
:101F20000B4B00221A7000BF1037BD4680BD00BFAA
:101F3000F4020020F80200200C000020080000201D
:101F40000000834200030020CDCCCC3EFC020020E8
:101F50000403002080B582B000AF7860074B1B6897
:101F6000002B07D07868FFF739FF054B4FF00002D0
:101F70001A6000E000BF0837BD4680BDF4020020B3
:101F8000FC02002080B400AF044B1B6807EE903ABF
:101F9000B0EE670ABD465DF8047B7047FC02002086
:101FA00080B400AF044B4FF000021A6000BFBD4682
:101FB0005DF8047B704700BFFC02002080B582B052
:101FC00000AF2F4B1B7883F00103DAB22C4B1A7051
:101FD0002B4B1B78002B4FD000237B80294B18689C
:101FE000294B1978294B1A78BB1CFFF737F9B7F939
:101FF000023007EE903AF8EEE76A254B93ED007A4F
:10200000C6EE877AC7ED017A224BD3ED007A97EDC1
:10201000017A77EE677AC7ED017AD7ED017A9FED05
:102020001E7AF4EEC77AF1EE10FA0BDDD7ED017AE5
:102030009FED1A7AF4EEC77AF1EE10FA02D54FF05E
:1020400000037B60D7ED017A9FED157A27EE877A42
:10205000144BD3ED007A27EE277A134BD3ED007A99
:1020600077EE277AB0EE670AFFF780FEF0EE407A4F
:102070000D4BC3ED007A00E000BF0837BD4680BDC0
:102080001C030020F4020020F80200200C000020B5
:102090000800002000030020CDCCCCBECDCCCC3E2F
:1020A0000AD7A33C04000020FC02002080B582B0C7
:1020B00000AF78607B685B8A1946786803F0EBF8BC
:1020C00000BF0837BD4680BD80B584B000AF7860E2
:1020D0007B681B681F4A934238D11F4B1B889BB2F9
:1020E000184601F07DF90346FB811C4B1B889BB20F
:1020F000FA899A4209D1194B1B889BB2184601F004
:102100006FF903461A46154B1A80134B1B889BB276
:102110001A46134B1978134B99540F4AFB891380B5
:102120000F4B1B780133104A13441B7803F09703BD
:10213000002B06D00A4B1A780C4B1A700C4B01225C
:102140001A70012206490B4807F0EBFD00BF10375B
:10215000BD4680BD00480040EC060020EE06002091
:1021600040070020EC05002000360108E9050020AA
:10217000EA0500206C05002080B582B000AF7860D1
:102180007B681B68074A934207D1074B00221A80DD
:1021900001220649064807F0C4FD00BF0837BD46C6
:1021A00080BD00BF004800403007002040070020ED
:1021B0006C05002080B58AB000AF786039600023DC
:1021C0007B62454B3B6277E03B6A01333B623B6A93
:1021D0001B78002B07D03B6A1B78272B03D03B6A68
:1021E0001B78222BF0D13B6A1B78002B6ED03B6A08
:1021F00001331B78002B69D03B6A1B78FB763B6A66
:1022000001331B78BB763B6A0233FA7E11461846CF
:102210000CF0C0FF78617B69002B56D07B690133DD
:10222000FB6106E0FB691B785B2B15D0FB69013372
:10223000FB61FB691B78002B0FD0FB691B782D2BF2
:102240000BD0FB691B780133244A13441B7803F03D
:102250000403002BE6D000E000BFFB691B78002BD5
:1022600003D0FB691B785B2B03D17B6901333B6295
:1022700022E00023FB6007F10C030A221946F869EB
:102280000CF058FF3861FB68FA699A4203D17B6908
:1022900001333B6210E07B6ADB007A681344BA7E4C
:1022A0001A707B6ADB007A6813443A695A607B6A69
:1022B00001337B62FB683B623B6A1B78002B05D0D5
:1022C0007A6A3B689A4282D300E000BF7B6A184674
:1022D0002837BD4680BD00BF100000200036010831
:1022E00080B483B000AF0346FB71FB79542B20DC34
:1022F0004C2B0FDA24E06C3B40F2411222FA03F33C
:1023000003F00103002B14BF01230023DBB2002BD9
:1023100014D115E04C3B40F2411222FA03F303F0D2
:102320000103002B14BF01230023DBB2002B05D1D6
:1023300006E0742B04DC6C2BDDDA01E0012300E005
:10234000002318460C37BD465DF8047B704780B506
:1023500088B000AF786039607B68002B02D03B68A2
:10236000002B01D1002348E00023FB610023BB6167
:102370003EE0FB69002B24D0FB6903F10053013BD5
:10238000DB007A6813447B61BB69DB007A68134425
:102390003B613B691A787B691B789A4211D13B6992
:1023A0001B781846FFF79CFF0346002B09D07B697A
:1023B0005A683B695B681344FB607B69FA685A6042
:1023C00013E0FA69BB699A420CD0BB69DB007A68FA
:1023D000D118FB69DB007A6813440A4692E80300CF
:1023E00083E80300FB690133FB61BB690133BB6117
:1023F000BA693B689A42BCD3FB6918462037BD4690
:1024000080BD000080B586B002AF05F0BBFDF8606E
:10241000FB68BB601A4B5B68013307EE903AB8EE7D
:10242000677ABB6807EE903AF8EE676A9FED156A27
:10243000C6EE267A67EE277AC7ED017A40F6940356
:10244000019340F2E453009340F2424397ED010AB6
:1024500000220B490C4802F0D1FE0B4802F0F7FEB7
:102460000346002B04D04FF47A7008F0F1FCFAE731
:102470000548FFF71BFE00BF1037BD4680BD00BFFB
:102480009404002000247449C405002080B500AFE6
:102490000F4B01221A704FF47A7008F0D9FC01F04A
:1024A000A9FB4FF47A70FFF755FDFFF779FD084B54
:1024B00000221A70074B4FF000025A60054B4FF094
:1024C00000029A60034B00221A7000BF80BD00BF5B
:1024D000DD0500203407002080B500AF0648FFF777
:1024E000E5FD00210020FFF7C1FA01F083FB034B5B
:1024F00000221A7000BF80BDC4050020DC0500204A
:1025000080B5B4B002AF07F1300310211846FFF7D1
:1025100051FEC7F8BC0007F13003D7F8BC101846CD
:10252000FFF715FFC7F8BC000023C7F8C43095E0DB
:10253000D7F8C430DB00C8333B4413F8983C87F825
:10254000BB30D7F8C430DB00C8333B4453F8943C6D
:10255000C7F8B43097F8BB30542B03D097F8BB3092
:10256000742B2DD197F8BB30742B0AD1D7F8B43027
:1025700007EE903AF8EEE77AF0EEE77AF1EE677A56
:1025800007E0D7F8B43007EE903AF8EEE77AF0EECD
:10259000E77AC7ED2C7A97F8BB203846D7F8B430E5
:1025A00000931346334A30210BF0FEFD3B4618469C
:1025B00000F0F0FE322097ED2C0A00F063F83EE0C8
:1025C00097F8BB304C2B0BD097F8BB30522B07D071
:1025D00097F8BB306C2B03D097F8BB30722B37D1F8
:1025E000D7F8B43007EE903AF8EEE77AF0EEE77AF3
:1025F000C7ED307AD7ED307AF5EEC07AF1EE10FA09
:1026000002D81D4BC7F8C03097F8BB30D7ED307AF1
:10261000FDEEE77A17EE902A38460092174A3021ED
:102620000BF0C2FD3B46184600F0B4FE97F8BB30F5
:10263000322197ED300A184600F058F800BF1048D4
:10264000FFF734FD01F0D6FA142008F001FC00E099
:1026500000BFD7F8C4300133C7F8C430D7F8C4205E
:10266000D7F8BC309A42FFF463AF00BF00BFC83751
:10267000BD4680BD802701080000B44290270108B4
:10268000C405002080B582B000AF87ED010A386034
:10269000D7ED017AF5EE407AF1EE10FA20D0D7EDC1
:1026A000017AF5EEC07AF1EE10FA01DB542200E077
:1026B00074220D4B1A7097ED010A01F077FB00F0C0
:1026C000F3FE094B00221A7000210020FFF7CEF91B
:1026D0003B689BB2184601F0A9FA01F08BFA00E0C2
:1026E00000BF0837BD4680BDDC05002090B585B031
:1026F00000AF034687ED020A7960FB73104AFB7B4B
:102700001370FC7BB868FDF71FFF02460B4643ECD5
:10271000102B204601F0FEFB00F0C6FE084B002205
:102720001A7000210020FFF7A1F97B689BB21846C0
:1027300001F07CFA01F05EFA00BF1437BD4690BD8F
:10274000DC05002080B582B000AF03F055FA00F040
:1027500093F800F029FC00F0C3F900F031FB00F021
:1027600017F900F069F900F03DFA00F089FA00F07D
:10277000E1F800F0EFFB00F091FB02F02FF901F01F
:1027800043F9FFF729F94FF400422849284802F09D
:102790009BFB0023FB70FB1C19462648FFF776FBCA
:1027A000254B4FF000025A60234B4FF000029A6015
:1027B000214B00221A70FEF71BFE01221F49204800
:1027C00007F0AFFA1F4B7B607868FDF751FD0346B9
:1027D0009AB24FF0FF337968194807F017FA08F0FA
:1027E0005BFA194A0021194808F0A0FA0346184A72
:1027F0001360184A0021184808F098FA0346174A4F
:102800001360174A0021174808F090FA0346164A49
:102810001360164A0021164808F088FA0346154A44
:10282000136008F05DFA00BFFDE700BF000402403E
:10283000240500202003002034070020400700204A
:102840006C050020A42701087828010849370008F2
:10285000B40500209C280108FD370008B8050020B9
:10286000C028010825380008BC050020E42801081C
:10287000ED390008C005002080B594B000AF07F125
:1028800020033022002118460CF07CFC07F10C03D9
:1028900000221A605A609A60DA601A610023BB60F5
:1028A000224B1B6C214A43F0805313641F4B1B6C5B
:1028B00003F08053BB60BB6800237B601C4B1B682C
:1028C0001B4A43F480431360194B1B6803F4804395
:1028D0007B607B6802233B620123FB6210233B6326
:1028E0000023BB6307F12003184604F007FF0346EB
:1028F000002B01D001F082F80F23FB6000233B6125
:1029000000237B610023BB610023FB6107F10C0303
:102910000021184605F06AF90346002B01D001F0AA
:102920006DF800BF5037BD4680BD00BF0038024083
:102930000070004080B500AF124B134A1A60114B73
:10294000124A5A600F4B00229A600E4B0022DA6046
:102950000C4B4FF480421A610A4B00225A61094B1A
:1029600000229A61074B0022DA61064B00221A62AC
:10297000044803F049FD0346002B01D001F03EF866
:1029800000BF80BD2003002000580040A086010049
:1029900080B58CB000AF07F10C032422002118464B
:1029A0000CF0F0FB3B1D00221A605A60214B4FF0E7
:1029B00080421A601F4B00225A601E4B00229A6010
:1029C0001C4B4FF6FF72DA601A4B00221A61194B4A
:1029D00000229A610323FB6000233B6101237B619A
:1029E0000023BB610A23FB6100233B6201237B625E
:1029F0000023BB620A23FB6207F10C0319460D4852
:102A000005F0E6FE0346002B01D000F0F7FF00239F
:102A10007B600023BB603B1D1946064806F0C4FFDF
:102A20000346002B01D000F0E9FF00BF3037BD4660
:102A300080BD00BF7403002080B58CB000AF07F1EB
:102A40000C032422002118460CF09CFB3B1D0022A5
:102A50001A605A60204B214A1A601F4B00225A60AC
:102A60001D4B00229A601C4B4FF6FF72DA601A4B26
:102A700000221A61184B00229A610323FB60002395
:102A80003B6101237B610023BB610A23FB610023BF
:102A90003B6201237B620023BB620A23FB6207F1D6
:102AA0000C0319460C4805F093FE0346002B01D099
:102AB00000F0A4FF00237B600023BB603B1D194690
:102AC000054806F071FF0346002B01D000F096FF89
:102AD00000BF3037BD4680BDBC030020000400406D
:102AE00080B58EB000AF07F1280300221A605A604B
:102AF0009A60DA6007F1200300221A605A603B1DD9
:102B000000221A605A609A60DA601A615A619A610A
:102B1000324B334A1A60314B00225A602F4B00224D
:102B20009A602E4B40F21F32DA602C4B00221A6161
:102B30002A4B80229A61294805F038FA0346002B77
:102B400001D000F05BFF4FF48053BB6207F1280314
:102B50001946224806F0BEF90346002B01D000F0CA
:102B60004DFF1E4805F0E2FA0346002B01D000F0AD
:102B700045FF20233B6200237B6207F120031946B7
:102B8000164806F011FF0346002B01D000F036FF77
:102B900060237B600023BB600023FB6000237B611C
:102BA0003B1D082219460D4806F0D2F80346002BBB
:102BB00001D000F023FF3B1D0C221946074806F008
:102BC000C7F80346002B01D000F018FF034802F0BD
:102BD000DDFD00BF3837BD4680BD00BF04040020C6
:102BE0000008004080B586B000AF07F1080300225E
:102BF0001A605A609A60DA603B4600221A605A6096
:102C00001D4B1E4A1A601C4B40F23F625A601A4B21
:102C100000229A60184B6322DA60174B00221A6177
:102C2000154B00229A61144805F0C0F90346002BA9
:102C300001D000F0E3FE4FF48053BB6007F10803BE
:102C400019460D4806F046F90346002B01D000F066
:102C5000D5FE00233B6000237B603B4619460648B7
:102C600006F0A2FE0346002B01D000F0C7FE00BF15
:102C70001837BD4680BD00BF4C040020000C00404A
:102C800080B596B000AF07F1480300221A605A6081
:102C90009A60DA6007F1400300221A605A6007F177
:102CA000240300221A605A609A60DA601A615A613D
:102CB0009A613B1D2022002118460CF063FA3E4B1E
:102CC0003E4A1A603C4B0F225A603B4B00229A60EE
:102CD000394B44F61F62DA60374B00221A61364BDB
:102CE00000225A61344B80229A61334805F05EF924
:102CF0000346002B01D000F081FE4FF48053BB64EB
:102D000007F1480319462C4806F0E4F80346002B67
:102D100001D000F073FE284805F008FA0346002BA6
:102D200001D000F06BFE00233B6400237B6407F1BD
:102D300040031946204806F037FE0346002B01D019
:102D400000F05CFE60237B620023BB620023FB6219
:102D500000233B6300237B630023BB630023FB63EF
:102D600007F1240300221946134805F0F1FF03463A
:102D7000002B01D000F042FE00237B600023BB60EB
:102D80000023FB6000233B6100237B614FF4005371
:102D9000BB6100233B623B1D1946074806F080FEDD
:102DA0000346002B01D000F029FE034802F0EEFCA0
:102DB00000BF5837BD4680BD940400200004014088
:102DC00080B58CB000AF07F1200300221A605A6072
:102DD0009A60DA603B1D00221A605A609A60DA60DD
:102DE0001A615A619A612B4B2B4A1A60294B0022B7
:102DF0005A60284B00229A60264B40F21F32DA605C
:102E0000244B00221A61234B80229A61214805F04D
:102E1000CDF80346002B01D000F0F0FD4FF48053B5
:102E20003B6207F1200319461A4806F053F803469F
:102E3000002B01D000F0E2FD164805F077F90346BB
:102E4000002B01D000F0DAFD60237B600023BB6023
:102E50000023FB6000237B613B1D002219460D48C7
:102E600005F076FF0346002B01D000F0C7FD3B1DA7
:102E700004221946074805F06BFF0346002B01D0DA
:102E800000F0BCFD034802F081FC00BF3037BD46B6
:102E900080BD00BFDC0400200040014080B588B048
:102EA00000AF07F1100300221A605A609A60DA60DE
:102EB0003B4600221A605A609A60DA60234B244A2B
:102EC0001A60224B0F225A60204B00229A601F4B3F
:102ED0004FF6FF72DA601D4B00221A611B4B002275
:102EE0009A611A4805F062F80346002B01D000F001
:102EF00085FD4FF480533B6107F1100319461348D9
:102F000005F0E8FF0346002B01D000F077FD0F48E5
:102F100005F02EFA0346002B01D000F06FFD0A23C6
:102F20003B6001237B600023BB600023FB603B46CA
:102F300000221946054805F06FFE0346002B01D01C
:102F400000F05CFD00BF2037BD4680BD2405002099
:102F50000018004080B500AF114B124A1A60104BA8
:102F60004FF4E1325A600E4B00229A600C4B002263
:102F7000DA600B4B00221A61094B0C225A61084B94
:102F800000229A61064B0022DA61054806F0EEFD48
:102F90000346002B01D000F031FD00BF80BD00BF13
:102FA0006C0500200048004080B58AB000AF07F1F2
:102FB000140300221A605A609A60DA601A610023D2
:102FC0003B61494B1B6B484A43F010031363464B6C
:102FD0001B6B03F010033B613B690023FB60424B1A
:102FE0001B6B414A43F0020313633F4B1B6B03F01F
:102FF0000203FB60FB680023BB603B4B1B6B3A4A40
:1030000043F008031363384B1B6B03F00803BB60EA
:10301000BB6800237B60344B1B6B334A43F00403D3
:103020001363314B1B6B03F004037B607B6800234D
:103030003B602D4B1B6B2C4A43F0010313632A4B5F
:103040001B6B03F001033B603B6800224FF480716F
:10305000264803F0BFF900224FF40041244803F052
:10306000B9F900224FF4F041224803F0B3F94FF4CC
:1030700080737B610123BB610023FB6100233B6202
:1030800007F114031946194802F0F0FF4FF400430A
:103090007B610123BB610023FB6100233B6207F1DD
:1030A00014031946124802F0E1FF4FF4F0437B612C
:1030B0000123BB610023FB6100233B6207F1140382
:1030C00019460C4802F0D2FF01237B610023BB614B
:1030D0000023FB6107F114031946044802F0C6FF00
:1030E00000BF2837BD4680BD0038024000100240B6
:1030F00000040240000C024080B500AF01F04AFB22
:10310000094A0021002001F037FC084A182100205C
:1031100001F032FC064A3021002001F02DFC01F0C4
:10312000B3FA00BF80BD00BFB8270108C42701085B
:10313000D027010880B58CB004AFF860B9607A6020
:1031400087ED000AD7ED007AB2EE047A67EE877A4F
:1031500097ED007AB5EEC07AF1EE10FA02DBB6EE2A
:10316000007A01E0BEEE007A77EE277AFDEEE77A8C
:1031700017EE903AFB61FB69002B02DA4FF0FF3348
:1031800000E00123BB61FB69002B02DAFB695B42B3
:10319000FB61FB69144A82FB03129210DB17D31AFE
:1031A0007B61FA69104B83FB02139910D317C91A7C
:1031B0000B469B000B445B00D31A3B61BB69002BA1
:1031C00001DA2D2300E020233A6902927A69019204
:1031D00000937B68054AB968F8680AF0E5FF00BF0C
:1031E0002037BD4680BD00BF67666666D8270108E8
:1031F00080B58EB002AF87ED010AC7ED000A01F07D
:10320000C9FA5A4A0021002001F0B6FBD7ED017A35
:10321000F0EEE77A9FED567AF4EEC77AF1EE10FA07
:1032200009DD07F1080397ED010A524A15211846F6
:10323000FFF780FF06E007F108034F4A1521184603
:103240000AF0B2FF07F108031A461021002001F02E
:1032500093FBD7ED007AF0EEE77A9FED457AF4EE36
:10326000C77AF1EE10FA09DD07F1080397ED000ABD
:10327000424A15211846FFF75DFF06E007F10803F3
:103280003F4A152118460AF08FFF07F108031A4636
:103290002021002001F070FBD7ED017AF0EEE77AF3
:1032A0009FED337AF4EEC77AF1EE10FA49DDD7EDEF
:1032B000007AF0EEE77A9FED2E7AF4EEC77AF1EE1F
:1032C00010FA3EDDD7ED016A97ED007AC6EE877AF7
:1032D000C7ED0B7AD7ED0B7A9FED2A7A67EE877AE6
:1032E00097ED0B7AB5EEC07AF1EE10FA02DBB6EE8E
:1032F000007A01E0BEEE007A77EE277AFDEEE77AFB
:1033000017EE903ABB62BB6A1F4A82FB031252114E
:10331000DB17D31A7B62BB6A1B4A82FB0312511173
:10332000DA178A1A642101FB02F29B1A3B6207F149
:1033300008003B6A00937B6A144A15210AF034FFA7
:1033400006E007F10803124A152118460AF02CFF7F
:1033500007F108031A463021002001F00DFB01F0AF
:1033600093F900BF3037BD4680BD00BFE827010894
:103370000AD7233CF8270108002801081028010873
:10338000182801080000C8421F85EB5128280108B1
:103390003828010880B584B000AF78607B68002BC6
:1033A00015D07868FCF764FFF860FB68002B10D03C
:1033B000FB68B3F5803F02D34FF6FF73FB60FB68F9
:1033C0009AB264237968054806F020FC02E000BF49
:1033D00000E000BF1037BD4680BD00BF6C05002077
:1033E00080B483B000AF0346FB80FB8801339BB2FF
:1033F000DBB29BB218460C37BD465DF8047B7047C4
:1034000080B582B000AF35E0214B1B889BB21A46D5
:10341000204B9B5CFB711E4B1B889BB21846FFF731
:10342000DFFF03461A461A4B1A80FB790D2B20D07A
:10343000194B1B883F2B0DD8174B1B885A1C91B278
:10344000154A11801946154AFB795354FB790A2B0A
:1034500010D103E0104B00221A800BE00E4B1B88AA
:103460001A460E490E48FDF7E9FF0B4B00221A8061
:1034700000E000BF064B1B889AB20A4B1B889BB228
:103480009A42C1D100BF00BF0837BD4680BD00BF12
:10349000EE060020EC05002030070020F00600209A
:1034A0006C050020EC06002080B500AF04E005208C
:1034B00007F0CEFCFFF7A4FF00F054FC0346002BFE
:1034C000F5D100BF00BF80BD80B483B000AF78608D
:1034D0007B68002B01D14C231BE07B6893F9013002
:1034E000002B0BDA7B68D3ED017AF5EEC07AF1EEB2
:1034F00010FA01DB72230CE06C230AE07B68D3ED49
:10350000017AF5EEC07AF1EE10FA01DB522300E009
:103510004C2318460C37BD465DF8047B704700000D
:1035200080B584B000AF78607B68002B01D10023A8
:1035300062E07B681B78013B042B47D801A252F85C
:1035400023F000BF673500085D35000859350008D5
:10355000C5350008C935000853234DE07868FFF7EA
:10356000B3FF034648E07B681B7B052B28D801A2EC
:1035700052F823F08D3500089F350008B13500085A
:10358000B5350008B9350008BD3500087B6893F9EA
:103590000130002B01DA74232EE054232CE07B68E9
:1035A00093F90130002B01DA772325E0572323E03C
:1035B0004C2321E052231FE06C231DE072231BE00B
:1035C00000BF04E0442317E04D2315E000BF7B68F3
:1035D0001B69002B0FD07B681B7D002B0BD07B68F9
:1035E0001B691B78FB73FB7B002B04D0FB7B0A2B36
:1035F00001D0FB7B00E0002318461037BD4680BD9C
:1036000090B587B000AF78607B68002B00F09180A8
:103610007868FFF785FF0346FB73484AFB7B13700E
:103620007B681B78032B06D0032B70DC012B41D069
:10363000022B05D06BE000F0A1FB00F0DBFA6BE0A1
:103640007868FFF741FF0346BB737B68D3ED027ACE
:10365000F0EEE77AC7ED057AD7ED057AF5EEC07A98
:10366000F1EE10FA06D87B68D3ED017AF0EEE77A36
:10367000C7ED057AD7ED057AF5EEC07AF1EE10FACE
:1036800001D82F4B7B61BC7B7869FCF75DFF02465C
:103690000B4643EC102B204600F03CFCFFF704FFE8
:1036A00000210020FEF7E2F9322000F0BFFA00F01E
:1036B000A1FA31E07B681B7B002B2AD17B68D3ED1C
:1036C000027AF0EEE77AC7ED047AD7ED047AF5EEE8
:1036D000C07AF1EE10FA1ED97B6893F90130002B05
:1036E00005DAD7ED047AF1EE677AC7ED047A97ED43
:1036F000040A00F05BFBFFF7D7FE00210020FEF775
:10370000B5F9322000F092FA00F074FA01E000BF3F
:1037100002E000BF00E000BF084B00221A70094819
:10372000FEF7C4FC00210020FEF7A0F900F062FAC9
:1037300000E000BF1C37BD4690BD00BFDC05002087
:103740000000B442C405002080B584B000AF7860AA
:10375000FEF758FEFEF7C0FE02F014FA0346FB73B4
:103760000023BB7300237B73FFF74AFE02F00AFAC3
:1037700003463B73FB7B002B04D13B7B002B01D02A
:103780000123BB733B7BFB73BB7B002B14D000F08E
:10379000E9FA0346002B0FD17B7B002B05D1FEF706
:1037A00075FEFEF799FE01237B73FEF7A9FEFEF777
:1037B00093FE0023BB731EE000F0D4FA0346002BF7
:1037C00003D0052007F044FB15E0FDF7DFFFB860EC
:1037D000BB68002B03D1052007F03AFB0BE0B8686B
:1037E000FFF70EFFB9680448FDF7F2FFFFF708FE88
:1037F000052007F02DFBB7E76C05002080B582B0EF
:1038000000AF7860FEF7D0F80346002B05D0FEF736
:10381000B7F900F03FFCFEF7D3F8012007F018FBE2
:10382000F0E7000080B592B002AF786002F04AFA8B
:10383000F863002387F83B30FFF75EFC604B1B7892
:1038400087F8333097F83330002B16D097F83B3099
:10385000002B0ED15B4BD3ED007A5B4B93ED007ADE
:10386000F0EE470AB0EE670AFFF7C2FC012387F8C3
:103870003B30322007F0ECFAA1E097F83B30002B08
:1038800007D0002387F83B30FFF736FC02F01AFA26
:10389000F86302F017FAF862FA6AFB6BD31AC72BC7
:1038A00040F28A80FB6AFB6301F022FB322007F0C2
:1038B000CFFA01F089FB87ED0A0AD7ED0A7AB2EE5A
:1038C000047A67EE877A97ED0A7AB5EEC07AF1EE60
:1038D00010FA02DBB6EE007A01E0BEEE007A77EE77
:1038E000277AFDEEE77A17EE903A7B637B6B002B2D
:1038F00001DA00237B637B6B344A82FB0312921054
:10390000DB17D31A7B627A6B304B83FB021399105F
:10391000D317C91A0B469B000B445B00D31A3B62BA
:1039200007F10C003B6A00937B6A294A10210AF0D8
:103930003BFC284A0021482001F01EF807F10C0347
:103940001A460021482001F017F8234B1B78FB771B
:10395000224B1B78BB77FB7F002B0DD0204A182110
:10396000482001F009F8BA7F012300930C231821A5
:10397000482000F08FFF04E01A4A1821482000F088
:10398000FBFF194B1B787B777B7F002B0DD0144AF4
:103990003021302000F0F0FF7A7F012300930C23C8
:1039A0003021302000F076FF04E00E4A3021302034
:1039B00000F0E2FF00F068FE052007F049FA3DE75D
:1039C000E8050020E0050020E40500206766666643
:1039D0004828010850280108EA050020E9050020D0
:1039E000582801085C280108DC05002080B582B059
:1039F00000AF7860012007F02BFAFBE780B400AF3E
:103A000072B600BF00BFFDE780B500AF0C210D48C6
:103A100004F0E6FB08210B4804F0E2FB00210A4811
:103A200004F0DEFB0421084804F0DAFB3C210748DF
:103A300004F074FF3C21064804F070FF00F0DAF84F
:103A400000BF80BD04040020DC04002074030020BB
:103A5000BC03002080B489B000AF03460A46FB7166
:103A60001346BB7197F90730642B01DD6423FB71AA
:103A700097F9073013F1640F01DA9C23FB7197F972
:103A80000630642B01DD6423BB7197F9063013F116
:103A9000640F01DA9C23BB71514B1B68DB6AFB612D
:103AA000504B1B68DB6ABB6197F90730002B08D1CC
:103AB0004B4B1B6800221A64494B1B680022DA63D7
:103AC0003DE097F9073007EE903AF8EEE77AB0EE6E
:103AD000E77ADFED456AC7EE267A9FED447A67EE16
:103AE000877A9FED437A77EE877AC7ED057AFB698F
:103AF000013307EE903AB8EE677AD7ED057A27EEF4
:103B0000277ADFED396AC7EE267AFCEEE77A17EE00
:103B1000903A3B6197F90730002B08DD304B1B686A
:103B20003A691A642E4B1B680022DA6307E02C4BBB
:103B30001B6800221A642A4B1B683A69DA6397F9FA
:103B40000630002B08D1274B1B6800225A63254BF7
:103B50001B6800229A633DE097F9063007EE903A21
:103B6000F8EEE77AB0EEE77ADFED1F6AC7EE267A65
:103B70009FED1E7A67EE877A9FED1D7A77EE877A42
:103B8000C7ED037ABB69013307EE903AB8EE677A66
:103B9000D7ED037A27EE277ADFED136AC7EE267A90
:103BA000FCEEE77A17EE903ABB6097F90630002BEF
:103BB00008DD0C4B1B6800225A630A4B1B68BA686D
:103BC0009A6307E0074B1B68BA685A63054B1B688A
:103BD00000229A6300BF2437BD465DF8047B70471E
:103BE00004040020DC0400200000C8420000384229
:103BF0000000584280B400AF0A4B1B680022DA6311
:103C0000084B1B6800221A64074B1B6800225A638A
:103C1000054B1B6800229A6300BFBD465DF8047B1C
:103C2000704700BF04040020DC04002080B584B08D
:103C300000AF0346FB80194B1B68DB6AFB60184B27
:103C40001B68DB6ABB60154B1B68FA681A64134B70
:103C50001B68FA68DA63124B1B68BA685A63104B28
:103C60001B68BA689A63FB88002B03D0FB88184650
:103C700002F034F8094B1B680022DA63074B1B681B
:103C800000221A64064B1B6800225A63044B1B680F
:103C900000229A6300BF1037BD4680BD0404002097
:103CA000DC04002080B400AF044B1B685B6A1BB2CD
:103CB0001846BD465DF8047B704700BF74030020C2
:103CC00080B400AF044B1B685B6A1BB25B421846B2
:103CD000BD465DF8047B7047BC03002080B400AF94
:103CE000064B1B6800225A62054B1B6800225A6271
:103CF00000BFBD465DF8047B704700BF7403002021
:103D0000BC03002080B582B000AF78607B685B8A1E
:103D10001946786801F0BFFA00BF0837BD4680BD7C
:103D200080B584B000AF87ED010A0D4BD3ED087A62
:103D300097ED017A77EE677AF0EEE77AC7ED037ACE
:103D4000D7ED037A77EEA77AC7ED027A97ED020AEC
:103D50000EF07AF8034618461037BD4680BD00BF06
:103D60004407002080B400AF034B1B781846BD46C3
:103D70005DF8047B704700BF4407002080B500AFAA
:103D8000094B1B78002B0CD0074B00221A70064BF6
:103D900000225A7000210020FDF768FEFFF72AFF7D
:103DA00000E000BF80BD00BF4407002080B588B0A0
:103DB00000AF87ED010AFFF791FFFDF7C9FEFEF79F
:103DC000EFF84E4B00221A704C4B01225A70D7ED7F
:103DD000017AF5EEC07AF1EE10FA01DB012201E082
:103DE0004FF0FF32454B9A704548FFF78BFF9FED30
:103DF000450AFFF795FF78617B69002B02D078694F
:103E000007F026F83D4B4FF000021A62D7ED017A19
:103E1000F0EEE77A9FED3C7A67EE877AB0EE670ABC
:103E20000EF012F80346354A5360344B5B68092B99
:103E300060DD364BD3ED007AF5EEC07AF1EE10FA84
:103E400002D54FF0000301E0304B1B683B61304B63
:103E5000D3ED007AF5EEC07AF1EE10FA02D54FF00C
:103E6000000301E02A4B1B68FB609FED277AD7ED2A
:103E7000047A67EE277AB0EE670A0DF0E5FFF86185
:103E80009FED217AD7ED037A67EE277AB0EE670AC5
:103E90000DF0DAFFB861FB69002B01DA0023FB614A
:103EA000BB69002B01DA0023BB61144B5A68F96926
:103EB000BB690B449A420CDC104B5B68DA0F13446D
:103EC0005B101A460D4B9A600C4B9B680B4AD360F3
:103ED00008E00A4AFB699360084B5A68BB69D31A29
:103EE000064AD36000210020FDF7C0FD034B0122EC
:103EF0001A7000E000BF2037BD4680BD4407002097
:103F0000C4050020000000004979964228000020E6
:103F10002C00002080B586B000AF034687ED000A74
:103F2000FB71FFF7DBFEFDF713FEFEF739F8524B8E
:103F300002225A70504B00221A70FB794C2B06D18A
:103F40004D4B01221A744C4B01225A7419E0FB7933
:103F5000522B06D1484BFF221A74474B01225A7448
:103F60000FE0FB796C2B06D1434B01221A74424BB4
:103F7000FF225A7405E0404BFF221A743E4BFF2289
:103F80005A74D7ED007AF0EEE77AC7ED057AD7EDEF
:103F9000057A9FED3A7AF4EEC77AF1EE10FA01D87D
:103FA000374B7B61344B93F9103007EE903AF8EEC3
:103FB000E77A97ED057A67EE277AC7ED047A2E4BFC
:103FC00093F91130002B05DAD7ED047AF1EE677A18
:103FD000C7ED047A284A3B695361274B93F91030A7
:103FE000002B01DD274B00E0274BFB600021002068
:103FF000FDF73CFDFFF7FEFD97ED030A234801F0B6
:1040000095F997ED030AFFF78BFEB860BB68002BAC
:1040100002D0B86806F01CFF174AFB681362164B03
:104020004FF000029A61144B4FF00002DA61184B16
:104030001A88114BDA84104BDA8C0F4B9A840021CA
:104040000020FDF713FD0C4B01221A700A4B93F967
:1040500011301A4613465B001A44074B93F911308E
:1040600019460B465B000B4419461046FDF7FEFC53
:1040700000BF1837BD4680BD440700200AD7233C47
:104080000000B4420000C8C20000C842C4050020BD
:104090003000002080B5A4B000AFFDF78FFFCC4BFF
:1040A0001B78002B00F0E482FDF76CFF87ED150A0A
:1040B000C74B5B78022B40F0EF81C54BD3ED077AFD
:1040C00097ED157A77EE677AC7ED237AD7ED237AE5
:1040D0009FEDC07AF4EEC77AF1EE10FA08DDD7ED65
:1040E000237A9FEDBD7A77EEC77AC7ED237A10E089
:1040F000D7ED237A9FEDB97AF4EEC77AF1EE10FA94
:1041000007D5D7ED237A9FEDB47A77EE877AC7ED9E
:10411000237AAF4B93ED067AD7ED237A77EE277AA1
:10412000AB4BC3ED067AAA4A7B6DD361A84B93EDE6
:10413000057AA74BD3ED067A77EE677AC7ED0D7A4D
:10414000D7ED0D7AF0EEE77A9FEDA57AF4EEC77A17
:10415000F1EE10FA0FD89E4B00221A709C4B0022F1
:104160005A7000210020FDF781FC3220FFF75EFD30
:10417000FFF740FD7DE2D7ED0D7AF0EEE77AC7ED6F
:104180000C7A934B9B8C002B61D0914BDB8C7B8505
:104190007B8D002B06D11E23C7F888308C4B002264
:1041A0009A847BE08A4B9B8C7A8DD31A3B853B8D1E
:1041B00007EE903AF8EE677AB7EE007A77EE876A04
:1041C0007B8D07EE903AB8EE677AC6EE877AC7ED38
:1041D000217AD7ED217AB7EE007AF4EEC77AF1EEC4
:1041E00010FA03DD4FF07E53C7F88430D7ED217A03
:1041F000B3EE0B7A67EE877AB0EE087A77EE877ABD
:10420000C7ED207AD7ED207AB0EE087AF4EEC77ABF
:10421000F1EE10FA02D5734BC7F88030D7ED207A53
:10422000B3EE0E7AF4EEC77AF1EE10FA02DD6E4BC1
:10423000C7F8803097ED200A0DF006FEC7F8880019
:10424000634B9B8C013B9AB2614B9A8426E01E2300
:10425000C7F88830D7ED0C7AB2EE047AF4EEC77A5C
:10426000F1EE10FA1AD597ED0C7AF2EE046AC7EE69
:10427000267AC7ED0B7AD7ED0B7AB3EE0E7A67EE9E
:10428000877AB0EE670A0DF0DFFDF867FB6F022B4F
:1042900001DC0323FB67FB6FC7F888304C4BD3ED81
:1042A000087AF0EEE77AC7ED097AD7ED097A9FED43
:1042B0004F7AF4EEC77AF1EE10FA12D5444B93F927
:1042C00011301A46D7F8883002FB03F3BB67404B26
:1042D00093F911301A46D7F8883002FB03F37B6755
:1042E000D5E097ED097ADFED426AC7EE267AB3EEA4
:1042F0000E7A67EE877AC7ED087AD7ED087A9FEDD8
:104300003D7A67EE877AC7ED077A97ED070A0DF0D9
:104310008FFC87ED060AD7ED067AF0EEE77A9FED7F
:10432000367AF4EEC77AF1EE10FA12D5284B93F9EB
:1043300011301A46D7F8883002FB03F3BB67244BD1
:1043400093F911301A46D7F8883002FB03F37B67E4
:104350009DE0F2EE0D6A97ED067AC6EE877AC7ED1C
:10436000057AD7ED057AF0EEE77A37EEA77ADFED3A
:10437000236AC6EE877AC7ED1C7AD7ED1C7AB7EEB2
:10438000087A67EE877AC7ED1C7AD7ED1C7A9FED25
:104390001C7AF4EEC77AF1EE10FA01DD194B3B6797
:1043A000B7EE007AD7ED1C7A77EE677AC7ED047A1C
:1043B000D7ED1C7AB7EE007A77EE877AC7ED037AED
:1043C000034B93F91030002B1EDD3B691DE000BF4D
:1043D00044070020000034430000B443000034C30D
:1043E000CDCC4C3E000040400000F0416F12833ABB
:1043F0000000C84235FA8E3C17B7D138000084411E
:104400006666663F6666663FFB68BB609A4B93F9DB
:104410001030002B01DDFB6800E03B697B60D7F8C2
:10442000883007EE903AB8EEE77AD7ED027A67EE79
:10443000277AB0EE670A0DF007FDF866D7F88830E6
:1044400007EE903AB8EEE77AD7ED017A67EE277A71
:10445000B0EE670A0DF0F8FCB866FB6E022B01DCCB
:104460000323FB66BB6E022B01DC0323BB66824B7E
:1044700093F911301A46FB6E02FB03F3BB677E4BC8
:1044800093F911301A46BB6E02FB03F37B67796F19
:10449000B86FFDF7EBFAECE0774A7B6DD361FFF77D
:1044A00001FC3865FFF70CFCF8643B6D83EAE372AE
:1044B000A2EBE372FB6C002BB8BF5B421344DA0F34
:1044C00013445B10BB646C4B5B68BA6C9A420CDBA8
:1044D000694B00221A7000210020FDF7C7FA502016
:1044E000FFF7A4FBFFF786FBC3E0634B9B68BA6C46
:1044F0009A421BDABB6C07EE903AF8EEE76A5E4B25
:104500009B6807EE903AB8EEE77AC6EE877AC7ED79
:10451000107AD7ED107A9FED597A67EE877AB0EE70
:10452000087A77EE877AC7ED197A28E0524BDB6874
:10453000BA6C9A4221DD504B5A68BB6CD31A07EE15
:10454000903AF8EEE76A4C4B5A684B4BDB68D31A4B
:1045500007EE903AB8EEE77AC6EE877AC7ED117AA1
:10456000D7ED117A9FED457A67EE877AB0EE087A3B
:1045700077EE877AC7ED197A01E0414B7B66D7ED7C
:10458000197AB0EE087AF4EEC77AF1EE10FA01D596
:104590003C4B7B66384B5A68BB6CD31A3B663B6E10
:1045A000002B01DA00233B6697ED190A0DF04CFC55
:1045B000F865FA6D3B6E9A4201DD3B6EFB65FB6D63
:1045C000002B01DA0023FB65FB6D002B04D13B6E51
:1045D000002B01DD0123FB65D7ED157AF1EE677A3B
:1045E000B1EE087A67EE877AB0EE670A0DF02CFC20
:1045F000B865214B93F90230002B02DABB6D5B42A8
:10460000BB65FB6DDA0F13445B101A46BB6D93421A
:1046100004DDFB6DDA0F13445B10BB65FB6DDA0F35
:1046200013445B105B421A46BB6D934205DAFB6D87
:10463000DA0F13445B105B42BB65FA6DBB6DD31A96
:10464000FB63FA6DBB6D1344BB630B4B93F90230F4
:104650001A46FB6B03FB02F2074B93F90230194633
:10466000BB6B01FB03F319461046FDF7FFF900E0B1
:1046700000BF9037BD4680BD4407002000001442B3
:10468000000020420000404080B582B000AF00230F
:10469000FB7126E0FB79503BDBB20021184600F0AD
:1046A0002BF80021002000F027F80021102000F056
:1046B00023F80023BB710DE0BA79FB790D49D200D4
:1046C0000A4413441B780121184600F015F8BB7901
:1046D0000133BB7197F90630002BEDDAFB7901331A
:1046E000FB71FB79072BD5D900BF00BF0837BD464A
:1046F00080BD00BF6C07002080B584B000AF0346CA
:104700000A46FB711346BB71BB79002B06D0012210
:104710004FF400611E4801F05DFE05E000224FF4F9
:1047200000611B4801F056FE0023FB7322E00022CB
:104730004FF48041164801F04DFE97F90730002BE9
:1047400006DA01224FF40051114801F043FE05E062
:1047500000224FF400510E4801F03CFE01224FF4BC
:1047600080410B4801F036FEFB795B00FB71FB7B5F
:104770000133FB73FB7B072BD9D901224FF4006176
:10478000034801F027FE00BF1037BD4680BD00BFC3
:10479000000C024080B582B000AF0023FB7114E032
:1047A0000023BB710AE0BA79FB790C49D2000A44B4
:1047B000134400221A70BB790133BB7197F906309C
:1047C000002BF0DAFB790133FB71FB79072BE7D97A
:1047D000FFF75AFF00BF0837BD4680BD6C070020B9
:1047E00080B485B000AF0346FB710B46BB71134626
:1047F0007B710023FB7397F90730002B41DBBB79FA
:104800003F2B3ED8BB79DB08DBB2C3F10703BB7398
:10481000BB7903F007037B737B7BC3F107030122A2
:1048200002FA03F3FB737B79002B12D0FA79BB7B7E
:104830001749D2000A4413441878FA79BB7BF97BF4
:104840000143C8B21249D2000A44134402461A7006
:1048500018E0FA79BB7B0E49D2000A4413441B7856
:104860005AB297F90F30DB435BB2134059B2FA7971
:10487000BB7BC8B20649D2000A44134402461A70F0
:1048800000E000BF1437BD465DF8047B704700BFF1
:104890006C07002090B585B000AF0446084611466D
:1048A0001A462346FB710346BB710B467B711346C8
:1048B0003B71BB793B737B79203B7B710023BB73DE
:1048C0004DE03B790C2B0BD17A79B97B2848134604
:1048D0005B0013449B0003440B441B78FB7307E00D
:1048E0007A79BB7B234912010A4413441B78FB737A
:1048F00000237B732DE097F90F30002B07DA97F830
:104900002020B979FB791846FFF76AFF0CE097F889
:104910002030002B0CBF01230023DBB21A46B979EB
:10492000FB791846FFF75CFFFB7B5B00FB73BB79F1
:104930000133BB71BA793B7BD21A3B799A4205D1DC
:104940003B7BBB71FB790133FB7105E07B7B013362
:104950007B737B7B072BCED9BB7B0133BB73BA7BCD
:104960003B799A42ADD300BF00BF1437BD4690BD1E
:10497000082901087C2D010880B584B002AF0346E8
:104980003A60FB710B46BB711FE0FB797A2B04D9AF
:104990000023FB71BB791033BB71BB793A2B05D96E
:1049A0000023FB71FB79BB71FFF7F4FE3B681A78BB
:1049B000B979F879012300930C23FFF76BFFFB799A
:1049C0000833FB713B6801333B603B681B78002B6D
:1049D000DBD100BF00BF0837BD4680BD80B500AF4A
:1049E00002F064FE424B1B6F414A23F00103136740
:1049F0003F4B1B6F3E4A23F00403136702F06AFE2D
:104A000000224FF480513B4801F0E4FC642001F0A7
:104A100065F901224FF48051364801F0DBFC00219A
:104A2000AE20FFF769FE0021D520FFF765FE0021CB
:104A30005020FFF761FE0021A820FFF75DFE002156
:104A40003F20FFF759FE0021D320FFF755FE00213C
:104A50000020FFF751FE00214020FFF74DFE00210E
:104A60008D20FFF749FE00211420FFF745FE0021AD
:104A70002020FFF741FE00210220FFF73DFE00212C
:104A8000A120FFF739FE0021C020FFF735FE0021ED
:104A9000DA20FFF731FE00211220FFF72DFE002162
:104AA0008120FFF729FE0021EF20FFF725FE0021DE
:104AB000D920FFF721FE0021F120FFF71DFE002184
:104AC000DB20FFF719FE00213020FFF715FE002143
:104AD000A420FFF711FE0021A620FFF70DFE002104
:104AE000AF20FFF709FEFFF755FE00BF80BD00BFF6
:104AF00000380240000C024080B487B000AF7861FB
:104B0000396187ED030AC7ED020A87ED011AC7ED87
:104B1000001A7B69002B4DD03B69002B4AD03B69C2
:104B20001A687B691A603B6904331A687B695A60AA
:104B30003B6908331A687B699A607B69FA685A6234
:104B40007B69BA689A627B697A68DA627B693A68DB
:104B50001A637B694FF000029A647B699A6C7B69E7
:104B60005A647B695A6C7B691A647B694FF0000256
:104B7000DA637B69DA6B7B699A637B699A6B7B6921
:104B80005A637B694FF000025A617B695A697B69FD
:104B90001A627B691A6A7B69DA617B69DA697B6907
:104BA0009A617B694FF000021A617B691A697B691F
:104BB000DA6000E000BF1C37BD465DF8047B70473B
:104BC00080B485B000AFF86087ED020AC7ED010A36
:104BD000FB68002B02D14FF00003E5E0FB689A6B05
:104BE000FB68DA63FB685A6BFB689A63FB687A6858
:104BF000DA60FB68BA681A6197ED017AD7ED027A3C
:104C000077EE677AFB68C3ED0D7AFB6893ED007A67
:104C1000FB68D3ED0D7A67EE277AFB68C3ED067A61
:104C2000FB6893ED077AFB68D3ED016AFB68D3ED6F
:104C30000D7A66EEA76AFB68D3ED0C7A66EEA77A6A
:104C400077EE277AFB68C3ED077AFB6893ED077A66
:104C5000FB68D3ED0A7AB4EEE77AF1EE10FA04DDE0
:104C6000FB689A6AFB68DA6114E0FB6893ED077AE7
:104C7000FB68D3ED0A7AF1EE677AB4EEE77AF1EEEB
:104C800010FA07D5FB68D3ED0A7AF1EE677AFB6874
:104C9000C3ED077AFB685A6CFB689A64FB681A6C70
:104CA000FB685A64FB6893ED0D7AFB68D3ED0E7ACE
:104CB00077EE677AFB68C3ED107AFB68D3ED026A82
:104CC000FB6893ED106AFB68D3ED0C7AF5EEC07AC1
:104CD000F1EE10FA03DDFB68D3ED0C7A01E0F7EE9C
:104CE000007A86EE277A66EE877AFB68C3ED087A4B
:104CF000FB6893ED087AFB68D3ED0B7AB4EEE77AA4
:104D0000F1EE10FA04DDFB68DA6AFB681A6214E05F
:104D1000FB6893ED087AFB68D3ED0B7AF1EE677AC6
:104D2000B4EEE77AF1EE10FA07D5FB68D3ED0B7A13
:104D3000F1EE677AFB68C3ED087AFB6893ED067ABB
:104D4000FB68D3ED077A37EE277AFB68D3ED087A54
:104D500077EE277AFB68C3ED057AFB6893ED057A59
:104D6000FB68D3ED097AB4EEE77AF1EE10FA04DDD0
:104D7000FB685A6AFB685A6114E0FB6893ED057A98
:104D8000FB68D3ED097AF1EE677AB4EEE77AF1EEDB
:104D900010FA07D5FB68D3ED097AF1EE677AFB6864
:104DA000C3ED057AFB685B6907EE903AB0EE670ADF
:104DB0001437BD465DF8047B704780B483B000AF04
:104DC00078607B68002B30D07B684FF00002DA639C
:104DD0007B68DA6B7B689A637B689A6B7B685A6343
:104DE0007B684FF000029A647B689A6C7B685A6417
:104DF0007B685A6C7B681A647B684FF000021A6209
:104E00007B681A6A7B68DA617B68DA697B689A6119
:104E10007B689A697B685A617B684FF00002DA60B0
:104E20007B68DA687B681A6100E000BF0C37BD461A
:104E30005DF8047B7047000080B487B000AF7861F4
:104E40003961FA6087ED010A7B81184A7B6913603A
:104E5000174AFB681360174A7B891380164A3B691F
:104E60001360D7ED017AF5EEC07AF1EE10FA01DDAC
:104E70007B6801E04FF07E53104A13600B4B1B68B8
:104E8000002B08D0094B1B681A680D4B1B689A420F
:104E900001D1012300E00023DAB20A4B1A7000BFEF
:104EA0001C37BD465DF8047B704700BF6C0B0020CB
:104EB000780B00207C0B0020700B002034000020B9
:104EC00094040020740B002080B584B000AFF8601B
:104ED000B9601346FB80FB88B7EE000ABA68002170
:104EE000F868FFF7A9FF00BF1037BD4680BD00007E
:104EF00080B586B000AF2D4B1B78002B4FD12C4BCB
:104F00001B68002B4BD02B4B1B68002B47D02A4B28
:104F10001B78DBB2002B44D1264B1B68274A118833
:104F20000122184601F056FA00237B6102E07B69FA
:104F300001337B617B69632BF9DD1E4B1B681F4AC4
:104F400011880022184601F045FA3B1D00221A6024
:104F50005A609A60DA6000237B600123BB60002303
:104F6000FB6000233B61124B1B68154A1268391D18
:104F7000184603F051FE134B01221A700E4B01220A
:104F80001A700B4B1B681B6800225A62084B1B6887
:104F90000B4A12681146184603F044FA02E000BFBB
:104FA00000E000BF1837BD4680BD00BF740B002075
:104FB0006C0B0020780B00207E0B00207C0B002067
:104FC000700B00203800002080B400AF044B1B6839
:104FD00007EE903AB0EE670ABD465DF8047B704775
:104FE000880B002080B58AB000AF78604B4B1B78EF
:104FF000002B40F08F804A4B1B68002B00F08A800A
:105000007B681A68464B1B681B689A4240F0838095
:10501000444B1B78DBB2002B32D0434B1B68194644
:10502000786804F01FF80346404A13603D4B0022A5
:105030001A703F4B02221A7007F10C0300221A600B
:105040005A609A60DA600223FB6001233B6100230F
:105050007B610023BB61344B1B681946786803F001
:1050600009FB314B1A6807F10C031946786803F005
:10507000D3FD2D4B1B681946786803F0D3F94AE03D
:10508000294B1B681946786803F0ECFF0346294A50
:105090001360254B1B681946786803F0EBFA254B23
:1050A0001A68224B1B689A4206D3224B1A681F4B80
:1050B0001B68D31A7B620DE0194B1B681B68DB6A07
:1050C0003B621A4B1B683A6AD21A1A4B1B6813448C
:1050D00001337B627B6A07EE903AB8EE677A164B33
:1050E000D3ED007A67EE277AC7ED077AD7ED077A16
:1050F0009FED127A27EE877AF0EE006AC7EE267AE5
:105100000F4BC3ED007A074B01221A70084B0022A7
:105110001A7000E000BF2837BD4680BD740B002028
:105120006C0B002038000020700B0020800B00204A
:105130007E0B0020840B002034000020287E0C3DD4
:10514000880B002080B582B000AF78607B685B8AF6
:105150001946786800F09FF800BF0837BD4680BD4B
:1051600080B485B000AF78600B467B807B8807EE0B
:10517000903AF8EEE76A7B6893ED027AC6EE877A9A
:10518000C7ED037AD7ED037AF5EEC07AF1EE10FAA7
:1051900002D54FF00003FB607B68DB6807EE903AB6
:1051A000F8EE677A97ED037AB4EEE77AF1EE10FA4B
:1051B00007DD7B68DB6807EE903AF8EE677AC7EDAB
:1051C000037AD7ED037AB6EE007A77EE877AFCEEB3
:1051D000E77A17EE903A18461437BD465DF8047B1F
:1051E000704780B483B000AF78607B681B68DB6A6F
:1051F00018460C37BD465DF8047B704780B586B015
:1052000000AF78613961FA6087ED020AFB807B6943
:10521000002B18D07B693A691A607B69FA685A607A
:105220007B69BA689A603869FFF7DBFF02467B69E1
:10523000DA607B69FA881A827B693A8C5A827B69C8
:10524000BA8C9A8200E000BF1837BD4680BD80B599
:1052500084B000AF78607B68002B03D07B681B684C
:10526000002B01D1012312E07B681A687B685B6820
:105270001946104602F0B4FF0346FB73FB7B002B7C
:1052800001D0FB7B03E07868FFF75CFF0023184642
:105290001037BD4680BD80B584B000AF78600B4646
:1052A0007B807B68002B3DD07B681B68002B39D04E
:1052B0007B681B8A7A889A4202D27B681B8A7B8031
:1052C0007B689B8A7A889A4202D97B689B8A7B801A
:1052D0007B8819467868FFF743FFF8607B685B6856
:1052E000002B05D17B681B681B68FA685A631AE0BB
:1052F0007B685B68042B05D17B681B681A68FB68B8
:10530000936310E07B685B68082B05D17B681B68A2
:105310001A68FB68D36306E07B681B681A68FB6841
:10532000136400E000BF1037BD4680BD80B586B075
:1053300000AF786087ED000A7B68002B58D0D7ED6E
:10534000007AF5EEC07AF1EE10FA28D597ED007AE2
:10535000DFED296AC7EE267AC7ED037A7B685B8AA0
:1053600007EE903AB8EE677A7B685B8A1A467B68EC
:105370001B8AD31A07EE903AF8EEE76AD7ED037A64
:1053800066EEA77A77EE677AFCEEE77A17EE903A48
:105390007B817B8919467868FFF77DFF29E097EDCF
:1053A000007ADFED166AC7EE267AC7ED057A7B68CC
:1053B0005B8A07EE903AB8EE677A7B689B8A1A465A
:1053C0007B685B8AD31A07EE903AF8EEE76AD7ED6E
:1053D000057A66EEA77A77EE277AFCEEE77A17EE83
:1053E000903A7B827B8A19467868FFF754FF00E089
:1053F00000BF1837BD4680BD0000C8C20000C842CB
:1054000080B582B000AF00237B60124B5B6C114A09
:1054100043F4804353640F4B5B6C03F480437B6025
:105420007B6800233B600B4B1B6C0A4A43F08053A4
:105430001364084B1B6C03F080533B603B680022F5
:105440000F216FF0010000F048FD00BF0837BD4696
:1054500080BD00BF0038024080B58AB000AF7860E0
:1054600007F1140300221A605A609A60DA601A6128
:105470007B681B68194A93422CD100233B61184B6F
:105480001B6B174A43F002031363154B1B6B03F0AE
:1054900002033B613B694FF440637B611223BB61B4
:1054A0000023FB6103233B6204237B6207F11403A7
:1054B00019460C4800F0DAFD0023FB60084B1B6C1A
:1054C000074A43F480031364054B1B6C03F4800309
:1054D000FB60FB6800BF2837BD4680BD0058004018
:1054E000003802400004024080B58CB000AF786004
:1054F00007F11C0300221A605A609A60DA601A6190
:105500007B681B68B3F1804F4BD10023BB613F4BDD
:105510001B6C3E4A43F0010313643C4B1B6C03F0CD
:105520000103BB61BB6900237B61384B1B6B374AAE
:1055300043F001031363354B1B6B03F001037B61E5
:105540007B6900233B61314B1B6B304A43F0020304
:1055500013632E4B1B6B03F002033B613B694FF45B
:105560000043FB6102233B6200237B620023BB629A
:105570000123FB6207F11C031946254800F076FD64
:105580000823FB6102233B6200237B620023BB6292
:105590000123FB6207F11C0319461E4800F066FD5B
:1055A00030E07B681B681C4A93422BD10023FB60D0
:1055B000164B1B6C154A43F002031364134B1B6C10
:1055C00003F00203FB60FB680023BB600F4B1B6B07
:1055D0000E4A43F0020313630C4B1B6B03F00203F0
:1055E000BB60BB683023FB6102233B6200237B620C
:1055F0000023BB620223FB6207F11C031946054826
:1056000000F034FD00BF3037BD4680BD0038024099
:1056100000000240000402400004004080B58EB04B
:1056200000AF786007F1240300221A605A609A6084
:10563000DA601A617B681B684D4A93420ED10023E1
:105640003B624C4B1B6C4B4A43F004031364494BC5
:105650001B6C03F004033B623B6A85E07B681B68BC
:10566000454A934216D10023FB61424B1B6C414AD1
:1056700043F0080313643F4B1B6C03F00803FB610A
:10568000FB6900220521322000F027FC322000F0C7
:1056900040FC69E07B681B68384A934216D10023BE
:1056A000BB61344B5B6C334A43F002035364314BB0
:1056B0005B6C03F00203BB61BB69002205212B2058
:1056C00000F00BFC2B2000F024FC4DE07B681B68F5
:1056D0002B4A93420ED100237B61264B5B6C254AFB
:1056E00043F480335364234B5B6C03F480337B615E
:1056F0007B6939E07B681B68224A934234D10023DE
:105700003B611C4B1B6C1B4A43F040031364194B59
:105710001B6C03F040033B613B690023FB60154BAE
:105720001B6B144A43F002031363124B1B6B03F011
:105730000203FB60FB684FF480437B620223BB6281
:105740000023FB6200233B6309237B6307F12403EF
:1057500019460D4800F08AFC002205212B2000F09C
:10576000BCFB2B2000F0D5FB00BF3837BD4680BD09
:105770000008004000380240000C004000040140D6
:1057800000400140001800400004024080B58AB08B
:1057900000AF786007F1140300221A605A609A6023
:1057A000DA601A617B681B68364A93421FD1002376
:1057B0003B61354B1B6B344A43F002031363324B9E
:1057C0001B6B03F002033B613B694FF440737B6149
:1057D0000223BB610023FB6100233B6202237B6247
:1057E00007F114031946294800F040FC46E07B68A5
:1057F0001B68274A93421ED10023FB60224B1B6B80
:10580000214A43F0040313631F4B1B6B03F0040393
:10581000FB60FB6840237B610223BB610023FB61CB
:1058200002233B6203237B6207F1140319461948E4
:1058300000F01CFC22E07B681B68174A93421DD1D4
:105840000023BB60104B1B6B0F4A43F01003136324
:105850000D4B1B6B03F01003BB60BB6860237B61C7
:105860000223BB610023FB6100233B6203237B62B5
:1058700007F114031946094800F0F8FB00BF283768
:10588000BD4680BD000800400038024000040240D0
:1058900000040140000802400040014000100240A6
:1058A00080B58AB000AF786007F1140300221A6057
:1058B0005A609A60DA601A617B681B681D4A9342DD
:1058C00034D100233B611C4B1B6C1B4A43F48023E7
:1058D0001364194B1B6C03F480233B613B69002369
:1058E000FB60154B1B6B144A43F008031363124B08
:1058F0001B6B03F00803FB60FB684FF440737B6194
:105900000223BB610023FB6103233B6207237B620D
:1059100007F114031946094800F0A8FB00220521ED
:10592000272000F0DAFA272000F0F3FA00BF28372A
:10593000BD4680BD0048004000380240000C0240D7
:1059400080B400AF00BFFDE780B400AF00BFFDE74B
:1059500080B400AF00BFFDE780B400AF00BFFDE73B
:1059600080B400AF00BFFDE780B400AF00BFBD460C
:105970005DF8047B704780B500AF00F08FF906F04A
:105980008FFE0346012B01D007F086FC00BF80BDCF
:1059900080B500AF024804F0E9F900BF80BD00BF48
:1059A0006C05002080B500AF034803F045F80348BC
:1059B00003F042F800BF80BD9404002024050020BD
:1059C00080B500AF024803F037F800BF80BD00BFCC
:1059D0004C04002080B400AF01231846BD465DF89A
:1059E000047B704780B582B000AF7860396009F001
:1059F0005DFC034616221A604FF0FF331846083745
:105A0000BD4680BD80B582B000AF78604FF0FF31F9
:105A10007868FFF7E7FF00BFFDE780B586B000AF0D
:105A2000F860B9607A6000237B610AE0AFF3008020
:105A30000146BB685A1CBA60CAB21A707B6901334E
:105A40007B617A697B689A42F0DB7B68184618377D
:105A5000BD4680BD80B586B000AFF860B9607A60A1
:105A600000237B6109E0BB685A1CBA601B781846AA
:105A7000AFF300807B6901337B617A697B689A426E
:105A8000F1DB7B6818461837BD4680BD80B483B013
:105A900000AF78604FF0FF3318460C37BD465DF815
:105AA000047B704780B483B000AF786039603B6896
:105AB0004FF400525A60002318460C37BD465DF87B
:105AC000047B704780B483B000AF78600123184630
:105AD0000C37BD465DF8047B704780B485B000AFDD
