:020000040800F2
:1000000000000220493F0008213D0008293D00086A
:10001000313D0008393D0008413D00080000000066
:1000200000000000000000000000000011AB00080C
:10003000493D00080000000061AD0008573D000880
:10004000993F0008993F0008993F0008993F000830
:10005000993F0008993F0008993F0008993F000820
:10006000993F0008993F0008993F0008993F000810
:10007000993F0008993F0008993F0008993F000800
:10008000993F0008993F0008993F0008993F0008F0
:10009000993F0008993F0008993F0008993F0008E0
:1000A000993F0008993F0008993F0008993F0008D0
:1000B000993F0008993F0008993F0008993F0008C0
:1000C000993F0008993F0008993F0008993F0008B0
:1000D000993F0008993F0008993F0008713D0008CA
:1000E000993F0008993F0008993F0008993F000890
:1000F000993F0008993F0008993F0008993F000880
:10010000993F0008993F0008853D0008993F000885
:10011000993F0008993F0008993F0008993F00085F
:10012000993F0008993F0008993F0008993F00084F
:10013000993F0008993F0008993F0008993F00083F
:10014000993F0008993F0008993F0008993F00082F
:10015000993F0008993F0008993F0008993F00081F
:10016000993F0008993F0008993F0008993F00080F
:10017000993F0008993F0008993F000800000000DF
:08018000993F0008993F0008B7
:1001900010B5054C237833B9044B13B10448AFF3C1
:1001A00000800123237010BDE40100200000000046
:1001B00024DC000808B5034B1BB103490348AFF327
:1001C000008008BD00000000E801002024DC0008D9
:1001D00001F0FF01102A2BDB10F0070F08D010F8F8
:1001E000013B013A8B422DD010F0070F42B3F6D1FC
:1001F000F0B441EA012141EA014122F007047FF015
:1002000000070023F0E80256083C85EA010586EA6B
:10021000010685FA47F5A3FA87F586FA47F6A5FAA7
:1002200087F68EB9EED1F0BC01F0FF0102F00702B3
:1002300032B110F8013B013A83EA010313B1F8D15E
:100240000020704701387047002D06BF354603383F
:10025000073815F0010F07D1013015F4807F02BF78
:10026000013015F4C03F0130F0BC0138704700BFC9
:10027000034613F8012B002AFBD1181A01387047E6
:1002800081F0004102E000BF83F0004330B54FEA47
:1002900041044FEA430594EA050F08BF90EA020FB4
:1002A0001FBF54EA000C55EA020C7FEA645C7FEA47
:1002B000655C00F0E2804FEA5454D4EB5555B8BF6A
:1002C0006D420CDD2C4480EA020281EA030382EADB
:1002D000000083EA010180EA020281EA0303362D6D
:1002E00088BF30BD11F0004F4FEA01314FF4801C40
:1002F0004CEA113102D0404261EB410113F0004F52
:100300004FEA03334CEA133302D0524263EB430308
:1003100094EA050F00F0A780A4F10104D5F1200EA6
:100320000DDB02FA0EFC22FA05F2801841F1000101
:1003300003FA0EF2801843FA05F359410EE0A5F1D5
:1003400020050EF1200E012A03FA0EFC28BF4CF006
:10035000020C43FA05F3C01851EBE37101F00045BC
:1003600007D54FF0000EDCF1000C7EEB00006EEBC9
:100370000101B1F5801F1BD3B1F5001F0CD3490853
:100380005FEA30004FEA3C0C04F101044FEA4452AA
:1003900012F5800F80F09A80BCF1004F08BF5FEA31
:1003A000500C50F1000041EB045141EA050130BD11
:1003B0005FEA4C0C404141EB0101013C28BFB1F523
:1003C000801FE9D291F0000F04BF01460020B1FA6E
:1003D00081F308BF2033A3F10B03B3F120020CDA41
:1003E0000C3208DD02F1140CC2F10C0201FA0CF01F
:1003F00021FA02F10CE002F11402D8BFC2F1200C84
:1004000001FA02F120FA0CFCDCBF41EA0C01904039
:10041000E41AA2BF01EB0451294330BD6FEA040482
:100420001F3C1CDA0C340EDC04F11404C4F120026D
:1004300020FA04F001FA02F340EA030021FA04F37F
:1004400045EA030130BDC4F10C04C4F1200220FAD6
:1004500002F001FA04F340EA0300294630BD21FA14
:1004600004F0294630BD94F0000F83F4801306BFDA
:1004700081F480110134013D4EE77FEA645C18BFCE
:100480007FEA655C29D094EA050F08BF90EA020F65
:1004900005D054EA000C04BF1946104630BD91EA5D
:1004A000030F1EBF0021002030BD5FEA545C05D160
:1004B0004000494128BF41F0004130BD14F580049F
:1004C0003CBF01F5801130BD01F0004545F0FE4113
:1004D00041F470014FF0000030BD7FEA645C1ABF48
:1004E000194610467FEA655C1CBF0B46024650EA7F
:1004F000013406BF52EA033591EA030F41F40021AB
:1005000030BD00BF90F0000F04BF0021704730B530
:100510004FF4806404F132044FF000054FF0000105
:1005200050E700BF90F0000F04BF0021704730B5C6
:100530004FF4806404F1320410F0004548BF40429B
:100540004FF000013EE700BF42004FEAE2014FEAF0
:1005500031014FEA02701FBF12F07F4393F07F4FCB
:1005600081F06051704732F07F4208BF704793F0CE
:100570007F4F04BF41F40021704730B54FF46074E1
:1005800001F0004521F000411CE700BF50EA0102E4
:1005900008BF704730B54FF000050AE050EA01028D
:1005A00008BF704730B511F0004502D5404261EBFD
:1005B00041014FF4806404F132045FEA915C3FF43E
:1005C000D8AE4FF003025FEADC0C18BF03325FEADB
:1005D000DC0C18BF033202EBDC02C2F1200300FA8C
:1005E00003FC20FA02F001FA03FE40EA0E0021FAB1
:1005F00002F11444BDE600BF70B54FF0FF0C4CF49F
:10060000E06C1CEA11541DBF1CEA135594EA0C0F50
:1006100095EA0C0F00F0DEF82C4481EA030621EA8B
:100620004C5123EA4C5350EA013518BF52EA0335C6
:1006300041F4801143F4801338D0A0FB02CE4FF078
:100640000005E1FB02E506F00042E0FB03E54FF0A8
:100650000006E1FB03569CF0000F18BF4EF0010EA0
:10066000A4F1FF04B6F5007F64F5407404D25FEA9C
:100670004E0E6D4146EB060642EAC62141EA55514F
:100680004FEAC52040EA5E504FEACE2EB4F1FD0C91
:1006900088BFBCF5E06F1ED8BEF1004F08BF5FEA0F
:1006A000500E50F1000041EB045170BD06F00046C1
:1006B00046EA010140EA020081EA0301B4EB5C046E
:1006C000C2BFD4EB0C0541EA045170BD41F4801166
:1006D0004FF0000E013C00F3AB8014F1360FDEBF8B
:1006E000002001F0004170BDC4F10004203C35DA67
:1006F0000C341BDC04F11404C4F1200500FA05F3EA
:1007000020FA04F001FA05F240EA020001F000428A
:1007100021F0004110EBD37021FA04F642EB060100
:100720005EEA430E08BF20EAD37070BDC4F10C042A
:10073000C4F1200500FA04F320FA05F001FA04F2EE
:1007400040EA020001F0004110EBD37041F10001DA
:100750005EEA430E08BF20EAD37070BDC4F12005E5
:1007600000FA05F24EEA020E20FA04F301FA05F24D
:1007700043EA020321FA04F001F0004121FA04F2F5
:1007800020EA020000EBD3705EEA430E08BF20EAC5
:10079000D37070BD94F0000F0FD101F000464000FF
:1007A00041EB010111F4801F08BF013CF7D041EA81
:1007B000060195F0000F18BF704703F00046520085
:1007C00043EB030313F4801F08BF013DF7D043EA56
:1007D0000603704794EA0C0F0CEA135518BF95EA0C
:1007E0000C0F0CD050EA410618BF52EA4306D1D193
:1007F00081EA030101F000414FF0000070BD50EAB2
:10080000410606BF1046194652EA430619D094EA3B
:100810000C0F02D150EA013613D195EA0C0F05D125
:1008200052EA03361CBF104619460AD181EA030179
:1008300001F0004141F0FE4141F470014FF0000031
:1008400070BD41F0FE4141F4780170BD70B54FF0CC
:10085000FF0C4CF4E06C1CEA11541DBF1CEA13554C
:1008600094EA0C0F95EA0C0F00F0A7F8A4EB05042E
:1008700081EA030E52EA03354FEA013100F0888025
:100880004FEA03334FF0805545EA131343EA1263EE
:100890004FEA022245EA111545EA10654FEA0026A3
:1008A0000EF000419D4208BF964244F1FD0404F55C
:1008B000407402D25B084FEA3202B61A65EB0305B8
:1008C0005B084FEA32024FF480104FF4002CB6EB75
:1008D000020E75EB030E22BFB61A754640EA0C00F5
:1008E0005B084FEA3202B6EB020E75EB030E22BF35
:1008F000B61A754640EA5C005B084FEA3202B6EB76
:10090000020E75EB030E22BFB61A754640EA9C0034
:100910005B084FEA3202B6EB020E75EB030E22BF04
:10092000B61A754640EADC0055EA060E18D04FEAC2
:10093000051545EA16754FEA06164FEAC30343EA62
:1009400052734FEAC2025FEA1C1CC0D111F4801F2F
:100950000BD141EA00014FF000004FF0004CB6E728
:1009600011F4801F04BF01430020B4F1FD0C88BFC7
:10097000BCF5E06F3FF6AFAEB5EB030C04BFB6EBD2
:10098000020C5FEA500C50F1000041EB045170BDC5
:100990000EF0004E4EEA113114EB5C04C2BFD4EBF2
:1009A0000C0541EA045170BD41F480114FF0000E76
:1009B000013C90E645EA060E8DE60CEA135594EAF2
:1009C0000C0F08BF95EA0C0F3FF43BAF94EA0C0FF5
:1009D0000AD150EA01347FF434AF95EA0C0F7FF46A
:1009E00025AF104619462CE795EA0C0F06D152EABE
:1009F00003353FF4FDAE1046194622E750EA4106A2
:100A000018BF52EA43067FF4C5AE50EA41047FF4B2
:100A10000DAF52EA43057FF4EBAE12E74FF0FF3C17
:100A200006E000BF4FF0010C02E000BF4FF0010CE8
:100A30004DF804CD4FEA410C7FEA6C5C4FEA430C61
:100A400018BF7FEA6C5C1BD001B050EA410C0CBFB0
:100A500052EA430C91EA030F02BF90EA020F002012
:100A6000704710F1000F91EA030F58BF994208BF79
:100A700090422CBFD8176FEAE37040F00100704736
:100A80004FEA410C7FEA6C5C02D150EA013C07D18D
:100A90004FEA430C7FEA6C5CD6D152EA033CD3D0D8
:100AA0005DF8040B704700BF8446104662468C46D2
:100AB0001946634600E000BF01B5FFF7B7FF002805
:100AC00048BF10F1000F01BD4DF808EDFFF7F4FF2E
:100AD0000CBF012000205DF808FB00BF4DF808EDB9
:100AE000FFF7EAFF34BF012000205DF808FB00BFDC
:100AF0004DF808EDFFF7E0FF94BF012000205DF8FE
:100B000008FB00BF4DF808EDFFF7CEFF94BF0120B2
:100B100000205DF808FB00BF4DF808EDFFF7C4FFAB
:100B200034BF012000205DF808FB00BF4FEA410CF4
:100B30007FEA6C5C02D150EA013C0AD14FEA430CD7
:100B40007FEA6C5C02D152EA033C02D14FF0000014
:100B500070474FF0010070474FEA410212F5001252
:100B600015D211D56FF47873B3EB625212D94FEAF4
:100B7000C12343F0004343EA505311F0004F23FADE
:100B800002F018BF404270474FF00000704750EA33
:100B9000013005D111F0004008BF6FF000407047F0
:100BA0004FF00000704700BF53B94AB9002908BF91
:100BB00000281CBF4FF0FF314FF0FF3000F088B924
:100BC000ADF1080C6DE904CE00F006F8DDF804E0A4
:100BD000DDE9022304B070472DE9F047089D8E46F9
:100BE00004468846002B4AD18A42174662D9B2FA97
:100BF00082F64EB1C6F1200301FA06F820FA03F39B
:100C0000B74043EA0808B4404FEA174E1FFA87FC82
:100C1000B8FBFEF1230C0EFB118843EA084301FBED
:100C20000CF29A4209D9FB1801F1FF3080F0EA80FA
:100C30009A4240F2E78002393B449A1AA3B2B2FBCF
:100C4000FEF00EFB102243EA024300FB0CFC9C4525
:100C500009D9FB1800F1FF3280F0D6809C4540F2A4
:100C6000D3803B44023840EA0140A3EB0C0300214F
:100C70001DB1F3400022C5E90032BDE8F0878B4288
:100C800005D90DB1C5E9000100210846F5E7B3FA21
:100C900083F1002946D1734502D3824200F20581D7
:100CA000841A6EEB030201209046002DE5D0C5E9C1
:100CB0000048E2E7002A00F09080B2FA82F6002EA7
:100CC00040F0A4808A1A030C4FEA174E80B2BCB2DF
:100CD0000121B2FBFEFC0EFB1C2243EA024304FB93
:100CE0000CF29A4207D9FB180CF1FF3802D29A4253
:100CF00000F2E080C4469B1AB3FBFEF20EFB1233F7
:100D000040EA034302FB04F49C4207D9FB1802F1BA
:100D1000FF3002D29C4200F2CA8002461B1B42EA0C
:100D20000C40A5E7C1F120068B4022FA06F71F43CD
:100D30000EFA01F420FA06F32EFA06FE4FEA1749DE
:100D4000234300FA01F81FFA87FCBEFBF9F01C0CE4
:100D500009FB10EE44EA0E4400FB0CFEA64502FA25
:100D600001F209D93C1900F1FF3A80F09C80A645B8
:100D700040F2998002383C44A4EB0E041FFA83FE33
:100D8000B4FBF9F309FB13444EEA044403FB0CFCE7
:100D9000A44508D93C1903F1FF3E80F08280A445A8
:100DA0007FD9023B3C4443EA0040A4EB0C04A0FB87
:100DB00002EC64457346E14662D35FD05DB1B8EBA7
:100DC000030264EB090404FA06F622FA01F31E4357
:100DD000CC40C5E9006400214FE7B1FBF2FC010CF7
:100DE00041EA0E4180B240EA01423B4638463C4669
:100DF000B846BE462026B1FBF7F1A2EB080241EA55
:100E00000C4166E7014618E710462CE7C6F12002C0
:100E10002EFA02F3B740B14020FA02F24FEA174E21
:100E20000A43B3FBFEF8BCB20EFB1833110C41EAC7
:100E3000034108FB04F9B04089454FEA104380B2F2
:100E40003ED9791808F1FF3C01D289451FD8A1EBA2
:100E50000901B1FBFEF909FB04F80EFB191192B26E
:100E600042EA0142424529D2BA1809F1FF31C4D2FF
:100E70004245C2D2A9F102013A44BEE7F0459DD2F3
:100E8000BEEB02036CEB070C0138E14696E7A7EBDB
:100E900009094944A8F1020CB1FBFEF909FB04F869
:100EA000DBE773467FE7504666E70846FDE63B44CE
:100EB000023A33E7ACF1020C3B441CE749469CE79D
:100EC000A1EB0901C446B1FBFEF909FB04F8C4E734
:100ED000704700BF80B58AB004AFF8600B467A60F7
:100EE000FB720023FB757B68DBB21B01DBB27B75F9
:100EF000FB7A002B01D1682300E06923BB75BB7D21
:100F00009BB25B0099B20A2302930123019307F17C
:100F10001503009301237F22F86803F073FD034655
:100F2000FB75FB7D18461837BD4680BD80B588B07F
:100F300004AF7860084611461A460346FB700B461C
:100F4000BB7013467B700023FB73FB78002B01D131
:100F5000682300E06923BB73BB7B9BB25B0099B243
:100F6000BB789AB20A230293012301937B1C00935E
:100F70000123786803F046FD0346FB73FB7B1846AC
:100F80001037BD4680BD80B588B004AF7860084694
:100F900011461A460346FB700B46BB7013463B8056
:100FA0000023FB73FB78002B01D1682300E0692349
:100FB000BB73BB7B9BB25B0099B2BB789AB20A232E
:100FC00002933B880193BB6900930123786803F087
:100FD00013FE0346FB73FB7B18461037BD4680BDEE
:100FE00080B584B000AF78600A230222D0217868EF
:100FF00004F034F80346FB73FB7B002B0CBF01238A
:101000000023DBB218461037BD4680BD80B584B0E2
:1010100000AF78600A230222D221786804F01EF81B
:101020000346FB73FB7B002B0CBF01230023DBB2C9
:1010300018461037BD4680BD80B584B000AF7860DB
:101040000B46FB701346BB700023FB73FB7800223A
:1010500019467868FFF73EFF0346FB73F978802353
:1010600006227868FFF762FF0346FB73C82003F08F
:1010700007F8F978012306227868FFF757FF03463F
:10108000FB73F978002307227868FFF74FFF0346C8
:10109000FB73FB78022219467868FFF71BFF0346B3
:1010A000FB73BB7843F01803DBB2F9780122786850
:1010B000FFF73CFF0346FB73F97819231422786885
:1010C000FFF734FF0346FB73F978042300227868A6
:1010D000FFF72CFF0346FB73FB7800221946786864
:1010E000FFF7F8FE0346FB73F97802230F227868B6
:1010F000FFF71CFF0346FB7300BF1037BD4680BDE2
:1011000080B586B002AFF8607B600B46FB72134679
:10111000BB72F97A0B4B009302233722F868FFF772
:1011200032FF084B1B781BB21B021AB2054B5B78CF
:101130001BB213431AB27B681A8000BF1037BD463A
:1011400080BD00BF0002002080B400AF034B1B78BD
:10115000DBB21846BD465DF8047B7047B80200203C
:1011600080B400AF034B00221A7000BFBD465DF88B
:10117000047B7047B802002080B584B000AF194AE4
:101180003B1D07CA83E807003B1DDFED171A9FEDE3
:10119000171ADFED160A9FED160A1946154802F0D8
:1011A0006FF83B1DDFED101A9FED101ADFED0F0AEF
:1011B0009FED0F0A1946104802F062F801F094FA08
:1011C00003460E4A136001F09DFA03460C4A136071
:1011D0000C4B01221A700C4805F0F2F800BF1037D2
:1011E000BD4680BD40DC00080AD7233C00002042F9
:1011F0000000C8420402002050020020B00200207B
:10120000B402002000000020F803002080B483B066
:1012100000AF78603960064A7B681360054A3B6816
:10122000136000BF0C37BD465DF8047B704700BFFC
:101230009C020020A002002080B500AF01F054FA0B
:101240000346064A136001F05DFA0346044A136040
:10125000044B01221A7000BF80BD00BFB002002005
:10126000B40200200000002080B58AB000AF01F079
:101270003BFA386201F046FAF861594B1B683A6A4A
:10128000D31ABB61574B1B68FA69D31A7B61544A66
:101290003B6A1360534AFB691360534B1B78002B66
:1012A00003D0514B00221A7096E0504ABB6913607C
:1012B0004F4A7B6913604F4B1B68002B20D14E4B6C
:1012C0001B68002B1CD1BB69B3F1FF3F18DBBB6966
:1012D000012B15DC7B69B3F1FF3F11DB7B69012B2F
:1012E0000EDC464802F02DF9454802F02AF9454B3C
:1012F00000221A70444B00221A7001F09DF96BE035
:10130000BB6907EE903AF8EEE77A3A4B1B6807EEB6
:10131000103AB8EEC77AF0EE470AB0EE670A3748DF
:1013200002F012F887ED040A7B6907EE903AF8EEB6
:10133000E77A314B1B6807EE103AB8EEC77AF0EE49
:10134000470AB0EE670A2E4801F0FEFF87ED030A58
:10135000D7ED047AFDEEE77AC7ED017A3B7987F89D
:101360002730D7ED037AFDEEE77AC7ED017A3B79B6
:1013700087F826300523FB7297F9272097F90B3061
:101380009A4209DA97F9272097F90B305B429A4283
:1013900002DD002387F8273097F9262097F90B30D4
:1013A0009A4209DA97F9262097F90B305B429A4264
:1013B00002DD002387F82630124A97F82730137091
:1013C000114A97F82630137097F9262097F927309D
:1013D0001146184601F060F82837BD4680BD00BFB1
:1013E000B0020020B402002000000020A40200206F
:1013F000A80200209C020020A0020020040200207D
:1014000050020020AC020020AD02002080B483B066
:1014100000AF78607B681B68054A934202D1054B98
:1014200001221A7000BF0C37BD465DF8047B70477F
:10143000000C0040B802002080B485B000AFF86016
:10144000B9607A603B60FB68002B03D00F4B1A68D1
:10145000FB681A60BB68002B03D00D4B1A68BB6891
:101460001A607B68002B03D00A4B1A687B681A60ED
:101470003B68002B03D0084B1A683B681A6000BF1A
:101480001437BD465DF8047B704700BF9C02002006
:10149000A0020020A4020020A802002080B483B093
:1014A00000AF87ED010AD7ED017A9FED157AF4EED2
:1014B000C77AF1EE10FA07DDD7ED017A9FED117AC8
:1014C00077EEC77AC7ED017AD7ED017A9FED0E7AF4
:1014D000F4EEC77AF1EE10FA07D5D7ED017A9FED59
:1014E000097A77EE877AC7ED017A7B6807EE903A42
:1014F000B0EE670A0C37BD465DF8047B704700BF4D
:10150000000034430000B443000034C380B586B00B
:1015100000AF4FF4FA73FB604FF000037B610023D0
:101520003B6125E000237B801B4B18681B4B19781F
:10153000BB1C0622FFF7E4FD194BBB60B7F9023074
:1015400007EE903AF8EEE76A97ED027AC6EE877AF0
:10155000C7ED017A97ED057AD7ED017A77EE277A14
:10156000C7ED057A022002F08BFD3B6901333B6138
:101570003A69FB689A42D5DBFB6807EE903AB8EE11
:10158000E77AD7ED056AC6EE877A064BC3ED007A97
:1015900000BF1837BD4680BDBC020020C00200203D
:1015A00033338341C802002080B582B000AF786039
:1015B0003960184A7B6813607868FFF711FD0346AD
:1015C000002B03D0144B00221A700BE07868FFF751
:1015D0001DFD0346002B03D00F4B01221A7001E0C2
:1015E00000F02EFF3B68002B03D00B4B1A783B68B2
:1015F0001A70094B1B78062219467868FFF71CFD04
:10160000FFF784FF054B4FF000021A6000BF083758
:10161000BD4680BDBC020020C0020020C4020020E4
:1016200080B400AF044B1B6807EE903AB0EE670A37
:10163000BD465DF8047B7047C402002080B400AF53
:10164000044B4FF000021A6000BFBD465DF8047BFA
:10165000704700BFC402002080B584B000AF0023F3
:10166000FB80264B1868264B1978BB1D0622FFF716
:1016700047FD244BBB60B7F9063007EE903AF8EE11
:10168000E76A97ED027AC6EE877AC7ED037A1E4BBA
:10169000D3ED007A97ED037A77EE677AC7ED037A98
:1016A000D7ED037ABEEE007AF4EEC77AF1EE10FAC7
:1016B0000BDDD7ED037AB6EE007AF4EEC77AF1EEE1
:1016C00010FA02D54FF00003FB60D7ED037A9FEDCF
:1016D0000F7A27EE877A0E4BD3ED007A77EE277AD2
:1016E000B0EE670AFFF7DAFEF0EE407A084BC3ED82
:1016F000007A00BF1037BD4680BD00BFBC0200208D
:10170000C002002033338341C80200200AD7233CA3
:10171000C402002080B582B000AF78607B685B8A2D
:101720001946786801F0F4FF00BF0837BD4680BD58
:1017300080B582B000AF02F031FC00F093F800F009
:10174000CFFB00F0C3F900F033FB00F017F900F015
:1017500069F900F03DFA00F089FA00F0E1F800F0D4
:1017600095FB01F0FFFC00F071FEFFF705FD002383
:10177000FB70FB1C19462548FFF716FF0122244980
:10178000244806F058F8244B7B607868FEF770FD1B
:1017900003469AB2642379681E4805F0C1FF07F03A
:1017A0000FF81E4A00211E4807F054F803461D4A50
:1017B00013601D4A00211D4807F04CF803461C4ADF
:1017C00013601C4A00211C4807F044F803461B4ADA
:1017D00013601B4A00211B4807F03CF803461A4AD5
:1017E00013601A4A00211A4807F034F80346194AD0
:1017F0001360194A0021194807F02CF80346184ACB
:10180000136007F001F800BFFDE700BFCC02002025
:1018100048050020D00400209CDC00082CDD0008D6
:10182000412000081805002050DD00085520000860
:101830001C05002074DD0008B921000820050020E7
:1018400098DD0008F923000824050020BCDD00080D
:101850001F24000828050020E0DD000831240008CE
:101860002C05002080B594B000AF07F12003302292
:10187000002118460AF040FA07F10C0300221A6012
:101880005A609A60DA601A610023BB60224B1B6CBD
:10189000214A43F0805313641F4B1B6C03F08053A9
:1018A000BB60BB6800237B601C4B1B681B4A43F476
:1018B00080431360194B1B6803F480437B607B6893
:1018C00002233B620123FB6210233B630023BB63C3
:1018D00007F12003184604F0CBF80346002B01D093
:1018E00000F0AEFD0F23FB6000233B6100237B6112
:1018F0000023BB610023FB6107F10C0300211846A4
:1019000004F02EFB0346002B01D000F099FD00BF30
:101910005037BD4680BD00BF003802400070004017
:1019200080B500AF124B134A1A60114B124A5A602D
:101930000F4B00229A600E4B0022DA600C4B4FF4E2
:1019400080421A610A4B00225A61094B00229A61B7
:10195000074B0022DA61064B00221A62044802F0AB
:101960000DFF0346002B01D000F06AFD00BF80BDD3
:10197000CC02002000580040A086010080B58CB049
:1019800000AF07F10C032422002118460AF0B4F935
:101990003B1D00221A605A60214B4FF080421A60B2
:1019A0001F4B00225A601E4B00229A601C4B4FF6C0
:1019B000FF72DA601A4B00221A61194B00229A61F9
:1019C0000323FB6000233B6101237B610023BB6198
:1019D0000A23FB6100233B6201237B620023BB627D
:1019E0000A23FB6207F10C0319460D4804F07AFE46
:1019F0000346002B01D000F023FD00237B60002371
:101A0000BB603B1D1946064805F058FD0346002BF8
:101A100001D000F015FD00BF3037BD4680BD00BFCE
:101A20002003002080B58CB000AF07F10C03242206
:101A3000002118460AF060F93B1D00221A605A6026
:101A4000204B214A1A601F4B00225A601D4B002276
:101A50009A601C4B4FF6FF72DA601A4B00221A6133
:101A6000184B00229A610323FB6000233B61012392
:101A70007B610023BB610A23FB6100233B620123DE
:101A80007B620023BB620A23FB6207F10C03194649
:101A90000C4804F027FE0346002B01D000F0D0FCD8
:101AA00000237B600023BB603B1D1946054805F001
:101AB00005FD0346002B01D000F0C2FC00BF30370B
:101AC000BD4680BD680300200004004080B58EB094
:101AD00000AF07F1280300221A605A609A60DA60AA
:101AE00007F1200300221A605A603B1D00221A6091
:101AF0005A609A60DA601A615A619A61324B334ACD
:101B00001A60314B00225A602F4B00229A602E4BF4
:101B100040F21F32DA602C4B00221A612A4B8022DD
:101B20009A61294804F0FCFB0346002B01D000F029
:101B300087FC4FF48053BB6207F128031946224803
:101B400005F0B6F80346002B01D000F079FC1E48E2
:101B500004F0A6FC0346002B01D000F071FC20230A
:101B60003B6200237B6207F120031946164805F00B
:101B7000A5FC0346002B01D000F062FC60237B60D3
:101B80000023BB600023FB6000237B613B1D082218
:101B900019460D4804F0CAFF0346002B01D000F09F
:101BA0004FFC3B1D0C221946074804F0BFFF0346BB
:101BB000002B01D000F044FC034801F0D7FF00BF28
:101BC0003837BD4680BD00BFB0030020000800408C
:101BD00080B586B000AF07F1080300221A605A6092
:101BE0009A60DA603B4600221A605A601D4B1E4A1A
:101BF0001A601C4B40F23F625A601A4B00229A60F6
:101C0000184B6322DA60174B00221A61154B002231
:101C10009A61144804F084FB0346002B01D000F0C5
:101C20000FFC4FF48053BB6007F1080319460D48C1
:101C300005F03EF80346002B01D000F001FC002324
:101C40003B6000237B603B461946064805F036FCA6
:101C50000346002B01D000F0F3FB00BF1837BD4650
:101C600080BD00BFF8030020000C004080B596B096
:101C700000AF07F1480300221A605A609A60DA60E8
:101C800007F1400300221A605A6007F12403002282
:101C90001A605A609A60DA601A615A619A613B1D53
:101CA0002022002118460AF027F83F4B3F4A1A60CD
:101CB0003D4B40F23F125A603B4B00229A603A4B38
:101CC00040F2E732DA60384B00221A61364B0022CC
:101CD0005A61354B80229A61334804F021FB034658
:101CE000002B01D000F0ACFB4FF48053BB6407F134
:101CF000480319462C4804F0DBFF0346002B01D0B3
:101D000000F09EFB284804F0CBFB0346002B01D0DB
:101D100000F096FB00233B6400237B6407F1400343
:101D20001946214805F0CAFB0346002B01D000F0FC
:101D300087FB60237B620023BB620023FB620023DE
:101D40003B6300237B630023BB630023FB6307F13A
:101D5000240300221946144804F0E8FE0346002B31
:101D600001D000F06DFB00237B600023BB600023EB
:101D7000FB6000233B6100237B614FF40053BB6198
:101D800000233B623B1D1946074805F013FC034640
:101D9000002B01D000F054FB034801F0E7FE00BF28
:101DA0005837BD4680BD00BF4004002000040140FC
:101DB00080B58CB000AF07F1200300221A605A6092
:101DC0009A60DA603B1D00221A605A609A60DA60FD
:101DD0001A615A619A612B4B2B4A1A60294B0022D7
:101DE0005A60284B00229A60264B40F21F32DA607C
:101DF000244B00221A61234B80229A61214804F06F
:101E00008FFA0346002B01D000F01AFB4FF48053E9
:101E10003B6207F1200319461A4804F049FF0346C4
:101E2000002B01D000F00CFB164804F039FB0346F0
:101E3000002B01D000F004FB60237B600023BB601B
:101E40000023FB6000237B613B1D002219460D48E7
:101E500004F06CFE0346002B01D000F0F1FA3B1DAC
:101E600004221946074804F061FE0346002B01D006
:101E700000F0E6FA034801F079FE00BF3037BD46B6
:101E800080BD00BF880400200040014080B500AF45
:101E9000114B124A1A60104B4FF4E1325A600E4B4C
:101EA00000229A600C4B0022DA600B4B00221A6170
:101EB000094B0C225A61084B00229A61064B002202
:101EC000DA61054805F0DCFB0346002B01D000F089
:101ED000B7FA00BF80BD00BFD0040020004800401A
:101EE00080B58AB000AF07F1140300221A605A606F
:101EF0009A60DA601A6100233B613F4B1B6B3E4ADC
:101F000043F0100313633C4B1B6B03F010033B6166
:101F10003B690023FB60384B1B6B374A43F00203DD
:101F20001363354B1B6B03F00203FB60FB6800235C
:101F3000BB60314B1B6B304A43F0080313632E4BDD
:101F40001B6B03F00803BB60BB6800237B602A4B5C
:101F50001B6B294A43F004031363274B1B6B03F0ED
:101F600004037B607B6800233B60234B1B6B224A8E
:101F700043F001031363204B1B6B03F001033B6031
:101F80003B6800224FF480711C4802F0DDFB002208
:101F90004FF4F0411A4802F0D7FB4FF480737B6195
:101FA0000123BB610023FB6100233B6207F11403A3
:101FB0001946124802F02CFA4FF4F0437B610123DA
:101FC000BB610023FB6100233B6207F11403194648
:101FD0000B4802F01DFA01237B610023BB61002343
:101FE000FB6107F114031946044802F011FA00BF1F
:101FF0002837BD4680BD00BF0038024000100240B7
:10200000000C024080B582B000AF78607B681B682E
:10201000084A93420AD10A2301220749074805F0DA
:102020007FFB01220449054805F005FC00BF083785
:10203000BD4680BD0048004048050020D004002077
:1020400080B582B000AF78604FF47A7006F094FCEF
:10205000FAE70000B0B598B002AF786004F04CF930
:1020600038653B6DFB644F4B5B68013307EE903A7C
:10207000B8EE677AFB6C07EE903AF8EE676A9FED70
:102080004A6AC6EE267A67EE277AC7ED127A4FF4CF
:10209000FA63019340F2DC5300934FF47A7397EDA7
:1020A000120A00223F49414801F0E5FA3F4801F099
:1020B0000BFB0346002B04D04FF47A7006F05CFC57
:1020C000FAE73A48FFF726FB394B07F10C041D46A7
:1020D0000FCD0FC40FCD0FC495E80F0084E80F009B
:1020E00006237B6400237B654DE07B6DDB0058336A
:1020F0003B4413F84C3C87F843307B6DDB0058338E
:102100003B44483B1B68FB632A4A97F843301370F3
:1021100097F84330532B04D197ED0F0A00F046FB9C
:1021200029E097F84330732B08D1D7ED0F7AF1EE01
:10213000677AB0EE670A00F039FB1CE097F843308D
:102140004C2B0BD097F84330522B07D097F84330E5
:102150006C2B03D097F84330722B05D197F843309E
:10216000184600F0C5FB02E000F008FB0FE002E0BB
:10217000052006F001FC00F0F5FA0346002BF7D12C
:102180007B6D01337B657A6D7B6C9A42ADDB00F031
:10219000F5FA084B2D221A704FF47A7006F0ECFB1A
:1021A000FAE700BF400400200024744930050020F5
:1021B000BCDC00080100002080B590B002AF786060
:1021C00001F052FF786300F01FFE834A00210020D7
:1021D00000F096FF814A0021582000F091FF804ACC
:1021E0001021002000F08CFF7E4A2021002000F00A
:1021F00087FF012300930C232C222021302000F0A4
:1022000083FE794A3021002000F07AFF01230093F9
:102210000C232C223021302000F076FE00F06EFDE1
:1022200001F022FFF862FA6A7B6BD31AC72B40F2E7
:10223000CF80FB6A7B63FFF7F3F987ED0A0A00237F
:102240007B6100233B610023FB600023BB6007F13F
:10225000080307F10C0207F1100107F11400FFF762
:10226000EBF8624B1B78DBB2002B03D05F4B1B7883
:10227000DBB200E02D2387F82730D7ED0A7AB2EEE3
:10228000047A67EE877A97ED0A7AB5EEC07AF1EEB6
:1022900010FA02DBB6EE007A01E0BEEE007A77EECD
:1022A000277AFDEEE77A17EE903A3B633B6B002B03
:1022B00002DA4FF0FF3300E001233B623B6B002B5F
:1022C00002DA3B6B5B423B633B6B494A82FB031286
:1022D0009210DB17D31AFB613A6B454B83FB021359
:1022E0009910D317C91A0B469B000B445B00D31AF5
:1022F000BB613B6A002B01DA2D2200E02022012382
:1023000000930C230021282000F0FEFDFA690C2325
:10231000009303230021302000F084FE012300936A
:102320000C232E220021482000F0EEFDBB69DBB219
:102330003033DAB2012300930C230021502000F047
:10234000E3FD97F82720012300930C231021302070
:1023500000F0DAFD274A2021102000F0D1FE254AA6
:102360002021382000F0CCFE7B6923F000420C23B2
:10237000009304232021102000F054FE3B6923F039
:1023800000420C23009304232021382000F04AFE51
:10239000184A3021102000F0B3FE164A30213820B0
:1023A00000F0AEFEFB6823F000420C2300930423F0
:1023B0003021102000F036FEBB6823F000420C23D1
:1023C000009304233021382000F02CFE00F096FC0E
:1023D000052006F0D1FA23E7ECDC0008F4DC000865
:1023E000FCDC000804DD000808DD00080100002016
:1023F000676666660CDD000880B582B000AF786065
:10240000FEF7A2FE0346002B05D0FEF72DFF00F0DD
:10241000F9FAFEF7A5FE012006F0AEFAF0E780B566
:1024200082B000AF78604FF47A7006F0A5FAFAE750
:1024300080B582B000AF7860012006F09DFAFBE71E
:1024400080B400AF72B600BF00BFFDE780B500AF3B
:102450000C210D4804F07EF808210B4804F07AF8AE
:1024600000210A4804F076F80421084804F072F8C4
:102470003C21074804F0DCF93C21064804F0D8F977
:1024800000F0DAF800BF80BDB0030020880400200F
:10249000200300206803002080B489B000AF034609
:1024A0000A46FB711346BB7197F90730642B01DDB7
:1024B0006423FB7197F9073013F1640F01DA9C2351
:1024C000FB7197F90630642B01DD6423BB7197F92A
:1024D000063013F1640F01DA9C23BB71514B1B686A
:1024E000DB6AFB61504B1B68DB6ABB6197F9073005
:1024F000002B08D14B4B1B6800221A64494B1B6808
:102500000022DA633DE097F9073007EE903AF8EEE3
:10251000E77AB0EEE77ADFED456AC7EE267A9FEDFF
:10252000447A67EE877A9FED437A77EE877AC7ED34
:10253000057AFB69013307EE903AB8EE677AD7ED7A
:10254000057A27EE277ADFED396AC7EE267AFCEEA8
:10255000E77A17EE903A3B6197F90730002B08DDD8
:10256000304B1B683A691A642E4B1B680022DA63F1
:1025700007E02C4B1B6800221A642A4B1B683A693F
:10258000DA6397F90630002B08D1274B1B6800222D
:102590005A63254B1B6800229A633DE097F9063089
:1025A00007EE903AF8EEE77AB0EEE77ADFED1F6AD1
:1025B000C7EE267A9FED1E7A67EE877A9FED1D7A29
:1025C00077EE877AC7ED037ABB69013307EE903A5D
:1025D000B8EE677AD7ED037A27EE277ADFED136A34
:1025E000C7EE267AFCEEE77A17EE903ABB6097F9D1
:1025F0000630002B08DD0C4B1B6800225A630A4B87
:102600001B68BA689A6307E0074B1B68BA685A638D
:10261000054B1B6800229A6300BF2437BD465DF856
:10262000047B7047B0030020880400200000C842EB
:10263000000038420000584280B400AF0A4B1B68CB
:102640000022DA63084B1B6800221A64074B1B68E0
:1026500000225A63054B1B6800229A6300BFBD46E7
:102660005DF8047B704700BFB003002088040020A1
:1026700080B584B000AF0346FB80194B1B68DB6A52
:10268000FB60184B1B68DB6ABB60154B1B68FA6864
:102690001A64134B1B68FA68DA63124B1B68BA683A
:1026A0005A63104B1B68BA689A63FB88002B03D0EF
:1026B000FB88184601F0E4FC094B1B680022DA6332
:1026C000074B1B6800221A64064B1B6800225A63E2
:1026D000044B1B6800229A6300BF1037BD4680BDC3
:1026E000B00300208804002080B400AF044B1B68B6
:1026F0005B6A1BB21846BD465DF8047B704700BF9D
:102700002003002080B400AF044B1B685B6A1BB23F
:102710005B421846BD465DF8047B704768030020A5
:1027200080B400AF064B1B6800225A62054B1B6841
:1027300000225A6200BFBD465DF8047B704700BFAF
:10274000200300206803002080B582B000AF7860CD
:102750007B685B8A1946786800F0DAFF00BF0837AB
:10276000BD4680BD80B400AF034B1B781846BD4604
:102770005DF8047B704700BF4C05002080B500AFBA
:10278000094B1B78002B0CD0074B00221A70064B0C
:1027900000225A7000210020FEF738FDFFF74CFFA1
:1027A00000E000BF80BD00BF4C05002080B586B0B2
:1027B00000AF87ED010AFFF7B3FFFEF73DFDFEF71F
:1027C0003DFF464B01221A70444B01225A70D7ED4F
:1027D000017AF5EEC07AF1EE10FA01DB012201E098
:1027E0004FF0FF323D4B9A703D48FFF7ADFFD7EDFC
:1027F000017AF0EEE77A9FED3B7A67EE877AB0EEEA
:10280000670A0BF0E1F90346344A5360334B5B68C7
:10281000092B03DC314B00221A705CE0324BD3ED04
:10282000007AF5EEC07AF1EE10FA02D54FF000030F
:1028300001E02D4B1B68FB602C4BD3ED007AF5EECD
:10284000C07AF1EE10FA02D54FF0000301E0274BF9
:102850001B68BB609FED237AD7ED037A67EE277A7A
:10286000B0EE670A0BF0B0F978619FED1E7AD7EDF4
:10287000027A67EE277AB0EE670A0BF0A5F93861A5
:102880007B69002B01DA00237B613B69002B01DAB5
:1028900000233B61114B5A6879693B690B449A42AA
:1028A0000CDC0E4B5B68DA0F13445B101A460B4BC3
:1028B0009A600A4B9B68094AD36008E0074A7B6923
:1028C0009360064B5A683B69D31A044AD3600021CF
:1028D0000020FEF79BFC1837BD4680BD4C0500204C
:1028E00030050020497996420400002008000020AD
:1028F00080B584B000AF0346FB71FFF711FFFEF710
:102900009BFCFEF79BFE3A4B01221A70384B0222C9
:102910005A70FB794C2B06D1354B01221A74344B7B
:1029200001225A7419E0FB79522B06D1304BFF2259
:102930001A742F4B01225A740FE0FB796C2B06D1CD
:102940002B4B01221A742A4BFF225A7405E0284BA4
:10295000FF221A74264BFF225A74254B93F910302C
:1029600007EE903AF8EEE77A9FED227A67EE877AE3
:102970001F4BC3ED057A1E4B93F91030002B01DD80
:102980001D4B00E01D4BFB60194B93F91130002BE0
:1029900005DAD7ED037AF1EE677AC7ED037A97EDA2
:1029A000030A174800F000FF114B93F9113007EEAE
:1029B000903AF8EEE77AB2EE047A67EE877AFDEEA7
:1029C000E76A0B4B93F9113007EE903AF8EEE77A8D
:1029D000B2EE047A67EE877AFDEEE77A17EE901A88
:1029E00016EE900AFEF712FC00BF1037BD4680BD00
:1029F0004C0500200000B4420000C8C20000C842DC
:102A00003005002080B594B000AFB84B1B78002B88
:102A100000F06781FEF720FEFEF702FE87ED0D0A4B
:102A2000B24B5B78022B6FD1B04B93ED057AD7EDAB
:102A30000D7A77EE677AC7ED057AD7ED057AF0EE75
:102A4000E77AB7EE007AF4EEC77AF1EE10FA12D810
:102A5000A64B00221A70A54B00225A7000210020BC
:102A6000FEF7D4FBA248FFF76FFE3220FFF700FE0F
:102A7000FFF7E2FD36E10A23FB64D7ED057AF0EEBD
:102A8000E77AC7ED047AD7ED047AB2EE047AF4EE71
:102A9000C77AF1EE10FA22D597ED047AF2EE046AC5
:102AA000C7EE267AC7ED037AD7ED037AB2EE047A41
:102AB00067EE877AB0EE670A0BF086F8B864BB6CF5
:102AC00007EE903AF8EEE77AB0EE087AF4EEC77ABD
:102AD000F1EE10FA01D50323BB64BB6CFB64834B9E
:102AE00093F911301A46FB6C02FB03F3BB607F4B7A
:102AF00093F911301A46FB6C02FB03F37B60796893
:102B0000B868FEF783FBEDE0FFF7EEFD3863FFF7F3
:102B1000F9FDF8623B6B83EAE372A2EBE372FB6AB6
:102B2000002BB8BF5B421344DA0F13445B10BB6247
:102B30006E4B5B68BA6A9A420CDB6C4B00221A70CF
:102B400000210020FEF762FB5020FFF791FDFFF708
:102B500073FDC7E0654B9B68BA6A9A421BDABB6A91
:102B600007EE903AF8EEE76A604B9B6807EE903A02
:102B7000B8EEE77AC6EE877AC7ED087AD7ED087A1D
:102B8000B2EE0E7A67EE877AB1EE047A77EE877A44
:102B9000C7ED117A28E0554BDB68BA6A9A4221DD0D
:102BA000524B5A68BB6AD31A07EE903AF8EEE76ABE
:102BB0004E4B5A684D4BDB68D31A07EE903AB8EE8D
:102BC000E77AC6EE877AC7ED097AD7ED097AB2EED1
:102BD0000E7A67EE877AB1EE047A77EE877AC7EDE0
:102BE000117A01E0434B7B64D7ED117AB1EE047AA0
:102BF000F4EEC77AF1EE10FA01D53F4B7B643B4B04
:102C00005A68BB6AD31A3B643B6C002B01DA002381
:102C10003B6497ED110A0AF0D7FFF863FA6B3B6C3F
:102C20009A4201DD3B6CFB63FB6B002B01DA002356
:102C3000FB63FB6B002B04D13B6C002B01DD0123FC
:102C4000FB63D7ED0D7AB0EE047A67EE877AB0EECB
:102C5000670A0AF0B9FF03465B42BB63FB6BDA0FFE
:102C600013445B101A46BB6B934204DDFB6BDA0F17
:102C700013445B10BB63FB6BDA0F13445B105B42C6
:102C80001A46BB6B934205DAFB6BDA0F13445B10F9
:102C90005B42BB63154B93F902301A46BB6B02FBD8
:102CA00003F3FA6BD31AFB61104B93F902301A4607
:102CB000BB6B02FB03F3FA6B1344BB610B4B93F941
:102CC00002301A46FB6903FB02F2084B93F902300B
:102CD0001946BB6901FB03F319461046FEF796FA45
:102CE00000E000BF5037BD4680BD00BF4C0500204E
:102CF000300500200000A0410000A04080B582B057
:102D000000AF0023FB7126E0FB79503BDBB20021D2
:102D1000184600F02BF80021002000F027F80021D1
:102D2000102000F023F80023BB710DE0BA79FB7985
:102D30000D49D2000A4413441B780121184600F0C3
:102D400015F8BB790133BB7197F90630002BEDDA2A
:102D5000FB790133FB71FB79072BD5D900BF00BF8D
:102D60000837BD4680BD00BF6405002080B584B033
:102D700000AF03460A46FB711346BB71BB79002BBB
:102D800006D001224FF400611E4801F0DDFC05E091
:102D900000224FF400611B4801F0D6FC0023FB73B6
:102DA00022E000224FF48041164801F0CDFC97F953
:102DB0000730002B06DA01224FF40051114801F0D0
:102DC000C3FC05E000224FF400510E4801F0BCFCAA
:102DD00001224FF480410B4801F0B6FCFB795B0007
:102DE000FB71FB7B0133FB73FB7B072BD9D90122E2
:102DF0004FF40061034801F0A7FC00BF1037BD4647
:102E000080BD00BF000C024080B582B000AF00233F
:102E1000FB7114E00023BB710AE0BA79FB790C491D
:102E2000D2000A44134400221A70BB790133BB71EB
:102E300097F90630002BF0DAFB790133FB71FB794F
:102E4000072BE7D9FFF75AFF00BF0837BD4680BD03
:102E50006405002080B485B000AF0346FB710B46CB
:102E6000BB7113467B710023FB7397F90730002B6E
:102E700041DBBB793F2B3ED8BB79DB08DBB2C3F12A
:102E80000703BB73BB7903F007037B737B7BC3F141
:102E90000703012202FA03F3FB737B79002B12D0A4
:102EA000FA79BB7B1749D2000A4413441878FA799F
:102EB000BB7BF97B0143C8B21249D2000A441344D8
:102EC00002461A7018E0FA79BB7B0E49D2000A4418
:102ED00013441B785AB297F90F30DB435BB21340AF
:102EE00059B2FA79BB7BC8B20649D2000A441344EE
:102EF00002461A7000E000BF1437BD465DF8047B3F
:102F0000704700BF6405002090B585B000AF04464F
:102F1000084611461A462346FB710346BB710B4611
:102F20007B7113463B71BB793B737B79203B7B7193
:102F30000023BB734DE03B790C2B0BD17A79B97B25
:102F4000284813465B0013449B0003440B441B7842
:102F5000FB7307E07A79BB7B234912010A441344CF
:102F60001B78FB7300237B732DE097F90F30002B48
:102F700007DA97F82020B979FB791846FFF76AFF3E
:102F80000CE097F82030002B0CBF01230023DBB2AC
:102F90001A46B979FB791846FFF75CFFFB7B5B00AB
:102FA000FB73BB790133BB71BA793B7BD21A3B7996
:102FB0009A4205D13B7BBB71FB790133FB7105E084
:102FC0007B7B01337B737B7B072BCED9BB7B0133B0
:102FD000BB73BA7B3B799A42ADD300BF00BF1437B5
:102FE000BD4690BD04DE000878E2000880B485B0DC
:102FF00000AF03460A46FB711346BB710123FB6019
:1030000004E0FA79FB6802FB03F3FB60BB795A1E0C
:10301000BA71002BF5D1FB6818461437BD465DF830
:10302000047B704790B587B002AF3A601A460346FA
:10303000FB710B46BB7113467B710023BB730023EE
:10304000FB7351E07A79FB7BD31ADBB2013BDBB235
:1030500019460A20FFF7CAFF02463B68B3FBF2F1AC
:10306000264BA3FB0123DA0813469B0013445B00A5
:10307000CA1A13467B73BB7B002B1DD1FA7B7B796D
:10308000013B9A4218DA7B7B002B13D197F8203052
:103090005B08DBB2FA7B12FB03F3DAB2FB79134471
:1030A000D8B297F82030B979012200922022FFF798
:1030B0002BFF16E00123BB7397F820305B08DBB2CF
:1030C000FA7B12FB03F3DAB2FB791344D8B27B7BB1
:1030D0003033DAB297F82030B97901240094FFF741
:1030E00013FFFB7B0133FB73FA7B7B799A42A9D3F5
:1030F00000BF00BF1437BD4690BD00BFCDCCCCCCC7
:1031000080B584B002AF03463A60FB710B46BB71D9
:103110001FE0FB797A2B04D90023FB71BB791033B4
:10312000BB71BB793A2B05D90023FB71FB79BB71CD
:10313000FFF76AFE3B681A78B979F87901230093A2
:103140000C23FFF7E1FEFB790833FB713B68013389
:103150003B603B681B78002BDBD100BF00BF08370A
:10316000BD4680BD80B500AF02F05AFC424B1B6FDC
:10317000414A23F0010313673F4B1B6F3E4A23F084
:103180000403136702F060FC00224FF480513B48B7
:1031900001F0DAFA642000F073FF01224FF480514D
:1031A000364801F0D1FA0021AE20FFF7DFFD002103
:1031B000D520FFF7DBFD00215020FFF7D7FD0021D0
:1031C000A820FFF7D3FD00213F20FFF7CFFD00210E
:1031D000D320FFF7CBFD00210020FFF7C7FD002122
:1031E0004020FFF7C3FD00218D20FFF7BFFD002128
:1031F0001420FFF7BBFD00212020FFF7B7FD0021C1
:103200000220FFF7B3FD0021A120FFF7AFFD002151
:10321000C020FFF7ABFD0021DA20FFF7A7FD00215A
:103220001220FFF7A3FD00218120FFF79FFD002161
:10323000EF20FFF79BFD0021D920FFF797FD00212C
:10324000F120FFF793FD0021DB20FFF78FFD002128
:103250003020FFF78BFD0021A420FFF787FD002120
:10326000A620FFF783FD0021AF20FFF77FFDFFF7CA
:10327000CBFD00BF80BD00BF00380240000C024003
:1032800080B487B000AF7861396187ED030AC7ED7C
:10329000020A87ED011AC7ED001A7B69002B4DD099
:1032A0003B69002B4AD03B691A687B691A603B690D
:1032B00004331A687B695A603B6908331A687B6972
:1032C0009A607B69FA685A627B69BA689A627B691C
:1032D0007A68DA627B693A681A637B694FF00002A8
:1032E0009A647B699A6C7B695A647B695A6C7B69C6
:1032F0001A647B694FF00002DA637B69DA6B7B69E1
:103300009A637B699A6B7B695A637B694FF0000211
:103310005A617B695A697B691A627B691A6A7B699F
:10332000DA617B69DA697B699A617B694FF0000237
:103330001A617B691A697B69DA6000E000BF1C379B
:10334000BD465DF8047B704780B485B000AFF8607F
:1033500087ED020AC7ED010AFB68002B02D14FF08E
:103360000003E5E0FB689A6BFB68DA63FB685A6B65
:10337000FB689A63FB687A68DA60FB68BA681A616E
:1033800097ED017AD7ED027A77EE677AFB68C3EDA5
:103390000D7AFB6893ED007AFB68D3ED0D7A67EE4A
:1033A000277AFB68C3ED067AFB6893ED077AFB6822
:1033B000D3ED016AFB68D3ED0D7A66EEA76AFB6870
:1033C000D3ED0C7A66EEA77A77EE277AFB68C3ED29
:1033D000077AFB6893ED077AFB68D3ED0A7AB4EEBF
:1033E000E77AF1EE10FA04DDFB689A6AFB68DA61AD
:1033F00014E0FB6893ED077AFB68D3ED0A7AF1EEEF
:10340000677AB4EEE77AF1EE10FA07D5FB68D3EDF0
:103410000A7AF1EE677AFB68C3ED077AFB685A6CAB
:10342000FB689A64FB681A6CFB685A64FB6893ED4E
:103430000D7AFB68D3ED0E7A77EE677AFB68C3ED01
:10344000107AFB68D3ED026AFB6893ED106AFB68A3
:10345000D3ED0C7AF5EEC07AF1EE10FA03DDFB68DD
:10346000D3ED0C7A01E0F7EE007A86EE277A66EE6D
:10347000877AFB68C3ED087AFB6893ED087AFB68EE
:10348000D3ED0B7AB4EEE77AF1EE10FA04DDFB68C7
:10349000DA6AFB681A6214E0FB6893ED087AFB684D
:1034A000D3ED0B7AF1EE677AB4EEE77AF1EE10FA2B
:1034B00007D5FB68D3ED0B7AF1EE677AFB68C3EDB5
:1034C000087AFB6893ED067AFB68D3ED077A37EE4E
:1034D000277AFB68D3ED087A77EE277AFB68C3ED8D
:1034E000057AFB6893ED057AFB68D3ED097AB4EEB3
:1034F000E77AF1EE10FA04DDFB685A6AFB685A615C
:1035000014E0FB6893ED057AFB68D3ED097AF1EEE0
:10351000677AB4EEE77AF1EE10FA07D5FB68D3EDDF
:10352000097AF1EE677AFB68C3ED057AFB685B699F
:1035300007EE903AB0EE670A1437BD465DF8047B9B
:10354000704780B483B000AF78607B68002B30D0C8
:103550007B684FF00002DA637B68DA6B7B689A6302
:103560007B689A6B7B685A637B684FF000029A64B1
:103570007B689A6C7B685A647B685A6C7B681A64B7
:103580007B684FF000021A627B681A6A7B68DA6116
:103590007B68DA697B689A617B689A697B685A61A3
:1035A0007B684FF00002DA607B68DA687B681A613A
:1035B00000E000BF0C37BD465DF8047B704780B566
:1035C00082B000AF78607B685B8A1946786800F04B
:1035D0009FF800BF0837BD4680BD80B485B000AFFE
:1035E00078600B467B807B8807EE903AF8EEE76ABE
:1035F0007B6893ED027AC6EE877AC7ED037AD7ED42
:10360000037AF5EEC07AF1EE10FA02D54FF000031E
:10361000FB607B68DB6807EE903AF8EE677A97ED1F
:10362000037AB4EEE77AF1EE10FA07DD7B68DB6827
:1036300007EE903AF8EE677AC7ED037AD7ED037A92
:10364000B6EE007A77EE877AFCEEE77A17EE903ADC
:1036500018461437BD465DF8047B704780B483B0CC
:1036600000AF78607B681B68DB6A18460C37BD4684
:103670005DF8047B704780B586B000AF7861396132
:10368000FA6087ED020AFB807B69002B18D07B690A
:103690003A691A607B69FA685A607B69BA689A600D
:1036A0003869FFF7DBFF02467B69DA607B69FA88DD
:1036B0001A827B693A8C5A827B69BA8C9A8200E0C2
:1036C00000BF1837BD4680BD80B584B000AF7860BC
:1036D0007B68002B03D07B681B68002B01D1012382
:1036E00012E07B681A687B685B681946104602F036
:1036F00031FF0346FB73FB7B002B01D0FB7B03E018
:103700007868FFF75CFF002318461037BD4680BD80
:1037100080B584B000AF78600B467B807B68002B5F
:103720003DD07B681B68002B39D07B681B8A7A8868
:103730009A4202D27B681B8A7B807B689B8A7A884C
:103740009A4202D97B689B8A7B807B88194678687D
:10375000FFF743FFF8607B685B68002B05D17B684F
:103760001B681B68FA685A631AE07B685B68042B65
:1037700005D17B681B681A68FB68936310E07B685F
:103780005B68082B05D17B681B681A68FB68D363EC
:1037900006E07B681B681A68FB68136400E000BFE2
:1037A0001037BD4680BD000080B586B000AF7860A0
:1037B00087ED000A7B68002B58D0D7ED007AF5EE34
:1037C000C07AF1EE10FA28D597ED007ADFED296A7C
:1037D000C7EE267AC7ED037A7B685B8A07EE903ADC
:1037E000B8EE677A7B685B8A1A467B681B8AD31AB5
:1037F00007EE903AF8EEE76AD7ED037A66EEA77A1D
:1038000077EE677AFCEEE77A17EE903A7B817B8958
:1038100019467868FFF77CFF29E097ED007ADFED25
:10382000166AC7EE267AC7ED057A7B685B8A07EED3
:10383000903AB8EE677A7B689B8A1A467B685B8A07
:10384000D31A07EE903AF8EEE76AD7ED057A66EEFE
:10385000A77A77EE277AFCEEE77A17EE903A7B822A
:103860007B8A19467868FFF753FF00E000BF1837DE
:10387000BD4680BD0000C8C20000C84280B582B00D
:1038800000AF00237B60124B5B6C114A43F4804312
:1038900053640F4B5B6C03F480437B607B680023B5
:1038A0003B600B4B1B6C0A4A43F080531364084B7C
:1038B0001B6C03F080533B603B6800220F216FF0CC
:1038C000010000F0DCFC00BF0837BD4680BD00BF32
:1038D0000038024080B58AB000AF786007F1140369
:1038E00000221A605A609A60DA601A617B681B686D
:1038F000194A93422CD100233B61184B1B6B174A8A
:1039000043F002031363154B1B6B03F002033B618F
:103910003B694FF440637B611223BB610023FB6171
:1039200003233B6204237B6207F1140319460C480E
:1039300000F06EFD0023FB60084B1B6C074A43F44C
:1039400080031364054B1B6C03F48003FB60FB686E
:1039500000BF2837BD4680BD0058004000380240F7
:103960000004024080B58CB000AF786007F11C0302
:1039700000221A605A609A60DA601A617B681B68DC
:10398000B3F1804F4BD10023BB613F4B1B6C3E4AD0
:1039900043F0010313643C4B1B6C03F00103BB6158
:1039A000BB6900237B61384B1B6B374A43F0010333
:1039B0001363354B1B6B03F001037B617B690023B1
:1039C0003B61314B1B6B304A43F0020313632E4BB8
:1039D0001B6B03F002033B613B694FF40043FB6147
:1039E00002233B6200237B620023BB620123FB6254
:1039F00007F11C031946254800F00AFD0823FB6166
:103A000002233B6200237B620023BB620123FB6233
:103A100007F11C0319461E4800F0FAFC30E07B68F1
:103A20001B681C4A93422BD10023FB60164B1B6C76
:103A3000154A43F002031364134B1B6C03F002039B
:103A4000FB60FB680023BB600F4B1B6B0E4A43F00F
:103A5000020313630C4B1B6B03F00203BB60BB68D8
:103A60003023FB6102233B6200237B620023BB62A5
:103A70000223FB6207F11C031946054800F0C8FC4D
:103A800000BF3037BD4680BD003802400000024014
:103A9000000402400004004080B586B000AF7860AA
:103AA0007B681B682C4A93420ED100237B612B4B11
:103AB0001B6C2A4A43F004031364284B1B6C03F06D
:103AC00004037B617B6942E07B681B68244A934264
:103AD00016D100233B61214B1B6C204A43F00803A5
:103AE00013641E4B1B6C03F008033B613B6900220F
:103AF0000521322000F0C3FB322000F0DCFB26E081
:103B00007B681B68174A93420ED10023FB60134B5E
:103B10005B6C124A43F002035364104B5B6C03F07E
:103B20000203FB60FB6812E07B681B680E4A93424D
:103B30000DD10023BB60094B5B6C084A43F4803312
:103B40005364064B5B6C03F48033BB60BB6800BFFF
:103B50001837BD4680BD00BF000800400038024055
:103B6000000C0040000401400040014080B58AB0D4
:103B700000AF786007F1140300221A605A609A605F
:103B8000DA601A617B681B68364A93421FD10023B2
:103B90003B61354B1B6B344A43F002031363324BDA
:103BA0001B6B03F002033B613B694FF440737B6185
:103BB0000223BB610023FB6100233B6202237B6283
:103BC00007F114031946294800F022FC46E07B68FF
:103BD0001B68274A93421ED10023FB60224B1B6BBC
:103BE000214A43F0040313631F4B1B6B03F00403D0
:103BF000FB60FB6840237B610223BB610023FB6108
:103C000002233B6203237B6207F114031946194820
:103C100000F0FEFB22E07B681B68174A93421DD12F
:103C20000023BB60104B1B6B0F4A43F01003136360
:103C30000D4B1B6B03F01003BB60BB6860237B6103
:103C40000223BB610023FB6100233B6203237B62F1
:103C500007F114031946094800F0DAFB00BF2837C2
:103C6000BD4680BD0008004000380240000402400C
:103C700000040140000802400040014000100240E2
:103C800080B58AB000AF786007F1140300221A6093
:103C90005A609A60DA601A617B681B681D4A934219
:103CA00034D100233B611C4B1B6C1B4A43F4802323
:103CB0001364194B1B6C03F480233B613B690023A5
:103CC000FB60154B1B6B144A43F008031363124B44
:103CD0001B6B03F00803FB60FB684FF440737B61D0
:103CE0000223BB610023FB6103233B6207237B624A
:103CF00007F114031946094800F08AFB0022052148
:103D0000272000F0BCFA272000F0D5FA00BF2837A2
:103D1000BD4680BD0048004000380240000C024013
:103D200080B400AF00BFFDE780B400AF00BFFDE787
:103D300080B400AF00BFFDE780B400AF00BFFDE777
:103D400080B400AF00BFFDE780B400AF00BFBD4648
:103D50005DF8047B704780B500AF00F071F906F0A4
:103D600033FA0346012B01D007F02EF800BF80BDC7
:103D700080B500AF024803F083FD00BF80BD00BFE7
:103D8000D004002080B500AF024802F0DFFD00BF84
:103D900080BD00BFF803002080B400AF01231846A7
:103DA000BD465DF8047B704780B582B000AF786097
:103DB000396007F0A9FF034616221A604FF0FF335F
:103DC00018460837BD4680BD80B582B000AF786028
:103DD0004FF0FF317868FFF7E7FF00BFFDE780B5E0
:103DE00086B000AFF860B9607A6000237B610AE0BA
:103DF000AFF300800146BB685A1CBA60CAB21A70A1
:103E00007B6901337B617A697B689A42F0DB7B686E
:103E100018461837BD4680BD80B586B000AFF86043
:103E2000B9607A6000237B6109E0BB685A1CBA6004
:103E30001B781846AFF300807B6901337B617A6998
:103E40007B689A42F1DB7B6818461837BD4680BD17
:103E500080B483B000AF78604FF0FF3318460C3762
:103E6000BD465DF8047B704780B483B000AF7860D6
:103E700039603B684FF400525A60002318460C37F3
:103E8000BD465DF8047B704780B483B000AF7860B6
:103E9000012318460C37BD465DF8047B704780B49B
:103EA00085B000AFF860B9607A6000231846143717
:103EB000BD465DF8047B704780B586B000AF786082
:103EC000144A154BD31A7B617B693B61134B1B680A
:103ED000002B02D1114B124A1A60104B1A687B68F2
:103EE00013443A699A4207D207F00EFF03460C22A8
:103EF0001A604FF0FF3309E0084B1B68FB60074B6B
:103F00001A687B681344054A1360FB681846183723
:103F1000BD4680BD000002200004000064090020AE
:103F20000854002080B400AF064BD3F88830054A0F
:103F300043F47003C2F8883000BFBD465DF8047BCF
:103F4000704700BF00ED00E0DFF834D0FFF7EAFF74
:103F50000C480D490D4A002302E0D458C4500433E4
:103F6000C4188C42F9D30A4A0A4C002301E01360BA
:103F70000432A242FBD307F0CDFEFDF7D9FB704718
:103F80000000022000000020E401002004EC0008F2
:103F9000E401002008540020FEE7000080B500AFD7
:103FA0000E4B1B680D4A43F4007313600B4B1B68E8
:103FB0000A4A43F480631360084B1B68074A43F4C2
:103FC00080731360032000F04FF90F2000F008F811
:103FD000FFF754FC0023184680BD00BF003C0240A0
:103FE00080B582B000AF7860124B1A68124B1B7814
:103FF00019464FF47A73B3FBF1F3B2FBF3F31846AF
:1040000000F067F90346002B01D001230EE07B6826
:104010000F2B0AD8002279684FF0FF3000F02FF9FB
:10402000064A7B681360002300E001231846083726
:10403000BD4680BD0C0000201400002010000020B0
:1040400080B400AF064B1B781A46064B1B6813441E
:10405000044A136000BFBD465DF8047B704700BF93
:10406000140000206809002080B400AF034B1B68D7
:104070001846BD465DF8047B704700BF6809002004
:1040800080B584B000AF7860FFF7EEFFB8607B6862
:10409000FB60FB68B3F1FF3F05D00A4B1B781A4663
:1040A000FB681344FB6000BFFFF7DEFF0246BB68FE
:1040B000D31AFA689A42F7D800BF00BF1037BD463E
:1040C00080BD00BF1400002080B485B000AF7860D0
:1040D0007B6803F00703FB600C4BDB68BB60BA68CE
:1040E0004FF6FF031340BB60FB681A02BB68134323
:1040F00043F0BF6343F40033BB60044ABB68D36042
:1041000000BF1437BD465DF8047B704700ED00E04A
:1041100080B400AF044BDB681B0A03F007031846AA
:10412000BD465DF8047B704700ED00E080B483B0CD
:1041300000AF0346FB7197F90730002B0BDBFB79CF
:1041400003F01F02074997F907305B09012000FAC5
:1041500002F241F8232000BF0C37BD465DF8047B16
:10416000704700BF00E100E080B483B000AF0346B9
:104170003960FB7197F90730002B0ADB3B68DAB234
:104180000C4997F907301201D2B20B4483F800238F
:104190000AE03B68DAB20849FB7903F00F03043BFD
:1041A0001201D2B20B441A7600BF0C37BD465DF83F
:1041B000047B704700E100E000ED00E080B489B0CE
:1041C00000AFF860B9607A60FB6803F00703FB6139
:1041D000FB69C3F10703042B28BF0423BB61FB6900
:1041E0000433062B02D9FB69033B00E000237B610B
:1041F0004FF0FF32BB6902FA03F3DA43BB681A409F
:104200007B699A404FF0FF317B6901FA03F3D94390
:104210007B680B40134318462437BD465DF8047B8A
:104220007047000080B582B000AF78607B68013BCA
:10423000B3F1807F01D301230FE00A4A7B68013B81
:1042400053600F214FF0FF30FFF78EFF054B002228
:104250009A60044B07221A60002318460837BD46AF
:1042600080BD00BF10E000E080B582B000AF786094
:104270007868FFF729FF00BF0837BD4680BD80B5CD
:1042800086B000AF0346B9607A60FB7300237B61A0
:10429000FFF73EFF78617A68B9687869FFF78EFFAB
:1042A000024697F90F3011461846FFF75DFF00BF31
:1042B0001837BD4680BD80B582B000AF0346FB71A4
:1042C00097F907301846FFF731FF00BF0837BD46A2
:1042D00080BD80B582B000AF78607868FFF7A2FF3C
:1042E000034618460837BD4680BD80B584B000AF90
:1042F00078607B689B6DFB60FFF7B6FEB8607B68FB
:1043000093F83530DBB2022B08D07B6880225A65E7
:104310007B68002283F83420012352E07B681B680D
:104320001A687B681B6822F016021A607B681B689B
:104330005A697B681B6822F080025A617B681B6C9B
:10434000002B03D17B689B6C002B07D07B681B681C
:104350001A687B681B6822F008021A607B681B6879
:104360001A687B681B6822F001021A6013E0FFF7ED
:104370007BFE0246BB68D31A052B0CD97B68202232
:104380005A657B68032283F835207B68002283F816
:104390003420032315E07B681B681B6803F00103CE
:1043A000002BE4D17B68DB6D3F229A40FB689A606A
:1043B0007B68012283F835207B68002283F8342053
:1043C000002318461037BD4680BD80B483B000AFCF
:1043D00078607B6893F83530DBB2022B04D07B68C1
:1043E00080225A6501230CE07B68052283F8352082
:1043F0007B681B681A687B681B6822F001021A60E0
:10440000002318460C37BD465DF8047B704700005A
:1044100080B489B000AF7860396000237B610023ED
:104420003B610023BB610023FB616BE10122FB695F
:1044300002FA03F37B613B681B687A6913403B61B6
:104440003A697B699A4240F05A813B685B6803F0A5
:104450000303012B05D03B685B6803F00303022BC9
:1044600030D17B689B68BB61FB695B00032202FA69
:1044700003F3DB43BA691340BB613B68DA68FB694D
:104480005B0002FA03F3BA691343BB617B68BA6944
:104490009A607B685B68BB610122FB6902FA03F3E7
:1044A000DB43BA691340BB613B685B681B0903F0DF
:1044B0000102FB6902FA03F3BA691343BB617B682B
:1044C000BA695A603B685B6803F00303032B17D09B
:1044D0007B68DB68BB61FB695B00032202FA03F3C4
:1044E000DB43BA691340BB613B689A68FB695B00B8
:1044F00002FA03F3BA691343BB617B68BA69DA60F5
:104500003B685B6803F00303022B23D1FB69DA08E5
:104510007B68083253F82230BB61FB6903F0070364
:104520009B000F2202FA03F3DB43BA691340BB611D
:104530003B681A69FB6903F007039B0002FA03F367
:10454000BA691343BB61FB69DA087B680832B96951
:1045500043F822107B681B68BB61FB695B00032288
:1045600002FA03F3DB43BA691340BB613B685B6843
:1045700003F00302FB695B0002FA03F3BA69134319
:10458000BB617B68BA691A603B685B6803F44033BF
:10459000002B00F0B4800023FB60604B5B6C5F4A33
:1045A00043F4804353645D4B5B6C03F48043FB60D6
:1045B000FB685B4AFB699B08023352F82330BB61FE
:1045C000FB6903F003039B000F2202FA03F3DB43B2
:1045D000BA691340BB617B68524A93422BD07B6817
:1045E000514A934225D07B68504A93421FD07B6842
:1045F0004F4A934219D07B684E4A934213D07B684E
:104600004D4A93420DD07B684C4A934207D07B6859
:104610004B4A934201D107230EE008230CE0062306
:104620000AE0052308E0042306E0032304E0022354
:1046300002E0012300E00023FA6902F00302920085
:104640009340BA691343BB613549FB699B08023348
:10465000BA6941F823203B4B9B68BB613B69DB4354
:10466000BA691340BB613B685B6803F48013002B9D
:1046700003D0BA693B691343BB61324ABB6993609B
:10468000304BDB68BB613B69DB43BA691340BB61FC
:104690003B685B6803F40013002B03D0BA693B69E5
:1046A0001343BB61274ABB69D360264B5B68BB6180
:1046B0003B69DB43BA691340BB613B685B6803F449
:1046C0000033002B03D0BA693B691343BB611D4A19
:1046D000BB6953601B4B1B68BB613B69DB43BA6919
:1046E0001340BB613B685B6803F48033002B03D04D
:1046F000BA693B691343BB61124ABB691360FB692A
:104700000133FB61FB690F2B7FF690AE00BF00BF4A
:104710002437BD465DF8047B704700BF0038024077
:10472000003801400000024000040240000802403E
:10473000000C024000100240001402400018024029
:10474000001C0240003C014080B483B000AF7860A0
:104750000B467B8013467B707B78002B03D07A88D6
:104760007B689A6103E07B881A047B689A6100BFCA
:104770000C37BD465DF8047B7047000080B584B0FF
:1047800000AF78607B68002B01D101232BE17B68AF
:1047900093F83D30DBB2002B06D17B68002283F812
:1047A0003C207868FFF796F87B68242283F83D2048
:1047B0007B681B681A687B681B6822F001021A601C
:1047C0007B681B681A687B681B6842F400421A60A9
:1047D0007B681B681A687B681B6822F400421A60B9
:1047E00001F076FDF8607B685B68814A934207D8E8
:1047F000FB68804A934294BF01230023DBB206E0AA
:10480000FB687D4A934294BF01230023DBB2002B57
:1048100001D00123E7E0FB68784AA2FB03239B0C4D
:10482000BB607B681B685B6823F03F017B681B688B
:10483000BA680A435A607B681B681B6A23F03F0111
:104840007B685B686A4A934202D8BB68013309E01F
:10485000BB684FF4967202FB03F3694AA2FB032381
:104860009B0901337A6812680B4313627B681B68EB
:10487000DB6923F44F4222F0FF027B685B685C49EE
:104880008B4219D8FB68591E7B685B685B00B1FBE3
:10489000F3F3591C40F6FC730B40002B0AD0FB6865
:1048A000591E7B685B685B00B1FBF3F30133C3F314
:1048B0000B0351E004234FE07B689B68002B11D170
:1048C000FB68581E7B6859680B465B000B44B0FBC5
:1048D000F3F30133C3F30B03002B0CBF01230023BD
:1048E000DBB212E0FB68581E7B6859680B469B00E0
:1048F0000B4499000B44B0FBF3F30133C3F30B03F8
:10490000002B0CBF01230023DBB2002B01D00123BD
:1049100022E07B689B68002B0ED1FB68581E7B68E9
:1049200059680B465B000B44B0FBF3F30133C3F350
:104930000B0343F400430FE0FB68581E7B68596883
:104940000B469B000B4499000B44B0FBF3F301337F
:10495000C3F30B0343F44043796809681343CB6105
:104960007B681B681B6823F0C0017B68DA697B6881
:104970001B6A1A437B681B680A431A607B681B68C2
:104980009B6823F4034323F0FF037A6811697A6874
:10499000D26811437A6812680B4393607B681B6886
:1049A000DB6823F0FF017B685A697B689B691A43C7
:1049B0007B681B680A43DA607B681B681A687B683F
:1049C0001B6842F001021A607B6800221A647B684F
:1049D000202283F83D207B6800221A637B68002236
:1049E00083F83E20002318461037BD4680BD00BF27
:1049F000A08601007F841E00FF083D0083DE1B436C
:104A0000D34D621080B588B002AFF86008461146F9
:104A10001A4603467B810B463B811346FB80FFF71A
:104A200023FB7861FB6893F83D30DBB2202B40F02C
:104A3000D9807B690093192301226D49F86800F041
:104A4000B9FD0346002B01D00223CCE0FB6893F8AC
:104A50003C30012B01D10223C5E0FB68012283F821
:104A60003C20FB681B681B6803F00103012B07D087
:104A7000FB681B681A68FB681B6842F001021A6039
:104A8000FB681B681A68FB681B6822F400621A60E6
:104A9000FB68212283F83D20FB68402283F83E20FA
:104AA000FB6800221A64FB683A6A5A62FB68BA8C97
:104AB0005A85FB685B8D9AB2FB681A85FB684D4A84
:104AC000DA62F8883A8979897B690193BB6A009335
:104AD0000346F86800F0F0FB0346002B52D0012398
:104AE00081E07A69B96AF86800F07EFE0346002B1F
:104AF0000DD0FB681B6C042B07D1FB681B681A6880
:104B0000FB681B6842F400721A6001236BE0FB68CB
:104B10005B6A1A78FB681B681A61FB685B6A5A1C3F
:104B2000FB685A62FB681B8D013B9AB2FB681A85D1
:104B3000FB685B8D9BB2013B9AB2FB685A85FB68B0
:104B40001B685B6903F00403042B1BD1FB681B8DFE
:104B5000002B17D0FB685B6A1A78FB681B681A6128
:104B6000FB685B6A5A1CFB685A62FB681B8D013B41
:104B70009AB2FB681A85FB685B8D9BB2013B9AB2C7
:104B8000FB685A85FB681B8D002BAAD17A69B96A2C
:104B9000F86800F071FE0346002B0DD0FB681B6C1B
:104BA000042B07D1FB681B681A68FB681B6842F47A
:104BB00000721A60012316E0FB681B681A68FB6824
:104BC0001B6842F400721A60FB68202283F83D20C3
:104BD000FB68002283F83E20FB68002283F83C201B
:104BE000002300E0022318461837BD4680BD00BFF1
:104BF000020010000000FFFF80B58CB002AFF8602B
:104C0000084611461A4603467B810B463B811346F4
:104C1000FB80FFF729FA7862FB6893F83D30DBB23E
:104C2000202B40F014827B6A0093192301227B49D8
:104C3000F86800F0BFFC0346002B01D0022307E216
:104C4000FB6893F83C30012B01D1022300E2FB68A2
:104C5000012283F83C20FB681B681B6803F00103FA
:104C6000012B07D0FB681B681A68FB681B6842F0C1
:104C700001021A60FB681B681A68FB681B6822F453
:104C800000621A60FB68222283F83D20FB68402204
:104C900083F83E20FB6800221A64FB683A6B5A6274
:104CA000FB68BA8E5A85FB685B8D9AB2FB681A85E1
:104CB000FB685B4ADA62F8883A8979897B6A0193F2
:104CC000BB6B00930346F86800F08CFB0346002B97
:104CD00001D00123BCE1FB681B8D002B13D1002305
:104CE0003B62FB681B685B693B62FB681B689B69F6
:104CF0003B623B6AFB681B681A68FB681B6842F4EE
:104D000000721A6090E1FB681B8D012B1BD1FB68C0
:104D10001B681A68FB681B6822F480621A60002313
:104D2000FB61FB681B685B69FB61FB681B689B6937
:104D3000FB61FB69FB681B681A68FB681B6842F42F
:104D400000721A6070E1FB681B8D022B1BD1FB689F
:104D50001B681A68FB681B6822F480621A60FB6893
:104D60001B681A68FB681B6842F400621A60002323
:104D7000BB61FB681B685B69BB61FB681B689B6967
:104D8000BB61BB6950E100237B61FB681B685B6909
:104D90007B61FB681B689B697B617B6944E1FB6805
:104DA0001B8D032B00F2F180FB681B8D012B23D19F
:104DB0007A6AB96BF86800F0A7FD0346002B01D0B2
:104DC000012345E1FB681B681A69FB685B6AD2B284
:104DD0001A70FB685B6A5A1CFB685A62FB681B8D81
:104DE000013B9AB2FB681A85FB685B8D9BB2013B65
:104DF0009AB2FB685A8517E1FB681B8D022B4ED1D6
:104E00007B6A0093BB6B00220649F86800F0D2FB76
:104E10000346002B08D001231AE100BF0200100056
:104E20000000FFFF04000100FB681B681A68FB68B4
:104E30001B6842F400721A60FB681B681A69FB6801
:104E40005B6AD2B21A70FB685B6A5A1CFB685A62D2
:104E5000FB681B8D013B9AB2FB681A85FB685B8D72
:104E60009BB2013B9AB2FB685A85FB681B681A69C2
:104E7000FB685B6AD2B21A70FB685B6A5A1CFB68FB
:104E80005A62FB681B8D013B9AB2FB681A85FB686E
:104E90005B8D9BB2013B9AB2FB685A85C4E07B6A8A
:104EA0000093BB6B00226C49F86800F083FB03465B
:104EB000002B01D00123CBE0FB681B681A68FB685C
:104EC0001B6822F480621A60FB681B681A69FB6821
:104ED0005B6AD2B21A70FB685B6A5A1CFB685A6242
:104EE000FB681B8D013B9AB2FB681A85FB685B8DE2
:104EF0009BB2013B9AB2FB685A857B6A0093BB6BFD
:104F000000225549F86800F055FB0346002B01D0FC
:104F100001239DE0FB681B681A68FB681B6842F46C
:104F200000721A60FB681B681A69FB685B6AD2B280
:104F30001A70FB685B6A5A1CFB685A62FB681B8D1F
:104F4000013B9AB2FB681A85FB685B8D9BB2013B03
:104F50009AB2FB685A85FB681B681A69FB685B6A32
:104F6000D2B21A70FB685B6A5A1CFB685A62FB6813
:104F70001B8D013B9AB2FB681A85FB685B8D9BB267
:104F8000013B9AB2FB685A854EE07A6AB96BF868C1
:104F900000F0BAFC0346002B01D0012358E0FB6867
:104FA0001B681A69FB685B6AD2B21A70FB685B6A9D
:104FB0005A1CFB685A62FB681B8D013B9AB2FB6866
:104FC0001A85FB685B8D9BB2013B9AB2FB685A85E0
:104FD000FB681B685B6903F00403042B24D1FB68A6
:104FE0001B8D032B07D1FB681B681A68FB681B68C5
:104FF00022F480621A60FB681B681A69FB685B6AAE
:10500000D2B21A70FB685B6A5A1CFB685A62FB6872
:105010001B8D013B9AB2FB681A85FB685B8D9BB2C6
:10502000013B9AB2FB685A85FB681B8D002B7FF40D
:10503000B6AEFB68202283F83D20FB68002283F88F
:105040003E20FB68002283F83C20002300E002237E
:1050500018462837BD4680BD0400010080B58AB0DF
:1050600002AFF8607A603B600B467B81FEF7FCFF85
:10507000F8610023BB61FB6893F83D30DBB2202B65
:1050800040F01181FB690093192301228849F868D7
:1050900000F090FA0346002B01D0022304E1FB68E4
:1050A00093F83C30012B01D10223FDE0FB68012283
:1050B00083F83C20FB681B681B6803F00103012B8D
:1050C00007D0FB681B681A68FB681B6842F0010286
:1050D0001A60FB681B681A68FB681B6822F4006290
:1050E0001A60FB68242283F83D20FB6800221A64C2
:1050F000FB68704ADA62FB681B681A68FB681B6809
:1051000042F480721A60FB6900933B6800224FF002
:105110000111F86800F04EFA0346002B0DD0FB6831
:105120001B681B6803F48073B3F5807F03D1FB68B1
:105130004FF400721A640323B6E07B89DBB21A468F
:10514000FB681B6802F0FE021A61FEF78DFFF86132
:10515000FB681B685B6903F00203022B0CBF012391
:105160000023DBB2FB75FB681B685B6903F480639B
:10517000B3F5806F0CBF01230023DBB2BB7525E0C4
:10518000FEF772FF0246FB69D31A3A689A4202D3CD
:105190003B68002B03D1FB68A02283F83D20FB680D
:1051A0001B685B6903F00203022B0CBF0123002381
:1051B000DBB2FB75FB681B685B6903F48063B3F5C6
:1051C000806F0CBF01230023DBB2BB75FB6893F833
:1051D0003D30DBB2A02B05D0FB7D002B02D1BB7D87
:1051E000002BCDD0FB68202283F83D20FB681B6894
:1051F0005B6903F00203022B29D1FB681B681A6864
:10520000FB681B6842F400721A6000233B61FB6874
:105210001B685B693B61FB681B689B693B613B6981
:10522000FB690093192301222149F86800F0C2F9B3
:105230000346002B01D0012336E0FB68202283F8CF
:105240003D20FB68002283F83C2000232CE0FB6813
:105250001B681A68FB681B6842F400721A60FB68DE
:105260001B686FF480625A61FB6900931923012265
:105270000F49F86800F09EF90346002B01D0012386
:1052800012E0BB690133BB61BA697B689A42FFF4E3
:1052900032AFFB68202283F83D20FB68002283F8B0
:1052A0003C20012300E0022318462037BD4680BD84
:1052B000020010000000FFFF80B588B002AFF86068
:1052C000084611461A4603467B810B463B8113462E
:1052D000FB80FB681B681A68FB681B6842F48072DD
:1052E0001A607B6A00933B6A00224FF00111F86854
:1052F00000F060F90346002B0DD0FB681B681B68AB
:1053000003F48073B3F5807F03D1FB684FF4007220
:105310001A6403235FE07B89DBB21A46FB681B68D3
:1053200002F0FE021A617B6A3A6A2D49F86800F0C1
:10533000BBF90346002B01D001234CE000237B6125
:10534000FB681B685B697B61FB681B689B697B6111
:105350007B697A6A396AF86800F046FA0346002BDE
:105360000DD0FB681B6C042B07D1FB681B681A6807
:10537000FB681B6842F400721A6001232BE0FB8873
:10538000012B05D13B89DAB2FB681B681A6121E069
:105390003B891B0A9BB2DAB2FB681B681A617A6A06
:1053A000396AF86800F020FA0346002B0DD0FB683C
:1053B0001B6C042B07D1FB681B681A68FB681B6811
:1053C00042F400721A60012305E03B89DAB2FB68FF
:1053D0001B681A61002318461837BD4680BD00BF00
:1053E0000200010080B588B002AFF860084611469F
:1053F0001A4603467B810B463B811346FB80FB68C4
:105400001B681A68FB681B6842F480621A60FB68BC
:105410001B681A68FB681B6842F480721A607B6A1A
:1054200000933B6A00224FF00111F86800F0C2F8C7
:105430000346002B0DD0FB681B681B6803F48073C8
:10544000B3F5807F03D1FB684FF400721A64032325
:10545000AAE07B89DBB21A46FB681B6802F0FE02F9
:105460001A617B6A3A6A5249F86800F01DF90346EE
:10547000002B01D0012397E000237B61FB681B68B0
:105480005B697B61FB681B689B697B617B697A6AEE
:10549000396AF86800F0A8F90346002B0DD0FB68C4
:1054A0001B6C042B07D1FB681B681A68FB681B6820
:1054B00042F400721A60012376E0FB88012B05D1CB
:1054C0003B89DAB2FB681B681A6121E03B891B0A41
:1054D0009BB2DAB2FB681B681A617A6A396AF868AB
:1054E00000F082F90346002B0DD0FB681B6C042BE7
:1054F00007D1FB681B681A68FB681B6842F40072DE
:105500001A60012350E03B89DAB2FB681B681A611C
:105510007A6A396AF86800F067F90346002B0DD003
:10552000FB681B6C042B07D1FB681B681A68FB68BF
:105530001B6842F400721A60012335E0FB681B68A7
:105540001A68FB681B6842F480721A607B6A0093D9
:105550003B6A00224FF00111F86800F02BF8034677
:10556000002B0DD0FB681B681B6803F48073B3F538
:10557000807F03D1FB684FF400721A64032313E0A9
:105580007B89DBB243F00103DAB2FB681B681A6166
:105590007B6A3A6A0649F86800F086F80346002BF1
:1055A00001D0012300E0002318461837BD4680BD16
:1055B0000200010080B584B000AFF860B9603B60C4
:1055C0001346FB7148E03B68B3F1FF3F44D0FEF760
:1055D0004BFD0246BB69D31A3A689A4202D33B6834
:1055E000002B39D1BB681B0CDBB2012B0DD1FB6842
:1055F0001B685B69DA43BB6813409BB2002B0CBF8E
:1056000001230023DBB21A460CE0FB681B689B6990
:10561000DA43BB6813409BB2002B0CBF012300236D
:10562000DBB21A46FB799A4216D1FB6800221A6354
:10563000FB68202283F83D20FB68002283F83E208F
:10564000FB681B6C43F02002FB681A64FB680022B5
:1056500083F83C20012323E0BB681B0CDBB2012B49
:105660000DD1FB681B685B69DA43BB6813409BB2D2
:10567000002B0CBF01230023DBB21A460CE0FB68B1
:105680001B689B69DA43BB6813409BB2002B0CBFBD
:1056900001230023DBB21A46FB799A4293D0002300
:1056A00018461037BD4680BD80B584B000AFF860A5
:1056B000B9607A603B6071E0FB681B685B6903F46A
:1056C0008063B3F5806F23D1FB681B681A68FB68A1
:1056D0001B6842F400721A60FB681B686FF48062FA
:1056E0005A61FB6800221A63FB68202283F83D2080
:1056F000FB68002283F83E20FB681B6C43F0040229
:10570000FB681A64FB68002283F83C20012367E0F1
:105710007B68B3F1FF3F41D0FEF7A6FC02463B6831
:10572000D31A7A689A4202D37B68002B36D1BB68C1
:105730001B0CDBB2012B0CD1FB681B685B69DA43E5
:10574000BB6813409BB2002B14BF01230023DBB2C4
:105750000BE0FB681B689B69DA43BB6813409BB294
:10576000002B14BF01230023DBB2002B16D0FB68F3
:1057700000221A63FB68202283F83D20FB68002288
:1057800083F83E20FB681B6C43F02002FB681A6420
:10579000FB68002283F83C20012321E0BB681B0C3E
:1057A000DBB2012B0CD1FB681B685B69DA43BB6879
:1057B00013409BB2002B14BF01230023DBB20BE08C
:1057C000FB681B689B69DA43BB6813409BB2002BE4
:1057D00014BF01230023DBB2002B7FF46DAF002345
:1057E00018461037BD4680BD80B584B000AFF86064
:1057F000B9607A6034E0F86800F0E3F80346002B03
:1058000001D0012334E0BB68B3F1FF3F28D0FEF79D
:105810002BFC02467B68D31ABA689A4202D3BB6853
:10582000002B1DD1FB681B685B6903F08003802B94
:1058300016D0FB6800221A63FB68202283F83D2003
:10584000FB68002283F83E20FB681B6C43F02002BB
:10585000FB681A64FB68002283F83C20012307E000
:10586000FB681B685B6903F08003802BC3D10023B6
:1058700018461037BD4680BD80B584B000AFF860D3
:10588000B9607A6034E0F86800F09BF80346002BBA
:1058900001D0012334E0BB68B3F1FF3F28D0FEF70D
:1058A000E3FB02467B68D31ABA689A4202D3BB680C
:1058B000002B1DD1FB681B685B6903F00403042BFC
:1058C00016D0FB6800221A63FB68202283F83D2073
:1058D000FB68002283F83E20FB681B6C43F020022B
:1058E000FB681A64FB68002283F83C20012307E070
:1058F000FB681B685B6903F00403042BC3D100231E
:1059000018461037BD4680BD80B584B000AFF86042
:10591000B9607A6049E0FB681B685B6903F01003BB
:10592000102B19D1FB681B686FF010025A61FB68DD
:1059300000221A63FB68202283F83D20FB680022C6
:1059400083F83E20FB681A6CFB681A64FB6800222F
:1059500083F83C20012330E0FEF786FB02467B689B
:10596000D31ABA689A4202D3BB68002B1DD1FB68D8
:105970001B685B6903F04003402B16D0FB680022D4
:105980001A63FB68202283F83D20FB68002283F81D
:105990003E20FB681B6C43F02002FB681A64FB6826
:1059A000002283F83C20012307E0FB681B685B6949
:1059B00003F04003402BAED1002318461037BD46FC
:1059C00080BD80B483B000AF78607B681B685B6982
:1059D00003F48063B3F5806F1BD17B681B686FF4A1
:1059E00080625A617B6800221A637B68202283F8F8
:1059F0003D207B68002283F83E207B681B6C43F0CF
:105A000004027B681A647B68002283F83C2001232F
:105A100000E0002318460C37BD465DF8047B704754
:105A200080B483B000AF064B01221A60054B1B689F
:105A30007B607B6800BF0C37BD465DF8047B704718
:105A400020000E420070004080B483B000AF064BCF
:105A500000221A60054B1B687B607B6800BF0C3717
:105A6000BD465DF8047B704720000E420070004088
:105A700080B586B000AF78607B68002B01D1012330
:105A800067E27B681B6803F00103002B75D0884B2D
:105A90009B6803F00C03042B0CD0854B9B6803F030
:105AA0000C03082B12D1824B5B6803F48003B3F51F
:105AB000800F0BD17E4B1B6803F40033002B5BD0AF
:105AC0007B685B68002B57D1012342E27B685B68EF
:105AD000B3F5803F06D1764B1B68754A43F480339B
