:020000040800F2
:1000000000000220E14900087D47000885470008FC
:100010008D470008954700089D4700080000000034
:1000200000000000000000000000000041BE0008C9
:10003000A54700080000000091C00008B347000871
:10004000314A0008314A0008314A0008314A0008A4
:10005000314A0008314A0008314A0008314A000894
:10006000314A0008314A0008314A0008314A000884
:10007000314A0008314A0008314A0008314A000874
:10008000314A0008314A0008314A0008314A000864
:10009000314A0008314A0008314A0008314A000854
:1000A000314A0008314A0008314A0008314A000844
:1000B000314A0008314A0008314A0008314A000834
:1000C000314A0008314A0008314A0008314A000824
:1000D000314A0008314A0008314A0008CD4700087B
:1000E000314A0008314A0008314A0008E147000857
:1000F000314A0008314A0008314A0008314A0008F4
:10010000314A0008314A0008FD470008314A00081A
:10011000314A0008314A0008314A0008314A0008D3
:10012000314A0008314A0008314A0008314A0008C3
:10013000314A0008314A0008314A0008314A0008B3
:10014000314A0008314A0008314A0008314A0008A3
:10015000314A0008314A0008314A0008314A000893
:10016000314A0008314A0008314A0008314A000883
:10017000314A0008314A0008314A000800000000F6
:08018000314A0008314A000871
:1001900010B5054C237833B9044B13B10448AFF3C1
:1001A00000800123237010BDF0010020000000003A
:1001B00000FA000808B5034B1BB103490348AFF32D
:1001C000008008BD00000000F401002000FA0008D3
:1001D00001F0FF01102A2BDB10F0070F08D010F8F8
:1001E000013B013A8B422DD010F0070F42B3F6D1FC
:1001F000F0B441EA012141EA014122F007047FF015
:1002000000070023F0E80256083C85EA010586EA6B
:10021000010685FA47F5A3FA87F586FA47F6A5FAA7
:1002200087F68EB9EED1F0BC01F0FF0102F00702B3
:1002300032B110F8013B013A83EA010313B1F8D15E
:100240000020704701387047002D06BF354603383F
:10025000073815F0010F07D1013015F4807F02BF78
:10026000013015F4C03F0130F0BC0138704700BFC9
:10027000034613F8012B002AFBD1181A01387047E6
:1002800081F0004102E000BF83F0004330B54FEA47
:1002900041044FEA430594EA050F08BF90EA020FB4
:1002A0001FBF54EA000C55EA020C7FEA645C7FEA47
:1002B000655C00F0E2804FEA5454D4EB5555B8BF6A
:1002C0006D420CDD2C4480EA020281EA030382EADB
:1002D000000083EA010180EA020281EA0303362D6D
:1002E00088BF30BD11F0004F4FEA01314FF4801C40
:1002F0004CEA113102D0404261EB410113F0004F52
:100300004FEA03334CEA133302D0524263EB430308
:1003100094EA050F00F0A780A4F10104D5F1200EA6
:100320000DDB02FA0EFC22FA05F2801841F1000101
:1003300003FA0EF2801843FA05F359410EE0A5F1D5
:1003400020050EF1200E012A03FA0EFC28BF4CF006
:10035000020C43FA05F3C01851EBE37101F00045BC
:1003600007D54FF0000EDCF1000C7EEB00006EEBC9
:100370000101B1F5801F1BD3B1F5001F0CD3490853
:100380005FEA30004FEA3C0C04F101044FEA4452AA
:1003900012F5800F80F09A80BCF1004F08BF5FEA31
:1003A000500C50F1000041EB045141EA050130BD11
:1003B0005FEA4C0C404141EB0101013C28BFB1F523
:1003C000801FE9D291F0000F04BF01460020B1FA6E
:1003D00081F308BF2033A3F10B03B3F120020CDA41
:1003E0000C3208DD02F1140CC2F10C0201FA0CF01F
:1003F00021FA02F10CE002F11402D8BFC2F1200C84
:1004000001FA02F120FA0CFCDCBF41EA0C01904039
:10041000E41AA2BF01EB0451294330BD6FEA040482
:100420001F3C1CDA0C340EDC04F11404C4F120026D
:1004300020FA04F001FA02F340EA030021FA04F37F
:1004400045EA030130BDC4F10C04C4F1200220FAD6
:1004500002F001FA04F340EA0300294630BD21FA14
:1004600004F0294630BD94F0000F83F4801306BFDA
:1004700081F480110134013D4EE77FEA645C18BFCE
:100480007FEA655C29D094EA050F08BF90EA020F65
:1004900005D054EA000C04BF1946104630BD91EA5D
:1004A000030F1EBF0021002030BD5FEA545C05D160
:1004B0004000494128BF41F0004130BD14F580049F
:1004C0003CBF01F5801130BD01F0004545F0FE4113
:1004D00041F470014FF0000030BD7FEA645C1ABF48
:1004E000194610467FEA655C1CBF0B46024650EA7F
:1004F000013406BF52EA033591EA030F41F40021AB
:1005000030BD00BF90F0000F04BF0021704730B530
:100510004FF4806404F132044FF000054FF0000105
:1005200050E700BF90F0000F04BF0021704730B5C6
:100530004FF4806404F1320410F0004548BF40429B
:100540004FF000013EE700BF42004FEAE2014FEAF0
:1005500031014FEA02701FBF12F07F4393F07F4FCB
:1005600081F06051704732F07F4208BF704793F0CE
:100570007F4F04BF41F40021704730B54FF46074E1
:1005800001F0004521F000411CE700BF50EA0102E4
:1005900008BF704730B54FF000050AE050EA01028D
:1005A00008BF704730B511F0004502D5404261EBFD
:1005B00041014FF4806404F132045FEA915C3FF43E
:1005C000D8AE4FF003025FEADC0C18BF03325FEADB
:1005D000DC0C18BF033202EBDC02C2F1200300FA8C
:1005E00003FC20FA02F001FA03FE40EA0E0021FAB1
:1005F00002F11444BDE600BF70B54FF0FF0C4CF49F
:10060000E06C1CEA11541DBF1CEA135594EA0C0F50
:1006100095EA0C0F00F0DEF82C4481EA030621EA8B
:100620004C5123EA4C5350EA013518BF52EA0335C6
:1006300041F4801143F4801338D0A0FB02CE4FF078
:100640000005E1FB02E506F00042E0FB03E54FF0A8
:100650000006E1FB03569CF0000F18BF4EF0010EA0
:10066000A4F1FF04B6F5007F64F5407404D25FEA9C
:100670004E0E6D4146EB060642EAC62141EA55514F
:100680004FEAC52040EA5E504FEACE2EB4F1FD0C91
:1006900088BFBCF5E06F1ED8BEF1004F08BF5FEA0F
:1006A000500E50F1000041EB045170BD06F00046C1
:1006B00046EA010140EA020081EA0301B4EB5C046E
:1006C000C2BFD4EB0C0541EA045170BD41F4801166
:1006D0004FF0000E013C00F3AB8014F1360FDEBF8B
:1006E000002001F0004170BDC4F10004203C35DA67
:1006F0000C341BDC04F11404C4F1200500FA05F3EA
:1007000020FA04F001FA05F240EA020001F000428A
:1007100021F0004110EBD37021FA04F642EB060100
:100720005EEA430E08BF20EAD37070BDC4F10C042A
:10073000C4F1200500FA04F320FA05F001FA04F2EE
:1007400040EA020001F0004110EBD37041F10001DA
:100750005EEA430E08BF20EAD37070BDC4F12005E5
:1007600000FA05F24EEA020E20FA04F301FA05F24D
:1007700043EA020321FA04F001F0004121FA04F2F5
:1007800020EA020000EBD3705EEA430E08BF20EAC5
:10079000D37070BD94F0000F0FD101F000464000FF
:1007A00041EB010111F4801F08BF013CF7D041EA81
:1007B000060195F0000F18BF704703F00046520085
:1007C00043EB030313F4801F08BF013DF7D043EA56
:1007D0000603704794EA0C0F0CEA135518BF95EA0C
:1007E0000C0F0CD050EA410618BF52EA4306D1D193
:1007F00081EA030101F000414FF0000070BD50EAB2
:10080000410606BF1046194652EA430619D094EA3B
:100810000C0F02D150EA013613D195EA0C0F05D125
:1008200052EA03361CBF104619460AD181EA030179
:1008300001F0004141F0FE4141F470014FF0000031
:1008400070BD41F0FE4141F4780170BD70B54FF0CC
:10085000FF0C4CF4E06C1CEA11541DBF1CEA13554C
:1008600094EA0C0F95EA0C0F00F0A7F8A4EB05042E
:1008700081EA030E52EA03354FEA013100F0888025
:100880004FEA03334FF0805545EA131343EA1263EE
:100890004FEA022245EA111545EA10654FEA0026A3
:1008A0000EF000419D4208BF964244F1FD0404F55C
:1008B000407402D25B084FEA3202B61A65EB0305B8
:1008C0005B084FEA32024FF480104FF4002CB6EB75
:1008D000020E75EB030E22BFB61A754640EA0C00F5
:1008E0005B084FEA3202B6EB020E75EB030E22BF35
:1008F000B61A754640EA5C005B084FEA3202B6EB76
:10090000020E75EB030E22BFB61A754640EA9C0034
:100910005B084FEA3202B6EB020E75EB030E22BF04
:10092000B61A754640EADC0055EA060E18D04FEAC2
:10093000051545EA16754FEA06164FEAC30343EA62
:1009400052734FEAC2025FEA1C1CC0D111F4801F2F
:100950000BD141EA00014FF000004FF0004CB6E728
:1009600011F4801F04BF01430020B4F1FD0C88BFC7
:10097000BCF5E06F3FF6AFAEB5EB030C04BFB6EBD2
:10098000020C5FEA500C50F1000041EB045170BDC5
:100990000EF0004E4EEA113114EB5C04C2BFD4EBF2
:1009A0000C0541EA045170BD41F480114FF0000E76
:1009B000013C90E645EA060E8DE60CEA135594EAF2
:1009C0000C0F08BF95EA0C0F3FF43BAF94EA0C0FF5
:1009D0000AD150EA01347FF434AF95EA0C0F7FF46A
:1009E00025AF104619462CE795EA0C0F06D152EABE
:1009F00003353FF4FDAE1046194622E750EA4106A2
:100A000018BF52EA43067FF4C5AE50EA41047FF4B2
:100A10000DAF52EA43057FF4EBAE12E74FF0FF3C17
:100A200006E000BF4FF0010C02E000BF4FF0010CE8
:100A30004DF804CD4FEA410C7FEA6C5C4FEA430C61
:100A400018BF7FEA6C5C1BD001B050EA410C0CBFB0
:100A500052EA430C91EA030F02BF90EA020F002012
:100A6000704710F1000F91EA030F58BF994208BF79
:100A700090422CBFD8176FEAE37040F00100704736
:100A80004FEA410C7FEA6C5C02D150EA013C07D18D
:100A90004FEA430C7FEA6C5CD6D152EA033CD3D0D8
:100AA0005DF8040B704700BF8446104662468C46D2
:100AB0001946634600E000BF01B5FFF7B7FF002805
:100AC00048BF10F1000F01BD4DF808EDFFF7F4FF2E
:100AD0000CBF012000205DF808FB00BF4DF808EDB9
:100AE000FFF7EAFF34BF012000205DF808FB00BFDC
:100AF0004DF808EDFFF7E0FF94BF012000205DF8FE
:100B000008FB00BF4DF808EDFFF7CEFF94BF0120B2
:100B100000205DF808FB00BF4DF808EDFFF7C4FFAB
:100B200034BF012000205DF808FB00BF4FEA410CF4
:100B30007FEA6C5C02D150EA013C0AD14FEA430CD7
:100B40007FEA6C5C02D152EA033C02D14FF0000014
:100B500070474FF0010070474FEA410212F5001252
:100B600015D211D56FF47873B3EB625212D94FEAF4
:100B7000C12343F0004343EA505311F0004F23FADE
:100B800002F018BF404270474FF00000704750EA33
:100B9000013005D111F0004008BF6FF000407047F0
:100BA0004FF00000704700BF53B94AB9002908BF91
:100BB00000281CBF4FF0FF314FF0FF3000F088B924
:100BC000ADF1080C6DE904CE00F006F8DDF804E0A4
:100BD000DDE9022304B070472DE9F047089D8E46F9
:100BE00004468846002B4AD18A42174662D9B2FA97
:100BF00082F64EB1C6F1200301FA06F820FA03F39B
:100C0000B74043EA0808B4404FEA174E1FFA87FC82
:100C1000B8FBFEF1230C0EFB118843EA084301FBED
:100C20000CF29A4209D9FB1801F1FF3080F0EA80FA
:100C30009A4240F2E78002393B449A1AA3B2B2FBCF
:100C4000FEF00EFB102243EA024300FB0CFC9C4525
:100C500009D9FB1800F1FF3280F0D6809C4540F2A4
:100C6000D3803B44023840EA0140A3EB0C0300214F
:100C70001DB1F3400022C5E90032BDE8F0878B4288
:100C800005D90DB1C5E9000100210846F5E7B3FA21
:100C900083F1002946D1734502D3824200F20581D7
:100CA000841A6EEB030201209046002DE5D0C5E9C1
:100CB0000048E2E7002A00F09080B2FA82F6002EA7
:100CC00040F0A4808A1A030C4FEA174E80B2BCB2DF
:100CD0000121B2FBFEFC0EFB1C2243EA024304FB93
:100CE0000CF29A4207D9FB180CF1FF3802D29A4253
:100CF00000F2E080C4469B1AB3FBFEF20EFB1233F7
:100D000040EA034302FB04F49C4207D9FB1802F1BA
:100D1000FF3002D29C4200F2CA8002461B1B42EA0C
:100D20000C40A5E7C1F120068B4022FA06F71F43CD
:100D30000EFA01F420FA06F32EFA06FE4FEA1749DE
:100D4000234300FA01F81FFA87FCBEFBF9F01C0CE4
:100D500009FB10EE44EA0E4400FB0CFEA64502FA25
:100D600001F209D93C1900F1FF3A80F09C80A645B8
:100D700040F2998002383C44A4EB0E041FFA83FE33
:100D8000B4FBF9F309FB13444EEA044403FB0CFCE7
:100D9000A44508D93C1903F1FF3E80F08280A445A8
:100DA0007FD9023B3C4443EA0040A4EB0C04A0FB87
:100DB00002EC64457346E14662D35FD05DB1B8EBA7
:100DC000030264EB090404FA06F622FA01F31E4357
:100DD000CC40C5E9006400214FE7B1FBF2FC010CF7
:100DE00041EA0E4180B240EA01423B4638463C4669
:100DF000B846BE462026B1FBF7F1A2EB080241EA55
:100E00000C4166E7014618E710462CE7C6F12002C0
:100E10002EFA02F3B740B14020FA02F24FEA174E21
:100E20000A43B3FBFEF8BCB20EFB1833110C41EAC7
:100E3000034108FB04F9B04089454FEA104380B2F2
:100E40003ED9791808F1FF3C01D289451FD8A1EBA2
:100E50000901B1FBFEF909FB04F80EFB191192B26E
:100E600042EA0142424529D2BA1809F1FF31C4D2FF
:100E70004245C2D2A9F102013A44BEE7F0459DD2F3
:100E8000BEEB02036CEB070C0138E14696E7A7EBDB
:100E900009094944A8F1020CB1FBFEF909FB04F869
:100EA000DBE773467FE7504666E70846FDE63B44CE
:100EB000023A33E7ACF1020C3B441CE749469CE79D
:100EC000A1EB0901C446B1FBFEF909FB04F8C4E734
:100ED000704700BF80B58AB004AFF8600B467A60F7
:100EE000FB720023FB757B68DBB21B01DBB27B75F9
:100EF000FB7A002B01D1682300E06923BB75BB7D21
:100F00009BB25B0099B20A2302930123019307F17C
:100F10001503009301237F22F86804F0D7FA0346F3
:100F2000FB75FB7D18461837BD4680BD80B588B07F
:100F300004AF7860084611461A460346FB700B461C
:100F4000BB7013467B700023FB73FB78002B01D131
:100F5000682300E06923BB73BB7B9BB25B0099B243
:100F6000BB789AB20A230293012301937B1C00935E
:100F70000123786804F0AAFA0346FB73FB7B18464A
:100F80001037BD4680BD80B588B004AF7860084694
:100F900011461A460346FB700B46BB7013463B8056
:100FA0000023FB73FB78002B01D1682300E0692349
:100FB000BB73BB7B9BB25B0099B2BB789AB20A232E
:100FC00002933B880193BB6900930123786804F086
:100FD00077FB0346FB73FB7B18461037BD4680BD8D
:100FE00080B584B000AF78600A230222D0217868EF
:100FF00004F098FD0346FB73FB7B002B0CBF012321
:101000000023DBB218461037BD4680BD80B584B0E2
:1010100000AF78600A230222D221786804F082FDB2
:101020000346FB73FB7B002B0CBF01230023DBB2C9
:1010300018461037BD4680BD80B584B000AF7860DB
:101040000B46FB701346BB700023FB73FB7800223A
:1010500019467868FFF73EFF0346FB73F978802353
:1010600006227868FFF762FF0346FB73C82003F08F
:1010700053FDF978012306227868FFF757FF0346EE
:10108000FB73F978002307227868FFF74FFF0346C8
:10109000FB73FB78022219467868FFF71BFF0346B3
:1010A000FB73BB7843F01803DBB2F9780122786850
:1010B000FFF73CFF0346FB73F97819231422786885
:1010C000FFF734FF0346FB73F978042300227868A6
:1010D000FFF72CFF0346FB73FB7800221946786864
:1010E000FFF7F8FE0346FB73F978002303227868C4
:1010F000FFF71CFF0346FB73F97802230F22786881
:10110000FFF714FF0346FB7300BF1037BD4680BDD9
:1011100080B586B002AFF8607B600B46FB72134669
:10112000BB72F97A0B4B009302233722F868FFF762
:101130002AFF084B1B781BB21B021AB2054B5B78C7
:101140001BB213431AB27B681A8000BF1037BD462A
:1011500080BD00BF0C02002080B584B000AF786075
:101160000B46FB70FB78002219467868FFF7B2FE49
:101170000346002B02D04FF0FF331DE0F978002327
:1011800003227868FFF7D2FE0346002B02D04FF00F
:10119000FF3311E0012003F0BFFC0223FB73FB7B54
:1011A000F9780F227868FFF7C1FE0346002B02D0C2
:1011B0004FF0FF3300E0002318461037BD4680BDD6
:1011C00080B588B004AF78600B46FB70344B1B7859
:1011D000002B01D000235FE0FB7819467868FFF709
:1011E000BBFF0346002B02D04FF0FF3354E0052035
:1011F00003F092FC0023FB730023BB7314230293C0
:101200000123019307F10F0300930123002218210A
:10121000786804F055FA142302930123019307F12F
:101220000E030093012301221821786804F048FA84
:1012300001237B73142302930123019307F10D0310
:101240000093012332221821786804F03FF9034605
:10125000002B02D04FF0FF331EE0012003F05CFCB6
:1012600000237B73142302930123019307F10D03E1
:101270000093012331221821786804F027F90346EE
:10128000002B02D04FF0FF3306E0022003F044FCB5
:10129000034B01221A70002318461037BD4680BD4B
:1012A0000E02002080B400AF034B1B78DBB218465F
:1012B000BD465DF8047B7047C402002080B400AFD7
:1012C000034B00221A7000BFBD465DF8047B7047D7
:1012D000C402002080B584B000AF194A3B1D07CA84
:1012E00083E807003B1DDFED171A9FED171ADFEDAE
:1012F000160A9FED160A1946154802F0F1FB3B1D30
:10130000DFED101A9FED101ADFED0F0A9FED0F0AA7
:101310001946104802F0E4FB01F016FC03460E4AA1
:10132000136001F01FFC03460C4A13600C4B0122B2
:101330001A700C4805F0A8FD00BF1037BD4680BDEF
:1013400018FA00080AD7233C000020420000C842D7
:10135000100200205C020020BC020020C00200201D
:10136000000000201C04002080B582B000AF78602F
:1013700039607B68002B05D0304B1B68002B01D0F7
:10138000012300E0002303F00103DBB2002B13D0A4
:101390007B68002BCCBF01230023DAB2274B1B68EC
:1013A000002BCCBF01230023DBB25340DBB2002B68
:1013B00002D0234802F0F5FC3B68002B05D0214BFE
:1013C0001B68002B01D0012300E0002303F0010380
:1013D000DBB2002B13D03B68002BCCBF01230023D2
:1013E000DAB2184B1B68002BCCBF01230023DBB201
:1013F0005340DBB2002B02D0134802F0D2FC7B68D2
:10140000002B06D10D4B1B68002B02D00C4802F0BC
:10141000C8FC3B68002B06D10A4B1B68002B02D08E
:10142000094802F0BEFC054A7B681360054A3B6828
:10143000136000BF0837BD4680BD00BFA802002072
:1014400010020020AC0200205C02002080B500AF3A
:1014500001F07AFB0346064A136001F083FB034662
:10146000044A1360044B01221A7000BF80BD00BF04
:10147000BC020020C00200200000002080B58AB01D
:1014800000AF01F061FB386201F06CFBF861524B78
:101490001B683A6AD31ABB61504B1B68FA69D31AAE
:1014A0007B614D4A3B6A13604C4AFB6913604C4BAD
:1014B0001B78002B03D04A4B00221A7088E0494A5F
:1014C000BB691360484A7B691360484B1B68002B5B
:1014D00012D1474B1B68002B0ED1464802F061FC2D
:1014E000454802F05EFC454B00221A70444B002236
:1014F0001A7001F0D1FA6BE0BB6907EE903AF8EE92
:10150000E77A3A4B1B6807EE103AB8EEC77AF0EE6E
:10151000470AB0EE670A374802F046FB87ED040A37
:101520007B6907EE903AF8EEE77A314B1B6807EEDD
:10153000103AB8EEC77AF0EE470AB0EE670A2E48C6
:1015400002F032FB87ED030AD7ED047AFDEEE77A6D
:10155000C7ED017A3B7987F82730D7ED037AFDEEA6
:10156000E77AC7ED017A3B7987F826300523FB72CD
:1015700097F9272097F90B309A4209DA97F9272033
:1015800097F90B305B429A4202DD002387F827303F
:1015900097F9262097F90B309A4209DA97F9262015
:1015A00097F90B305B429A4202DD002387F8263020
:1015B000124A97F827301370114A97F826301370A3
:1015C00097F9262097F927301146184601F094F92B
:1015D0002837BD4680BD00BFBC020020C0020020ED
:1015E00000000020B0020020B4020020A802002069
:1015F000AC020020100200205C020020B802002093
:10160000B902002080B483B000AF78607B681B68AB
:10161000054A934202D1054B01221A7000BF0C37D4
:10162000BD465DF8047B7047000C0040C4020020FA
:1016300080B485B000AFF860B9607A603B60FB6849
:10164000002B03D00F4B1A68FB681A60BB68002B95
:1016500003D00D4B1A68BB681A607B68002B03D05F
:101660000A4B1A687B681A603B68002B03D0084B52
:101670001A683B681A6000BF1437BD465DF8047BEA
:10168000704700BFA8020020AC020020B00200207A
:10169000B402002080B400AF0A4B0B4A1A60094B19
:1016A0006FF400025A60074B074A9A60054B6FF4CB
:1016B0000002DA60034B00221A7400BFBD465DF8D9
:1016C000047B7047DC020020FFFF7F7F80B483B083
:1016D00000AF87ED010AD7ED017A9FED157AF4EEA0
:1016E000C77AF1EE10FA07DDD7ED017A9FED117A96
:1016F00077EEC77AC7ED017AD7ED017A9FED0E7AC2
:10170000F4EEC77AF1EE10FA07D5D7ED017A9FED26
:10171000097A77EE877AC7ED017A7B6807EE903A0F
:10172000B0EE670A0C37BD465DF8047B704700BF1A
:10173000000034430000B443000034C380B586B0D9
:1017400000AF4FF47A73FB604FF000037B6100231E
:101750003B6125E000237B801B4B18681B4B1978ED
:10176000BB1C0622FFF7D4FC194BBB60B7F9023053
:1017700007EE903AF8EEE76A97ED027AC6EE877ABE
:10178000C7ED017A97ED057AD7ED017A77EE277AE2
:10179000C7ED057A022003F0BFF93B6901333B61D5
:1017A0003A69FB689A42D5DBFB6807EE903AB8EEDF
:1017B000E77AD7ED056AC6EE877A064BC3ED007A65
:1017C00000BF1837BD4680BDC8020020CC020020F3
:1017D00033338341D402002080B582B000AF7860FB
:1017E0003960224A7B6813607868FFF7F9FB03468B
:1017F000002B03D01E4B00221A700BE07868FFF715
:1018000005FC0346002B03D0194B01221A7001E09E
:1018100001F046F83B68002B03D0154B1A783B6863
:101820001A70134B1B78062219467868FFF704FCE0
:10183000104B4FF000021A600F4B4FF000021A607D
:101840000B4B1B7819467868FFF7BAFC0346002B50
:1018500005D10A4B01221A70FFF71CFF02E0074B6B
:1018600000221A7000BF0837BD4680BDC8020020A4
:10187000CC020020D4020020D0020020D802002098
:1018800080B500AF064B1B68002B06D0FFF756FF54
:10189000044B4FF000021A6000E000BF80BD00BFA3
:1018A000C8020020D002002080B400AF044B1B68A7
:1018B00007EE903AB0EE670ABD465DF8047B7047CC
:1018C000D002002080B400AF044B4FF000021A6039
:1018D00000BFBD465DF8047B704700BFD00200200A
:1018E00080B584B000AF0023FB80264B1868264BE0
:1018F0001978BB1D0622FFF70BFC244BBB60B7F920
:10190000063007EE903AF8EEE76A97ED027AC6EEF7
:10191000877AC7ED037A1E4BD3ED007A97ED037AF1
:1019200077EE677AC7ED037AD7ED037A9FED197AE0
:10193000F4EEC77AF1EE10FA0BDDD7ED037A9FEDE6
:10194000167AF4EEC77AF1EE10FA02D54FF00003E2
:10195000FB60D7ED037A9FED117A27EE877A104B63
:10196000D3ED007A77EE277AB0EE670AFFF7AEFE86
:10197000F0EE407A0A4BC3ED007A00BF1037BD4647
:1019800080BD00BFC8020020CC0200203333834159
:10199000D4020020CDCCCCBECDCCCC3E0AD7233C4B
:1019A000D002002080B582B000AF78607B685B8A8F
:1019B0001946786802F08DFB00BF0837BD4680BD30
:1019C00080B483B000AF0346FB71FB794C3B272BFF
:1019D0005ED801A252F823F0811A0008911A00087B
:1019E000911A0008911A0008911A0008911A00082B
:1019F000851A0008791A0008911A0008911A00083F
:101A0000911A0008911A0008911A0008911A00080A
:101A1000911A0008911A0008911A0008911A0008FA
:101A2000911A0008911A0008911A0008911A0008EA
:101A3000911A0008911A0008911A0008911A0008DA
:101A4000911A0008911A0008911A0008911A0008CA
:101A5000911A0008911A0008891A0008911A0008C2
:101A6000911A0008911A0008911A0008911A0008AA
:101A70008D1A00087D1A0008094B0AE0094B08E09E
:101A8000094B06E0094B04E0094B02E0094B00E07A
:101A9000094B18460C37BD465DF8047B704700BF04
:101AA00048FA000850FA000858FA000864FA0008DA
:101AB00070FA000880FA000890FA000880B582B039
:101AC00000AF02F0B7FF00F06BF800F001FC00F08F
:101AD0009BF900F009FB00F0EFF800F041F900F08D
:101AE00015FA00F061FA00F0B9F800F0C7FB00F059
:101AF00069FB01F067FF00F0D9FEFFF7EBFB002365
:101B0000FB70FB1C19461948FFF766FE01221849B5
:101B1000184807F024F8184B7B607868FEF7A8FB9C
:101B200003469AB264237968124806F08DFF07F0E5
:101B3000E5FF124A0021124808F02AF80346114A2C
:101B40001360114A0021114808F022F80346104A98
:101B50001360104A0021104808F01AF803460F4A93
:101B6000136007F0EFFF00BFFDE700BFF0020020A9
:101B7000AB0500203C05002098FA00084CFB00084B
:101B8000F52300088405002070FB0008F1250008FB
:101B90008805002094FB0008192600088C05002009
:101BA00080B594B000AF07F1200330220021184621
:101BB0000BF03AFA07F10C0300221A605A609A609F
:101BC000DA601A610023BB60224B1B6C214A43F090
:101BD000805313641F4B1B6C03F08053BB60BB68C6
:101BE00000237B601C4B1B681B4A43F4804313603B
:101BF000194B1B6803F480437B607B6802233B62C4
:101C00000123FB6210233B630023BB6307F1200326
:101C1000184604F091FC0346002B01D000F040FE72
:101C20000F23FB6000233B6100237B610023BB612A
:101C30000023FB6107F10C030021184604F0F4FEB9
:101C40000346002B01D000F02BFE00BF5037BD46ED
:101C500080BD00BF003802400070004080B500AF7A
:101C6000124B134A1A60114B124A5A600F4B002252
:101C70009A600E4B0022DA600C4B4FF480421A61DE
:101C80000A4B00225A61094B00229A61074B00223D
:101C9000DA61064B00221A62044803F0D3FA0346C5
:101CA000002B01D000F0FCFD00BF80BDF002002041
:101CB00000580040A086010080B58CB000AF07F14D
:101CC0000C032422002118460BF0AEF93B1D002224
:101CD0001A605A60214B4FF080421A601F4B00225D
:101CE0005A601E4B00229A601C4B4FF6FF72DA605E
:101CF0001A4B00221A61194B00229A610323FB60E0
:101D000000233B6101237B610023BB610A23FB614C
:101D100000233B6201237B620023BB620A23FB6238
:101D200007F10C0319460D4805F070FC0346002B23
:101D300001D000F0B5FD00237B600023BB603B1D9C
:101D40001946064806F04EFD0346002B01D000F070
:101D5000A7FD00BF3037BD4680BD00BF4403002053
:101D600080B58CB000AF07F10C0324220021184687
:101D70000BF05AF93B1D00221A605A60204B214A91
:101D80001A601F4B00225A601D4B00229A601C4BA8
:101D90004FF6FF72DA601A4B00221A61184B0022CC
:101DA0009A610323FB6000233B6101237B610023D5
:101DB000BB610A23FB6100233B6201237B6200239A
:101DC000BB620A23FB6207F10C0319460C4805F0BD
:101DD0001DFC0346002B01D000F062FD00237B6058
:101DE0000023BB603B1D1946054806F0FBFC03467B
:101DF000002B01D000F054FD00BF3037BD4680BD40
:101E00008C0300200004004080B58EB000AF07F1C5
:101E1000280300221A605A609A60DA6007F12003F2
:101E200000221A605A603B1D00221A605A609A60B4
:101E3000DA601A615A619A61324B334A1A60314B47
:101E400000225A602F4B00229A602E4B40F21F3224
:101E5000DA602C4B00221A612A4B80229A612948B1
:101E600004F0C2FF0346002B01D000F019FD4FF42F
:101E70008053BB6207F128031946224805F048FF4A
:101E80000346002B01D000F00BFD1E4805F06CF856
:101E90000346002B01D000F003FD20233B6200230A
:101EA0007B6207F120031946164806F09BFC0346A7
:101EB000002B01D000F0F4FC60237B600023BB60AA
:101EC0000023FB6000237B613B1D082219460D485F
:101ED00005F05CFE0346002B01D000F0E1FC3B1D49
:101EE0000C221946074805F051FE0346002B01D08D
:101EF00000F0D6FC034802F067FB00BF3837BD4650
:101F000080BD00BFD40300200008004080B586B02B
:101F100000AF07F1080300221A605A609A60DA6085
:101F20003B4600221A605A601D4B1E4A1A601C4B29
:101F300040F23F625A601A4B00229A60184B6322AB
:101F4000DA60174B00221A61154B00229A6114487F
:101F500004F04AFF0346002B01D000F0A1FC4FF42F
:101F60008053BB6007F1080319460D4805F0D0FE09
:101F70000346002B01D000F093FC00233B600023BC
:101F80007B603B461946064806F02CFC0346002BB6
:101F900001D000F085FC00BF1837BD4680BD00BFF2
:101FA0001C040020000C004080B596B000AF07F183
:101FB000480300221A605A609A60DA6007F1400311
:101FC00000221A605A6007F1240300221A605A6046
:101FD0009A60DA601A615A619A613B1D20220021E1
:101FE00018460BF021F83E4B3E4A1A603C4B0F223C
:101FF0005A603B4B00229A60394B44F61F62DA600C
:10200000374B00221A61364B00225A61344B802232
:102010009A61334804F0E8FE0346002B01D000F03B
:102020003FFC4FF48053BB6407F1480319462C482A
:1020300005F06EFE0346002B01D000F031FC28486D
:1020400004F092FF0346002B01D000F029FC00238E
:102050003B6400237B6407F140031946204806F0E7
:10206000C1FB0346002B01D000F01AFC60237B6209
:102070000023BB620023FB6200233B6300237B63DE
:102080000023BB630023FB6307F1240300221946EE
:10209000134805F07BFD0346002B01D000F000FC47
:1020A00000237B600023BB600023FB6000233B61B7
:1020B00000237B614FF40053BB6100233B623B1D57
:1020C0001946074806F00AFC0346002B01D000F031
:1020D000E7FB034802F078FA00BF5837BD4680BDE1
:1020E000640400200004014080B58CB000AF07F10B
:1020F000200300221A605A609A60DA603B1D0022B9
:102100001A605A609A60DA601A615A619A612B4BC0
:102110002B4A1A60294B00225A60284B00229A60F1
:10212000264B40F21F32DA60244B00221A61234B07
:1021300080229A61214804F057FE0346002B01D00B
:1021400000F0AEFB4FF480533B6207F120031946C9
:102150001A4805F0DDFD0346002B01D000F0A0FB7E
:10216000164804F001FF0346002B01D000F098FB55
:1021700060237B600023BB600023FB6000237B6146
:102180003B1D002219460D4805F000FD0346002BBB
:1021900001D000F085FB3B1D04221946074805F0DD
:1021A000F5FC0346002B01D000F07AFB034802F057
:1021B0000BFA00BF3037BD4680BD00BFAC04002025
:1021C0000040014080B588B000AF07F11003002245
:1021D0001A605A609A60DA603B4600221A605A60C0
:1021E0009A60DA60234B244A1A60224B0F225A600D
:1021F000204B00229A601F4B4FF6FF72DA601D4B96
:1022000000221A611B4B00229A611A4804F0ECFD6F
:102210000346002B01D000F043FB4FF480533B6199
:1022200007F110031946134805F072FD0346002B11
:1022300001D000F035FB0F4804F0B8FF0346002B37
:1022400001D000F02DFB0A233B6001237B600023BB
:10225000BB600023FB603B4600221946054805F0A1
:10226000F9FB0346002B01D000F01AFB00BF20371A
:10227000BD4680BDF40400200018004080B500AFCA
:10228000114B124A1A60104B4FF4E1325A600E4B58
:1022900000229A600C4B0022DA600B4B00221A617C
:1022A000094B0C225A61084B00229A61064B00220E
:1022B000DA61054806F078FB0346002B01D000F0F8
:1022C000EFFA00BF80BD00BF3C0500200048004081
:1022D00080B58AB000AF07F1140300221A605A607B
:1022E0009A60DA601A6100233B613F4B1B6B3E4AE8
:1022F00043F0100313633C4B1B6B03F010033B6173
:102300003B690023FB60384B1B6B374A43F00203E9
:102310001363354B1B6B03F00203FB60FB68002368
:10232000BB60314B1B6B304A43F0080313632E4BE9
:102330001B6B03F00803BB60BB6800237B602A4B68
:102340001B6B294A43F004031363274B1B6B03F0F9
:1023500004037B607B6800233B60234B1B6B224A9A
:1023600043F001031363204B1B6B03F001033B603D
:102370003B6800224FF480711C4802F049FF0022A4
:102380004FF4F0411A4802F043FF4FF480737B6131
:102390000123BB610023FB6100233B6207F11403AF
:1023A0001946124802F080FD4FF4F0437B6101238F
:1023B000BB610023FB6100233B6207F11403194654
:1023C0000B4802F071FD01237B610023BB610023F8
:1023D000FB6107F114031946044802F065FD00BFD4
:1023E0002837BD4680BD00BF0038024000100240C3
:1023F000000C0240B0B596B002AF786004F0E0FC8B
:1024000078647B6C3B64734B5B68013307EE903AF6
:10241000B8EE677A3B6C07EE903AF8EE676A9FED8C
:102420006E6AC6EE267A67EE277AC7ED0F7A40F617
:102430002823019340F2DC53009340F21A4397EDB6
:102440000F0A00226349654801F0F6FD634801F078
:102450001CFE0346002B04D04FF47A7007F02AFCD0
:10246000FAE75E48FFF79EFA02F0AAFA034687F8F9
:102470004F3016E002F0A4FA034687F82F3097F8A1
:102480004F30002B06D197F82F30002B02D0544B41
:1024900001221A7097F82F3087F84F300A2007F082
:1024A00009FC4F4B1B78DBB2002BE3D04D4B0122D4
:1024B0001A704FF47A7007F0FDFB00210020FEF740
:1024C00053FF00F0E9FAFFF7DBF9FFF7FBF9454BA3
:1024D00000221A70444B07F10C041D460FCD0FC4A7
:1024E00095E80F0084E80F000423BB630023BB645E
:1024F0005AE0BB6CDB0050333B4413F8443C87F894
:102500003730BB6CDB0050333B44403B1B683B63C4
:10251000364A97F83730137097F83730532B04D179
:1025200097ED0C0A00F0F4FB33E097F83730732B8B
:1025300008D1D7ED0C7AF1EE677AB0EE670A00F0B9
:10254000E7FB26E097F837304C2B0BD097F8373065
:10255000522B07D097F837306C2B03D097F83730D1
:10256000722B05D197F83730184600F075FC0CE057
:1025700000210020FEF7F8FE502000F0A9FA00F03C
:102580008BFA1A4B00221A7012E002E0052007F0C5
:1025900091FB00F0B1FB0346002BF7D1134B002257
:1025A0001A70BB6C0133BB64BA6CBB6B9A42A0DB84
:1025B00000210020FEF7D8FE502000F089FA00F03C
:1025C0006BFA0A4B00221A704FF47A7007F072FB14
:1025D000FAE700BF6404002000247449900500203D
:1025E000A9050020AA050020B8FA0008A8050020C7
:1025F00080B582B000AF7860FEF754FE0346002B32
:1026000005D0FEF73BFF00F0AFFCFEF757FE0120C0
:1026100007F050FBF0E7000080B590B002AF7860A3
:1026200002F06EFA786301F01FF8904A1021002042
:1026300001F096F98E4A1021582001F091F98D4A47
:102640002021002001F08CF9012300930C232C227F
:102650002021302001F088F8874A3021002001F045
:102660007FF9012300930C232C223021302001F02C
:102670007BF800F073FF02F043FAB862BA6A7B6B32
:10268000D31AC72B40F2ED80BB6A7B63FFF70CF9CE
:1026900087ED090A00237B6100233B610023FB6077
:1026A0000023BB6007F1080307F10C0207F11001DA
:1026B00007F11400FEF7BCFF00233B636F4B1B7850
:1026C000DBB2002B02D16E4B3B6316E06D4B1B78E7
:1026D000DBB2002B02D06C4B3B630EE06B4B1B78E4
:1026E000DBB2002B07D0694B1B78DBB21846FFF733
:1026F00067F9386301E0664B3B63664A00210020BE
:1027000001F02EF93A6B0021002001F029F9D7EDF4
:10271000097AB2EE047A67EE877A97ED097AB5EE18
:10272000C07AF1EE10FA02DBB6EE007A01E0BEEEFE
:10273000007A77EE277AFDEEE77A17EE903AFB62A1
:10274000FB6A002B02DA4FF0FF3300E001233B620B
:10275000FB6A002B02DAFB6A5B42FB62FB6A4E4AB1
:1027600082FB03129210DB17D31AFB61FA6A4A4B01
:1027700083FB02139910D317C91A0B469B000B4415
:102780005B00D31ABB613B6A002B01DA2D2200E00B
:102790002022012300930C231021282000F0E4FFC5
:1027A000FA690C23009303231021302001F06AF80A
:1027B000012300930C232E221021482000F0D4FF87
:1027C000BB69DBB23033DAB2012300930C23102152
:1027D000502000F0C9FF314A2021102001F0C0F83C
:1027E0002E4A2021382001F0BBF87B69002BB8BFAE
:1027F0005B421A460C23009304232021102001F091
:1028000041F83B69002BB8BF5B421A460C2300938A
:1028100004232021382001F035F8204A30211020EF
:1028200001F09EF81D4A3021382001F099F8FB682C
:10283000002BB8BF5B421A460C23009304233021BF
:10284000102001F01FF8BB68002BB8BF5B421A468E
:102850000C23009304233021382001F013F800F0FA
:102860007DFE052007F026FA05E700BFD8FA00082C
:10287000E0FA0008E8FA0008ECFA0008A9050020D0
:10288000F0FA0008AA05002000FB0008A8050020B7
:102890000CFB000818FB0008676666662CFB000846
:1028A00080B400AF72B600BF00BFFDE780B500AFD7
:1028B0000C210D4804F0B2FB08210B4804F0AEFBDC
:1028C00000210A4804F0AAFB0421084804F0A6FBF2
:1028D0003C21074804F040FF3C21064804F03CFF3F
:1028E00000F0DAF800BF80BDD4030020AC04002063
:1028F000440300208C03002080B489B000AF03465D
:102900000A46FB711346BB7197F90730642B01DD52
:102910006423FB7197F9073013F1640F01DA9C23EC
:10292000FB7197F90630642B01DD6423BB7197F9C5
:10293000063013F1640F01DA9C23BB71514B1B6805
:10294000DB6AFB61504B1B68DB6ABB6197F90730A0
:10295000002B08D14B4B1B6800221A64494B1B68A3
:102960000022DA633DE097F9073007EE903AF8EE7F
:10297000E77AB0EEE77ADFED456AC7EE267A9FED9B
:10298000447A67EE877A9FED437A77EE877AC7EDD0
:10299000057AFB69013307EE903AB8EE677AD7ED16
:1029A000057A27EE277ADFED396AC7EE267AFCEE44
:1029B000E77A17EE903A3B6197F90730002B08DD74
:1029C000304B1B683A691A642E4B1B680022DA638D
:1029D00007E02C4B1B6800221A642A4B1B683A69DB
:1029E000DA6397F90630002B08D1274B1B680022C9
:1029F0005A63254B1B6800229A633DE097F9063025
:102A000007EE903AF8EEE77AB0EEE77ADFED1F6A6C
:102A1000C7EE267A9FED1E7A67EE877A9FED1D7AC4
:102A200077EE877AC7ED037ABB69013307EE903AF8
:102A3000B8EE677AD7ED037A27EE277ADFED136ACF
:102A4000C7EE267AFCEEE77A17EE903ABB6097F96C
:102A50000630002B08DD0C4B1B6800225A630A4B22
:102A60001B68BA689A6307E0074B1B68BA685A6329
:102A7000054B1B6800229A6300BF2437BD465DF8F2
:102A8000047B7047D4030020AC0400200000C8423F
:102A9000000038420000584280B400AF0A4B1B6867
:102AA0000022DA63084B1B6800221A64074B1B687C
:102AB00000225A63054B1B6800229A6300BFBD4683
:102AC0005DF8047B704700BFD4030020AC040020F5
:102AD00080B584B000AF0346FB80194B1B68DB6AEE
:102AE000FB60184B1B68DB6ABB60154B1B68FA6800
:102AF0001A64134B1B68FA68DA63124B1B68BA68D6
:102B00005A63104B1B68BA689A63FB88002B03D08A
:102B1000FB88184602F000F8094B1B680022DA63B4
:102B2000074B1B6800221A64064B1B6800225A637D
:102B3000044B1B6800229A6300BF1037BD4680BD5E
:102B4000D4030020AC04002080B400AF044B1B6809
:102B50005B6A1BB21846BD465DF8047B704700BF38
:102B60004403002080B400AF044B1B685B6A1BB2B7
:102B70005B421846BD465DF8047B70478C0300201D
:102B800080B400AF064B1B6800225A62054B1B68DD
:102B900000225A6200BFBD465DF8047B704700BF4B
:102BA000440300208C03002080B582B000AF786021
:102BB0007B685B8A1946786801F08BFA00BF08379A
:102BC000BD4680BD80B400AF074B4FF000021A60D5
:102BD000054B4FF000025A60034B00221A7200BFEF
:102BE000BD465DF8047B7047CC05002080B487B0FB
:102BF00000AF87ED010A3B4B93ED007AD7ED017AE8
:102C0000DFED396A67EEA67A77EE277A354BC3EDAA
:102C1000007A364B3B61334BD3ED007A97ED047A63
:102C2000B4EEE77AF1EE10FA02D52E4A3B69136052
:102C30002C4B93ED007AD7ED047AF1EE677AB4EE7F
:102C4000E77AF1EE10FA06D5D7ED047AF1EE677A5D
:102C5000244BC3ED007A4FF000037B61214B1B7ABC
:102C6000002B0DD01F4BD3ED017A97ED017A37EE93
:102C7000677ADFED1D6AC7EE267AC7ED057A02E0B6
:102C8000184B01221A72174A7B685360D7ED017AFC
:102C9000B0EE087A67EE877AC7ED037A114BD3ED71
:102CA000007A9FED137A67EE877A97ED037A77EED5
:102CB000277AC7ED037AD7ED057A9FED0E7A67EE96
:102CC000877A97ED037A77EE277AC7ED037AFB6868
:102CD00007EE903AB0EE670A1C37BD465DF8047BFC
:102CE000704700BFCC0500200AD7233C00004844B1
:102CF000CDCC4C3DCDCCCC3E80B400AF034B1B784B
:102D00001846BD465DF8047B704700BFAC05002047
:102D100080B586B000AF87ED010AFFF731FFFEF7FF
:102D200095FBFEF7CFFDFFF74DFF464B01221A70D2
:102D3000444B01225A70D7ED017AF5EEC07AF1EEDC
:102D400010FA01DB012201E04FF0FF323D4B9A7097
:102D50003D48FFF729FFD7ED017AF0EEE77A9FEDC6
:102D60003B7A67EE877AB0EE670A0CF0D9F9034632
:102D7000344A5360334B5B68092B03DC314B002230
:102D80001A705CE0324BD3ED007AF5EEC07AF1EECA
:102D900010FA02D54FF0000301E02D4B1B68FB60D9
:102DA0002C4BD3ED007AF5EEC07AF1EE10FA02D595
:102DB0004FF0000301E0274B1B68BB609FED237AB7
:102DC000D7ED037A67EE277AB0EE670A0CF0A8F920
:102DD00078619FED1E7AD7ED027A67EE277AB0EE22
:102DE000670A0CF09DF938617B69002B01DA00233A
:102DF0007B613B69002B01DA00233B61114B5A6870
:102E000079693B690B449A420CDC0E4B5B68DA0F24
:102E100013445B101A460B4B9A600A4B9B68094A95
:102E2000D36008E0074A7B699360064B5A683B69A8
:102E3000D31A044AD36000210020FEF795FA183710
:102E4000BD4680BDAC050020900500204979964222
:102E5000040000200800002080B584B000AF0346C5
:102E6000FB71FFF78DFEFEF7F1FAFEF72BFDFFF782
:102E7000A9FE374B01221A70354B02225A70FB799A
:102E80004C2B06D1324B01221A74314B01225A7459
:102E900019E0FB79522B06D12D4BFF221A742C4BD3
:102EA00001225A740FE0FB796C2B06D1284B0122CA
:102EB0001A74274BFF225A7405E0254BFF221A741F
:102EC000234BFF225A74224B93F9103007EE903AAD
:102ED000F8EEE77A9FED1F7A67EE877AC7ED037AFF
:102EE0001B4B93F91130002B05DAD7ED037AF1EE85
:102EF000677AC7ED037A164AFB685361144B93F95E
:102F00001030002B01DD144B00E0144BBB6097ED3B
:102F1000020A134801F028F90D4ABB689361114B6E
:102F20001A880B4BDA830F4B1A88094B9A83084B8C
:102F300093F911309B00064A92F911209200114634
:102F40001846FEF711FA00BF1037BD4680BD00BF1E
:102F5000AC0500200000B4420000C8C20000C84216
:102F6000900500200C00002080B5A8B000AFFEF74F
:102F7000B7FCC44B1B78002B00F0E782FEF794FCF3
:102F800087ED190ABF4B5B78022B40F0D681BD4B11
:102F900093ED057AD7ED197A77EE677AC7ED0F7A58
:102FA000D7ED0F7AF0EEE77AB6EE007AF4EEC77A54
:102FB000F1EE10FA12D8B34B00221A70B14B002276
:102FC0005A7000210020FEF7CFF9AF48FFF7ECFD63
:102FD0003220FFF77DFDFFF75FFDB7E2D7ED0F7AF7
:102FE000F0EEE77AC7ED0E7AA64B9B8B002B7ED0D6
:102FF000A44BDB8B7B867B8E002B03D10423C7F88D
:103000009C306DE09F4B9B8B7A8E9A4205D99D4BED
:103010009B8B7A8ED31A9BB200E000233B867B8E7B
:1030200001335B08FB853A8EFB8D9A4203D2042361
:10303000C7F89C3054E07A8EFB8DD31ABB85BB8DCC
:10304000002B03D10C23C7F89C3049E03A8EFB8D4E
:10305000D31AA7F89A30B7F89A20BB8D9A4203D3B7
:10306000BB8D013BA7F89A30B7F89A30013307EED1
:10307000903AF8EE676ABB8D07EE903AB8EE677A41
:10308000C6EE877AC7ED0A7AD7ED0A7AB2EE007AF1
:1030900067EE877AB1EE007A77EE877AC7ED257A08
:1030A000D7ED257AB2EE087AF4EEC77AF1EE10FA8F
:1030B00002DD764BC7F8943097ED250A0CF030F816
:1030C000C7F89C00D7F89C30032B02DC0423C7F818
:1030D0009C30D7F89C300C2B02DD0C23C7F89C30B9
:1030E000684B9B8B013B9AB2664B9A832AE00C2378
:1030F000C7F89C30D7ED0E7AB2EE047AF4EEC77AB8
:10310000F1EE10FA1ED597ED0E7AF2EE046AC7EED4
:10311000267AC7ED0D7AD7ED0D7AB2EE087A67EE12
:10312000877AB0EE670A0BF0FBFFC7F89000D7F87C
:103130009030032B02DC0423C7F89030D7F890308E
:10314000C7F89C304F4BD3ED067AF0EEE77AC7ED27
:10315000097AD7ED097A9FED4E7AF4EEC77AF1EE4F
:1031600010FA14D5474B93F911301A46D7F89C3012
:1031700002FB03F3C7F88C30424B93F911301A4627
:10318000D7F89C3002FB03F3C7F88830CEE097ED08
:10319000097ADFED406AC7EE267AB3EE0E7A67EE63
:1031A000877AC7ED087AD7ED087A9FED3B7A67EE0C
:1031B000877AC7ED077A97ED070A0BF0A5FE87ED32
:1031C000060AD7ED067AF0EEE77A9FED347AF4EE50
:1031D000C77AF1EE10FA14D52A4B93F911301A463A
:1031E000D7F89C3002FB03F3C7F88C30254B93F9DA
:1031F00011301A46D7F89C3002FB03F3C7F8883029
:1032000094E0F2EE0D6A97ED067AC6EE877AC7ED86
:10321000057AD7ED057AF0EEE77A37EEA77ADFED9B
:10322000206AC6EE877AC7ED217AD7ED217A9FED25
:103230001D7AF4EEC77AF1EE10FA02DD1A4BC7F8E8
:103240008430B7EE007AD7ED217A77EE677AC7ED52
:10325000047AD7ED217AB7EE007A77EE877AC7ED58
:10326000037A084B93F91030002B01DD3B6900E035
:10327000FB68BB60034B93F91030002B16DDFB6835
:1032800015E000BFAC050020900500200000404183
:103290006F12833A0000C84235FA8E3C17B7D13816
:1032A000000084416666663F6666663F3B697B60F8
:1032B000D7F89C3007EE903AB8EEE77AD7ED027A6D
:1032C00067EE277AB0EE670A0BF02AFFC7F8800096
:1032D000D7F89C3007EE903AB8EEE77AD7ED017A4E
:1032E00067EE277AB0EE670A0BF01AFFF867D7F897
:1032F0008030032B02DC0423C7F88030FB6F032BE4
:1033000001DC0423FB67934B93F911301A46D7F87D
:10331000803002FB03F3C7F88C308E4B93F91130E9
:103320001A46FB6F02FB03F3C7F88830D7F8881002
:10333000D7F88C00FEF718F808E1FFF705FC3866AF
:10334000FFF710FCF8653B6E83EAE372A2EBE372D1
:10335000FB6D002BB8BF5B421344DA0F13445B10C4
:10336000BB657C4B5B68BA6D9A420CDB794B0022E3
:103370001A7000210020FDF7F7FF5020FFF7A8FB8F
:10338000FFF78AFBE2E0734B9B68BA6D9A421BDA47
:10339000BB6D07EE903AF8EEE76A6E4B9B6807EE5E
:1033A000903AB8EEE77AC6EE877AC7ED147AD7ED91
:1033B000147AB3EE047A67EE877AB1EE007A77EE8C
:1033C000877AC7ED1E7A28E0624BDB68BA6D9A42B5
:1033D00021DD604B5A68BB6DD31A07EE903AF8EEC8
:1033E000E76A5C4B5A685B4BDB68D31A07EE903A8E
:1033F000B8EEE77AC6EE877AC7ED157AD7ED157A7B
:10340000B3EE047A67EE877AB1EE007A77EE877AC8
:10341000C7ED1E7A01E0504BBB67D7ED1E7AB1EEC7
:10342000007AF4EEC77AF1EE10FA02D54FF081433C
:10343000BB67484B5A68BB6DD31A7B677B6F002B09
:1034400001DA00237B6797ED1E0A0BF069FE3867EF
:103450003A6F7B6F9A4201DD7B6F3B673B6F002BBE
:1034600001DA00233B673B6F002B04D17B6F002BFD
:1034700001DD01233B67D7ED197AF1EE677AC7EDDD
:10348000137A97ED130AFFF7B1FB87ED1B0A314B57
:1034900093F90230002B05DAD7ED1B7AF1EE677A4B
:1034A000C7ED1B7A3B6F07EE903AF8EEE77AB6EE7F
:1034B000007A67EE877AC7ED1A7AD7ED1A7AB7EEF7
:1034C000007AF4EEC77AF1EE10FA02D54FF07E538F
:1034D000BB6697ED1B7AD7ED1A7AB4EEE77AF1EE78
:1034E00010FA01DDBB6EFB66D7ED1A7AF1EE677A52
:1034F00097ED1B7AB4EEE77AF1EE10FA05D5D7ED29
:103500001A7AF1EE677AC7ED1B7A97ED1B0A0BF07A
:1035100007FEB8643A6FBB6CD31A7B643A6FBB6C1E
:1035200013443B640B4B93F902301A467B6C03FB4C
:1035300002F2084B93F9023019463B6C01FB03F38E
:1035400019461046FDF710FF00E000BFA037BD464A
:1035500080BD00BFAC0500200000C04180B582B036
:1035600000AF0023FB7126E0FB79503BDBB200216A
:10357000184600F02BF80021002000F027F8002169
:10358000102000F023F80023BB710DE0BA79FB791D
:103590000D49D2000A4413441B780121184600F05B
:1035A00015F8BB790133BB7197F90630002BEDDAC2
:1035B000FB790133FB71FB79072BD5D900BF00BF25
:1035C0000837BD4680BD00BFD805002080B584B057
:1035D00000AF03460A46FB711346BB71BB79002B53
:1035E00006D001224FF400611E4801F011FE05E0F3
:1035F00000224FF400611B4801F00AFE0023FB7318
:1036000022E000224FF48041164801F001FE97F9B4
:103610000730002B06DA01224FF40051114801F067
:10362000F7FD05E000224FF400510E4801F0F0FDD7
:1036300001224FF480410B4801F0EAFDFB795B0069
:10364000FB71FB7B0133FB73FB7B072BD9D9012279
:103650004FF40061034801F0DBFD00BF1037BD46A9
:1036600080BD00BF000C024080B582B000AF0023D7
:10367000FB7114E00023BB710AE0BA79FB790C49B5
:10368000D2000A44134400221A70BB790133BB7183
:1036900097F90630002BF0DAFB790133FB71FB79E7
:1036A000072BE7D9FFF75AFF00BF0837BD4680BD9B
:1036B000D805002080B485B000AF0346FB710B46EF
:1036C000BB7113467B710023FB7397F90730002B06
:1036D00041DBBB793F2B3ED8BB79DB08DBB2C3F1C2
:1036E0000703BB73BB7903F007037B737B7BC3F1D9
:1036F0000703012202FA03F3FB737B79002B12D03C
:10370000FA79BB7B1749D2000A4413441878FA7936
:10371000BB7BF97B0143C8B21249D2000A4413446F
:1037200002461A7018E0FA79BB7B0E49D2000A44AF
:1037300013441B785AB297F90F30DB435BB2134046
:1037400059B2FA79BB7BC8B20649D2000A44134485
:1037500002461A7000E000BF1437BD465DF8047BD6
:10376000704700BFD805002090B585B000AF044673
:10377000084611461A462346FB710346BB710B46A9
:103780007B7113463B71BB793B737B79203B7B712B
:103790000023BB734DE03B790C2B0BD17A79B97BBD
:1037A000284813465B0013449B0003440B441B78DA
:1037B000FB7307E07A79BB7B234912010A44134467
:1037C0001B78FB7300237B732DE097F90F30002BE0
:1037D00007DA97F82020B979FB791846FFF76AFFD6
:1037E0000CE097F82030002B0CBF01230023DBB244
:1037F0001A46B979FB791846FFF75CFFFB7B5B0043
:10380000FB73BB790133BB71BA793B7BD21A3B792D
:103810009A4205D13B7BBB71FB790133FB7105E01B
:103820007B7B01337B737B7B072BCED9BB7B013347
:10383000BB73BA7B3B799A42ADD300BF00BF14374C
:10384000BD4690BDB8FB00082C00010880B485B0CF
:1038500000AF03460A46FB711346BB710123FB60B0
:1038600004E0FA79FB6802FB03F3FB60BB795A1EA4
:10387000BA71002BF5D1FB6818461437BD465DF8C8
:10388000047B704790B587B002AF3A601A46034692
:10389000FB710B46BB7113467B710023BB73002386
:1038A000FB7351E07A79FB7BD31ADBB2013BDBB2CD
:1038B00019460A20FFF7CAFF02463B68B3FBF2F144
:1038C000264BA3FB0123DA0813469B0013445B003D
:1038D000CA1A13467B73BB7B002B1DD1FA7B7B7905
:1038E000013B9A4218DA7B7B002B13D197F82030EA
:1038F0005B08DBB2FA7B12FB03F3DAB2FB79134409
:10390000D8B297F82030B979012200922022FFF72F
:103910002BFF16E00123BB7397F820305B08DBB266
:10392000FA7B12FB03F3DAB2FB791344D8B27B7B48
:103930003033DAB297F82030B97901240094FFF7D8
:1039400013FFFB7B0133FB73FA7B7B799A42A9D38C
:1039500000BF00BF1437BD4690BD00BFCDCCCCCC5E
:1039600080B584B002AF03463A60FB710B46BB7171
:103970001FE0FB797A2B04D90023FB71BB7910334C
:10398000BB71BB793A2B05D90023FB71FB79BB7165
:10399000FFF76AFE3B681A78B979F879012300933A
:1039A0000C23FFF7E1FEFB790833FB713B68013321
:1039B0003B603B681B78002BDBD100BF00BF0837A2
:1039C000BD4680BD80B500AF02F08EFD424B1B6F3F
:1039D000414A23F0010313673F4B1B6F3E4A23F01C
:1039E0000403136702F094FD00224FF480513B481A
:1039F00001F00EFC642001F08FF801224FF4805199
:103A0000364801F005FC0021AE20FFF7DFFD002164
:103A1000D520FFF7DBFD00215020FFF7D7FD002167
:103A2000A820FFF7D3FD00213F20FFF7CFFD0021A5
:103A3000D320FFF7CBFD00210020FFF7C7FD0021B9
:103A40004020FFF7C3FD00218D20FFF7BFFD0021BF
:103A50001420FFF7BBFD00212020FFF7B7FD002158
:103A60000220FFF7B3FD0021A120FFF7AFFD0021E9
:103A7000C020FFF7ABFD0021DA20FFF7A7FD0021F2
:103A80001220FFF7A3FD00218120FFF79FFD0021F9
:103A9000EF20FFF79BFD0021D920FFF797FD0021C4
:103AA000F120FFF793FD0021DB20FFF78FFD0021C0
:103AB0003020FFF78BFD0021A420FFF787FD0021B8
:103AC000A620FFF783FD0021AF20FFF77FFDFFF762
:103AD000CBFD00BF80BD00BF00380240000C02409B
:103AE00080B487B000AF7861396187ED030AC7ED14
:103AF000020A87ED011AC7ED001A7B69002B4DD031
:103B00003B69002B4AD03B691A687B691A603B69A4
:103B100004331A687B695A603B6908331A687B6909
:103B20009A607B69FA685A627B69BA689A627B69B3
:103B30007A68DA627B693A681A637B694FF000023F
:103B40009A647B699A6C7B695A647B695A6C7B695D
:103B50001A647B694FF00002DA637B69DA6B7B6978
:103B60009A637B699A6B7B695A637B694FF00002A9
:103B70005A617B695A697B691A627B691A6A7B6937
:103B8000DA617B69DA697B699A617B694FF00002CF
:103B90001A617B691A697B69DA6000E000BF1C3733
:103BA000BD465DF8047B704780B485B000AFF86017
:103BB00087ED020AC7ED010AFB68002B02D14FF026
:103BC0000003E5E0FB689A6BFB68DA63FB685A6BFD
:103BD000FB689A63FB687A68DA60FB68BA681A6106
:103BE00097ED017AD7ED027A77EE677AFB68C3ED3D
:103BF0000D7AFB6893ED007AFB68D3ED0D7A67EEE2
:103C0000277AFB68C3ED067AFB6893ED077AFB68B9
:103C1000D3ED016AFB68D3ED0D7A66EEA76AFB6807
:103C2000D3ED0C7A66EEA77A77EE277AFB68C3EDC0
:103C3000077AFB6893ED077AFB68D3ED0A7AB4EE56
:103C4000E77AF1EE10FA04DDFB689A6AFB68DA6144
:103C500014E0FB6893ED077AFB68D3ED0A7AF1EE86
:103C6000677AB4EEE77AF1EE10FA07D5FB68D3ED88
:103C70000A7AF1EE677AFB68C3ED077AFB685A6C43
:103C8000FB689A64FB681A6CFB685A64FB6893EDE6
:103C90000D7AFB68D3ED0E7A77EE677AFB68C3ED99
:103CA000107AFB68D3ED026AFB6893ED106AFB683B
:103CB000D3ED0C7AF5EEC07AF1EE10FA03DDFB6875
:103CC000D3ED0C7A01E0F7EE007A86EE277A66EE05
:103CD000877AFB68C3ED087AFB6893ED087AFB6886
:103CE000D3ED0B7AB4EEE77AF1EE10FA04DDFB685F
:103CF000DA6AFB681A6214E0FB6893ED087AFB68E5
:103D0000D3ED0B7AF1EE677AB4EEE77AF1EE10FAC2
:103D100007D5FB68D3ED0B7AF1EE677AFB68C3ED4C
:103D2000087AFB6893ED067AFB68D3ED077A37EEE5
:103D3000277AFB68D3ED087A77EE277AFB68C3ED24
:103D4000057AFB6893ED057AFB68D3ED097AB4EE4A
:103D5000E77AF1EE10FA04DDFB685A6AFB685A61F3
:103D600014E0FB6893ED057AFB68D3ED097AF1EE78
:103D7000677AB4EEE77AF1EE10FA07D5FB68D3ED77
:103D8000097AF1EE677AFB68C3ED057AFB685B6937
:103D900007EE903AB0EE670A1437BD465DF8047B33
:103DA000704780B483B000AF78607B68002B30D060
:103DB0007B684FF00002DA637B68DA6B7B689A639A
:103DC0007B689A6B7B685A637B684FF000029A6449
:103DD0007B689A6C7B685A647B685A6C7B681A644F
:103DE0007B684FF000021A627B681A6A7B68DA61AE
:103DF0007B68DA697B689A617B689A697B685A613B
:103E00007B684FF00002DA607B68DA687B681A61D1
:103E100000E000BF0C37BD465DF8047B7047000032
:103E200080B58AB000AF78604B4B1B78002B40F018
:103E30008F804A4B1B68002B00F08A807B681A68D1
:103E4000464B1B681B689A4240F08380444B1B78AA
:103E5000DBB2002B32D0434B1B681946786804F064
:103E60001FF80346404A13603D4B00221A703F4B37
:103E700002221A7007F10C0300221A605A609A603D
:103E8000DA600223FB6001233B6100237B61002396
:103E9000BB61344B1B681946786803F009FB314B52
:103EA0001A6807F10C031946786803F0D3FD2D4B0F
:103EB0001B681946786803F0D3F94AE0294B1B6860
:103EC0001946786803F0ECFF0346294A1360254B36
:103ED0001B681946786803F0EBFA254B1A68224BE9
:103EE0001B689A4206D3224B1A681F4B1B68D31AD1
:103EF0007B620DE0194B1B681B68DB6A3B621A4B47
:103F00001B683A6AD21A1A4B1B68134401337B624E
:103F10007B6A07EE903AB8EE677A164BD3ED007ADB
:103F200067EE277AC7ED077AD7ED077A9FED127A09
:103F300027EE877AF0EE006AC7EE267A0F4BC3EDC4
:103F4000007A074B01221A70084B00221A7000E019
:103F500000BF2837BD4680BDE0090020D8090020F9
:103F600014000020DC090020E4090020E109002001
:103F7000E809002010000020287E0C3DEC090020FC
:103F800080B582B000AF78607B685B8A194678683C
:103F900000F09FF800BF0837BD4680BD80B485B0F3
:103FA00000AF78600B467B807B8807EE903AF8EE96
:103FB000E76A7B6893ED027AC6EE877AC7ED037AEB
:103FC000D7ED037AF5EEC07AF1EE10FA02D54FF094
:103FD0000003FB607B68DB6807EE903AF8EE677AD7
:103FE00097ED037AB4EEE77AF1EE10FA07DD7B681D
:103FF000DB6807EE903AF8EE677AC7ED037AD7ED03
:10400000037AB6EE007A77EE877AFCEEE77A17EE5F
:10401000903A18461437BD465DF8047B704780B46B
:1040200083B000AF78607B681B68DB6A18460C378A
:10403000BD465DF8047B704780B586B000AF7861FF
:104040003961FA6087ED020AFB807B69002B18D08A
:104050007B693A691A607B69FA685A607B69BA6859
:104060009A603869FFF7DBFF02467B69DA607B699B
:10407000FA881A827B693A8C5A827B69BA8C9A8256
:1040800000E000BF1837BD4680BD80B584B000AFEA
:1040900078607B68002B03D07B681B68002B01D104
:1040A000012312E07B681A687B685B68194610463A
:1040B00002F0B4FF0346FB73FB7B002B01D0FB7BBC
:1040C00003E07868FFF75CFF002318461037BD4611
:1040D00080BD80B584B000AF78600B467B807B6884
:1040E000002B3DD07B681B68002B39D07B681B8A76
:1040F0007A889A4202D27B681B8A7B807B689B8A83
:104100007A889A4202D97B689B8A7B807B88194691
:104110007868FFF743FFF8607B685B68002B05D188
:104120007B681B681B68FA685A631AE07B685B68E7
:10413000042B05D17B681B681A68FB68936310E049
:104140007B685B68082B05D17B681B681A68FB6875
:10415000D36306E07B681B681A68FB68136400E0A1
:1041600000BF1037BD4680BD80B586B000AF786017
:1041700087ED000A7B68002B58D0D7ED007AF5EE6A
:10418000C07AF1EE10FA28D597ED007ADFED296AB2
:10419000C7EE267AC7ED037A7B685B8A07EE903A12
:1041A000B8EE677A7B685B8A1A467B681B8AD31AEB
:1041B00007EE903AF8EEE76AD7ED037A66EEA77A53
:1041C00077EE677AFCEEE77A17EE903A7B817B898F
:1041D00019467868FFF77DFF29E097ED007ADFED5B
:1041E000166AC7EE267AC7ED057A7B685B8A07EE0A
:1041F000903AB8EE677A7B689B8A1A467B685B8A3E
:10420000D31A07EE903AF8EEE76AD7ED057A66EE34
:10421000A77A77EE277AFCEEE77A17EE903A7B8260
:104220007B8A19467868FFF754FF00E000BF183713
:10423000BD4680BD0000C8C20000C84280B582B043
:1042400000AF00237B60124B5B6C114A43F4804348
:1042500053640F4B5B6C03F480437B607B680023EB
:104260003B600B4B1B6C0A4A43F080531364084BB2
:104270001B6C03F080533B603B6800220F216FF002
:10428000010000F048FD00BF0837BD4680BD00BFFB
:104290000038024080B58AB000AF786007F114039F
:1042A00000221A605A609A60DA601A617B681B68A3
:1042B000194A93422CD100233B61184B1B6B174AC0
:1042C00043F002031363154B1B6B03F002033B61C6
:1042D0003B694FF440637B611223BB610023FB61A8
:1042E00003233B6204237B6207F1140319460C4845
:1042F00000F0DAFD0023FB60084B1B6C074A43F417
:1043000080031364054B1B6C03F48003FB60FB68A4
:1043100000BF2837BD4680BD00580040003802402D
:104320000004024080B58CB000AF786007F11C0338
:1043300000221A605A609A60DA601A617B681B6812
:10434000B3F1804F4BD10023BB613F4B1B6C3E4A06
:1043500043F0010313643C4B1B6C03F00103BB618E
:10436000BB6900237B61384B1B6B374A43F0010369
:104370001363354B1B6B03F001037B617B690023E7
:104380003B61314B1B6B304A43F0020313632E4BEE
:104390001B6B03F002033B613B694FF40043FB617D
:1043A00002233B6200237B620023BB620123FB628A
:1043B00007F11C031946254800F076FD0823FB6130
:1043C00002233B6200237B620023BB620123FB626A
:1043D00007F11C0319461E4800F066FD30E07B68BB
:1043E0001B681C4A93422BD10023FB60164B1B6CAD
:1043F000154A43F002031364134B1B6C03F00203D2
:10440000FB60FB680023BB600F4B1B6B0E4A43F045
:10441000020313630C4B1B6B03F00203BB60BB680E
:104420003023FB6102233B6200237B620023BB62DB
:104430000223FB6207F11C031946054800F034FD16
:1044400000BF3037BD4680BD00380240000002404A
:10445000000402400004004080B58EB000AF7860D8
:1044600007F1240300221A605A609A60DA601A6128
:104470007B681B684D4A93420ED100233B624C4B34
:104480001B6C4B4A43F004031364494B1B6C03F051
:1044900004033B623B6A85E07B681B68454A9342A4
:1044A00016D10023FB61424B1B6C414A43F00803C9
:1044B00013643F4B1B6C03F00803FB61FB69002294
:1044C0000521322000F027FC322000F040FC69E09A
:1044D0007B681B68384A934216D10023BB61344B7A
:1044E0005B6C334A43F002035364314B5B6C03F063
:1044F0000203BB61BB69002205212B2000F00BFCED
:104500002B2000F024FC4DE07B681B682B4A934273
:104510000ED100237B61264B5B6C254A43F480332C
:104520005364234B5B6C03F480337B617B6939E01C
:104530007B681B68224A934234D100233B611C4BA9
:104540001B6C1B4A43F040031364194B1B6C03F0B4
:1045500040033B613B690023FB60154B1B6B144A16
:1045600043F002031363124B1B6B03F00203FB6067
:10457000FB684FF480437B620223BB620023FB6233
:1045800000233B6309237B6307F1240319460D488D
:1045900000F08AFC002205212B2000F0BCFB2B2020
:1045A00000F0D5FB00BF3837BD4680BD0008004095
:1045B00000380240000C004000040140004001406F
:1045C000001800400004024080B58AB000AF786057
:1045D00007F1140300221A605A609A60DA601A61C7
:1045E0007B681B68364A93421FD100233B61354BE1
:1045F0001B6B344A43F002031363324B1B6B03F013
:1046000002033B613B694FF440737B610223BB6152
:104610000023FB6100233B6202237B6207F114034A
:104620001946294800F040FC46E07B681B68274A91
:1046300093421ED10023FB60224B1B6B214A43F0A7
:10464000040313631F4B1B6B03F00403FB60FB6845
:1046500040237B610223BB610023FB6102233B6299
:1046600003237B6207F114031946194800F01CFC70
:1046700022E07B681B68174A93421DD10023BB6070
:10468000104B1B6B0F4A43F0100313630D4B1B6B56
:1046900003F01003BB60BB6860237B610223BB6136
:1046A0000023FB6100233B6203237B6207F11403B9
:1046B0001946094800F0F8FB00BF2837BD4680BD09
:1046C000000800400038024000040240000401409D
:1046D00000080240004001400010024080B58AB04E
:1046E00000AF786007F1140300221A605A609A60E4
:1046F000DA601A617B681B681D4A934234D100233B
:104700003B611C4B1B6C1B4A43F480231364194B05
:104710001B6C03F480233B613B690023FB60154B5A
:104720001B6B144A43F008031363124B1B6B03F01B
:104730000803FB60FB684FF440737B610223BB619D
:104740000023FB6103233B6207237B6207F1140311
:104750001946094800F0A8FB00220521272000F097
:10476000DAFA272000F0F3FA00BF2837BD4680BDF3
:104770000048004000380240000C024080B400AF06
:1047800000BFFDE780B400AF00BFFDE780B400AF1D
:1047900000BFFDE780B400AF00BFFDE780B400AF0D
:1047A00000BFFDE780B400AF00BFBD465DF8047BED
:1047B000704780B500AF00F08FF906F0A3FE034606
:1047C000012B01D007F098FC00BF80BD80B500AF81
:1047D000024804F0E9F900BF80BD00BF3C0500209D
:1047E00080B500AF034803F045F8034803F042F8F2
:1047F00000BF80BD64040020F404002080B500AF39
:10480000024803F037F800BF80BD00BF1C04002041
:1048100080B400AF01231846BD465DF8047B7047A5
:1048200080B582B000AF7860396008F005FC0346BF
:1048300016221A604FF0FF3318460837BD4680BD78
:1048400080B582B000AF78604FF0FF317868FFF735
:10485000E7FF00BFFDE780B586B000AFF860B96044
:104860007A6000237B610AE0AFF300800146BB68F9
:104870005A1CBA60CAB21A707B6901337B617A69CB
:104880007B689A42F0DB7B6818461837BD4680BDCE
:1048900080B586B000AFF860B9607A6000237B61B4
:1048A00009E0BB685A1CBA601B781846AFF3008059
:1048B0007B6901337B617A697B689A42F1DB7B68B3
:1048C00018461837BD4680BD80B483B000AF78600D
:1048D0004FF0FF3318460C37BD465DF8047B704738
:1048E00080B483B000AF786039603B684FF4005209
:1048F0005A60002318460C37BD465DF8047B7047AC
:1049000080B483B000AF7860012318460C37BD46F1
:104910005DF8047B704780B485B000AFF860B96083
:104920007A60002318461437BD465DF8047B704753
:1049300080B586B000AF7860144A154BD31A7B61FE
:104940007B693B61134B1B68002B02D1114B124A50
:104950001A60104B1A687B6813443A699A4207D26E
:1049600008F06AFB03460C221A604FF0FF3309E09F
:10497000084B1B68FB60074B1A687B681344054AA9
:104980001360FB6818461837BD4680BD0000022042
:1049900000040000F00900209854002080B400AF0B
:1049A000064BD3F88830054A43F47003C2F88830C8
:1049B00000BFBD465DF8047B704700BF00ED00E01E
:1049C00080B500AF0121054800F00AFC0346012B29
:1049D00014BF01230023DBB2184680BD0010024043
:1049E000DFF834D0FFF7DAFF0C480D490D4A0023F9
:1049F00002E0D458C4500433C4188C42F9D30A4A94
:104A00000A4C002301E013600432A242FBD308F0F9
:104A100019FBFDF753F8704700000220000000204A
:104A2000F00100208C0D0108F001002094540020BA
:104A3000FEE7000080B500AF0E4B1B680D4A43F443
:104A4000007313600B4B1B680A4A43F480631360C6
:104A5000084B1B68074A43F480731360032000F07F
:104A60004FF90F2000F008F8FFF7E8FB0023184685
:104A700080BD00BF003C024080B582B000AF7860CE
:104A8000124B1A68124B1B7819464FF47A73B3FB1A
:104A9000F1F3B2FBF3F3184600F067F90346002B7D
:104AA00001D001230EE07B680F2B0AD80022796821
:104AB0004FF0FF3000F02FF9064A7B6813600023A7
:104AC00000E0012318460837BD4680BD18000020CD
:104AD000200000201C00002080B400AF064B1B7893
:104AE0001A46064B1B681344044A136000BFBD46B8
:104AF0005DF8047B704700BF20000020F40900200F
:104B000080B400AF034B1B681846BD465DF8047BBC
:104B1000704700BFF409002080B584B000AF786012
:104B2000FFF7EEFFB8607B68FB60FB68B3F1FF3F07
:104B300005D00A4B1B781A46FB681344FB6000BF84
:104B4000FFF7DEFF0246BB68D31AFA689A42F7D82D
:104B500000BF00BF1037BD4680BD00BF2000002051
:104B600080B485B000AF78607B6803F00703FB601A
:104B70000C4BDB68BB60BA684FF6FF031340BB60A9
:104B8000FB681A02BB68134343F0BF6343F400336E
:104B9000BB60044ABB68D36000BF1437BD465DF8F4
:104BA000047B704700ED00E080B400AF044BDB688D
:104BB0001B0A03F007031846BD465DF8047B7047E7
:104BC00000ED00E080B483B000AF0346FB7197F9BD
:104BD0000730002B0BDBFB7903F01F02074997F925
:104BE00007305B09012000FA02F241F8232000BFE0
:104BF0000C37BD465DF8047B704700BF00E100E064
:104C000080B483B000AF03463960FB7197F9073079
:104C1000002B0ADB3B68DAB20C4997F90730120126
:104C2000D2B20B4483F800230AE03B68DAB20849A9
:104C3000FB7903F00F03043B1201D2B20B441A7646
:104C400000BF0C37BD465DF8047B704700E100E013
:104C500000ED00E080B489B000AFF860B9607A6020
:104C6000FB6803F00703FB61FB69C3F10703042B37
:104C700028BF0423BB61FB690433062B02D9FB69FF
:104C8000033B00E000237B614FF0FF32BB6902FA77
:104C900003F3DA43BB681A407B699A404FF0FF3157
:104CA0007B6901FA03F3D9437B680B401343184631
:104CB0002437BD465DF8047B7047000080B582B0A4
:104CC00000AF78607B68013BB3F1807F01D30123A3
:104CD0000FE00A4A7B68013B53600F214FF0FF3021
:104CE000FFF78EFF054B00229A60044B07221A60E3
:104CF000002318460837BD4680BD00BF10E000E025
:104D000080B582B000AF78607868FFF729FF00BFF8
:104D10000837BD4680BD80B586B000AF0346B96098
:104D20007A60FB7300237B61FFF73EFF78617A684E
:104D3000B9687869FFF78EFF024697F90F30114680
:104D40001846FFF75DFF00BF1837BD4680BD80B530
:104D500082B000AF0346FB7197F907301846FFF7A2
:104D600031FF00BF0837BD4680BD80B582B000AFBF
:104D700078607868FFF7A2FF034618460837BD46FB
:104D800080BD80B584B000AF78607B689B6DFB60B0
:104D9000FFF7B6FEB8607B6893F83530DBB2022BC4
:104DA00008D07B6880225A657B68002283F8342013
:104DB000012352E07B681B681A687B681B6822F03D
:104DC00016021A607B681B685A697B681B6822F0B0
:104DD00080025A617B681B6C002B03D17B689B6C43
:104DE000002B07D07B681B681A687B681B6822F061
:104DF00008021A607B681B681A687B681B6822F0CF
:104E000001021A6013E0FFF77BFE0246BB68D31A6B
:104E1000052B0CD97B6820225A657B68032283F816
:104E200035207B68002283F83420032315E07B685B
:104E30001B681B6803F00103002BE4D17B68DB6D6A
:104E40003F229A40FB689A607B68012283F83520F4
:104E50007B68002283F83420002318461037BD46B3
:104E600080BD80B483B000AF78607B6893F8353044
:104E7000DBB2022B04D07B6880225A6501230CE050
:104E80007B68052283F835207B681B681A687B687D
:104E90001B6822F001021A60002318460C37BD4639
:104EA0005DF8047B7047000080B489B000AF786083
:104EB000396000237B6100233B610023BB61002339
:104EC000FB616BE10122FB6902FA03F37B613B6842
:104ED0001B687A6913403B613A697B699A4240F0EA
:104EE0005A813B685B6803F00303012B05D03B68E4
:104EF0005B6803F00303022B30D17B689B68BB61C6
:104F0000FB695B00032202FA03F3DB43BA69134037
:104F1000BB613B68DA68FB695B0002FA03F3BA69BC
:104F20001343BB617B68BA699A607B685B68BB614D
:104F30000122FB6902FA03F3DB43BA691340BB6148
:104F40003B685B681B0903F00102FB6902FA03F38B
:104F5000BA691343BB617B68BA695A603B685B6896
:104F600003F00303032B17D07B68DB68BB61FB698D
:104F70005B00032202FA03F3DB43BA691340BB610F
:104F80003B689A68FB695B0002FA03F3BA69134352
:104F9000BB617B68BA69DA603B685B6803F0030356
:104FA000022B23D1FB69DA087B68083253F82230E0
:104FB000BB61FB6903F007039B000F2202FA03F3B6
:104FC000DB43BA691340BB613B681A69FB6903F0B4
:104FD00007039B0002FA03F3BA691343BB61FB6941
:104FE000DA087B680832B96943F822107B681B68CD
:104FF000BB61FB695B00032202FA03F3DB43BA697E
:105000001340BB613B685B6803F00302FB695B0014
:1050100002FA03F3BA691343BB617B68BA691A6089
:105020003B685B6803F44033002B00F0B48000233E
:10503000FB60604B5B6C5F4A43F4804353645D4BA1
:105040005B6C03F48043FB60FB685B4AFB699B0875
:10505000023352F82330BB61FB6903F003039B006A
:105060000F2202FA03F3DB43BA691340BB617B688A
:10507000524A93422BD07B68514A934225D07B6899
:10508000504A93421FD07B684F4A934219D07B68A5
:105090004E4A934213D07B684D4A93420DD07B68B1
:1050A0004C4A934207D07B684B4A934201D1072375
:1050B0000EE008230CE006230AE0052308E00423A1
:1050C00006E0032304E0022302E0012300E00023C2
:1050D000FA6902F0030292009340BA691343BB617C
:1050E0003549FB699B080233BA6941F823203B4BE1
:1050F0009B68BB613B69DB43BA691340BB613B689A
:105100005B6803F48013002B03D0BA693B69134337
:10511000BB61324ABB699360304BDB68BB613B6962
:10512000DB43BA691340BB613B685B6803F400135F
:10513000002B03D0BA693B691343BB61274ABB69A3
:10514000D360264B5B68BB613B69DB43BA691340A4
:10515000BB613B685B6803F40033002B03D0BA6982
:105160003B691343BB611D4ABB6953601B4B1B6802
:10517000BB613B69DB43BA691340BB613B685B6859
:1051800003F48033002B03D0BA693B691343BB613E
:10519000124ABB691360FB690133FB61FB690F2B8A
:1051A0007FF690AE00BF00BF2437BD465DF8047B9C
:1051B000704700BF00380240003801400000024044
:1051C0000004024000080240000C024000100240AF
:1051D0000014024000180240001C0240003C014044
:1051E00080B485B000AF78600B467B807B681A691D
:1051F0007B881340002B02D00123FB7301E00023C6
:10520000FB73FB7B18461437BD465DF8047B704783
:1052100080B483B000AF78600B467B8013467B7010
:105220007B78002B03D07A887B689A6103E07B88C7
:105230001A047B689A6100BF0C37BD465DF8047B99
:105240007047000080B584B000AF78607B68002BA9
:1052500001D101232BE17B6893F83D30DBB2002BB9
:1052600006D17B68002283F83C207868FFF712F8AB
:105270007B68242283F83D207B681B681A687B6862
:105280001B6822F001021A607B681B681A687B6841
:105290001B6842F400421A607B681B681A687B68CE
:1052A0001B6822F400421A6001F076FDF8607B680A
:1052B0005B68814A934207D8FB68804A934294BF57
:1052C00001230023DBB206E0FB687D4A934294BFD2
:1052D00001230023DBB2002B01D00123E7E0FB68B0
:1052E000784AA2FB03239B0CBB607B681B685B684E
:1052F00023F03F017B681B68BA680A435A607B68E9
:105300001B681B6A23F03F017B685B686A4A934213
:1053100002D8BB68013309E0BB684FF4967202FB08
:1053200003F3694AA2FB03239B0901337A681268DD
:105330000B4313627B681B68DB6923F44F4222F046
:10534000FF027B685B685C498B4219D8FB68591E79
:105350007B685B685B00B1FBF3F3591C40F6FC73A0
:105360000B40002B0AD0FB68591E7B685B685B0012
:10537000B1FBF3F30133C3F30B0351E004234FE01C
:105380007B689B68002B11D1FB68581E7B685968AD
:105390000B465B000B44B0FBF3F30133C3F30B0389
:1053A000002B0CBF01230023DBB212E0FB68581E68
:1053B0007B6859680B469B000B4499000B44B0FB7B
:1053C000F3F30133C3F30B03002B0CBF01230023C2
:1053D000DBB2002B01D0012322E07B689B68002B0D
:1053E0000ED1FB68581E7B6859680B465B000B4466
:1053F000B0FBF3F30133C3F30B0343F400430FE0BB
:10540000FB68581E7B6859680B469B000B4499004B
:105410000B44B0FBF3F30133C3F30B0343F44043FA
:10542000796809681343CB617B681B681B6823F0AC
:10543000C0017B68DA697B681B6A1A437B681B685A
:105440000A431A607B681B689B6823F4034323F0BC
:10545000FF037A6811697A68D26811437A68126822
:105460000B4393607B681B68DB6823F0FF017B685C
:105470005A697B689B691A437B681B680A43DA6038
:105480007B681B681A687B681B6842F001021A601F
:105490007B6800221A647B68202283F83D207B68A9
:1054A00000221A637B68002283F83E2000231846FE
:1054B0001037BD4680BD00BFA08601007F841E005E
:1054C000FF083D0083DE1B43D34D621080B588B0DA
:1054D00002AFF860084611461A4603467B810B4628
:1054E0003B811346FB80FFF70BFB7861FB6893F869
:1054F0003D30DBB2202B40F0D9807B69009319232B
:1055000001226D49F86800F0B9FD0346002B01D077
:105510000223CCE0FB6893F83C30012B01D102233D
:10552000C5E0FB68012283F83C20FB681B681B6810
:1055300003F00103012B07D0FB681B681A68FB68A6
:105540001B6842F001021A60FB681B681A68FB685E
:105550001B6822F400621A60FB68212283F83D2058
:10556000FB68402283F83E20FB6800221A64FB6837
:105570003A6A5A62FB68BA8C5A85FB685B8D9AB2AC
:10558000FB681A85FB684D4ADA62F8883A8979899E
:105590007B690193BB6A00930346F86800F0F0FB57
:1055A0000346002B52D0012381E07A69B96AF8687A
:1055B00000F07EFE0346002B0DD0FB681B6C042B15
:1055C00007D1FB681B681A68FB681B6842F400720D
:1055D0001A6001236BE0FB685B6A1A78FB681B6842
:1055E0001A61FB685B6A5A1CFB685A62FB681B8D78
:1055F000013B9AB2FB681A85FB685B8D9BB2013B4D
:105600009AB2FB685A85FB681B685B6903F0040368
:10561000042B1BD1FB681B8D002B17D0FB685B6A2A
:105620001A78FB681B681A61FB685B6A5A1CFB6886
:105630005A62FB681B8D013B9AB2FB681A85FB68B6
:105640005B8D9BB2013B9AB2FB685A85FB681B8D50
:10565000002BAAD17A69B96AF86800F071FE034696
:10566000002B0DD0FB681B6C042B07D1FB681B685B
:105670001A68FB681B6842F400721A60012316E086
:10568000FB681B681A68FB681B6842F400721A60AA
:10569000FB68202283F83D20FB68002283F83E202F
:1056A000FB68002283F83C20002300E00223184618
:1056B0001837BD4680BD00BF020010000000FFFF8C
:1056C00080B58CB002AFF860084611461A46034612
:1056D0007B810B463B811346FB80FFF711FA786212
:1056E000FB6893F83D30DBB2202B40F014827B6ADC
:1056F0000093192301227B49F86800F0BFFC0346A0
:10570000002B01D0022307E2FB6893F83C30012B09
:1057100001D1022300E2FB68012283F83C20FB68F0
:105720001B681B6803F00103012B07D0FB681B6893
:105730001A68FB681B6842F001021A60FB681B686C
:105740001A68FB681B6822F400621A60FB68222258
:1057500083F83D20FB68402283F83E20FB6800224E
:105760001A64FB683A6B5A62FB68BA8E5A85FB680A
:105770005B8D9AB2FB681A85FB685B4ADA62F8882F
:105780003A8979897B6A0193BB6B00930346F86879
:1057900000F08CFB0346002B01D00123BCE1FB6829
:1057A0001B8D002B13D100233B62FB681B685B69D8
:1057B0003B62FB681B689B693B623B6AFB681B683A
:1057C0001A68FB681B6842F400721A6090E1FB687B
:1057D0001B8D012B1BD1FB681B681A68FB681B68BB
:1057E00022F480621A600023FB61FB681B685B691E
:1057F000FB61FB681B689B69FB61FB69FB681B68BD
:105800001A68FB681B6842F400721A6070E1FB685A
:105810001B8D022B1BD1FB681B681A68FB681B6879
:1058200022F480621A60FB681B681A68FB681B68B8
:1058300042F400621A600023BB61FB681B685B696D
:10584000BB61FB681B689B69BB61BB6950E10023BE
:105850007B61FB681B685B697B61FB681B689B69FC
:105860007B617B6944E1FB681B8D032B00F2F180B7
:10587000FB681B8D012B23D17A6AB96BF86800F0A5
:10588000A7FD0346002B01D0012345E1FB681B68FF
:105890001A69FB685B6AD2B21A70FB685B6A5A1CB1
:1058A000FB685A62FB681B8D013B9AB2FB681A8544
:1058B000FB685B8D9BB2013B9AB2FB685A8517E18E
:1058C000FB681B8D022B4ED17B6A0093BB6B0022C1
:1058D0000649F86800F0D2FB0346002B08D00123EC
:1058E0001AE100BF020010000000FFFF04000100E9
:1058F000FB681B681A68FB681B6842F400721A6038
:10590000FB681B681A69FB685B6AD2B21A70FB6895
:105910005B6A5A1CFB685A62FB681B8D013B9AB29A
:10592000FB681A85FB685B8D9BB2013B9AB2FB68F2
:105930005A85FB681B681A69FB685B6AD2B21A70E9
:10594000FB685B6A5A1CFB685A62FB681B8D013B53
:105950009AB2FB681A85FB685B8D9BB2013B9AB2D9
:10596000FB685A85C4E07B6A0093BB6B00226C49DC
:10597000F86800F083FB0346002B01D00123CBE045
:10598000FB681B681A68FB681B6822F480621A6057
:10599000FB681B681A69FB685B6AD2B21A70FB6805
:1059A0005B6A5A1CFB685A62FB681B8D013B9AB20A
:1059B000FB681A85FB685B8D9BB2013B9AB2FB6862
:1059C0005A857B6A0093BB6B00225549F86800F04A
:1059D00055FB0346002B01D001239DE0FB681B68AB
:1059E0001A68FB681B6842F400721A60FB681B6847
:1059F0001A69FB685B6AD2B21A70FB685B6A5A1C50
:105A0000FB685A62FB681B8D013B9AB2FB681A85E2
:105A1000FB685B8D9BB2013B9AB2FB685A85FB68C1
:105A20001B681A69FB685B6AD2B21A70FB685B6A12
:105A30005A1CFB685A62FB681B8D013B9AB2FB68DB
:105A40001A85FB685B8D9BB2013B9AB2FB685A8555
:105A50004EE07A6AB96BF86800F0BAFC0346002B96
:105A600001D0012358E0FB681B681A69FB685B6A78
:105A7000D2B21A70FB685B6A5A1CFB685A62FB68F8
:105A80001B8D013B9AB2FB681A85FB685B8D9BB24C
:105A9000013B9AB2FB685A85FB681B685B6903F09F
:105AA0000403042B24D1FB681B8D032B07D1FB6857
:105AB0001B681A68FB681B6822F480621A60FB6826
:105AC0001B681A69FB685B6AD2B21A70FB685B6A72
:105AD0005A1CFB685A62FB681B8D013B9AB2FB683B
