:020000040800F2
:1000000000000220E14F00087D4D0008854D0008EA
:100010008D4D0008954D00089D4D00080000000022
:1000200000000000000000000000000001C80008FF
:10003000A54D00080000000051CA0008B34D00089B
:10004000315000083150000831500008315000088C
:10005000315000083150000831500008315000087C
:10006000315000083150000831500008315000086C
:10007000315000083150000831500008315000085C
:10008000315000083150000831500008315000084C
:10009000315000083150000831500008315000083C
:1000A000315000083150000831500008315000082C
:1000B000315000083150000831500008315000081C
:1000C000315000083150000831500008315000080C
:1000D000315000083150000831500008CD4D000863
:1000E000315000083150000831500008E14D00083F
:1000F00031500008315000083150000831500008DC
:100100003150000831500008FD4D00083150000802
:1001100031500008315000083150000831500008BB
:1001200031500008315000083150000831500008AB
:10013000315000083150000831500008315000089B
:10014000315000083150000831500008315000088B
:10015000315000083150000831500008315000087B
:10016000315000083150000831500008315000086B
:1001700031500008315000083150000800000000E4
:08018000315000083150000865
:1001900010B5054C237833B9044B13B10448AFF3C1
:1001A00000800123237010BDF0010020000000003A
:1001B0008808010808B5034B1BB103490348AFF396
:1001C000008008BD00000000F4010020880801083C
:1001D00001F0FF01102A2BDB10F0070F08D010F8F8
:1001E000013B013A8B422DD010F0070F42B3F6D1FC
:1001F000F0B441EA012141EA014122F007047FF015
:1002000000070023F0E80256083C85EA010586EA6B
:10021000010685FA47F5A3FA87F586FA47F6A5FAA7
:1002200087F68EB9EED1F0BC01F0FF0102F00702B3
:1002300032B110F8013B013A83EA010313B1F8D15E
:100240000020704701387047002D06BF354603383F
:10025000073815F0010F07D1013015F4807F02BF78
:10026000013015F4C03F0130F0BC0138704700BFC9
:10027000034613F8012B002AFBD1181A01387047E6
:1002800081F0004102E000BF83F0004330B54FEA47
:1002900041044FEA430594EA050F08BF90EA020FB4
:1002A0001FBF54EA000C55EA020C7FEA645C7FEA47
:1002B000655C00F0E2804FEA5454D4EB5555B8BF6A
:1002C0006D420CDD2C4480EA020281EA030382EADB
:1002D000000083EA010180EA020281EA0303362D6D
:1002E00088BF30BD11F0004F4FEA01314FF4801C40
:1002F0004CEA113102D0404261EB410113F0004F52
:100300004FEA03334CEA133302D0524263EB430308
:1003100094EA050F00F0A780A4F10104D5F1200EA6
:100320000DDB02FA0EFC22FA05F2801841F1000101
:1003300003FA0EF2801843FA05F359410EE0A5F1D5
:1003400020050EF1200E012A03FA0EFC28BF4CF006
:10035000020C43FA05F3C01851EBE37101F00045BC
:1003600007D54FF0000EDCF1000C7EEB00006EEBC9
:100370000101B1F5801F1BD3B1F5001F0CD3490853
:100380005FEA30004FEA3C0C04F101044FEA4452AA
:1003900012F5800F80F09A80BCF1004F08BF5FEA31
:1003A000500C50F1000041EB045141EA050130BD11
:1003B0005FEA4C0C404141EB0101013C28BFB1F523
:1003C000801FE9D291F0000F04BF01460020B1FA6E
:1003D00081F308BF2033A3F10B03B3F120020CDA41
:1003E0000C3208DD02F1140CC2F10C0201FA0CF01F
:1003F00021FA02F10CE002F11402D8BFC2F1200C84
:1004000001FA02F120FA0CFCDCBF41EA0C01904039
:10041000E41AA2BF01EB0451294330BD6FEA040482
:100420001F3C1CDA0C340EDC04F11404C4F120026D
:1004300020FA04F001FA02F340EA030021FA04F37F
:1004400045EA030130BDC4F10C04C4F1200220FAD6
:1004500002F001FA04F340EA0300294630BD21FA14
:1004600004F0294630BD94F0000F83F4801306BFDA
:1004700081F480110134013D4EE77FEA645C18BFCE
:100480007FEA655C29D094EA050F08BF90EA020F65
:1004900005D054EA000C04BF1946104630BD91EA5D
:1004A000030F1EBF0021002030BD5FEA545C05D160
:1004B0004000494128BF41F0004130BD14F580049F
:1004C0003CBF01F5801130BD01F0004545F0FE4113
:1004D00041F470014FF0000030BD7FEA645C1ABF48
:1004E000194610467FEA655C1CBF0B46024650EA7F
:1004F000013406BF52EA033591EA030F41F40021AB
:1005000030BD00BF90F0000F04BF0021704730B530
:100510004FF4806404F132044FF000054FF0000105
:1005200050E700BF90F0000F04BF0021704730B5C6
:100530004FF4806404F1320410F0004548BF40429B
:100540004FF000013EE700BF42004FEAE2014FEAF0
:1005500031014FEA02701FBF12F07F4393F07F4FCB
:1005600081F06051704732F07F4208BF704793F0CE
:100570007F4F04BF41F40021704730B54FF46074E1
:1005800001F0004521F000411CE700BF50EA0102E4
:1005900008BF704730B54FF000050AE050EA01028D
:1005A00008BF704730B511F0004502D5404261EBFD
:1005B00041014FF4806404F132045FEA915C3FF43E
:1005C000D8AE4FF003025FEADC0C18BF03325FEADB
:1005D000DC0C18BF033202EBDC02C2F1200300FA8C
:1005E00003FC20FA02F001FA03FE40EA0E0021FAB1
:1005F00002F11444BDE600BF70B54FF0FF0C4CF49F
:10060000E06C1CEA11541DBF1CEA135594EA0C0F50
:1006100095EA0C0F00F0DEF82C4481EA030621EA8B
:100620004C5123EA4C5350EA013518BF52EA0335C6
:1006300041F4801143F4801338D0A0FB02CE4FF078
:100640000005E1FB02E506F00042E0FB03E54FF0A8
:100650000006E1FB03569CF0000F18BF4EF0010EA0
:10066000A4F1FF04B6F5007F64F5407404D25FEA9C
:100670004E0E6D4146EB060642EAC62141EA55514F
:100680004FEAC52040EA5E504FEACE2EB4F1FD0C91
:1006900088BFBCF5E06F1ED8BEF1004F08BF5FEA0F
:1006A000500E50F1000041EB045170BD06F00046C1
:1006B00046EA010140EA020081EA0301B4EB5C046E
:1006C000C2BFD4EB0C0541EA045170BD41F4801166
:1006D0004FF0000E013C00F3AB8014F1360FDEBF8B
:1006E000002001F0004170BDC4F10004203C35DA67
:1006F0000C341BDC04F11404C4F1200500FA05F3EA
:1007000020FA04F001FA05F240EA020001F000428A
:1007100021F0004110EBD37021FA04F642EB060100
:100720005EEA430E08BF20EAD37070BDC4F10C042A
:10073000C4F1200500FA04F320FA05F001FA04F2EE
:1007400040EA020001F0004110EBD37041F10001DA
:100750005EEA430E08BF20EAD37070BDC4F12005E5
:1007600000FA05F24EEA020E20FA04F301FA05F24D
:1007700043EA020321FA04F001F0004121FA04F2F5
:1007800020EA020000EBD3705EEA430E08BF20EAC5
:10079000D37070BD94F0000F0FD101F000464000FF
:1007A00041EB010111F4801F08BF013CF7D041EA81
:1007B000060195F0000F18BF704703F00046520085
:1007C00043EB030313F4801F08BF013DF7D043EA56
:1007D0000603704794EA0C0F0CEA135518BF95EA0C
:1007E0000C0F0CD050EA410618BF52EA4306D1D193
:1007F00081EA030101F000414FF0000070BD50EAB2
:10080000410606BF1046194652EA430619D094EA3B
:100810000C0F02D150EA013613D195EA0C0F05D125
:1008200052EA03361CBF104619460AD181EA030179
:1008300001F0004141F0FE4141F470014FF0000031
:1008400070BD41F0FE4141F4780170BD70B54FF0CC
:10085000FF0C4CF4E06C1CEA11541DBF1CEA13554C
:1008600094EA0C0F95EA0C0F00F0A7F8A4EB05042E
:1008700081EA030E52EA03354FEA013100F0888025
:100880004FEA03334FF0805545EA131343EA1263EE
:100890004FEA022245EA111545EA10654FEA0026A3
:1008A0000EF000419D4208BF964244F1FD0404F55C
:1008B000407402D25B084FEA3202B61A65EB0305B8
:1008C0005B084FEA32024FF480104FF4002CB6EB75
:1008D000020E75EB030E22BFB61A754640EA0C00F5
:1008E0005B084FEA3202B6EB020E75EB030E22BF35
:1008F000B61A754640EA5C005B084FEA3202B6EB76
:10090000020E75EB030E22BFB61A754640EA9C0034
:100910005B084FEA3202B6EB020E75EB030E22BF04
:10092000B61A754640EADC0055EA060E18D04FEAC2
:10093000051545EA16754FEA06164FEAC30343EA62
:1009400052734FEAC2025FEA1C1CC0D111F4801F2F
:100950000BD141EA00014FF000004FF0004CB6E728
:1009600011F4801F04BF01430020B4F1FD0C88BFC7
:10097000BCF5E06F3FF6AFAEB5EB030C04BFB6EBD2
:10098000020C5FEA500C50F1000041EB045170BDC5
:100990000EF0004E4EEA113114EB5C04C2BFD4EBF2
:1009A0000C0541EA045170BD41F480114FF0000E76
:1009B000013C90E645EA060E8DE60CEA135594EAF2
:1009C0000C0F08BF95EA0C0F3FF43BAF94EA0C0FF5
:1009D0000AD150EA01347FF434AF95EA0C0F7FF46A
:1009E00025AF104619462CE795EA0C0F06D152EABE
:1009F00003353FF4FDAE1046194622E750EA4106A2
:100A000018BF52EA43067FF4C5AE50EA41047FF4B2
:100A10000DAF52EA43057FF4EBAE12E74FF0FF3C17
:100A200006E000BF4FF0010C02E000BF4FF0010CE8
:100A30004DF804CD4FEA410C7FEA6C5C4FEA430C61
:100A400018BF7FEA6C5C1BD001B050EA410C0CBFB0
:100A500052EA430C91EA030F02BF90EA020F002012
:100A6000704710F1000F91EA030F58BF994208BF79
:100A700090422CBFD8176FEAE37040F00100704736
:100A80004FEA410C7FEA6C5C02D150EA013C07D18D
:100A90004FEA430C7FEA6C5CD6D152EA033CD3D0D8
:100AA0005DF8040B704700BF8446104662468C46D2
:100AB0001946634600E000BF01B5FFF7B7FF002805
:100AC00048BF10F1000F01BD4DF808EDFFF7F4FF2E
:100AD0000CBF012000205DF808FB00BF4DF808EDB9
:100AE000FFF7EAFF34BF012000205DF808FB00BFDC
:100AF0004DF808EDFFF7E0FF94BF012000205DF8FE
:100B000008FB00BF4DF808EDFFF7CEFF94BF0120B2
:100B100000205DF808FB00BF4DF808EDFFF7C4FFAB
:100B200034BF012000205DF808FB00BF4FEA410CF4
:100B30007FEA6C5C02D150EA013C0AD14FEA430CD7
:100B40007FEA6C5C02D152EA033C02D14FF0000014
:100B500070474FF0010070474FEA410212F5001252
:100B600015D211D56FF47873B3EB625212D94FEAF4
:100B7000C12343F0004343EA505311F0004F23FADE
:100B800002F018BF404270474FF00000704750EA33
:100B9000013005D111F0004008BF6FF000407047F0
:100BA0004FF00000704700BF53B94AB9002908BF91
:100BB00000281CBF4FF0FF314FF0FF3000F088B924
:100BC000ADF1080C6DE904CE00F006F8DDF804E0A4
:100BD000DDE9022304B070472DE9F047089D8E46F9
:100BE00004468846002B4AD18A42174662D9B2FA97
:100BF00082F64EB1C6F1200301FA06F820FA03F39B
:100C0000B74043EA0808B4404FEA174E1FFA87FC82
:100C1000B8FBFEF1230C0EFB118843EA084301FBED
:100C20000CF29A4209D9FB1801F1FF3080F0EA80FA
:100C30009A4240F2E78002393B449A1AA3B2B2FBCF
:100C4000FEF00EFB102243EA024300FB0CFC9C4525
:100C500009D9FB1800F1FF3280F0D6809C4540F2A4
:100C6000D3803B44023840EA0140A3EB0C0300214F
:100C70001DB1F3400022C5E90032BDE8F0878B4288
:100C800005D90DB1C5E9000100210846F5E7B3FA21
:100C900083F1002946D1734502D3824200F20581D7
:100CA000841A6EEB030201209046002DE5D0C5E9C1
:100CB0000048E2E7002A00F09080B2FA82F6002EA7
:100CC00040F0A4808A1A030C4FEA174E80B2BCB2DF
:100CD0000121B2FBFEFC0EFB1C2243EA024304FB93
:100CE0000CF29A4207D9FB180CF1FF3802D29A4253
:100CF00000F2E080C4469B1AB3FBFEF20EFB1233F7
:100D000040EA034302FB04F49C4207D9FB1802F1BA
:100D1000FF3002D29C4200F2CA8002461B1B42EA0C
:100D20000C40A5E7C1F120068B4022FA06F71F43CD
:100D30000EFA01F420FA06F32EFA06FE4FEA1749DE
:100D4000234300FA01F81FFA87FCBEFBF9F01C0CE4
:100D500009FB10EE44EA0E4400FB0CFEA64502FA25
:100D600001F209D93C1900F1FF3A80F09C80A645B8
:100D700040F2998002383C44A4EB0E041FFA83FE33
:100D8000B4FBF9F309FB13444EEA044403FB0CFCE7
:100D9000A44508D93C1903F1FF3E80F08280A445A8
:100DA0007FD9023B3C4443EA0040A4EB0C04A0FB87
:100DB00002EC64457346E14662D35FD05DB1B8EBA7
:100DC000030264EB090404FA06F622FA01F31E4357
:100DD000CC40C5E9006400214FE7B1FBF2FC010CF7
:100DE00041EA0E4180B240EA01423B4638463C4669
:100DF000B846BE462026B1FBF7F1A2EB080241EA55
:100E00000C4166E7014618E710462CE7C6F12002C0
:100E10002EFA02F3B740B14020FA02F24FEA174E21
:100E20000A43B3FBFEF8BCB20EFB1833110C41EAC7
:100E3000034108FB04F9B04089454FEA104380B2F2
:100E40003ED9791808F1FF3C01D289451FD8A1EBA2
:100E50000901B1FBFEF909FB04F80EFB191192B26E
:100E600042EA0142424529D2BA1809F1FF31C4D2FF
:100E70004245C2D2A9F102013A44BEE7F0459DD2F3
:100E8000BEEB02036CEB070C0138E14696E7A7EBDB
:100E900009094944A8F1020CB1FBFEF909FB04F869
:100EA000DBE773467FE7504666E70846FDE63B44CE
:100EB000023A33E7ACF1020C3B441CE749469CE79D
:100EC000A1EB0901C446B1FBFEF909FB04F8C4E734
:100ED000704700BF80B58AB004AFF8600B467A60F7
:100EE000FB720023FB757B68DBB21B01DBB27B75F9
:100EF000FB7A002B01D1682300E06923BB75BB7D21
:100F00009BB25B0099B20A2302930123019307F17C
:100F10001503009301237F22F86804F0D7FD0346F0
:100F2000FB75FB7D18461837BD4680BD80B588B07F
:100F300004AF7860084611461A460346FB700B461C
:100F4000BB7013467B700023FB73FB78002B01D131
:100F5000682300E06923BB73BB7B9BB25B0099B243
:100F6000BB789AB20A230293012301937B1C00935E
:100F70000123786804F0AAFD0346FB73FB7B184647
:100F80001037BD4680BD80B588B004AF7860084694
:100F900011461A460346FB700B46BB7013463B8056
:100FA0000023FB73FB78002B01D1682300E0692349
:100FB000BB73BB7B9BB25B0099B2BB789AB20A232E
:100FC00002933B880193BB6900930123786804F086
:100FD00077FE0346FB73FB7B18461037BD4680BD8A
:100FE00080B584B000AF78600A230222D0217868EF
:100FF00005F098F80346FB73FB7B002B0CBF012325
:101000000023DBB218461037BD4680BD80B584B0E2
:1010100000AF78600A230222D221786805F082F8B6
:101020000346FB73FB7B002B0CBF01230023DBB2C9
:1010300018461037BD4680BD80B584B000AF7860DB
:101040000B46FB701346BB700023FB73FB7800223A
:1010500019467868FFF73EFF0346FB73F978802353
:1010600006227868FFF762FF0346FB73C82004F08E
:1010700053F8F978012306227868FFF757FF0346F3
:10108000FB73F978002307227868FFF74FFF0346C8
:10109000FB73FB78022219467868FFF71BFF0346B3
:1010A000FB73BB7843F01803DBB2F9780122786850
:1010B000FFF73CFF0346FB73F97819231422786885
:1010C000FFF734FF0346FB73F978042300227868A6
:1010D000FFF72CFF0346FB73FB7800221946786864
:1010E000FFF7F8FE0346FB73F978002303227868C4
:1010F000FFF71CFF0346FB73F97802230F22786881
:10110000FFF714FF0346FB7300BF1037BD4680BDD9
:1011100080B586B002AFF8607B600B46FB72134669
:10112000BB72F97A0B4B009302233722F868FFF762
:101130002AFF084B1B781BB21B021AB2054B5B78C7
:101140001BB213431AB27B681A8000BF1037BD462A
:1011500080BD00BF0C02002080B584B000AF786075
:101160000B46FB70FB78002219467868FFF7B2FE49
:101170000346002B02D04FF0FF331DE0F978002327
:1011800003227868FFF7D2FE0346002B02D04FF00F
:10119000FF3311E0012003F0BFFF0223FB73FB7B51
:1011A000F9780F227868FFF7C1FE0346002B02D0C2
:1011B0004FF0FF3300E0002318461037BD4680BDD6
:1011C00080B588B004AF78600B46FB70344B1B7859
:1011D000002B01D000235FE0FB7819467868FFF709
:1011E000BBFF0346002B02D04FF0FF3354E0052035
:1011F00003F092FF0023FB730023BB7314230293BD
:101200000123019307F10F0300930123002218210A
:10121000786804F055FD142302930123019307F12C
:101220000E030093012301221821786804F048FD81
:1012300001237B73142302930123019307F10D0310
:101240000093012332221821786804F03FFC034602
:10125000002B02D04FF0FF331EE0012003F05CFFB3
:1012600000237B73142302930123019307F10D03E1
:101270000093012331221821786804F027FC0346EB
:10128000002B02D04FF0FF3306E0022003F044FFB2
:10129000034B01221A70002318461037BD4680BD4B
:1012A0000E02002080B400AF034B1B78DBB218465F
:1012B000BD465DF8047B7047C402002080B400AFD7
:1012C000034B00221A7000BFBD465DF8047B7047D7
:1012D000C402002080B584B000AF194A3B1D07CA84
:1012E00083E807003B1DDFED171A9FED171ADFEDAE
:1012F000160A9FED160A1946154802F01BFE3B1D03
:10130000DFED101A9FED101ADFED0F0A9FED0F0AA7
:101310001946104802F00EFE01F054FF03460E4A33
:10132000136001F05DFF03460C4A13600C4B012271
:101330001A700C4806F0A8F800BF1037BD4680BDF3
:10134000A00801080AD7233C000020420000C84240
:10135000100200205C020020BC020020C00200201D
:10136000000000201C04002080B582B000AF78602F
:1013700039607B68002B05D0304B1B68002B01D0F7
:10138000012300E0002303F00103DBB2002B13D0A4
:101390007B68002BCCBF01230023DAB2274B1B68EC
:1013A000002BCCBF01230023DBB25340DBB2002B68
:1013B00002D0234802F01FFF3B68002B05D0214BD1
:1013C0001B68002B01D0012300E0002303F0010380
:1013D000DBB2002B13D03B68002BCCBF01230023D2
:1013E000DAB2184B1B68002BCCBF01230023DBB201
:1013F0005340DBB2002B02D0134802F0FCFE7B68A6
:10140000002B06D10D4B1B68002B02D00C4802F0BC
:10141000F2FE3B68002B06D10A4B1B68002B02D062
:10142000094802F0E8FE054A7B681360054A3B68FC
:10143000136000BF0837BD4680BD00BFA802002072
:1014400010020020AC0200205C02002080B500AF3A
:1014500001F0B8FE0346064A136001F0C1FE0346E0
:10146000044A1360044B01221A7000BF80BD00BF04
:10147000BC020020C00200200000002080B58AB01D
:1014800000AF01F09FFE386201F0AAFEF861524BF6
:101490001B683A6AD31ABB61504B1B68FA69D31AAE
:1014A0007B614D4A3B6A13604C4AFB6913604C4BAD
:1014B0001B78002B03D04A4B00221A7088E0494A5F
:1014C000BB691360484A7B691360484B1B68002B5B
:1014D00012D1474B1B68002B0ED1464802F08BFE01
:1014E000454802F088FE454B00221A70444B00220A
:1014F0001A7001F00FFE6BE0BB6907EE903AF8EE50
:10150000E77A3A4B1B6807EE103AB8EEC77AF0EE6E
:10151000470AB0EE670A374802F070FD87ED040A0B
:101520007B6907EE903AF8EEE77A314B1B6807EEDD
:10153000103AB8EEC77AF0EE470AB0EE670A2E48C6
:1015400002F05CFD87ED030AD7ED047AFDEEE77A41
:10155000C7ED017A3B7987F82730D7ED037AFDEEA6
:10156000E77AC7ED017A3B7987F826300523FB72CD
:1015700097F9272097F90B309A4209DA97F9272033
:1015800097F90B305B429A4202DD002387F827303F
:1015900097F9262097F90B309A4209DA97F9262015
:1015A00097F90B305B429A4202DD002387F8263020
:1015B000124A97F827301370114A97F826301370A3
:1015C00097F9262097F927301146184601F0D2FCEA
:1015D0002837BD4680BD00BFBC020020C0020020ED
:1015E00000000020B0020020B4020020A802002069
:1015F000AC020020100200205C020020B802002093
:10160000B902002080B483B000AF78607B681B68AB
:10161000054A934202D1054B01221A7000BF0C37D4
:10162000BD465DF8047B7047000C0040C4020020FA
:1016300080B400AF0A4B0B4A1A60094B6FF40002EA
:101640005A60074B074A9A60054B6FF40002DA6054
:10165000034B00221A7400BFBD465DF8047B70473F
:10166000DC020020FFFF7F7F80B483B000AF87EDF6
:10167000010AD7ED017A9FED157AF4EEC77AF1EE03
:1016800010FA07DDD7ED017A9FED117A77EEC77A70
:10169000C7ED017AD7ED017A9FED0E7AF4EEC77AA5
:1016A000F1EE10FA07D5D7ED017A9FED097A77EEC2
:1016B000877AC7ED017A7B6807EE903AB0EE670A49
:1016C0000C37BD465DF8047B704700BF0000344313
:1016D0000000B443000034C380B582B000AF78602E
:1016E0003960224A7B6813607868FFF779FC03460B
:1016F000002B03D01E4B00221A700BE07868FFF716
:1017000085FC0346002B03D0194B01221A7001E01F
:1017100001F004FC3B68002B03D0154B1A783B68A2
:101720001A70134B1B78062219467868FFF784FC61
:10173000104B114A1A60114B4FF000021A600C4B0B
:101740001B7819467868FFF73BFD0346002B05D14F
:101750000B4B01221A70FFF76BFF02E0084B0022CF
:101760001A7000BF0837BD4680BD00BFC802002008
:10177000CC020020D4020020F628DC3ED00200205B
:10178000D802002080B400AF044B1B6807EE903AEB
:10179000B0EE670ABD465DF8047B7047D0020020BA
:1017A00080B400AF044B4FF000021A6000BFBD468A
:1017B0005DF8047B704700BFD002002080B584B084
:1017C00000AF0023FB80284B1868284B1978BB1DFD
:1017D0000622FFF79DFC264BBB60B7F9063007EEEB
:1017E000903AF8EEE76A97ED027AC6EE877AC7ED8F
:1017F000037A204BD3ED007A97ED037A77EE677A80
:10180000C7ED037AD7ED037A9FED1B7AF4EEC77A22
:10181000F1EE10FA0BDDD7ED037A9FED187AF4EEB6
:10182000C77AF1EE10FA02D54FF00003FB60D7ED56
:10183000037A9FED137A27EE877A124BD3ED007A65
:1018400027EE277A104BD3ED007A77EE277AB0EEA9
:10185000670AFFF709FFF0EE407A0B4BC3ED007A01
:1018600000BF1037BD4680BDC8020020CC0200205A
:1018700033338341D4020020CDCCCCBECDCCCC3E82
:101880000AD7233C04000020D002002080B582B09B
:1018900000AF78607B685B8A1946786802F019FFB0
:1018A00000BF0837BD4680BD80B584B000AF78600A
:1018B0007B681B68214A93423CD1214B1B78FB7308
:1018C000FB7B0D2B02D0FB7B0A2B0FD11D4B1B6822
:1018D000002B2AD01B4B1B681B4A0021D1541A48ED
:1018E00000F0DCFE174B00221A601EE0154B1B684F
:1018F0001E2B17D8134B1B685A1C12490A60124939
:10190000FA7BCA54FB7B0133104A13441B7803F063
:101910009703002B09D00E4AFB7B13700D4B01225D
:101920001A7002E0074B00221A60012204490A489B
:1019300007F015FC00BF1037BD4680BD00480040D1
:10194000E0050020DC050020BC050020C1160108D0
:10195000B9050020BA0500203C05002080B582B002
:1019600000AF78607B681B68074A934207D1074B3A
:1019700000221A6001220649064807F0F0FB00BF6A
:101980000837BD4680BD00BF00480040DC05002090
:10199000E00500203C05002080B582B000AF034682
:1019A0003960FB71104AFB791370FB79184601F01E
:1019B000F5FC02E0052008F069FC01F041FC03465B
:1019C000002BF7D1084B00221A7000210020FFF7EE
:1019D000CBFC3B689BB2184601F0B8FB01F09AFBC8
:1019E00000BF0837BD4680BDAC05002080B582B081
:1019F00000AF03F01FFB00F087F800F01DFC00F0C3
:101A0000B7F900F025FB00F00BF900F05DF900F0EC
:101A100031FA00F07DFA00F0D5F800F0E3FB00F0B9
:101A200085FB02F0F9F901F07FFAFFF753FC4FF460
:101A300000422449244802F065FC0023FB70FB1C93
:101A400019462248FFF748FE01222149214807F0A4
:101A500086FB214B7B607868FEF70AFC03469AB24E
:101A60004FF0FF3379681B4807F0EEFA08F032FBBD
:101A70001A4A0621102008F024FC0346184A136075
:101A8000174B1B68002B01D101F048FA154A0021C1
:101A9000154808F069FB0346144A1360144A0021F4
:101AA000144808F061FB0346134A1360134A0021EF
:101AB000134808F059FB0346124A136008F02EFB46
:101AC00000BFFDE700040240F4040020F002002003
:101AD000E00500203C050020E0080108BC0A0108E0
:101AE00090050020500A0108ED2900088405002017
:101AF000740A01082D2D000888050020980A0108A5
:101B0000552D00088C05002080B594B000AF07F17A
:101B100020033022002118460CF020F807F10C03B6
:101B200000221A605A609A60DA601A610023BB6072
:101B3000224B1B6C214A43F0805313641F4B1B6CD8
:101B400003F08053BB60BB6800237B601C4B1B68A9
:101B50001B4A43F480431360194B1B6803F4804312
:101B60007B607B6802233B620123FB6210233B63A3
:101B70000023BB6307F12003184604F0DDFF034692
:101B8000002B01D001F0CAF90F23FB6000233B6159
:101B900000237B610023BB610023FB6107F10C0381
:101BA0000021184605F040FA0346002B01D001F051
:101BB000B5F900BF5037BD4680BD00BF00380240B8
:101BC0000070004080B500AF124B134A1A60114BF1
:101BD000124A5A600F4B00229A600E4B0022DA60C4
:101BE0000C4B4FF480421A610A4B00225A61094B98
:101BF00000229A61074B0022DA61064B00221A622A
:101C0000044803F01FFE0346002B01D001F086F9C3
:101C100000BF80BDF002002000580040A0860100F7
:101C200080B58CB000AF07F10C03242200211846C8
:101C30000BF094FF3B1D00221A605A60214B4FF0BD
:101C400080421A601F4B00225A601E4B00229A608D
:101C50001C4B4FF6FF72DA601A4B00221A61194BC7
:101C600000229A610323FB6000233B6101237B6117
:101C70000023BB610A23FB6100233B6201237B62DB
:101C80000023BB620A23FB6207F10C0319460D48CF
:101C900005F0BCFF0346002B01D001F03FF9002303
:101CA0007B600023BB603B1D1946064807F09AF88D
:101CB0000346002B01D001F031F900BF3037BD469B
:101CC00080BD00BF4403002080B58CB000AF07F199
:101CD0000C032422002118460BF040FF3B1D00227C
:101CE0001A605A60204B214A1A601F4B00225A602A
:101CF0001D4B00229A601C4B4FF6FF72DA601A4BA4
:101D000000221A61184B00229A610323FB60002312
:101D10003B6101237B610023BB610A23FB6100233C
:101D20003B6201237B620023BB620A23FB6207F153
:101D30000C0319460C4805F069FF0346002B01D03F
:101D400001F0ECF800237B600023BB603B1D1946CB
:101D5000054807F047F80346002B01D001F0DEF8F4
:101D600000BF3037BD4680BD8C030020000400401A
:101D700080B58EB000AF07F1280300221A605A60C8
:101D80009A60DA6007F1200300221A605A603B1D56
:101D900000221A605A609A60DA601A615A619A6188
:101DA000324B334A1A60314B00225A602F4B0022CB
:101DB0009A602E4B40F21F32DA602C4B00221A61DF
:101DC0002A4B80229A61294805F00EFB0346002B1E
:101DD00001D001F0A3F84FF48053BB6207F1280350
:101DE0001946224806F094FA0346002B01D001F070
:101DF00095F81E4805F0B8FB0346002B01D001F012
:101E00008DF820233B6200237B6207F120031946F3
:101E1000164806F0E7FF0346002B01D001F07EF8DC
:101E200060237B600023BB600023FB6000237B6199
:101E30003B1D082219460D4806F0A8F90346002B61
:101E400001D001F06BF83B1D0C221946074806F043
:101E50009DF90346002B01D001F060F8034802F021
:101E6000B3FE00BF3837BD4680BD00BFD40300209D
:101E70000008004080B586B000AF07F108030022DB
:101E80001A605A609A60DA603B4600221A605A6013
:101E90001D4B1E4A1A601C4B40F23F625A601A4B9F
:101EA00000229A60184B6322DA60174B00221A61F5
:101EB000154B00229A61144805F096FA0346002B50
:101EC00001D001F02BF84FF48053BB6007F10803F9
:101ED00019460D4806F01CFA0346002B01D001F00C
:101EE0001DF800233B6000237B603B4619460648F3
:101EF00006F078FF0346002B01D001F00FF800BF79
:101F00001837BD4680BD00BF1C040020000C0040F7
:101F100080B596B000AF07F1480300221A605A60FE
:101F20009A60DA6007F1400300221A605A6007F1F4
:101F3000240300221A605A609A60DA601A615A61BA
:101F40009A613B1D2022002118460BF007FE3E4BF4
:101F50003E4A1A603C4B0F225A603B4B00229A606B
:101F6000394B44F61F62DA60374B00221A61364B58
:101F700000225A61344B80229A61334805F034FACA
:101F80000346002B01D000F0C9FF4FF48053BB641F
:101F900007F1480319462C4806F0BAF90346002B0E
:101FA00001D000F0BBFF284805F0DEFA0346002B05
:101FB00001D000F0B3FF00233B6400237B6407F1F2
:101FC00040031946204806F00DFF0346002B01D0C0
:101FD00000F0A4FF60237B620023BB620023FB624E
:101FE00000233B6300237B630023BB630023FB636D
:101FF00007F1240300221946134806F0C7F80346E8
:10200000002B01D000F08AFF00237B600023BB601F
:102010000023FB6000233B6100237B614FF40053EE
:10202000BB6100233B623B1D1946074806F056FF83
:102030000346002B01D000F071FF034802F0C4FDFD
:1020400000BF5837BD4680BD640400200004014035
:1020500080B58CB000AF07F1200300221A605A60EF
:102060009A60DA603B1D00221A605A609A60DA605A
:102070001A615A619A612B4B2B4A1A60294B002234
:102080005A60284B00229A60264B40F21F32DA60D9
:10209000244B00221A61234B80229A61214805F0CB
:1020A000A3F90346002B01D000F038FF4FF4805312
:1020B0003B6207F1200319461A4806F029F9034646
:1020C000002B01D000F02AFF164805F04DFA034618
:1020D000002B01D000F022FF60237B600023BB6057
:1020E0000023FB6000237B613B1D002219460D4845
:1020F00006F04CF80346002B01D000F00FFF3B1D0B
:1021000004221946074806F041F80346002B01D087
:1021100000F004FF034802F057FD00BF3037BD4612
:1021200080BD00BFAC0400200040014080B588B0F5
:1021300000AF07F1100300221A605A609A60DA605B
:102140003B4600221A605A609A60DA60234B244AA8
:102150001A60224B0F225A60204B00229A601F4BBC
:102160004FF6FF72DA601D4B00221A611B4B0022F2
:102170009A611A4805F038F90346002B01D000F0A7
:10218000CDFE4FF480533B6107F11003194613480D
:1021900006F0BEF80346002B01D000F0BFFE0F484A
:1021A00005F004FB0346002B01D000F0B7FE0A2324
:1021B0003B6001237B600023BB600023FB603B4648
:1021C00000221946054805F045FF0346002B01D0C3
:1021D00000F0A4FE00BF2037BD4680BDF4040020FF
:1021E0000018004080B500AF114B124A1A60104B26
:1021F0004FF4E1325A600E4B00229A600C4B0022E1
:10220000DA600B4B00221A61094B0C225A61084B11
:1022100000229A61064B0022DA61054806F0C4FEEE
:102220000346002B01D000F079FE00BF80BD00BF47
:102230003C0500200048004080B58AB000AF07F19F
:10224000140300221A605A609A60DA601A6100234F
:102250003B61544B1B6B534A43F010031363514BC8
:102260001B6B03F010033B613B690023FB604D4B8C
:102270001B6B4C4A43F0020313634A4B1B6B03F086
:102280000203FB60FB680023BB60464B1B6B454AA7
:1022900043F008031363434B1B6B03F00803BB605D
:1022A000BB6800237B603F4B1B6B3E4A43F004033B
:1022B00013633C4B1B6B03F004037B607B680023C0
:1022C0003B60384B1B6B374A43F001031363354BBC
:1022D0001B6B03F001033B603B6800224FF48071ED
:1022E000314803F095FA00224FF400412F4803F0E3
:1022F0008FFA00224FF400412C4803F089FA0022A3
:102300004FF4F0412A4803F083FA4FF480737B6165
:102310000123BB610023FB6100233B6207F114032F
:102320001946214803F0C0F84FF400437B610123B4
:10233000BB610023FB6100233B6207F114031946D4
:102340001A4803F0B1F84FF4F0437B610123BB61FD
:102350000023FB6100233B6207F114031946144874
:1023600003F0A2F84FF400437B610123BB6100231B
:10237000FB6100233B6207F1140319460B4803F08D
:1023800093F801237B610023BB610023FB6107F10C
:1023900014031946044803F087F800BF2837BD46E8
:1023A00080BD00BF0038024000100240000402401F
:1023B000000C024080B500AF01F00AFC094A002180
:1023C000002001F0F7FC084A1821002001F0F2FC7F
:1023D000064A3021002001F0EDFC01F073FB00BF44
:1023E00080BD00BFF4080108000901080C090108BC
:1023F00080B58CB004AFF860B9607A6087ED000AF0
:10240000D7ED007AB2EE047A67EE877A97ED007A1C
:10241000B5EEC07AF1EE10FA02DBB6EE007A01E01A
:10242000BEEE007A77EE277AFDEEE77A17EE903A65
:10243000FB61FB69002B02DA4FF0FF3300E0012360
:10244000BB61FB69002B02DAFB695B42FB61FB6944
:10245000144A82FB03129210DB17D31A7B61FA69CC
:10246000104B83FB02139910D317C91A0B469B001C
:102470000B445B00D31A3B61BB69002B01DA2D23AF
:1024800000E020233A6902927A69019200937B6806
:10249000054AB968F8680BF0E5F900BF2037BD467A
:1024A00080BD00BF676666661409010880B58EB0FE
:1024B00002AF87ED010AC7ED000A01F089FB5A4A15
:1024C0000021002001F076FCD7ED017AF0EEE77AEA
:1024D0009FED567AF4EEC77AF1EE10FA09DD07F1B6
:1024E000080397ED010A524A15211846FFF780FFAD
:1024F00006E007F108034F4A152118460BF0B2F920
:1025000007F108031A461021002001F053FCD7ED13
:10251000007AF0EEE77A9FED457AF4EEC77AF1EEB5
:1025200010FA09DD07F1080397ED000A424A152168
:102530001846FFF75DFF06E007F108033F4A152143
:1025400018460BF08FF907F108031A4620210020E6
:1025500001F030FCD7ED017AF0EEE77A9FED337AA7
:10256000F4EEC77AF1EE10FA49DDD7ED007AF0EE1D
:10257000E77A9FED2E7AF4EEC77AF1EE10FA3EDD9F
:10258000D7ED016A97ED007AC6EE877AC7ED0B7A30
:10259000D7ED0B7A9FED2A7A67EE877A97ED0B7A63
:1025A000B5EEC07AF1EE10FA02DBB6EE007A01E089
:1025B000BEEE007A77EE277AFDEEE77A17EE903AD4
:1025C000BB62BB6A1F4A82FB03125211DB17D31A8C
:1025D0007B62BB6A1B4A82FB03125111DA178A1A0B
:1025E000642101FB02F29B1A3B6207F108003B6A7F
:1025F00000937B6A144A15210BF034F906E007F1C9
:102600000803124A152118460BF02CF907F10803AC
:102610001A463021002001F0CDFB01F053FA00BF33
:102620003037BD4680BD00BF240901080AD7233CCE
:10263000340901083C0901084C0901085409010842
:102640000000C8421F85EB516409010874090108A4
:1026500080B584B000AF78607B68002B15D07868B7
:10266000FDF706FEF860FB68002B10D0FB68B3F5A1
:10267000803F02D34FF6FF73FB60FB689AB264237E
:102680007968054806F0E0FC02E000BF00E000BF0A
:102690001037BD4680BD00BF3C05002080B5ACB002
:1026A00002AF78607B68002B00F08881C54B1B6807
:1026B000002B03D1C448FFF7CBFF80E10023C7F80C
:1026C000A4307868FDF7D4FDC7F890000023C7F860
:1026D000A03040E07A68D7F8A03013441B7887F820
:1026E0008F3097F88F300D2B2DD097F88F300A2B25
:1026F00029D097F88F300133B44A13441B7803F084
:102700000803002B21D197F88F3087F88E3097F887
:102710008E300133AD4A13441B7803F00303022BC0
:1027200004D197F88E30A3F1200201E097F88E20B3
:10273000D7F8A430591CC7F8A410D2B2A8333B4430
:1027400003F8482C02E000BF00E000BFD7F8A0303B
:102750000133C7F8A030D7F8A020D7F890309A42BC
:1027600003D2D7F8A4301E2BB4D907F16002D7F8F2
:10277000A430134400221A70D7F8A430002B03D1E0
:102780009348FFF765FF1AE1D7F8A430012B03D176
:102790009048FFF75DFF12E1D7F8A430012B58D91C
:1027A00097F8603087F88D3097F8613087F88C3073
:1027B00097F88D30462B03D097F88D30422B48D1B7
:1027C00097F88C30522B03D097F88C304C2B40D19B
:1027D00097F88D30462B09D197F88C30522B01D1C8
:1027E000522300E04C2387F89F3008E097F88C30A4
:1027F000522B01D1722300E06C2387F89F30012314
:1028000087F824305A23FB8497F89F3087F82830C4
:102810006C4B186807F124010023002207F0C4FD67
:102820000346002B03D06C48FFF712FFC7E097F870
:102830008D2097F88C3007F10C0000931346674AFF
:1028400018210BF00FF807F10C031846FFF700FFF3
:10285000B5E097F8603087F88B3097F88B30462BCF
:1028600007D097F88B30422B03D05A48FFF7F0FE81
:10287000A5E00123C7F8983004E0D7F89830013379
:10288000C7F89830D7F89820D7F8A4309A4209D2E0
:1028900007F16002D7F8983013441B7897F88B2023
:1028A0009A42EAD0D7F89820D7F8A4309A4203D3B6
:1028B0004B48FFF7CDFE82E00023C7F894302DE0AF
:1028C00007F16002D7F8983013441B7887F88330FB
:1028D00097F8833001333D4A13441B7803F0040317
:1028E000002B03D13E48FFF7B3FE68E0D7F89430E1
:1028F0000A2B03D93B48FFF7ABFE60E0D7F89430D2
:102900005A1CC7F89420A8333B4497F8832003F857
:10291000542CD7F898300133C7F89830D7F898205E
:10292000D7F8A4309A42CBD307F15402D7F89430A9
:10293000134400221A7007F154030A22002118469A
:102940000BF0E4F8C7F88400D7F88430002B04DDDE
:10295000D7F88430B3F57A7F03DD2248FFF778FE9D
:102960002DE0002387F84C30D7F884301BB2A7F84D
:102970004E3097F88B3087F85030124B186807F1BB
:102980004C010023002207F00FFD0346002B03D06B
:102990001148FFF75DFE12E097F88B2007F12C003D
:1029A000D7F88430009313460F4A20210AF05AFFCB
:1029B00007F12C031846FFF74BFE00E000BFA837D5
:1029C000BD4680BD9005002084090108C11601089C
:1029D000900901089C090108A8090108B409010827
:1029E000C0090108CC090108D809010880B5AAB0BE
:1029F00002AF786004F0E4FCC7F89800D7F898308C
:102A0000C7F89430BE4B5B68013307EE903AB8EEDE
:102A1000677AD7F8943007EE903AF8EE676A9FED40
:102A2000B96AC6EE267A67EE277AC7ED247A40F6B1
:102A30008223019340F2E453009340F23C4397ED2C
:102A4000240A0022AE49B04801F0F6FDAE4801F07C
:102A50001CFE0346002B04D04FF47A7007F016FCDE
:102A6000FAE7A948FEF712FFA84B00221A7002F0FD
:102A7000A7FA034687F89F3016E002F0A1FA034652
:102A800087F8853097F89F30002B06D197F885306E
:102A9000002B02D09D4B01221A7097F8853087F8E1
:102AA0009F300A2007F0F2FB984B1B78DBB2002B1B
:102AB000E3D0974B01221A704FF47A7007F0E6FBCF
:102AC00000F028FBFEF76CFE914B00221A708E4836
:102AD000FEF7DCFE00210020FEF746FC00F01AFBAA
:102AE0008C4B00221A7032214C20FEF755FF874B89
:102AF00000221A7002F064FA034687F89F3016E04D
:102B000002F05EFA034687F8863097F89F30002B74
:102B100006D197F88630002B02D07C4B01221A7028
:102B200097F8863087F89F300A2007F0AFFB774B85
:102B30001B78DBB2002BE3D032215220FEF72CFFB2
:102B4000754B186807F17C014FF0FF33002207F046
:102B50008BFC0346002B40F0D08097F87C30002B94
:102B600065D197F88030422B08D1B7F97E3007EE57
:102B7000903AF8EEE77AF1EE677A05E0B7F97E3041
:102B800007EE903AF8EEE77AC7ED227AD7ED227A8F
:102B9000F5EEC07AF1EE10FA01DB532200E0732269
:102BA0005C4B1A7097F880301A46B7F97E3007F1FF
:102BB0000C0000931346594A20210AF053FE07F1F6
:102BC0000C031846FFF744FD97ED220A00F044FB82
:102BD00002E0052007F05AFB00F032FB0346002B11
:102BE000F7D100210020FEF7BFFB322000F0AEFA43
:102BF00000F090FA4448FEF749FE97F88030422BE7
:102C000001D1422300E0462387F8873097F88730C8
:102C1000B7F97E2007F12C000092414A20210AF0EA
:102C200021FE07F12C031846FFF712FD59E097F833
:102C30007C30012B55D197F88020364B1A7097F8CD
:102C4000803007F16400374A18210AF00BFE07F1C3
:102C500064031846FFF7FCFC97F88030184600F034
:102C60009DFB02E0052007F011FB00F0E9FA0346A6
:102C7000002BF7D100210020FEF776FB322000F078
:102C800065FA00F047FA2048FEF700FE97F880301A
:102C9000722B03D097F880306C2B01D1422300E0D7
:102CA000462387F88F3097F88030722B03D097F83F
:102CB0008030522B01D1522300E04C2387F88E3014
:102CC00097F88F2097F88E3007F14C000093134649
:102CD000154A18210AF0C6FD07F14C031846FFF704
:102CE000B7FC0C4B00221A700748FEF7CFFD00F02E
:102CF00011FA142007F0CAFA22E700BF20E700BF4C
:102D0000640400200024744994050020AD050020CF
:102D1000AE050020AC05002090050020E409010864
:102D2000F4090108040A0108140A010880B582B0F8
:102D300000AF7860FEF7B6FA0346002B05D0FEF729
:102D40009DFB00F0B1FBFEF7B9FA012007F09EFAF7
:102D5000F0E7000080B592B002AF786002F0D0F9E1
:102D6000F863002387F83B30FFF724FB604B1B78A8
:102D700087F8333097F83330002B16D097F83B3074
:102D8000002B0ED15B4BD3ED007A5B4B93ED007AB9
:102D9000F0EE470AB0EE670AFFF788FB012387F8D9
:102DA0003B30322007F072FAA1E097F83B30002B5D
:102DB00007D0002387F83B30FFF7FCFA02F0A0F9B8
:102DC000F86302F09DF9F862FA6AFB6BD31AC72B1D
:102DD00040F28A80FB6AFB6301F0A8FA322007F018
:102DE00055FA01F00FFB87ED0A0AD7ED0A7AB2EE29
:102DF000047A67EE877A97ED0A7AB5EEC07AF1EE3B
:102E000010FA02DBB6EE007A01E0BEEE007A77EE51
:102E1000277AFDEEE77A17EE903A7B637B6B002B07
:102E200001DA00237B637B6B344A82FB031292102E
:102E3000DB17D31A7B627A6B304B83FB021399103A
:102E4000D317C91A0B469B000B445B00D31A3B6295
:102E500007F10C003B6A00937B6A294A10210AF0B3
:102E600001FD284A0021482000F0A4FF07F10C03CF
:102E70001A460021482000F09DFF234B1B78FB776A
:102E8000224B1B78BB77FB7F002B0DD0204A1821EB
:102E9000482000F08FFFBA7F012300930C231821F4
:102EA000482000F015FF04E01A4A1821482000F0DD
:102EB00081FF194B1B787B777B7F002B0DD0144A49
:102EC0003021302000F076FF7A7F012300930C231D
:102ED0003021302000F0FCFE04E00E4A302130208A
:102EE00000F068FF00F0EEFD052007F0CFF93DE7A8
:102EF000B8050020B0050020B405002067666666AE
:102F0000200A0108280A0108BA050020B905002096
:102F1000300A0108340A0108AC05002080B400AF73
:102F200072B600BF00BFFDE780B500AF0C210D48B1
:102F300004F074FB08210B4804F070FB00210A48E0
:102F400004F06CFB0421084804F068FB3C210748AE
:102F500004F002FF3C21064804F0FEFE00F0DAF81F
:102F600000BF80BDD4030020AC0400204403002037
:102F70008C03002080B489B000AF03460A46FB7181
:102F80001346BB7197F90730642B01DD6423FB7195
:102F900097F9073013F1640F01DA9C23FB7197F95D
:102FA0000630642B01DD6423BB7197F9063013F101
:102FB000640F01DA9C23BB71514B1B68DB6AFB6118
:102FC000504B1B68DB6ABB6197F90730002B08D1B7
:102FD0004B4B1B6800221A64494B1B680022DA63C2
:102FE0003DE097F9073007EE903AF8EEE77AB0EE59
:102FF000E77ADFED456AC7EE267A9FED447A67EE01
:10300000877A9FED437A77EE877AC7ED057AFB6979
:10301000013307EE903AB8EE677AD7ED057A27EEDE
:10302000277ADFED396AC7EE267AFCEEE77A17EEEB
:10303000903A3B6197F90730002B08DD304B1B6855
:103040003A691A642E4B1B680022DA6307E02C4BA6
:103050001B6800221A642A4B1B683A69DA6397F9E5
:103060000630002B08D1274B1B6800225A63254BE2
:103070001B6800229A633DE097F9063007EE903A0C
:10308000F8EEE77AB0EEE77ADFED1F6AC7EE267A50
:103090009FED1E7A67EE877A9FED1D7A77EE877A2D
:1030A000C7ED037ABB69013307EE903AB8EE677A51
:1030B000D7ED037A27EE277ADFED136AC7EE267A7B
:1030C000FCEEE77A17EE903ABB6097F90630002BDA
:1030D00008DD0C4B1B6800225A630A4B1B68BA6858
:1030E0009A6307E0074B1B68BA685A63054B1B6875
:1030F00000229A6300BF2437BD465DF8047B704709
:10310000D4030020AC0400200000C8420000384274
:103110000000584280B400AF0A4B1B680022DA63FB
:10312000084B1B6800221A64074B1B6800225A6375
:10313000054B1B6800229A6300BFBD465DF8047B07
:10314000704700BFD4030020AC04002080B584B0D9
:1031500000AF0346FB80194B1B68DB6AFB60184B12
:103160001B68DB6ABB60154B1B68FA681A64134B5B
:103170001B68FA68DA63124B1B68BA685A63104B13
:103180001B68BA689A63FB88002B03D0FB8818463B
:1031900001F0C2FF094B1B680022DA63074B1B6872
:1031A00000221A64064B1B6800225A63044B1B68FA
:1031B00000229A6300BF1037BD4680BDD4030020B3
:1031C000AC04002080B400AF044B1B685B6A1BB2E8
:1031D0001846BD465DF8047B704700BF44030020DD
:1031E00080B400AF044B1B685B6A1BB25B4218469D
:1031F000BD465DF8047B70478C03002080B400AFAF
:10320000064B1B6800225A62054B1B6800225A625B
:1032100000BFBD465DF8047B704700BF440300203B
:103220008C03002080B582B000AF78607B685B8A39
:103230001946786801F04DFA00BF0837BD4680BDD9
:1032400080B400AF034B1B781846BD465DF8047B85
:10325000704700BFE405002080B586B000AF87ED61
:10326000010AFFF7CBFFFEF7F1F8FEF799FA464B9C
:1032700001221A70444B01225A70D7ED017AF5EE03
:10328000C07AF1EE10FA01DB012201E04FF0FF32CB
:103290003D4B9A703D48FFF7C5FFD7ED017AF0EE40
:1032A000E77A9FED3B7A67EE877AB0EE670A0CF01B
:1032B0007BFE0346344A5360334B5B68092B03DCC7
:1032C000314B00221A705CE0324BD3ED007AF5EE00
:1032D000C07AF1EE10FA02D54FF0000301E02D4B59
:1032E0001B68FB602C4BD3ED007AF5EEC07AF1EE53
:1032F00010FA02D54FF0000301E0274B1B68BB60BA
:103300009FED237AD7ED037A67EE277AB0EE670A4E
:103310000CF04AFE78619FED1E7AD7ED027A67EED7
:10332000277AB0EE670A0CF03FFE38617B69002B0C
:1033300001DA00237B613B69002B01DA00233B614A
:10334000114B5A6879693B690B449A420CDC0E4B6D
:103350005B68DA0F13445B101A460B4B9A600A4BFA
:103360009B68094AD36008E0074A7B699360064B73
:103370005A683B69D31A044AD36000210020FDF744
:10338000F3FF1837BD4680BDE405002094050020FA
:1033900049799642080000200C00002080B584B0D6
:1033A00000AF0346FB71FFF729FFFEF74FF8FEF76A
:1033B000F7F9384B01221A70364B02225A70FB790A
:1033C0004C2B06D1334B01221A74324B01225A7412
:1033D00019E0FB79522B06D12E4BFF221A742D4B8C
:1033E00001225A740FE0FB796C2B06D1294B012284
:1033F0001A74284BFF225A7405E0264BFF221A74D8
:10340000244BFF225A74234B93F9103007EE903A65
:10341000F8EEE77A9FED207A67EE877AC7ED037AB8
:103420001C4B93F91130002B05DAD7ED037AF1EE3E
:10343000677AC7ED037A174AFB685361154B93F916
:103440001030002B01DD154B00E0154BBB6097EDF4
:10345000020A144801F088F90E4ABB6893610D4BCB
:103460003222DA830B4B32229A830A4B012283F8F1
:103470002020084B93F911309B00064A92F9112045
:10348000920011461846FDF76FFF00BF1037BD468A
:1034900080BD00BFE40500200000B4420000C8C2A7
:1034A0000000C8429405002080B5A6B000AFFEF72A
:1034B00085F9BC4B1B78002B00F0FA82FEF762F90D
:1034C00087ED180AB74B5B78022B40F00782B54BAB
:1034D00093ED057AD7ED187A77EE677AC7ED107A13
:1034E000D7ED107AF0EEE77AB6EE007AF4EEC77A0E
:1034F000F1EE10FA12D8AB4B00221A70A94B002241
:103500005A7000210020FDF72FFFA748FFF78AFE21
:103510003220FFF71BFEFFF7FDFDCAE2D7ED107A60
:10352000F0EEE77AC7ED0F7A9E4B9B8B002B00F0F5
:103530009B809C4BDB8B7B867B8E002B03D10423F3
:10354000C7F8943089E0974B9B8B7A8E9A4205D9C5
:10355000944B9B8B7A8ED31A9BB200E000233B8660
:103560007B8E01335B08FB853A8EFB8D9A4203D23A
:103570000423C7F8943070E07A8EFB8DD31ABB8594
:10358000BB8D002B0AD1874B93F82030002B01D044
:103590001C2300E00C23C7F894305EE03A8EFB8DCC
:1035A000D31AA7F89230B7F89220BB8D9A4203D372
:1035B000BB8D013BA7F89230B7F89230013307EE8C
:1035C000903AF8EE676ABB8D07EE903AB8EE677AEC
:1035D000C6EE877AC7ED0A7A724B93F82030002B3B
:1035E00001D01C2300E00C237B627B6A043B07EEC6
:1035F000903AB8EEE77AD7ED0A7A67EE277AB1EE1D
:10360000007A77EE877AC7ED237A7B6A07EE903AE5
:10361000F8EEE77A97ED237AB4EEE77AF1EE10FA56
:1036200006DD7B6A07EE903AF8EEE77AC7ED237A7B
:1036300097ED230A0CF0B8FCC7F89400D7F8943043
:10364000032B02DC0423C7F89430D7F894207B6A5C
:103650009A4202DD7B6AC7F89430524B9B8B013B48
:103660009AB2504B9A833DE04E4B93F82030002B9A
:1036700001D01C2300E00C23C7F89430D7ED0F7A5B
:10368000B2EE047AF4EEC77AF1EE10FA2AD597ED8D
:103690000F7AF2EE046AC7EE267AC7ED0E7A414B36
:1036A00093F82030002B01D01C2300E00C237B6317
:1036B0007B6B07EE903AB8EEE77AD7ED0E7A67EEBD
:1036C000277AB0EE670A0CF06FFCC7F88800D7F8CD
:1036D0008830032B02DC0423C7F88830D7F8883001
:1036E000C7F894302F4BD3ED067AF0EEE77AC7EDAA
:1036F000087AD7ED087A9FED2D7AF4EEC77AF1EECD
:1037000010FA14D5274B93F911301A46D7F8943094
:1037100002FB03F3C7F88430224B93F911301A46A9
:10372000D7F8943002FB03F3C7F88030CFE097ED71
:10373000087ADFED1F6AC7EE267AB3EE0E7A67EEDF
:10374000877AC7ED077AD7ED077A9FED1A7A67EE89
:10375000877AC7ED067A97ED060A0CF019FB87ED1C
:10376000050AD7ED057AF0EEE77A9FED137AF4EECD
:10377000C77AF1EE10FA27D50A4B93F911301A46A1
:10378000D7F8943002FB03F3C7F88430054B93F964
:1037900011301A46D7F8943002FB03F3C7F8803093
:1037A00095E000BFE4050020940500206F12833AE5
:1037B0000000C84235FA8E3C17B7D138000084416A
:1037C0003333F33F6666663FF2EE0D6A97ED057A96
:1037D000C6EE877AC7ED047AD7ED047AF0EEE77A81
:1037E00037EEA77A5FED0B6AC6EE877AC7ED1F7AD0
:1037F000D7ED1F7A1FED0E7A67EE877AC7ED1F7A35
:10380000D7ED1F7A1FED117AF4EEC77AF1EE10FAB8
:1038100001DDA94BFB67B7EE007AD7ED1F7A77EE93
:10382000677AC7ED037AD7ED1F7AB7EE007A77EEA5
:10383000877AC7ED027AA14B93F91030002B01DD96
:10384000FB6800E0BB687B609C4B93F91030002B59
:1038500001DDBB6800E0FB683B60D7F8943007EE01
:10386000903AB8EEE77AD7ED017A67EE277AB0EEB4
:10387000670A0CF099FBB867D7F8943007EE903AD6
:10388000B8EEE77AD7ED007A67EE277AB0EE670AEE
:103890000CF08AFB7867BB6F032B01DC0423BB674A
:1038A0007B6F032B01DC04237B67844B93F911307E
:1038B0001A46BB6F02FB03F3C7F884307F4B93F9C2
:1038C00011301A467B6F02FB03F3C7F88030D7F83C
:1038D0008010D7F88400FDF747FDEAE0FFF772FC9F
:1038E000F865FFF77DFCB865FB6D83EAE372A2EB38
:1038F000E372BB6D002BB8BF5B421344DA0F134475
:103900005B107B656D4B5B687A6D9A420CDB6B4B91
:1039100000221A7000210020FDF726FD5020FFF73D
:1039200015FCFFF7F7FBC4E0644B9B687A6D9A4285
:103930001BDA7B6D07EE903AF8EEE76A5F4B9B6807
:1039400007EE903AB8EEE77AC6EE877AC7ED137ABB
:10395000D7ED137AB3EE047A67EE877AB1EE007A88
:1039600077EE877AC7ED1C7A28E0544BDB687A6DD6
:103970009A4221DD514B5A687B6DD31A07EE903A7B
:10398000F8EEE76A4D4B5A684C4BDB68D31A07EEEA
:10399000903AB8EEE77AC6EE877AC7ED147AD7ED9B
:1039A000147AB3EE047A67EE877AB1EE007A77EE96
:1039B000877AC7ED1C7A01E0414B3B67D7ED1C7A53
:1039C000B1EE007AF4EEC77AF1EE10FA02D54FF0BC
:1039D00081433B67394B5A687B6DD31AFB66FB6E9C
:1039E000002B01DA0023FB6697ED1C0A0CF0DCFAD1
:1039F000B866BA6EFB6E9A4201DDFB6EBB66BB6EAB
:103A0000002B01DA0023BB66BB6E002B04D1FB6EDA
:103A1000002B01DD0123BB66D7ED187AF1EE677A42
:103A2000B1EE087A67EE877AB0EE670A0CF0BCFA5E
:103A30007866224B93F90230002B02DA7B6E5B42F0
:103A40007B66BB6EDA0F13445B101A467B6E9342A3
:103A500004DDBB6EDA0F13445B107B66BB6EDA0FBE
:103A600013445B105B421A467B6E934205DABB6ED1
:103A7000DA0F13445B105B427B66BA6E7B6ED31A1F
:103A8000BB64BA6E7B6E13447B640C4B93F90230BB
:103A90001A46BB6C03FB02F2084B93F9023019463D
:103AA0007B6C01FB03F319461046FDF75DFC00E05B
:103AB00000BF9837BD4680BD6666663FE4050020BE
:103AC0000000C04180B582B000AF0023FB7126E04A
:103AD000FB79503BDBB20021184600F02BF80021A7
:103AE000002000F027F80021102000F023F8002328
:103AF000BB710DE0BA79FB790D49D2000A44134439
:103B00001B780121184600F015F8BB790133BB7111
:103B100097F90630002BEDDAFB790133FB71FB7965
:103B2000072BD5D900BF00BF0837BD4680BD00BFF9
:103B30000806002080B584B000AF03460A46FB713A
:103B40001346BB71BB79002B06D001224FF40061F4
:103B50001E4801F05DFE05E000224FF400611B48A5
:103B600001F056FE0023FB7322E000224FF4804157
:103B7000164801F04DFE97F90730002B06DA0122B6
:103B80004FF40051114801F043FE05E000224FF4CC
:103B900000510E4801F03CFE01224FF480410B48D9
:103BA00001F036FEFB795B00FB71FB7B0133FB739D
:103BB000FB7B072BD9D901224FF40061034801F0A8
:103BC00027FE00BF1037BD4680BD00BF000C02407D
:103BD00080B582B000AF0023FB7114E00023BB71FD
:103BE0000AE0BA79FB790C49D2000A441344002256
:103BF0001A70BB790133BB7197F90630002BF0DAEC
:103C0000FB790133FB71FB79072BE7D9FFF75AFFEB
:103C100000BF0837BD4680BD0806002080B485B0CF
:103C200000AF0346FB710B46BB7113467B7100234B
:103C3000FB7397F90730002B41DBBB793F2B3ED854
:103C4000BB79DB08DBB2C3F10703BB73BB7903F0BD
:103C500007037B737B7BC3F10703012202FA03F3A3
:103C6000FB737B79002B12D0FA79BB7B1749D2000A
:103C70000A4413441878FA79BB7BF97B0143C8B234
:103C80001249D2000A44134402461A7018E0FA7925
:103C9000BB7B0E49D2000A4413441B785AB297F9F1
:103CA0000F30DB435BB2134059B2FA79BB7BC8B229
:103CB0000649D2000A44134402461A7000E000BFCD
:103CC0001437BD465DF8047B704700BF080600202E
:103CD00090B585B000AF0446084611461A46234603
:103CE000FB710346BB710B467B7113463B71BB797D
:103CF0003B737B79203B7B710023BB734DE03B79A9
:103D00000C2B0BD17A79B97B284813465B001344FE
:103D10009B0003440B441B78FB7307E07A79BB7B61
:103D2000234912010A4413441B78FB7300237B735D
:103D30002DE097F90F30002B07DA97F82020B9799A
:103D4000FB791846FFF76AFF0CE097F82030002B4C
:103D50000CBF01230023DBB21A46B979FB79184660
:103D6000FFF75CFFFB7B5B00FB73BB790133BB712F
:103D7000BA793B7BD21A3B799A4205D13B7BBB7126
:103D8000FB790133FB7105E07B7B01337B737B7B2C
:103D9000072BCED9BB7B0133BB73BA7B3B799A42ED
:103DA000ADD300BF00BF1437BD4690BDD40A010893
:103DB000480F010880B584B002AF03463A60FB713A
:103DC0000B46BB711FE0FB797A2B04D90023FB71F2
:103DD000BB791033BB71BB793A2B05D90023FB713A
:103DE000FB79BB71FFF7F4FE3B681A78B979F87973
:103DF000012300930C23FFF76BFFFB790833FB7162
:103E00003B6801333B603B681B78002BDBD100BF74
:103E100000BF0837BD4680BD80B500AF02F064FE2C
:103E2000424B1B6F414A23F0010313673F4B1B6F4B
:103E30003E4A23F00403136702F06AFE00224FF4A7
:103E400080513B4801F0E4FC642001F065F9012257
:103E50004FF48051364801F0DBFC0021AE20FFF723
:103E600069FE0021D520FFF765FE00215020FFF7F5
:103E700061FE0021A820FFF75DFE00213F20FFF733
:103E800059FE0021D320FFF755FE00210020FFF747
:103E900051FE00214020FFF74DFE00218D20FFF74D
:103EA00049FE00211420FFF745FE00212020FFF7E6
:103EB00041FE00210220FFF73DFE0021A120FFF777
:103EC00039FE0021C020FFF735FE0021DA20FFF780
:103ED00031FE00211220FFF72DFE00218120FFF787
:103EE00029FE0021EF20FFF725FE0021D920FFF752
:103EF00021FE0021F120FFF71DFE0021DB20FFF74E
:103F000019FE00213020FFF715FE0021A420FFF745
:103F100011FE0021A620FFF70DFE0021AF20FFF7C4
:103F200009FEFFF755FE00BF80BD00BF003802400C
:103F3000000C024080B487B000AF7861396187ED32
:103F4000030AC7ED020A87ED011AC7ED001A7B6963
:103F5000002B4DD03B69002B4AD03B691A687B6926
:103F60001A603B6904331A687B695A603B690833FD
:103F70001A687B699A607B69FA685A627B69BA68D9
:103F80009A627B697A68DA627B693A681A637B694C
:103F90004FF000029A647B699A6C7B695A647B6972
:103FA0005A6C7B691A647B694FF00002DA637B69A3
:103FB000DA6B7B699A637B699A6B7B695A637B696D
:103FC0004FF000025A617B695A697B691A627B690A
:103FD0001A6A7B69DA617B69DA697B699A617B6954
:103FE0004FF000021A617B691A697B69DA6000E0B0
:103FF00000BF1C37BD465DF8047B704780B485B0B8
:1040000000AFF86087ED020AC7ED010AFB68002BDC
:1040100002D14FF00003E5E0FB689A6BFB68DA63BE
:10402000FB685A6BFB689A63FB687A68DA60FB6826
:10403000BA681A6197ED017AD7ED027A77EE677A5E
:10404000FB68C3ED0D7AFB6893ED007AFB68D3ED56
:104050000D7A67EE277AFB68C3ED067AFB6893ED6D
:10406000077AFB68D3ED016AFB68D3ED0D7A66EE43
:10407000A76AFB68D3ED0C7A66EEA77A77EE277A0B
:10408000FB68C3ED077AFB6893ED077AFB68D3ED15
:104090000A7AB4EEE77AF1EE10FA04DDFB689A6A68
:1040A000FB68DA6114E0FB6893ED077AFB68D3EDF7
:1040B0000A7AF1EE677AB4EEE77AF1EE10FA07D5F4
:1040C000FB68D3ED0A7AF1EE677AFB68C3ED077AF5
:1040D000FB685A6CFB689A64FB681A6CFB685A644C
:1040E000FB6893ED0D7AFB68D3ED0E7A77EE677A75
:1040F000FB68C3ED107AFB68D3ED026AFB6893EDB1
:10410000106AFB68D3ED0C7AF5EEC07AF1EE10FA86
:1041100003DDFB68D3ED0C7A01E0F7EE007A86EE62
:10412000277A66EE877AFB68C3ED087AFB6893ED21
:10413000087AFB68D3ED0B7AB4EEE77AF1EE10FA69
:1041400004DDFB68DA6AFB681A6214E0FB6893ED31
:10415000087AFB68D3ED0B7AF1EE677AB4EEE77A72
:10416000F1EE10FA07D5FB68D3ED0B7AF1EE677A22
:10417000FB68C3ED087AFB6893ED067AFB68D3ED24
:10418000077A37EE277AFB68D3ED087A77EE277A3D
:10419000FB68C3ED057AFB6893ED057AFB68D3ED08
:1041A000097AB4EEE77AF1EE10FA04DDFB685A6A98
:1041B000FB685A6114E0FB6893ED057AFB68D3ED68
:1041C000097AF1EE677AB4EEE77AF1EE10FA07D5E4
:1041D000FB68D3ED097AF1EE677AFB68C3ED057AE7
:1041E000FB685B6907EE903AB0EE670A1437BD468C
:1041F0005DF8047B704780B483B000AF78607B6863
:10420000002B30D07B684FF00002DA637B68DA6BFA
:104210007B689A637B689A6B7B685A637B684FF014
:1042200000029A647B689A6C7B685A647B685A6C5B
:104230007B681A647B684FF000021A627B681A6A16
:104240007B68DA617B68DA697B689A617B689A6966
:104250007B685A617B684FF00002DA607B68DA683D
:104260007B681A6100E000BF0C37BD465DF8047B37
:104270007047000080B487B000AF78613961FA60A0
:1042800087ED010A7B81184A7B691360174AFB6836
:104290001360174A7B891380164A3B691360D7ED78
:1042A000017AF5EEC07AF1EE10FA01DD7B6801E0EB
:1042B0004FF07E53104A13600B4B1B68002B08D045
:1042C000094B1B681A680D4B1B689A4201D10123E8
:1042D00000E00023DAB20A4B1A7000BF1C37BD465B
:1042E0005DF8047B704700BF080A0020140A002014
:1042F000180A00200C0A002010000020640400208E
:10430000100A002080B584B000AFF860B960134691
:10431000FB80FB88B7EE000ABA680021F868FFF757
:10432000A9FF00BF1037BD4680BD000080B586B034
:1043300000AF2D4B1B78002B4FD12C4B1B68002B53
:104340004BD02B4B1B68002B47D02A4B1B78DBB282
:10435000002B44D1264B1B68274A1188012218469E
:1043600001F056FA00237B6102E07B6901337B6137
:104370007B69632BF9DD1E4B1B681F4A11880022E5
:10438000184601F045FA3B1D00221A605A609A60F7
:10439000DA6000237B600123BB600023FB60002305
:1043A0003B61124B1B68154A1268391D184603F011
:1043B00051FE134B01221A700E4B01221A700B4B47
:1043C0001B681B6800225A62084B1B680B4A126864
:1043D0001146184603F044FA02E000BF00E000BFB7
:1043E0001837BD4680BD00BF100A0020080A002013
:1043F000140A00201A0A0020180A00200C0A0020C3
:104400001400002080B400AF044B1B6807EE903A04
:10441000B0EE670ABD465DF8047B7047240A0020B1
:1044200080B58AB000AF78604B4B1B78002B40F012
:104430008F804A4B1B68002B00F08A807B681A68CB
:10444000464B1B681B689A4240F08380444B1B78A4
:10445000DBB2002B32D0434B1B681946786804F05E
:104460001FF80346404A13603D4B00221A703F4B31
:1044700002221A7007F10C0300221A605A609A6037
:10448000DA600223FB6001233B6100237B61002390
:10449000BB61344B1B681946786803F009FB314B4C
:1044A0001A6807F10C031946786803F0D3FD2D4B09
:1044B0001B681946786803F0D3F94AE0294B1B685A
:1044C0001946786803F0ECFF0346294A1360254B30
:1044D0001B681946786803F0EBFA254B1A68224BE3
:1044E0001B689A4206D3224B1A681F4B1B68D31ACB
:1044F0007B620DE0194B1B681B68DB6A3B621A4B41
:104500001B683A6AD21A1A4B1B68134401337B6248
:104510007B6A07EE903AB8EE677A164BD3ED007AD5
:1045200067EE277AC7ED077AD7ED077A9FED127A03
:1045300027EE877AF0EE006AC7EE267A0F4BC3EDBE
:10454000007A074B01221A70084B00221A7000E013
:1045500000BF2837BD4680BD100A0020080A002091
:10456000140000200C0A00201C0A00201A0A002057
:10457000200A002010000020287E0C3D240A002084
:1045800080B582B000AF78607B685B8A1946786836
:1045900000F09FF800BF0837BD4680BD80B485B0ED
:1045A00000AF78600B467B807B8807EE903AF8EE90
:1045B000E76A7B6893ED027AC6EE877AC7ED037AE5
:1045C000D7ED037AF5EEC07AF1EE10FA02D54FF08E
:1045D0000003FB607B68DB6807EE903AF8EE677AD1
:1045E00097ED037AB4EEE77AF1EE10FA07DD7B6817
:1045F000DB6807EE903AF8EE677AC7ED037AD7EDFD
:10460000037AB6EE007A77EE877AFCEEE77A17EE59
:10461000903A18461437BD465DF8047B704780B465
:1046200083B000AF78607B681B68DB6A18460C3784
:10463000BD465DF8047B704780B586B000AF7861F9
:104640003961FA6087ED020AFB807B69002B18D084
:104650007B693A691A607B69FA685A607B69BA6853
:104660009A603869FFF7DBFF02467B69DA607B6995
:10467000FA881A827B693A8C5A827B69BA8C9A8250
:1046800000E000BF1837BD4680BD80B584B000AFE4
:1046900078607B68002B03D07B681B68002B01D1FE
:1046A000012312E07B681A687B685B681946104634
:1046B00002F0B4FF0346FB73FB7B002B01D0FB7BB6
:1046C00003E07868FFF75CFF002318461037BD460B
:1046D00080BD80B584B000AF78600B467B807B687E
:1046E000002B3DD07B681B68002B39D07B681B8A70
:1046F0007A889A4202D27B681B8A7B807B689B8A7D
:104700007A889A4202D97B689B8A7B807B8819468B
:104710007868FFF743FFF8607B685B68002B05D182
:104720007B681B681B68FA685A631AE07B685B68E1
:10473000042B05D17B681B681A68FB68936310E043
:104740007B685B68082B05D17B681B681A68FB686F
:10475000D36306E07B681B681A68FB68136400E09B
:1047600000BF1037BD4680BD80B586B000AF786011
:1047700087ED000A7B68002B58D0D7ED007AF5EE64
:10478000C07AF1EE10FA28D597ED007ADFED296AAC
:10479000C7EE267AC7ED037A7B685B8A07EE903A0C
:1047A000B8EE677A7B685B8A1A467B681B8AD31AE5
:1047B00007EE903AF8EEE76AD7ED037A66EEA77A4D
:1047C00077EE677AFCEEE77A17EE903A7B817B8989
:1047D00019467868FFF77DFF29E097ED007ADFED55
:1047E000166AC7EE267AC7ED057A7B685B8A07EE04
:1047F000903AB8EE677A7B689B8A1A467B685B8A38
:10480000D31A07EE903AF8EEE76AD7ED057A66EE2E
:10481000A77A77EE277AFCEEE77A17EE903A7B825A
:104820007B8A19467868FFF754FF00E000BF18370D
:10483000BD4680BD0000C8C20000C84280B582B03D
:1048400000AF00237B60124B5B6C114A43F4804342
:1048500053640F4B5B6C03F480437B607B680023E5
:104860003B600B4B1B6C0A4A43F080531364084BAC
:104870001B6C03F080533B603B6800220F216FF0FC
:10488000010000F048FD00BF0837BD4680BD00BFF5
:104890000038024080B58AB000AF786007F1140399
:1048A00000221A605A609A60DA601A617B681B689D
:1048B000194A93422CD100233B61184B1B6B174ABA
:1048C00043F002031363154B1B6B03F002033B61C0
:1048D0003B694FF440637B611223BB610023FB61A2
:1048E00003233B6204237B6207F1140319460C483F
:1048F00000F0DAFD0023FB60084B1B6C074A43F411
:1049000080031364054B1B6C03F48003FB60FB689E
:1049100000BF2837BD4680BD005800400038024027
:104920000004024080B58CB000AF786007F11C0332
:1049300000221A605A609A60DA601A617B681B680C
:10494000B3F1804F4BD10023BB613F4B1B6C3E4A00
:1049500043F0010313643C4B1B6C03F00103BB6188
:10496000BB6900237B61384B1B6B374A43F0010363
:104970001363354B1B6B03F001037B617B690023E1
:104980003B61314B1B6B304A43F0020313632E4BE8
:104990001B6B03F002033B613B694FF40043FB6177
:1049A00002233B6200237B620023BB620123FB6284
:1049B00007F11C031946254800F076FD0823FB612A
:1049C00002233B6200237B620023BB620123FB6264
:1049D00007F11C0319461E4800F066FD30E07B68B5
:1049E0001B681C4A93422BD10023FB60164B1B6CA7
:1049F000154A43F002031364134B1B6C03F00203CC
:104A0000FB60FB680023BB600F4B1B6B0E4A43F03F
:104A1000020313630C4B1B6B03F00203BB60BB6808
:104A20003023FB6102233B6200237B620023BB62D5
:104A30000223FB6207F11C031946054800F034FD10
:104A400000BF3037BD4680BD003802400000024044
:104A5000000402400004004080B58EB000AF7860D2
:104A600007F1240300221A605A609A60DA601A6122
:104A70007B681B684D4A93420ED100233B624C4B2E
:104A80001B6C4B4A43F004031364494B1B6C03F04B
:104A900004033B623B6A85E07B681B68454A93429E
:104AA00016D10023FB61424B1B6C414A43F00803C3
:104AB00013643F4B1B6C03F00803FB61FB6900228E
:104AC0000521322000F027FC322000F040FC69E094
:104AD0007B681B68384A934216D10023BB61344B74
:104AE0005B6C334A43F002035364314B5B6C03F05D
:104AF0000203BB61BB69002205212B2000F00BFCE7
:104B00002B2000F024FC4DE07B681B682B4A93426D
:104B10000ED100237B61264B5B6C254A43F4803326
:104B20005364234B5B6C03F480337B617B6939E016
:104B30007B681B68224A934234D100233B611C4BA3
:104B40001B6C1B4A43F040031364194B1B6C03F0AE
:104B500040033B613B690023FB60154B1B6B144A10
:104B600043F002031363124B1B6B03F00203FB6061
:104B7000FB684FF480437B620223BB620023FB622D
:104B800000233B6309237B6307F1240319460D4887
:104B900000F08AFC002205212B2000F0BCFB2B201A
:104BA00000F0D5FB00BF3837BD4680BD000800408F
:104BB00000380240000C0040000401400040014069
:104BC000001800400004024080B58AB000AF786051
:104BD00007F1140300221A605A609A60DA601A61C1
:104BE0007B681B68364A93421FD100233B61354BDB
:104BF0001B6B344A43F002031363324B1B6B03F00D
:104C000002033B613B694FF440737B610223BB614C
:104C10000023FB6100233B6202237B6207F1140344
:104C20001946294800F040FC46E07B681B68274A8B
:104C300093421ED10023FB60224B1B6B214A43F0A1
:104C4000040313631F4B1B6B03F00403FB60FB683F
:104C500040237B610223BB610023FB6102233B6293
:104C600003237B6207F114031946194800F01CFC6A
:104C700022E07B681B68174A93421DD10023BB606A
:104C8000104B1B6B0F4A43F0100313630D4B1B6B50
:104C900003F01003BB60BB6860237B610223BB6130
:104CA0000023FB6100233B6203237B6207F11403B3
:104CB0001946094800F0F8FB00BF2837BD4680BD03
:104CC0000008004000380240000402400004014097
:104CD00000080240004001400010024080B58AB048
:104CE00000AF786007F1140300221A605A609A60DE
:104CF000DA601A617B681B681D4A934234D1002335
:104D00003B611C4B1B6C1B4A43F480231364194BFF
:104D10001B6C03F480233B613B690023FB60154B54
:104D20001B6B144A43F008031363124B1B6B03F015
:104D30000803FB60FB684FF440737B610223BB6197
:104D40000023FB6103233B6207237B6207F114030B
:104D50001946094800F0A8FB00220521272000F091
:104D6000DAFA272000F0F3FA00BF2837BD4680BDED
:104D70000048004000380240000C024080B400AF00
:104D800000BFFDE780B400AF00BFFDE780B400AF17
:104D900000BFFDE780B400AF00BFFDE780B400AF07
:104DA00000BFFDE780B400AF00BFBD465DF8047BE7
:104DB000704780B500AF00F08FF907F07DF803462B
:104DC000012B01D007F078FE00BF80BD80B500AF99
:104DD000024804F0E9F900BF80BD00BF3C05002097
:104DE00080B500AF034803F045F8034803F042F8EC
:104DF00000BF80BD64040020F404002080B500AF33
:104E0000024803F037F800BF80BD00BF1C0400203B
:104E100080B400AF01231846BD465DF8047B70479F
:104E200080B582B000AF7860396008F09FFE03461D
:104E300016221A604FF0FF3318460837BD4680BD72
:104E400080B582B000AF78604FF0FF317868FFF72F
:104E5000E7FF00BFFDE780B586B000AFF860B9603E
:104E60007A6000237B610AE0AFF300800146BB68F3
:104E70005A1CBA60CAB21A707B6901337B617A69C5
:104E80007B689A42F0DB7B6818461837BD4680BDC8
:104E900080B586B000AFF860B9607A6000237B61AE
:104EA00009E0BB685A1CBA601B781846AFF3008053
:104EB0007B6901337B617A697B689A42F1DB7B68AD
:104EC00018461837BD4680BD80B483B000AF786007
:104ED0004FF0FF3318460C37BD465DF8047B704732
:104EE00080B483B000AF786039603B684FF4005203
:104EF0005A60002318460C37BD465DF8047B7047A6
:104F000080B483B000AF7860012318460C37BD46EB
:104F10005DF8047B704780B485B000AFF860B9607D
:104F20007A60002318461437BD465DF8047B70474D
:104F300080B586B000AF7860144A154BD31A7B61F8
:104F40007B693B61134B1B68002B02D1114B124A4A
:104F50001A60104B1A687B6813443A699A4207D268
:104F600008F004FE03460C221A604FF0FF3309E0FC
:104F7000084B1B68FB60074B1A687B681344054AA3
:104F80001360FB6818461837BD4680BD000002203C
:104F900000040000280A0020D054002080B400AF94
:104FA000064BD3F88830054A43F47003C2F88830C2
:104FB00000BFBD465DF8047B704700BF00ED00E018
:104FC00080B500AF0121054800F00AFC0346012B23
:104FD00014BF01230023DBB2184680BD001002403D
:104FE000DFF834D0FFF7DAFF0C480D490D4A0023F3
:104FF00002E0D458C4500433C4188C42F9D30A4A8E
:105000000A4C002301E013600432A242FBD308F0F3
:10501000B3FDFCF7EBFC704700000220000000200D
:10502000F0010020A01C0108F0010020CC54002059
:10503000FEE7000080B500AF0E4B1B680D4A43F43D
:10504000007313600B4B1B680A4A43F480631360C0
:10505000084B1B68074A43F480731360032000F079
:105060004FF90F2000F008F8FFF7E8FB002318467F
:1050700080BD00BF003C024080B582B000AF7860C8
:10508000124B1A68124B1B7819464FF47A73B3FB14
:10509000F1F3B2FBF3F3184600F067F90346002B77
:1050A00001D001230EE07B680F2B0AD8002279681B
:1050B0004FF0FF3000F02FF9064A7B6813600023A1
:1050C00000E0012318460837BD4680BD18000020C7
:1050D000200000201C00002080B400AF064B1B788D
:1050E0001A46064B1B681344044A136000BFBD46B2
:1050F0005DF8047B704700BF200000202C0A0020D0
:1051000080B400AF034B1B681846BD465DF8047BB6
:10511000704700BF2C0A002080B584B000AF7860D3
:10512000FFF7EEFFB8607B68FB60FB68B3F1FF3F01
:1051300005D00A4B1B781A46FB681344FB6000BF7E
:10514000FFF7DEFF0246BB68D31AFA689A42F7D827
:1051500000BF00BF1037BD4680BD00BF200000204B
:1051600080B485B000AF78607B6803F00703FB6014
:105170000C4BDB68BB60BA684FF6FF031340BB60A3
:10518000FB681A02BB68134343F0BF6343F4003368
:10519000BB60044ABB68D36000BF1437BD465DF8EE
:1051A000047B704700ED00E080B400AF044BDB6887
:1051B0001B0A03F007031846BD465DF8047B7047E1
:1051C00000ED00E080B483B000AF0346FB7197F9B7
:1051D0000730002B0BDBFB7903F01F02074997F91F
:1051E00007305B09012000FA02F241F8232000BFDA
:1051F0000C37BD465DF8047B704700BF00E100E05E
:1052000080B483B000AF03463960FB7197F9073073
:10521000002B0ADB3B68DAB20C4997F90730120120
:10522000D2B20B4483F800230AE03B68DAB20849A3
:10523000FB7903F00F03043B1201D2B20B441A7640
:1052400000BF0C37BD465DF8047B704700E100E00D
:1052500000ED00E080B489B000AFF860B9607A601A
:10526000FB6803F00703FB61FB69C3F10703042B31
:1052700028BF0423BB61FB690433062B02D9FB69F9
:10528000033B00E000237B614FF0FF32BB6902FA71
:1052900003F3DA43BB681A407B699A404FF0FF3151
:1052A0007B6901FA03F3D9437B680B40134318462B
:1052B0002437BD465DF8047B7047000080B582B09E
:1052C00000AF78607B68013BB3F1807F01D301239D
:1052D0000FE00A4A7B68013B53600F214FF0FF301B
:1052E000FFF78EFF054B00229A60044B07221A60DD
:1052F000002318460837BD4680BD00BF10E000E01F
:1053000080B582B000AF78607868FFF729FF00BFF2
:105310000837BD4680BD80B586B000AF0346B96092
:105320007A60FB7300237B61FFF73EFF78617A6848
:10533000B9687869FFF78EFF024697F90F3011467A
:105340001846FFF75DFF00BF1837BD4680BD80B52A
:1053500082B000AF0346FB7197F907301846FFF79C
:1053600031FF00BF0837BD4680BD80B582B000AFB9
:1053700078607868FFF7A2FF034618460837BD46F5
:1053800080BD80B584B000AF78607B689B6DFB60AA
:10539000FFF7B6FEB8607B6893F83530DBB2022BBE
:1053A00008D07B6880225A657B68002283F834200D
:1053B000012352E07B681B681A687B681B6822F037
:1053C00016021A607B681B685A697B681B6822F0AA
:1053D00080025A617B681B6C002B03D17B689B6C3D
:1053E000002B07D07B681B681A687B681B6822F05B
:1053F00008021A607B681B681A687B681B6822F0C9
:1054000001021A6013E0FFF77BFE0246BB68D31A65
:10541000052B0CD97B6820225A657B68032283F810
:1054200035207B68002283F83420032315E07B6855
:105430001B681B6803F00103002BE4D17B68DB6D64
:105440003F229A40FB689A607B68012283F83520EE
:105450007B68002283F83420002318461037BD46AD
:1054600080BD80B483B000AF78607B6893F835303E
:10547000DBB2022B04D07B6880225A6501230CE04A
:105480007B68052283F835207B681B681A687B6877
:105490001B6822F001021A60002318460C37BD4633
:1054A0005DF8047B7047000080B489B000AF78607D
:1054B000396000237B6100233B610023BB61002333
:1054C000FB616BE10122FB6902FA03F37B613B683C
:1054D0001B687A6913403B613A697B699A4240F0E4
:1054E0005A813B685B6803F00303012B05D03B68DE
:1054F0005B6803F00303022B30D17B689B68BB61C0
:10550000FB695B00032202FA03F3DB43BA69134031
:10551000BB613B68DA68FB695B0002FA03F3BA69B6
:105520001343BB617B68BA699A607B685B68BB6147
:105530000122FB6902FA03F3DB43BA691340BB6142
:105540003B685B681B0903F00102FB6902FA03F385
:10555000BA691343BB617B68BA695A603B685B6890
:1055600003F00303032B17D07B68DB68BB61FB6987
:105570005B00032202FA03F3DB43BA691340BB6109
:105580003B689A68FB695B0002FA03F3BA6913434C
:10559000BB617B68BA69DA603B685B6803F0030350
:1055A000022B23D1FB69DA087B68083253F82230DA
:1055B000BB61FB6903F007039B000F2202FA03F3B0
:1055C000DB43BA691340BB613B681A69FB6903F0AE
:1055D00007039B0002FA03F3BA691343BB61FB693B
:1055E000DA087B680832B96943F822107B681B68C7
:1055F000BB61FB695B00032202FA03F3DB43BA6978
:105600001340BB613B685B6803F00302FB695B000E
:1056100002FA03F3BA691343BB617B68BA691A6083
:105620003B685B6803F44033002B00F0B480002338
:10563000FB60604B5B6C5F4A43F4804353645D4B9B
:105640005B6C03F48043FB60FB685B4AFB699B086F
:10565000023352F82330BB61FB6903F003039B0064
:105660000F2202FA03F3DB43BA691340BB617B6884
:10567000524A93422BD07B68514A934225D07B6893
:10568000504A93421FD07B684F4A934219D07B689F
:105690004E4A934213D07B684D4A93420DD07B68AB
:1056A0004C4A934207D07B684B4A934201D107236F
:1056B0000EE008230CE006230AE0052308E004239B
:1056C00006E0032304E0022302E0012300E00023BC
:1056D000FA6902F0030292009340BA691343BB6176
:1056E0003549FB699B080233BA6941F823203B4BDB
:1056F0009B68BB613B69DB43BA691340BB613B6894
:105700005B6803F48013002B03D0BA693B69134331
:10571000BB61324ABB699360304BDB68BB613B695C
:10572000DB43BA691340BB613B685B6803F4001359
:10573000002B03D0BA693B691343BB61274ABB699D
:10574000D360264B5B68BB613B69DB43BA6913409E
:10575000BB613B685B6803F40033002B03D0BA697C
:105760003B691343BB611D4ABB6953601B4B1B68FC
:10577000BB613B69DB43BA691340BB613B685B6853
:1057800003F48033002B03D0BA693B691343BB6138
:10579000124ABB691360FB690133FB61FB690F2B84
:1057A0007FF690AE00BF00BF2437BD465DF8047B96
:1057B000704700BF0038024000380140000002403E
:1057C0000004024000080240000C024000100240A9
:1057D0000014024000180240001C0240003C01403E
:1057E00080B485B000AF78600B467B807B681A6917
:1057F0007B881340002B02D00123FB7301E00023C0
:10580000FB73FB7B18461437BD465DF8047B70477D
:1058100080B483B000AF78600B467B8013467B700A
:105820007B78002B03D07A887B689A6103E07B88C1
:105830001A047B689A6100BF0C37BD465DF8047B93
:105840007047000080B584B000AF78607B68002BA3
:1058500001D101232BE17B6893F83D30DBB2002BB3
:1058600006D17B68002283F83C207868FFF712F8A5
:105870007B68242283F83D207B681B681A687B685C
:105880001B6822F001021A607B681B681A687B683B
:105890001B6842F400421A607B681B681A687B68C8
:1058A0001B6822F400421A6001F076FDF8607B6804
:1058B0005B68814A934207D8FB68804A934294BF51
:1058C00001230023DBB206E0FB687D4A934294BFCC
:1058D00001230023DBB2002B01D00123E7E0FB68AA
:1058E000784AA2FB03239B0CBB607B681B685B6848
:1058F00023F03F017B681B68BA680A435A607B68E3
:105900001B681B6A23F03F017B685B686A4A93420D
:1059100002D8BB68013309E0BB684FF4967202FB02
:1059200003F3694AA2FB03239B0901337A681268D7
:105930000B4313627B681B68DB6923F44F4222F040
:10594000FF027B685B685C498B4219D8FB68591E73
:105950007B685B685B00B1FBF3F3591C40F6FC739A
:105960000B40002B0AD0FB68591E7B685B685B000C
:10597000B1FBF3F30133C3F30B0351E004234FE016
:105980007B689B68002B11D1FB68581E7B685968A7
:105990000B465B000B44B0FBF3F30133C3F30B0383
:1059A000002B0CBF01230023DBB212E0FB68581E62
:1059B0007B6859680B469B000B4499000B44B0FB75
:1059C000F3F30133C3F30B03002B0CBF01230023BC
:1059D000DBB2002B01D0012322E07B689B68002B07
:1059E0000ED1FB68581E7B6859680B465B000B4460
:1059F000B0FBF3F30133C3F30B0343F400430FE0B5
:105A0000FB68581E7B6859680B469B000B44990045
:105A10000B44B0FBF3F30133C3F30B0343F44043F4
:105A2000796809681343CB617B681B681B6823F0A6
:105A3000C0017B68DA697B681B6A1A437B681B6854
:105A40000A431A607B681B689B6823F4034323F0B6
:105A5000FF037A6811697A68D26811437A6812681C
:105A60000B4393607B681B68DB6823F0FF017B6856
:105A70005A697B689B691A437B681B680A43DA6032
:105A80007B681B681A687B681B6842F001021A6019
:105A90007B6800221A647B68202283F83D207B68A3
:105AA00000221A637B68002283F83E2000231846F8
:105AB0001037BD4680BD00BFA08601007F841E0058
:105AC000FF083D0083DE1B43D34D621080B588B0D4
:105AD00002AFF860084611461A4603467B810B4622
