:020000040800F2
:1000000000000220AD250008F1240008F9240008B2
:10001000012500080925000811250008000000003E
:10002000000000000000000000000000A191000896
:100030001925000800000000F1930008272500089A
:10004000FD250008FD250008FD250008FD25000808
:10005000FD250008FD250008FD250008FD250008F8
:10006000FD250008FD250008FD250008FD250008E8
:10007000FD250008FD250008FD250008FD250008D8
:10008000FD250008FD250008FD250008FD250008C8
:10009000FD250008FD250008FD250008FD250008B8
:1000A000FD250008FD250008FD250008FD250008A8
:1000B000FD250008FD250008FD250008FD25000898
:1000C000FD250008FD250008FD250008FD25000888
:1000D000FD250008FD250008FD2500084125000834
:1000E000FD250008FD250008FD250008FD25000868
:1000F000FD250008FD250008FD250008FD25000858
:10010000FD250008FD25000855250008FD250008EF
:10011000FD250008FD250008FD250008FD25000837
:10012000FD250008FD250008FD250008FD25000827
:10013000FD250008FD250008FD250008FD25000817
:10014000FD250008FD250008FD250008FD25000807
:10015000FD250008FD250008FD250008FD250008F7
:10016000FD250008FD250008FD250008FD250008E7
:10017000FD250008FD250008FD2500080000000001
:08018000FD250008FD25000823
:1001900010B5054C237833B9044B13B10448AFF3C1
:1001A00000800123237010BD140000200000000017
:1001B000CC99000808B5034B1BB103490348AFF3C2
:1001C000008008BD0000000018000020CC99000845
:1001D000034613F8012B002AFBD1181A0138704787
:1001E00053B94AB9002908BF00281CBF4FF0FF319E
:1001F0004FF0FF3000F088B9ADF1080C6DE904CE86
:1002000000F006F8DDF804E0DDE9022304B07047F1
:100210002DE9F047089D8E4604468846002B4AD1BA
:100220008A42174662D9B2FA82F64EB1C6F120036D
:1002300001FA06F820FA03F3B74043EA0808B4408D
:100240004FEA174E1FFA87FCB8FBFEF1230C0EFB9A
:10025000118843EA084301FB0CF29A4209D9FB18C2
:1002600001F1FF3080F0EA809A4240F2E7800239E3
:100270003B449A1AA3B2B2FBFEF00EFB102243EAF3
:10028000024300FB0CFC9C4509D9FB1800F1FF322E
:1002900080F0D6809C4540F2D3803B44023840EA4F
:1002A0000140A3EB0C0300211DB1F3400022C5E97E
:1002B0000032BDE8F0878B4205D90DB1C5E90001D8
:1002C00000210846F5E7B3FA83F1002946D17345CA
:1002D00002D3824200F20581841A6EEB03020120F0
:1002E0009046002DE5D0C5E90048E2E7002A00F07D
:1002F0009080B2FA82F6002E40F0A4808A1A030C95
:100300004FEA174E80B2BCB20121B2FBFEFC0EFBDD
:100310001C2243EA024304FB0CF29A4207D9FB1861
:100320000CF1FF3802D29A4200F2E080C4469B1AD8
:10033000B3FBFEF20EFB123340EA034302FB04F46C
:100340009C4207D9FB1802F1FF3002D29C4200F216
:10035000CA8002461B1B42EA0C40A5E7C1F12006F9
:100360008B4022FA06F71F430EFA01F420FA06F337
:100370002EFA06FE4FEA1749234300FA01F81FFA46
:1003800087FCBEFBF9F01C0C09FB10EE44EA0E449E
:1003900000FB0CFEA64502FA01F209D93C1900F156
:1003A000FF3A80F09C80A64540F2998002383C4498
:1003B000A4EB0E041FFA83FEB4FBF9F309FB13440C
:1003C0004EEA044403FB0CFCA44508D93C1903F194
:1003D000FF3E80F08280A4457FD9023B3C4443EA43
:1003E0000040A4EB0C04A0FB02EC64457346E1461C
:1003F00062D35FD05DB1B8EB030264EB090404FA89
:1004000006F622FA01F31E43CC40C5E90064002140
:100410004FE7B1FBF2FC010C41EA0E4180B240EA29
:1004200001423B4638463C46B846BE462026B1FB14
:10043000F7F1A2EB080241EA0C4166E7014618E732
:1004400010462CE7C6F120022EFA02F3B740B14065
:1004500020FA02F24FEA174E0A43B3FBFEF8BCB291
:100460000EFB1833110C41EA034108FB04F9B040BC
:1004700089454FEA104380B23ED9791808F1FF3C14
:1004800001D289451FD8A1EB0901B1FBFEF909FB97
:1004900004F80EFB191192B242EA0142424529D2F8
:1004A000BA1809F1FF31C4D24245C2D2A9F1020102
:1004B0003A44BEE7F0459DD2BEEB02036CEB070C5D
:1004C0000138E14696E7A7EB09094944A8F1020C77
:1004D000B1FBFEF909FB04F8DBE773467FE7504602
:1004E00066E70846FDE63B44023A33E7ACF1020C0E
:1004F0003B441CE749469CE7A1EB0901C446B1FB1C
:10050000FEF909FB04F8C4E7704700BF80B58AB064
:1005100004AFF8600B467A60FB720023FB757B68C2
:10052000DBB21B01DBB27B75FB7A002B01D16823A8
:1005300000E06923BB75BB7D9BB25B0099B20A23C7
:1005400002930123019307F11503009301237F22F6
:10055000F86802F0A1FD0346FB75FB7D18461837CD
:10056000BD4680BD80B588B004AF786008461146AE
:100570001A460346FB700B46BB7013467B70002384
:10058000FB73FB78002B01D1682300E06923BB7368
:10059000BB7B9BB25B0099B2BB789AB20A230293F1
:1005A000012301937B1C00930123786802F074FD02
:1005B0000346FB73FB7B18461037BD4680BD80B5F4
:1005C00088B004AF7860084611461A460346FB70AF
:1005D0000B46BB7013463B800023FB73FB78002B5C
:1005E00001D1682300E06923BB73BB7B9BB25B0036
:1005F00099B2BB789AB20A2302933B880193BB69F4
:1006000000930123786802F041FE0346FB73FB7BF5
:1006100018461037BD4680BD80B584B000AF786005
:100620000A230222D021786803F062F80346FB73A4
:10063000FB7B002B0CBF01230023DBB218461037D5
:10064000BD4680BD80B584B000AF78600A23022229
:10065000D221786803F04CF80346FB73FB7B002B38
:100660000CBF01230023DBB218461037BD4680BD06
:1006700080B584B000AF78600B46FB701346BB704A
:100680000023FB73FB78002219467868FFF73EFFD2
:100690000346FB73F978802306227868FFF762FF30
:1006A0000346FB73C82002F01DF8F97801230622E7
:1006B0007868FFF757FF0346FB73F978002307229A
:1006C0007868FFF74FFF0346FB73FB780222194659
:1006D0007868FFF71BFF0346FB7397F902305B0056
:1006E0005BB243F018035BB2DBB2F97801227868A1
:1006F000FFF738FF0346FB73F97819231422786853
:10070000FFF730FF0346FB73F97804230022786873
:10071000FFF728FF0346FB73FB7800221946786831
:10072000FFF7F4FE0346FB73F97802230F22786883
:10073000FFF718FF0346FB7300BF1037BD4680BDAF
:1007400080B586B002AFF8607B600B46FB72134643
:10075000BB72F97A0B4B009302233722F868FFF73C
:100760002EFF084B1B781BB21B021AB2054B5B789D
:100770001BB213431AB27B681A8000BF1037BD4604
:1007800080BD00BF3000002080B584B000AF194AA2
:100790003B1D07CA83E807003B1DDFED171A9FEDDD
:1007A000171ADFED160A9FED160A1946154801F0D3
:1007B00029FA3B1DDFED101A9FED101ADFED0F0A2D
:1007C0009FED0F0A1946104801F01CFA01F0B0F82D
:1007D00003460E4A136001F0B9F803460C4A136051
:1007E0000C4B01221A700C4804F034F900BF10378A
:1007F000BD4680BDE49900080AD7233C0000204292
:100800000000C8423400002080000020E0000020EA
:10081000E4000020000000202802002080B483B003
:1008200000AF78607B681B68054A934202D1054B94
:1008300001221A7000BF0C37BD465DF8047B70477B
:10084000000C0040E800002080B485B000AFF860E4
:10085000B9607A603B60FB68002B03D00F4B1A68CD
:10086000FB681A60BB68002B03D00D4B1A68BB688D
:100870001A607B68002B03D00A4B1A687B681A60E9
:100880003B68002B03D0084B1A683B681A6000BF16
:100890001437BD465DF8047B704700BFCC000020D4
:1008A000D0000020D4000020D800002080B483B005
:1008B00000AF786039607B68002B04D0094B1B784F
:1008C0005AB27B681A703B68002B04D0064B1B7829
:1008D0005AB23B681A7000BF0C37BD465DF8047B06
:1008E000704700BFDC000020DD00002080B483B032
:1008F00000AF87ED010AD7ED017A9FED157AF4EE8E
:10090000C77AF1EE10FA07DDD7ED017A9FED117A83
:1009100077EEC77AC7ED017AD7ED017A9FED0E7AAF
:10092000F4EEC77AF1EE10FA07D5D7ED017A9FED14
:10093000097A77EE877AC7ED017A7B6807EE903AFD
:10094000B0EE670A0C37BD465DF8047B704700BF08
:10095000000034430000B443000034C380B586B0C7
:1009600000AF4FF4FA73FB604FF000037B6100238C
:100970003B6125E000237B801B4B18681B4B1978DB
:10098000BB1C0622FFF7DCFE194BBB60B7F9023037
:1009900007EE903AF8EEE76A97ED027AC6EE877AAC
:1009A000C7ED017A97ED057AD7ED017A77EE277AD0
:1009B000C7ED057A022001F095FE3B6901333B61EA
:1009C0003A69FB689A42D5DBFB6807EE903AB8EECD
:1009D000E77AD7ED056AC6EE877A064BC3ED007A53
:1009E00000BF1837BD4680BDEC000020F00000209D
:1009F00033338341F800002080B582B000AF7860C7
:100A00003960184A7B6813607868FFF705FE034673
:100A1000002B03D0144B00221A700BE07868FFF70C
:100A200011FE0346002B03D00F4B01221A7001E088
:100A300000F065FE3B68002B03D00B4B1A783B6837
:100A40001A70094B1B78062219467868FFF710FECA
:100A5000FFF784FF054B4FF000021A6000BF083714
:100A6000BD4680BDEC000020F0000020F400002016
:100A700080B400AF044B1B6807EE903AB0EE670AF3
:100A8000BD465DF8047B7047F400002080B400AFE1
:100A9000044B4FF000021A6000BFBD465DF8047BB6
:100AA000704700BFF400002080B584B000AF002381
:100AB000FB80264B1868264B1978BB1D0622FFF7D2
:100AC0003FFE244BBB60B7F9063007EE903AF8EED4
:100AD000E76A97ED027AC6EE877AC7ED037A1E4B76
:100AE000D3ED007A97ED037A77EE677AC7ED037A54
:100AF000D7ED037A9FED197AF4EEC77AF1EE10FA8A
:100B00000BDDD7ED037A9FED167AF4EEC77AF1EE9E
:100B100010FA02D54FF00003FB60D7ED037A9FED8A
:100B2000117A27EE877A104BD3ED007A77EE277A89
:100B3000B0EE670AFFF7DAFEF0EE407A0A4BC3ED3B
:100B4000007A00BF1037BD4680BD00BFEC0000201A
:100B5000F000002033338341F80000209A9999BEB9
:100B60009A99993E0AD7233CF400002080B582B0C0
:100B700000AF78607B685B8A1946786801F0B1F94C
:100B800000BF0837BD4680BD80B582B000AF01F020
:100B900037FD00F093F800F0CFFB00F0C3F900F050
:100BA00033FB00F017F900F069F900F03DFA00F0AE
:100BB00089FA00F0E1F800F095FB00F095FF00F0F5
:100BC000A5FDFFF7E1FD0023FB70FB1C194625483E
:100BD000FFF712FF01222449244805F076F9244B3F
:100BE0007B607868FFF7F4FA03469AB26423796869
:100BF0001E4805F0DFF806F02DF91E4A00211E48B8
:100C000006F072F903461D4A13601D4A00211D4873
:100C100006F06AF903461C4A13601C4A00211C486E
:100C200006F062F903461B4A13601B4A00211B4869
:100C300006F05AF903461A4A13601A4A00211A4864
:100C400006F052F90346194A1360194A002119485F
:100C500006F04AF90346184A136006F01FF900BF70
:100C6000FDE700BFFC000020780300200003002007
:100C7000409A0008789A0008991400084803002058
:100C80009C9A0008AD1400084C030020C09A00088C
:100C90008516000850030020E49A0008CD160008CD
:100CA00054030020089B0008DD16000858030020AC
:100CB0002C9B0008EF1600085C03002080B594B060
:100CC00000AF07F1200330220021184608F044FE4F
:100CD00007F10C0300221A605A609A60DA601A6108
:100CE0000023BB60224B1B6C214A43F080531364EA
:100CF0001F4B1B6C03F08053BB60BB6800237B6001
:100D00001C4B1B681B4A43F480431360194B1B6840
:100D100003F480437B607B6802233B620123FB6218
:100D200010233B630023BB6307F12003184603F045
:100D3000E9F90346002B01D000F0E1FC0F23FB6032
:100D400000233B6100237B610023BB610023FB6127
:100D500007F10C030021184603F04CFC0346002B5E
:100D600001D000F0CCFC00BF5037BD4680BD00BFB5
:100D7000003802400070004080B500AF124B134AAB
:100D80001A60114B124A5A600F4B00229A600E4BA8
:100D90000022DA600C4B4FF480421A610A4B0022A9
:100DA0005A61094B00229A61074B0022DA61064B17
:100DB00000221A62044802F02BF80346002B01D0EF
:100DC00000F09DFC00BF80BDFC00002000580040EA
:100DD000A086010080B58CB000AF07F10C0324227F
:100DE0000021184608F0B8FD3B1D00221A605A6029
:100DF000214B4FF080421A601F4B00225A601E4B5D
:100E000000229A601C4B4FF6FF72DA601A4B0022E8
:100E10001A61194B00229A610323FB6000233B6196
:100E200001237B610023BB610A23FB6100233B623A
:100E300001237B620023BB620A23FB6207F10C03E0
:100E400019460D4803F098FF0346002B01D000F02F
:100E500056FC00237B600023BB603B1D19460648FF
:100E600004F076FE0346002B01D000F048FC00BFE2
:100E70003037BD4680BD00BF5001002080B58CB02A
:100E800000AF07F10C0324220021184608F064FD8E
:100E90003B1D00221A605A60204B214A1A601F4BEA
:100EA00000225A601D4B00229A601C4B4FF6FF72C5
:100EB000DA601A4B00221A61184B00229A61032350
:100EC000FB6000233B6101237B610023BB610A239C
:100ED000FB6100233B6201237B620023BB620A2388
:100EE000FB6207F10C0319460C4803F045FF03466B
:100EF000002B01D000F003FC00237B600023BB60CB
:100F00003B1D1946054804F023FE0346002B01D083
:100F100000F0F5FB00BF3037BD4680BD98010020D2
:100F20000004004080B58EB000AF07F12803002216
:100F30001A605A609A60DA6007F1200300221A6092
:100F40005A603B1D00221A605A609A60DA601A618A
:100F50005A619A61324B334A1A60314B00225A600F
:100F60002F4B00229A602E4B40F21F32DA602C4B3E
:100F700000221A612A4B80229A61294803F01AFD47
:100F80000346002B01D000F0BAFB4FF48053BB6244
:100F900007F128031946224804F0D4F90346002B30
:100FA00001D000F0ACFB1E4803F0C4FD0346002B4B
:100FB00001D000F0A4FB20233B6200237B6207F1F9
:100FC00020031946164804F0C3FD0346002B01D048
:100FD00000F095FB60237B600023BB600023FB6077
:100FE00000237B613B1D082219460D4804F0E8F8F8
:100FF0000346002B01D000F082FB3B1D0C2219465A
:10100000074804F0DDF80346002B01D000F077FB21
:10101000034801F093F900BF3837BD4680BD00BFDB
:10102000E00100200008004080B586B000AF07F165
:10103000080300221A605A609A60DA603B46002278
:101040001A605A601D4B1E4A1A601C4B40F23F62E8
:101050005A601A4B00229A60184B6322DA60174BD1
:1010600000221A61154B00229A61144803F0A2FC79
:101070000346002B01D000F042FB4FF48053BB60CD
:1010800007F1080319460D4804F05CF90346002BEC
:1010900001D000F034FB00233B6000237B603B4623
:1010A0001946064804F054FD0346002B01D000F019
:1010B00026FB00BF1837BD4680BD00BF28020020B8
:1010C000000C004080B596B000AF07F14803002245
:1010D0001A605A609A60DA6007F1400300221A60D1
:1010E0005A6007F1240300221A605A609A60DA609D
:1010F0001A615A619A613B1D20220021184608F0AE
:101100002BFC3F4B3F4A1A603D4B40F23F125A6066
:101110003B4B00229A603A4B40F2E732DA60384BA0
:1011200000221A61364B00225A61354B80229A61A7
:10113000334803F03FFC0346002B01D000F0DFFAF8
:101140004FF48053BB6407F1480319462C4804F060
:10115000F9F80346002B01D000F0D1FA284803F03B
:10116000E9FC0346002B01D000F0C9FA00233B64E0
:1011700000237B6407F140031946214804F0E8FC92
:101180000346002B01D000F0BAFA60237B620023F3
:10119000BB620023FB6200233B6300237B630023CD
:1011A000BB630023FB6307F12403002219461448A4
:1011B00004F006F80346002B01D000F0A0FA00234B
:1011C0007B600023BB600023FB6000233B610023A6
:1011D0007B614FF40053BB6100233B623B1D19460A
:1011E000074804F031FD0346002B01D000F087FAD8
:1011F000034801F0A3F800BF5837BD4680BD00BFCB
:10120000700200200004014080B58CB000AF07F1EF
:10121000200300221A605A609A60DA603B1D0022A7
:101220001A605A609A60DA601A615A619A612B4BAF
:101230002B4A1A60294B00225A60284B00229A60E0
:10124000264B40F21F32DA60244B00221A61234BF6
:1012500080229A61214803F0ADFB0346002B01D0A8
:1012600000F04DFA4FF480533B6207F1200319461A
:101270001A4804F067F80346002B01D000F03FFA4B
:10128000164803F057FC0346002B01D000F037FA54
:1012900060237B600023BB600023FB6000237B6135
:1012A0003B1D002219460D4803F08AFF0346002B20
:1012B00001D000F024FA3B1D04221946074803F030
:1012C0007FFF0346002B01D000F019FA034801F01C
:1012D00035F800BF3037BD4680BD00BFB8020020E2
:1012E0000040014080B500AF114B124A1A60104B0C
:1012F0004FF4E1325A600E4B00229A600C4B0022F0
:10130000DA600B4B00221A61094B0C225A61084B20
:1013100000229A61064B0022DA61054804F0FAFCCB
:101320000346002B01D000F0EAF900BF80BD00BFEA
:10133000000300200048004080B58AB000AF07F1EC
:10134000140300221A605A609A60DA601A6100235E
:101350003B613F4B1B6B3E4A43F0100313633C4B16
:101360001B6B03F010033B613B690023FB60384BB0
:101370001B6B374A43F002031363354B1B6B03F0BF
:101380000203FB60FB680023BB60314B1B6B304AE0
:1013900043F0080313632E4B1B6B03F00803BB6081
:1013A000BB6800237B602A4B1B6B294A43F0040374
:1013B0001363274B1B6B03F004037B607B680023E4
:1013C0003B60234B1B6B224A43F001031363204B0A
:1013D0001B6B03F001033B603B6800224FF48071FC
:1013E0001C4801F0FBFC00224FF4F0411A4801F0C8
:1013F000F5FC4FF480737B610123BB610023FB612B
:1014000000233B6207F114031946124801F032FB36
:101410004FF4F0437B610123BB610023FB61002398
:101420003B6207F1140319460B4801F023FB01232B
:101430007B610023BB610023FB6107F114031946A4
:10144000044801F017FB00BF2837BD4680BD00BF30
:101450000038024000100240000C024080B582B00B
:1014600000AF78607B681B68084A93420AD10A2360
:1014700001220749074804F09DFC01220449054860
:1014800004F023FD00BF0837BD4680BD0048004082
:10149000780300200003002080B582B000AF7860A0
:1014A0004FF47A7005F0B2FDFAE7000090B5A5B0F0
:1014B00002AF786040F6FC03019340F2DC530093E6
:1014C0004FF47A73B3EE040A00226649664800F0CE
:1014D000BBFC654800F0E1FC0346002B04D04FF450
:1014E0007A7005F093FDFAE75F48FFF73FFB07F1DD
:1014F00014034C220021184608F02EFA5B4B7B6146
:1015000001F044F8034687F8873001F03FF80346BE
:1015100087F87F3097F88730002B40F09A8097F853
:101520007F30002B00F09580514BBB679FED517AC7
:10153000D7ED1E7A67EE277AB6EE007A77EE877AD5
:10154000FDEEE77A17EE903A7B6700F00DFAFFF7B1
:101550009DFA01F0BBF8C7F88000D7F880303B67F0
:1015600000F0E6F9F866FA6E7B6F9A424EDA01F007
:10157000ADF802463B6FD31A41F65832934247D832
:1015800001F0A4F8B866BA6ED7F88030D31A092BE8
:1015900038D9D7F880300A33C7F88030FFF784FA9B
:1015A000FFF766FAF0EE407AF1EE677AC7ED197A46
:1015B0004FF000033B610023FB810023BB8101232B
:1015C00087F8633007F10E0497F9632007F11001E3
:1015D00007F1140007F10C030093234697ED190A55
:1015E00000F074FBFA89244B1B681A64224B1B68B9
:1015F0000022DA63214B1B6800225A63BA891F4B11
:101600001B689A63012005F001FDA9E700BF00E017
:1016100000BF00F071F9C82005F0F8FC9FED180A32
:10162000114800F0A9FC1921142000F095F84FF49E
:101630007A7005F0EBFC00F05FF90B48FFF796FAC3
:1016400002E0142005F0E2FC00F0A0FF0346002BAE
:10165000F7D197F87F3087F88730142005F0D6FC53
:1016600053E700BF70020020600300200000C0406C
:1016700000001643E2D87A42E0010020B8020020C0
:101680000000BE4280B588B000AF78600023FB61E7
:101690000023BB6100237B6100233B6107F1100342
:1016A00007F1140207F1180107F11C00FFF7CCF84D
:1016B0000023FB730023BB7307F10E0207F10F0336
:1016C00011461846FFF7F2F800BFDFE780B582B099
:1016D00000AF7860322005F099FCFBE780B582B05E
:1016E00000AF78604FF47A7005F090FCFAE780B5AF
:1016F00082B000AF7860012005F088FCFBE780B481
:1017000000AF72B600BF00BFFDE7000080B500AFBC
:101710000C210D4803F068FA08210B4803F064FA25
:1017200000210A4803F060FA0421084803F05CFA3B
:101730003C21074803F0C6FB3C21064803F0C2FBEE
:1017400000F0DAF800BF80BDE0010020B802002000
:10175000500100209801002080B489B000AF0346FA
:101760000A46FB711346BB7197F90730642B01DD04
:101770006423FB7197F9073013F1640F01DA9C239E
:10178000FB7197F90630642B01DD6423BB7197F977
:10179000063013F1640F01DA9C23BB71514B1B68B7
:1017A000DB6AFB61504B1B68DB6ABB6197F9073052
:1017B000002B08D14B4B1B6800221A64494B1B6855
:1017C0000022DA633DE097F9073007EE903AF8EE31
:1017D000E77AB0EEE77ADFED456AC7EE267A9FED4D
:1017E000447A67EE877A9FED437A77EE877AC7ED82
:1017F000057AFB69013307EE903AB8EE677AD7EDC8
:10180000057A27EE277ADFED396AC7EE267AFCEEF5
:10181000E77A17EE903A3B6197F90730002B08DD25
:10182000304B1B683A691A642E4B1B680022DA633E
:1018300007E02C4B1B6800221A642A4B1B683A698C
:10184000DA6397F90630002B08D1274B1B6800227A
:101850005A63254B1B6800229A633DE097F90630D6
:1018600007EE903AF8EEE77AB0EEE77ADFED1F6A1E
:10187000C7EE267A9FED1E7A67EE877A9FED1D7A76
:1018800077EE877AC7ED037ABB69013307EE903AAA
:10189000B8EE677AD7ED037A27EE277ADFED136A81
:1018A000C7EE267AFCEEE77A17EE903ABB6097F91E
:1018B0000630002B08DD0C4B1B6800225A630A4BD4
:1018C0001B68BA689A6307E0074B1B68BA685A63DB
:1018D000054B1B6800229A6300BF2437BD465DF8A4
:1018E000047B7047E0010020B80200200000C842DD
:1018F000000038420000584280B400AF0A4B1B6819
:101900000022DA63084B1B6800221A64074B1B682D
:1019100000225A63054B1B6800229A6300BFBD4634
:101920005DF8047B704700BFE0010020B802002092
:1019300080B400AF044B1B685B6A1BB21846BD46FF
:101940005DF8047B704700BF5001002080B400AFF9
:10195000044B1B685B6A1BB25B421846BD465DF8D0
:10196000047B70479801002080B400AF064B1B68D1
:1019700000225A62054B1B6800225A6200BFBD4616
:101980005DF8047B704700BF5001002098010020E3
:1019900080B582B000AF0023FB7126E0FB79503B9D
:1019A000DBB20021184600F02BF80021002000F0E7
:1019B00027F80021102000F023F80023BB710DE070
:1019C000BA79FB790D49D2000A4413441B780121EE
:1019D000184600F015F8BB790133BB7197F9063052
:1019E000002BEDDAFB790133FB71FB79072BD5D99D
:1019F00000BF00BF0837BD4680BD00BF7C0300208C
:101A000080B584B000AF03460A46FB711346BB7134
:101A1000BB79002B06D001224FF400611E4801F073
:101A2000DDF905E000224FF400611B4801F0D6F912
:101A30000023FB7322E000224FF48041164801F09E
:101A4000CDF997F90730002B06DA01224FF4005147
:101A5000114801F0C3F905E000224FF400510E488F
:101A600001F0BCF901224FF480410B4801F0B6F9B6
:101A7000FB795B00FB71FB7B0133FB73FB7B072B6B
:101A8000D9D901224FF40061034801F0A7F900BF42
:101A90001037BD4680BD00BF000C024080B582B04B
:101AA00000AF0023FB7114E00023BB710AE0BA7998
:101AB000FB790C49D2000A44134400221A70BB7906
:101AC0000133BB7197F90630002BF0DAFB79013353
:101AD000FB71FB79072BE7D9FFF75AFF00BF0837E7
:101AE000BD4680BD7C03002080B500AF02F0E2FA65
:101AF000424B1B6F414A23F0010313673F4B1B6F9F
:101B00003E4A23F00403136702F0E8FA00224FF480
:101B100080513B4801F062F9642000F0E3FD0122AE
:101B20004FF48051364801F059F90021AE20FFF7FB
:101B300067FF0021D520FFF763FF00215020FFF74A
:101B40005FFF0021A820FFF75BFF00213F20FFF788
:101B500057FF0021D320FFF753FF00210020FFF79C
:101B60004FFF00214020FFF74BFF00218D20FFF7A2
:101B700047FF00211420FFF743FF00212020FFF73B
:101B80003FFF00210220FFF73BFF0021A120FFF7CC
:101B900037FF0021C020FFF733FF0021DA20FFF7D5
:101BA0002FFF00211220FFF72BFF00218120FFF7DC
:101BB00027FF0021EF20FFF723FF0021D920FFF7A7
:101BC0001FFF0021F120FFF71BFF0021DB20FFF7A3
:101BD00017FF00213020FFF713FF0021A420FFF79B
:101BE0000FFF0021A620FFF70BFF0021AF20FFF71A
:101BF00007FFFFF753FF00BF80BD00BF0038024062
:101C0000000C024080B487B000AF7861396187ED85
:101C1000030AC7ED020A87ED011AC7ED001A7B69B6
:101C2000002B4DD03B69002B4AD03B691A687B6979
:101C30001A603B6904331A687B695A603B69083350
:101C40001A687B699A607B69FA685A627B69BA682C
:101C50009A627B697A68DA627B693A681A637B699F
:101C60004FF000029A647B699A6C7B695A647B69C5
:101C70005A6C7B691A647B694FF00002DA637B69F6
:101C8000DA6B7B699A637B699A6B7B695A637B69C0
:101C90004FF000025A617B695A697B691A627B695D
:101CA0001A6A7B69DA617B69DA697B699A617B69A7
:101CB0004FF000021A617B691A697B69DA6000E003
:101CC00000BF1C37BD465DF8047B704780B489B007
:101CD00000AF786187ED040AF9607B601346FB7200
:101CE0009FED2A7AD7ED047A77EE677AC7ED077A07
:101CF0007B6993ED007AD7ED077A67EE277AFB6868
:101D0000C3ED007AFB6893ED007A97F90B3007EE8C
:101D1000903AF8EEE77A67EE277AFDEEE77A17EE6B
:101D2000903A1BB29BB203F502739AB27B681A8099
:101D3000FB6893ED007A97F90B3007EE903AF8EED6
:101D4000E77A67EE277AFDEEE77A17EE903A1BB254
:101D50009BB2C3F502739AB2BB6A1A807B681B8878
:101D6000B3F5487F03D37B6840F21F321A80BB6A09
:101D70001B88B3F5487F03D3BB6A40F21F321A8039
:101D800000BF2437BD465DF8047B704700000000AB
:101D900080B582B000AF78607B685B8A194678684E
:101DA00000F09FF800BF0837BD4680BD80B485B005
:101DB00000AF78600B467B807B8807EE903AF8EEA8
:101DC000E76A7B6893ED027AC6EE877AC7ED037AFD
:101DD000D7ED037AF5EEC07AF1EE10FA02D54FF0A6
:101DE0000003FB607B68DB6807EE903AF8EE677AE9
:101DF00097ED037AB4EEE77AF1EE10FA07DD7B682F
:101E0000DB6807EE903AF8EE677AC7ED037AD7ED14
:101E1000037AB6EE007A77EE877AFCEEE77A17EE71
:101E2000903A18461437BD465DF8047B704780B47D
:101E300083B000AF78607B681B68DB6A18460C379C
:101E4000BD465DF8047B704780B586B000AF786111
:101E50003961FA6087ED020AFB807B69002B18D09C
:101E60007B693A691A607B69FA685A607B69BA686B
:101E70009A603869FFF7DBFF02467B69DA607B69AD
:101E8000FA881A827B693A8C5A827B69BA8C9A8268
:101E900000E000BF1837BD4680BD80B584B000AFFC
:101EA00078607B68002B03D07B681B68002B01D116
:101EB000012312E07B681A687B685B68194610464C
:101EC00002F092FE0346FB73FB7B002B01D0FB7BF1
:101ED00003E07868FFF75CFF002318461037BD4623
:101EE00080BD80B584B000AF78600B467B807B6896
:101EF000002B3DD07B681B68002B39D07B681B8A88
:101F00007A889A4202D27B681B8A7B807B689B8A94
:101F10007A889A4202D97B689B8A7B807B881946A3
:101F20007868FFF743FFF8607B685B68002B05D19A
:101F30007B681B681B68FA685A631AE07B685B68F9
:101F4000042B05D17B681B681A68FB68936310E05B
:101F50007B685B68082B05D17B681B681A68FB6887
:101F6000D36306E07B681B681A68FB68136400E0B3
:101F700000BF1037BD4680BD80B586B000AF786029
:101F800087ED000A7B68002B58D0D7ED007AF5EE7C
:101F9000C07AF1EE10FA28D597ED007ADFED296AC4
:101FA000C7EE267AC7ED037A7B685B8A07EE903A24
:101FB000B8EE677A7B685B8A1A467B681B8AD31AFD
:101FC00007EE903AF8EEE76AD7ED037A66EEA77A65
:101FD00077EE677AFCEEE77A17EE903A7B817B89A1
:101FE00019467868FFF77DFF29E097ED007ADFED6D
:101FF000166AC7EE267AC7ED057A7B685B8A07EE1C
:10200000903AB8EE677A7B689B8A1A467B685B8A4F
:10201000D31A07EE903AF8EEE76AD7ED057A66EE46
:10202000A77A77EE277AFCEEE77A17EE903A7B8272
:102030007B8A19467868FFF754FF00E000BF183725
:10204000BD4680BD0000C8C20000C84280B582B055
:1020500000AF00237B60124B5B6C114A43F480435A
:1020600053640F4B5B6C03F480437B607B680023FD
:102070003B600B4B1B6C0A4A43F080531364084BC4
:102080001B6C03F080533B603B6800220F216FF014
:10209000010000F026FC00BF0837BD4680BD00BF30
:1020A0000038024080B58AB000AF786007F11403B1
:1020B00000221A605A609A60DA601A617B681B68B5
:1020C000194A93422CD100233B61184B1B6B174AD2
:1020D00043F002031363154B1B6B03F002033B61D8
:1020E0003B694FF440637B611223BB610023FB61BA
:1020F00003233B6204237B6207F1140319460C4857
:1021000000F0B8FC0023FB60084B1B6C074A43F44B
:1021100080031364054B1B6C03F48003FB60FB68B6
:1021200000BF2837BD4680BD00580040003802403F
:102130000004024080B58CB000AF786007F11C034A
:1021400000221A605A609A60DA601A617B681B6824
:10215000B3F1804F4BD10023BB613F4B1B6C3E4A18
:1021600043F0010313643C4B1B6C03F00103BB61A0
:10217000BB6900237B61384B1B6B374A43F001037B
:102180001363354B1B6B03F001037B617B690023F9
:102190003B61314B1B6B304A43F0020313632E4B00
:1021A0001B6B03F002033B613B694FF40043FB618F
:1021B00002233B6200237B620023BB620123FB629C
:1021C00007F11C031946254800F054FC0823FB6165
:1021D00002233B6200237B620023BB620123FB627C
:1021E00007F11C0319461E4800F044FC30E07B68F0
:1021F0001B681C4A93422BD10023FB60164B1B6CBF
:10220000154A43F002031364134B1B6C03F00203E3
:10221000FB60FB680023BB600F4B1B6B0E4A43F057
:10222000020313630C4B1B6B03F00203BB60BB6820
:102230003023FB6102233B6200237B620023BB62ED
:102240000223FB6207F11C031946054800F012FC4B
:1022500000BF3037BD4680BD00380240000002405C
:10226000000402400004004080B586B000AF7860F2
:102270007B681B682C4A93420ED100237B612B4B59
:102280001B6C2A4A43F004031364284B1B6C03F0B5
:1022900004037B617B6942E07B681B68244A9342AC
:1022A00016D100233B61214B1B6C204A43F00803ED
:1022B00013641E4B1B6C03F008033B613B69002257
:1022C0000521322000F00DFB322000F026FB26E035
:1022D0007B681B68174A93420ED10023FB60134BA7
:1022E0005B6C124A43F002035364104B5B6C03F0C7
:1022F0000203FB60FB6812E07B681B680E4A934296
:102300000DD10023BB60094B5B6C084A43F480335A
:102310005364064B5B6C03F48033BB60BB6800BF47
:102320001837BD4680BD00BF00080040003802409D
:10233000000C0040000401400040014080B58AB01C
:1023400000AF786007F1140300221A605A609A60A7
:10235000DA601A617B681B68364A93421FD10023FA
:102360003B61354B1B6B344A43F002031363324B22
:102370001B6B03F002033B613B694FF440737B61CD
:102380000223BB610023FB6100233B6202237B62CB
:1023900007F114031946294800F06CFB46E07B68FE
:1023A0001B68274A93421ED10023FB60224B1B6B04
:1023B000214A43F0040313631F4B1B6B03F0040318
:1023C000FB60FB6840237B610223BB610023FB6150
:1023D00002233B6203237B6207F114031946194869
:1023E00000F048FB22E07B681B68174A93421DD12E
:1023F0000023BB60104B1B6B0F4A43F010031363A9
:102400000D4B1B6B03F01003BB60BB6860237B614B
:102410000223BB610023FB6100233B6203237B6239
:1024200007F114031946094800F024FB00BF2837C0
:10243000BD4680BD00080040003802400004024054
:10244000000401400008024000400140001002402A
:1024500080B58AB000AF786007F1140300221A60DB
:102460005A609A60DA601A617B681B681D4A934261
:1024700034D100233B611C4B1B6C1B4A43F480236B
:102480001364194B1B6C03F480233B613B690023ED
:10249000FB60154B1B6B144A43F008031363124B8C
:1024A0001B6B03F00803FB60FB684FF440737B6118
:1024B0000223BB610023FB6103233B6207237B6292
:1024C00007F114031946094800F0D4FA0022052147
:1024D000272000F006FA272000F01FFA00BF283757
:1024E000BD4680BD0048004000380240000C02405C
:1024F00080B400AF00BFFDE780B400AF00BFFDE7D0
:1025000080B400AF00BFFDE780B400AF00BFFDE7BF
:1025100080B400AF00BFFDE780B400AF00BFBD4690
:102520005DF8047B704780B500AF00F0BBF806F0A3
:1025300095F90346012B01D006F08EFF00BF80BD48
:1025400080B500AF024803F0E5FC00BF80BD00BFCE
:102550000003002080B500AF024802F041FD00BF3B
:1025600080BD00BF2802002080B400AF064BD3F826
:102570008830054A43F47003C2F8883000BFBD4676
:102580005DF8047B704700BF00ED00E080B500AF50
:102590000121054800F00AFC0346012B14BF01236A
:1025A0000023DBB2184680BD00100240DFF834D0B3
:1025B000FFF7DAFF0C480D490D4A002302E0D4581A
:1025C000C4500433C4188C42F9D30A4A0A4C00237D
:1025D00001E013600432A242FBD307F0C5F9FEF715
:1025E000D3FA7047000002200000002014000020F1
:1025F000789B000814000020D0500020FEE7000067
:1026000080B500AF0E4B1B680D4A43F40073136096
:102610000B4B1B680A4A43F480631360084B1B682A
:10262000074A43F480731360032000F04FF90F2032
:1026300000F008F8FFF70AFD0023184680BD00BF30
:10264000003C024080B582B000AF7860124B1A683F
:10265000124B1B7819464FF47A73B3FBF1F3B2FBBC
:10266000F3F3184600F067F90346002B01D001236D
:102670000EE07B680F2B0AD8002279684FF0FF30FC
:1026800000F02FF9064A7B681360002300E0012365
:1026900018460837BD4680BD040000200C0000200D
:1026A0000800002080B400AF064B1B781A46064B8A
:1026B0001B681344044A136000BFBD465DF8047BE9
:1026C000704700BF0C0000207C07002080B400AFE2
:1026D000034B1B681846BD465DF8047B704700BF7E
:1026E0007C07002080B584B000AF7860FFF7EEFF74
:1026F000B8607B68FB60FB68B3F1FF3F05D00A4B15
:102700001B781A46FB681344FB6000BFFFF7DEFF2F
:102710000246BB68D31AFA689A42F7D800BF00BFD6
:102720001037BD4680BD00BF0C00002080B485B0CE
:1027300000AF78607B6803F00703FB600C4BDB683D
:10274000BB60BA684FF6FF031340BB60FB681A0218
:10275000BB68134343F0BF6343F40033BB60044AD8
:10276000BB68D36000BF1437BD465DF8047B70477B
:1027700000ED00E080B400AF044BDB681B0A03F0FF
:1027800007031846BD465DF8047B704700ED00E086
:1027900080B483B000AF0346FB7197F90730002B7C
:1027A0000BDBFB7903F01F02074997F907305B0940
:1027B000012000FA02F241F8232000BF0C37BD4689
:1027C0005DF8047B704700BF00E100E080B483B097
:1027D00000AF03463960FB7197F90730002B0ADB25
:1027E0003B68DAB20C4997F907301201D2B20B44B8
:1027F00083F800230AE03B68DAB20849FB7903F06A
:102800000F03043B1201D2B20B441A7600BF0C37FF
:10281000BD465DF8047B704700E100E000ED00E09C
:1028200080B489B000AFF860B9607A60FB6803F0EB
:102830000703FB61FB69C3F10703042B28BF0423D3
:10284000BB61FB690433062B02D9FB69033B00E043
:1028500000237B614FF0FF32BB6902FA03F3DA43D6
:10286000BB681A407B699A404FF0FF317B6901FADF
:1028700003F3D9437B680B40134318462437BD4606
:102880005DF8047B7047000080B582B000AF7860CF
:102890007B68013BB3F1807F01D301230FE00A4A3B
:1028A0007B68013B53600F214FF0FF30FFF78EFF35
:1028B000054B00229A60044B07221A600023184639
:1028C0000837BD4680BD00BF10E000E080B582B093
:1028D00000AF78607868FFF729FF00BF0837BD4672
:1028E00080BD80B586B000AF0346B9607A60FB73E7
:1028F00000237B61FFF73EFF78617A68B9687869E9
:10290000FFF78EFF024697F90F3011461846FFF782
:102910005DFF00BF1837BD4680BD80B582B000AFF7
:102920000346FB7197F907301846FFF731FF00BFE8
:102930000837BD4680BD80B582B000AF786078684A
:10294000FFF7A2FF034618460837BD4680BD80B595
:1029500084B000AF78607B689B6DFB60FFF7B6FECC
:10296000B8607B6893F83530DBB2022B08D07B6807
:1029700080225A657B68002283F83420012352E0CC
:102980007B681B681A687B681B6822F016021A6055
:102990007B681B685A697B681B6822F080025A6159
:1029A0007B681B6C002B03D17B689B6C002B07D0D2
:1029B0007B681B681A687B681B6822F008021A6033
:1029C0007B681B681A687B681B6822F001021A602A
:1029D00013E0FFF77BFE0246BB68D31A052B0CD928
:1029E0007B6820225A657B68032283F835207B6848
:1029F000002283F83420032315E07B681B681B68E2
:102A000003F00103002BE4D17B68DB6D3F229A4089
:102A1000FB689A607B68012283F835207B6800227E
:102A200083F83420002318461037BD4680BD80B49B
:102A300083B000AF78607B6893F83530DBB2022B4F
:102A400004D07B6880225A6501230CE07B68052254
:102A500083F835207B681B681A687B681B6822F046
:102A600001021A60002318460C37BD465DF8047B4E
:102A70007047000080B489B000AF786039600023EF
:102A80007B6100233B610023BB610023FB616BE1A1
:102A90000122FB6902FA03F37B613B681B687A69D8
:102AA00013403B613A697B699A4240F05A813B6826
:102AB0005B6803F00303012B05D03B685B6803F000
:102AC0000303022B30D17B689B68BB61FB695B0011
:102AD000032202FA03F3DB43BA691340BB613B688C
:102AE000DA68FB695B0002FA03F3BA691343BB615E
:102AF0007B68BA699A607B685B68BB610122FB698D
:102B000002FA03F3DB43BA691340BB613B685B68BD
:102B10001B0903F00102FB6902FA03F3BA691343CC
:102B2000BB617B68BA695A603B685B6803F003036A
:102B3000032B17D07B68DB68BB61FB695B0003225A
:102B400002FA03F3DB43BA691340BB613B689A683E
:102B5000FB695B0002FA03F3BA691343BB617B684C
:102B6000BA69DA603B685B6803F00303022B23D188
:102B7000FB69DA087B68083253F82230BB61FB69D5
:102B800003F007039B000F2202FA03F3DB43BA6949
:102B90001340BB613B681A69FB6903F007039B00A4
:102BA00002FA03F3BA691343BB61FB69DA087B6875
:102BB0000832B96943F822107B681B68BB61FB6966
:102BC0005B00032202FA03F3DB43BA691340BB61E3
:102BD0003B685B6803F00302FB695B0002FA03F3E6
:102BE000BA691343BB617B68BA691A603B685B686A
:102BF00003F44033002B00F0B4800023FB60604BF3
:102C00005B6C5F4A43F4804353645D4B5B6C03F43D
:102C10008043FB60FB685B4AFB699B08023352F808
:102C20002330BB61FB6903F003039B000F2202FA10
:102C300003F3DB43BA691340BB617B68524A93429A
:102C40002BD07B68514A934225D07B68504A9342EF
:102C50001FD07B684F4A934219D07B684E4A9342FB
:102C600013D07B684D4A93420DD07B684C4A934207
:102C700007D07B684B4A934201D107230EE008231B
:102C80000CE006230AE0052308E0042306E0032302
:102C900004E0022302E0012300E00023FA6902F0CD
:102CA000030292009340BA691343BB613549FB6943
:102CB0009B080233BA6941F823203B4B9B68BB61F8
:102CC0003B69DB43BA691340BB613B685B6803F453
:102CD0008013002B03D0BA693B691343BB61324AAE
:102CE000BB699360304BDB68BB613B69DB43BA690E
:102CF0001340BB613B685B6803F40013002B03D0F7
:102D0000BA693B691343BB61274ABB69D360264B51
:102D10005B68BB613B69DB43BA691340BB613B68DD
:102D20005B6803F40033002B03D0BA693B6913439B
:102D3000BB611D4ABB6953601B4B1B68BB613B6990
:102D4000DB43BA691340BB613B685B6803F48033C3
:102D5000002B03D0BA693B691343BB61124ABB69BC
:102D60001360FB690133FB61FB690F2B7FF690AEAB
:102D700000BF00BF2437BD465DF8047B704700BF2D
:102D800000380240003801400000024000040240C8
:102D900000080240000C02400010024000140240F3
:102DA00000180240001C0240003C014080B485B085
:102DB00000AF78600B467B807B681A697B88134084
:102DC000002B02D00123FB7301E00023FB73FB7B8C
:102DD00018461437BD465DF8047B704780B483B055
:102DE00000AF78600B467B8013467B707B78002BAE
:102DF00003D07A887B689A6103E07B881A047B6839
:102E00009A6100BF0C37BD465DF8047B7047000037
:102E100080B584B000AF78607B68002B01D10123BE
:102E20002BE17B6893F83D30DBB2002B06D17B6849
:102E3000002283F83C207868FFF734F97B6824226D
:102E400083F83D207B681B681A687B681B6822F04A
:102E500001021A607B681B681A687B681B6842F471
:102E600000421A607B681B681A687B681B6822F442
:102E700000421A6001F076FDF8607B685B68814A69
:102E8000934207D8FB68804A934294BF01230023F2
:102E9000DBB206E0FB687D4A934294BF0123002326
:102EA000DBB2002B01D00123E7E0FB68784AA2FBEC
:102EB00003239B0CBB607B681B685B6823F03F01AE
:102EC0007B681B68BA680A435A607B681B681B6A88
:102ED00023F03F017B685B686A4A934202D8BB6873
:102EE000013309E0BB684FF4967202FB03F3694AB1
:102EF000A2FB03239B0901337A6812680B43136218
:102F00007B681B68DB6923F44F4222F0FF027B6879
:102F10005B685C498B4219D8FB68591E7B685B680B
:102F20005B00B1FBF3F3591C40F6FC730B40002B24
:102F30000AD0FB68591E7B685B685B00B1FBF3F34A
:102F40000133C3F30B0351E004234FE07B689B681C
:102F5000002B11D1FB68581E7B6859680B465B003B
:102F60000B44B0FBF3F30133C3F30B03002B0CBF93
:102F700001230023DBB212E0FB68581E7B6859680E
:102F80000B469B000B4499000B44B0FBF3F3013359
:102F9000C3F30B03002B0CBF01230023DBB2002B78
:102FA00001D0012322E07B689B68002B0ED1FB68D7
:102FB000581E7B6859680B465B000B44B0FBF3F36B
:102FC0000133C3F30B0343F400430FE0FB68581EC7
:102FD0007B6859680B469B000B4499000B44B0FB7F
:102FE000F3F30133C3F30B0343F4404379680968F7
:102FF0001343CB617B681B681B6823F0C0017B68AF
:10300000DA697B681B6A1A437B681B680A431A608B
:103010007B681B689B6823F4034323F0FF037A68F3
:1030200011697A68D26811437A6812680B43936019
:103030007B681B68DB6823F0FF017B685A697B684B
:103040009B691A437B681B680A43DA607B681B68CC
:103050001A687B681B6842F001021A607B680022D4
:103060001A647B68202283F83D207B6800221A6363
:103070007B68002283F83E20002318461037BD46A7
:1030800080BD00BFA08601007F841E00FF083D00B8
:1030900083DE1B43D34D621080B588B002AFF86069
:1030A000084611461A4603467B810B463B81134670
:1030B000FB80FFF70BFB7861FB6893F83D30DBB2D8
:1030C000202B40F0D9807B690093192301226D49A0
:1030D000F86800F0B9FD0346002B01D00223CCE0D4
:1030E000FB6893F83C30012B01D10223C5E0FB685B
:1030F000012283F83C20FB681B681B6803F0010376
:10310000012B07D0FB681B681A68FB681B6842F03C
:1031100001021A60FB681B681A68FB681B6822F4CE
:1031200000621A60FB68212283F83D20FB68402280
:1031300083F83E20FB6800221A64FB683A6A5A62F0
:10314000FB68BA8C5A85FB685B8D9AB2FB681A855E
:10315000FB684D4ADA62F8883A8979897B6901937C
:10316000BB6A00930346F86800F0F0FB0346002BAF
:1031700052D0012381E07A69B96AF86800F07EFED6
:103180000346002B0DD0FB681B6C042B07D1FB689A
:103190001B681A68FB681B6842F400721A600123FE
:1031A0006BE0FB685B6A1A78FB681B681A61FB6856
:1031B0005B6A5A1CFB685A62FB681B8D013B9AB222
:1031C000FB681A85FB685B8D9BB2013B9AB2FB687A
:1031D0005A85FB681B685B6903F00403042B1BD151
:1031E000FB681B8D002B17D0FB685B6A1A78FB68A5
:1031F0001B681A61FB685B6A5A1CFB685A62FB68B1
:103200001B8D013B9AB2FB681A85FB685B8D9BB2F4
:10321000013B9AB2FB685A85FB681B8D002BAAD133
:103220007A69B96AF86800F071FE0346002B0DD088
:10323000FB681B6C042B07D1FB681B681A68FB68D2
:103240001B6842F400721A60012316E0FB681B68D9
:103250001A68FB681B6842F400721A60FB6820223F
:1032600083F83D20FB68002283F83E20FB680022A3
:1032700083F83C20002300E0022318461837BD469F
:1032800080BD00BF020010000000FFFF80B58CB0C1
:1032900002AFF860084611461A4603467B810B468A
:1032A0003B811346FB80FFF711FA7862FB6893F8C5
:1032B0003D30DBB2202B40F014827B6A009319234F
:1032C00001227B49F86800F0BFFC0346002B01D0C7
:1032D000022307E2FB6893F83C30012B01D1022363
:1032E00000E2FB68012283F83C20FB681B681B6836
:1032F00003F00103012B07D0FB681B681A68FB6809
:103300001B6842F001021A60FB681B681A68FB68C0
:103310001B6822F400621A60FB68222283F83D20B9
:10332000FB68402283F83E20FB6800221A64FB6899
:103330003A6B5A62FB68BA8E5A85FB685B8D9AB20B
:10334000FB681A85FB685B4ADA62F8883A897989F2
:103350007B6A0193BB6B00930346F86800F08CFB1B
:103360000346002B01D00123BCE1FB681B8D002B21
:1033700013D100233B62FB681B685B693B62FB68FF
:103380001B689B693B623B6AFB681B681A68FB68A9
:103390001B6842F400721A6090E1FB681B8D012BE0
:1033A0001BD1FB681B681A68FB681B6822F48062EB
:1033B0001A600023FB61FB681B685B69FB61FB68AB
:1033C0001B689B69FB61FB69FB681B681A68FB68EB
:1033D0001B6842F400721A6070E1FB681B8D022BBF
:1033E0001BD1FB681B681A68FB681B6822F48062AB
:1033F0001A60FB681B681A68FB681B6842F400626D
:103400001A600023BB61FB681B685B69BB61FB68DA
:103410001B689B69BB61BB6950E100237B61FB6852
:103420001B685B697B61FB681B689B697B617B69CF
:1034300044E1FB681B8D032B00F2F180FB681B8DC0
:10344000012B23D17A6AB96BF86800F0A7FD034617
:10345000002B01D0012345E1FB681B681A69FB685A
:103460005B6AD2B21A70FB685B6A5A1CFB685A62CC
:10347000FB681B8D013B9AB2FB681A85FB685B8D6C
:103480009BB2013B9AB2FB685A8517E1FB681B8D22
:10349000022B4ED17B6A0093BB6B00220649F86871
:1034A00000F0D2FB0346002B08D001231AE100BF35
:1034B000020010000000FFFF04000100FB681B6811
:1034C0001A68FB681B6842F400721A60FB681B688C
:1034D0001A69FB685B6AD2B21A70FB685B6A5A1C95
:1034E000FB685A62FB681B8D013B9AB2FB681A8528
:1034F000FB685B8D9BB2013B9AB2FB685A85FB6807
:103500001B681A69FB685B6AD2B21A70FB685B6A57
:103510005A1CFB685A62FB681B8D013B9AB2FB6820
:103520001A85FB685B8D9BB2013B9AB2FB685A859A
:10353000C4E07B6A0093BB6B00226C49F86800F022
:1035400083FB0346002B01D00123CBE0FB681B6803
:103550001A68FB681B6822F480621A60FB681B68AB
:103560001A69FB685B6AD2B21A70FB685B6A5A1C04
:10357000FB685A62FB681B8D013B9AB2FB681A8597
:10358000FB685B8D9BB2013B9AB2FB685A857B6AF4
:103590000093BB6B00225549F86800F055FB0346C9
:1035A000002B01D001239DE0FB681B681A68FB68B3
:1035B0001B6842F400721A60FB681B681A69FB689A
:1035C0005B6AD2B21A70FB685B6A5A1CFB685A626B
:1035D000FB681B8D013B9AB2FB681A85FB685B8D0B
:1035E0009BB2013B9AB2FB685A85FB681B681A695B
:1035F000FB685B6AD2B21A70FB685B6A5A1CFB6894
:103600005A62FB681B8D013B9AB2FB681A85FB6806
:103610005B8D9BB2013B9AB2FB685A854EE07A6A99
:10362000B96BF86800F0BAFC0346002B01D0012307
:1036300058E0FB681B681A69FB685B6AD2B21A70B3
:10364000FB685B6A5A1CFB685A62FB681B8D013B76
:103650009AB2FB681A85FB685B8D9BB2013B9AB2FC
:10366000FB685A85FB681B685B6903F00403042B45
:1036700024D1FB681B8D032B07D1FB681B681A68DC
:10368000FB681B6822F480621A60FB681B681A6979
:10369000FB685B6AD2B21A70FB685B6A5A1CFB68F3
:1036A0005A62FB681B8D013B9AB2FB681A85FB6866
:1036B0005B8D9BB2013B9AB2FB685A85FB681B8D00
:1036C000002B7FF4B6AEFB68202283F83D20FB6818
:1036D000002283F83E20FB68002283F83C20002370
:1036E00000E0022318462837BD4680BD04000100D3
:1036F00080B58AB002AFF8607A603B600B467B8190
:10370000FEF7E4FFF8610023BB61FB6893F83D30EE
:10371000DBB2202B40F01181FB69009319230122B9
:103720008849F86800F090FA0346002B01D0022384
:1037300004E1FB6893F83C30012B01D10223FDE04A
:10374000FB68012283F83C20FB681B681B6803F0C0
:103750000103012B07D0FB681B681A68FB681B6814
:1037600042F001021A60FB681B681A68FB681B685C
:1037700022F400621A60FB68242283F83D20FB6873
:1037800000221A64FB68704ADA62FB681B681A68D8
:10379000FB681B6842F480721A60FB6900933B6807
:1037A00000224FF00111F86800F04EFA0346002B9A
:1037B0000DD0FB681B681B6803F48073B3F5807F32
:1037C00003D1FB684FF400721A640323B6E07B89CF
:1037D000DBB21A46FB681B6802F0FE021A61FEF7B4
:1037E00075FFF861FB681B685B6903F00203022B3D
:1037F0000CBF01230023DBB2FB75FB681B685B6910
:1038000003F48063B3F5806F0CBF01230023DBB2A8
:10381000BB7525E0FEF75AFF0246FB69D31A3A68EA
:103820009A4202D33B68002B03D1FB68A02283F8A5
:103830003D20FB681B685B6903F00203022B0CBF91
:1038400001230023DBB2FB75FB681B685B6903F493
:103850008063B3F5806F0CBF01230023DBB2BB751F
:10386000FB6893F83D30DBB2A02B05D0FB7D002B2D
:1038700002D1BB7D002BCDD0FB68202283F83D20F8
:10388000FB681B685B6903F00203022B29D1FB680C
:103890001B681A68FB681B6842F400721A600023F8
:1038A0003B61FB681B685B693B61FB681B689B694C
:1038B0003B613B69FB690093192301222149F868A8
:1038C00000F0C2F90346002B01D0012336E0FB686B
:1038D000202283F83D20FB68002283F83C2000234F
:1038E0002CE0FB681B681A68FB681B6842F40072D6
:1038F0001A60FB681B686FF480625A61FB69009371
:10390000192301220F49F86800F09EF90346002BA5
:1039100001D0012312E0BB690133BB61BA697B6846
:103920009A42FFF432AFFB68202283F83D20FB6807
:10393000002283F83C20012300E0022318462037B0
:10394000BD4680BD020010000000FFFF80B588B0BA
:1039500002AFF860084611461A4603467B810B46C3
:103960003B811346FB80FB681B681A68FB681B6879
:1039700042F480721A607B6A00933B6A00224FF027
:103980000111F86800F060F90346002B0DD0FB68C8
:103990001B681B6803F48073B3F5807F03D1FB6859
:1039A0004FF400721A6403235FE07B89DBB21A468E
:1039B000FB681B6802F0FE021A617B6A3A6A2D49B5
:1039C000F86800F0BBF90346002B01D001234CE05E
:1039D00000237B61FB681B685B697B61FB681B687C
:1039E0009B697B617B697A6A396AF86800F046FAFC
:1039F0000346002B0DD0FB681B6C042B07D1FB6822
:103A00001B681A68FB681B6842F400721A60012385
:103A10002BE0FB88012B05D13B89DAB2FB681B68E0
:103A20001A6121E03B891B0A9BB2DAB2FB681B6872
:103A30001A617A6A396AF86800F020FA0346002BA6
:103A40000DD0FB681B6C042B07D1FB681B681A6840
:103A5000FB681B6842F400721A60012305E03B8991
:103A6000DAB2FB681B681A61002318461837BD4696
:103A700080BD00BF0200010080B588B002AFF860D1
:103A8000084611461A4603467B810B463B81134686
:103A9000FB80FB681B681A68FB681B6842F4806245
:103AA0001A60FB681B681A68FB681B6842F4807226
:103AB0001A607B6A00933B6A00224FF00111F8689C
:103AC00000F0C2F80346002B0DD0FB681B681B6892
:103AD00003F48073B3F5807F03D1FB684FF4007269
:103AE0001A640323AAE07B89DBB21A46FB681B68D1
:103AF00002F0FE021A617B6A3A6A5249F86800F0E5
:103B00001DF90346002B01D0012397E000237B61C0
:103B1000FB681B685B697B61FB681B689B697B6159
:103B20007B697A6A396AF86800F0A8F90346002BC5
:103B30000DD0FB681B6C042B07D1FB681B681A684F
:103B4000FB681B6842F400721A60012376E0FB8870
:103B5000012B05D13B89DAB2FB681B681A6121E0B1
:103B60003B891B0A9BB2DAB2FB681B681A617A6A4E
:103B7000396AF86800F082F90346002B0DD0FB6823
:103B80001B6C042B07D1FB681B681A68FB681B6859
:103B900042F400721A60012350E03B89DAB2FB68FC
:103BA0001B681A617A6A396AF86800F067F9034697
:103BB000002B0DD0FB681B6C042B07D1FB681B6826
:103BC0001A68FB681B6842F400721A60012335E032
:103BD000FB681B681A68FB681B6842F480721A60F5
:103BE0007B6A00933B6A00224FF00111F86800F0F5
:103BF0002BF80346002B0DD0FB681B681B6803F4F1
:103C00008073B3F5807F03D1FB684FF400721A64B0
:103C1000032313E07B89DBB243F00103DAB2FB68D4
:103C20001B681A617B6A3A6A0649F86800F086F8F0
:103C30000346002B01D0012300E00023184618376B
:103C4000BD4680BD0200010080B584B000AFF860C1
:103C5000B9603B601346FB7148E03B68B3F1FF3F3E
:103C600044D0FEF733FD0246BB69D31A3A689A4244
:103C700002D33B68002B39D1BB681B0CDBB2012B94
:103C80000DD1FB681B685B69DA43BB6813409BB2CC
:103C9000002B0CBF01230023DBB21A460CE0FB68AB
:103CA0001B689B69DA43BB6813409BB2002B0CBFB7
:103CB00001230023DBB21A46FB799A4216D1FB6836
:103CC00000221A63FB68202283F83D20FB68002253
:103CD00083F83E20FB681B6C43F02002FB681A64EB
:103CE000FB68002283F83C20012323E0BB681B0C07
:103CF000DBB2012B0DD1FB681B685B69DA43BB6843
:103D000013409BB2002B0CBF01230023DBB21A46E9
:103D10000CE0FB681B689B69DA43BB6813409BB2ED
:103D2000002B0CBF01230023DBB21A46FB799A4219
:103D300093D0002318461037BD4680BD80B584B0AF
:103D400000AFF860B9607A603B6071E0FB681B68A7
:103D50005B6903F48063B3F5806F23D1FB681B6854
:103D60001A68FB681B6842F400721A60FB681B68E3
:103D70006FF480625A61FB6800221A63FB6820229C
:103D800083F83D20FB68002283F83E20FB681B6C13
:103D900043F00402FB681A64FB68002283F83C20AD
:103DA000012367E07B68B3F1FF3F41D0FEF78EFC53
:103DB00002463B68D31A7A689A4202D37B68002B8A
:103DC00036D1BB681B0CDBB2012B0CD1FB681B6826
:103DD0005B69DA43BB6813409BB2002B14BF01231D
:103DE0000023DBB20BE0FB681B689B69DA43BB680E
:103DF00013409BB2002B14BF01230023DBB2002B26
:103E000016D0FB6800221A63FB68202283F83D204D
:103E1000FB68002283F83E20FB681B6C43F0200205
:103E2000FB681A64FB68002283F83C20012321E030
:103E3000BB681B0CDBB2012B0CD1FB681B685B69F8
:103E4000DA43BB6813409BB2002B14BF012300234D
:103E5000DBB20BE0FB681B689B69DA43BB6813406D
:103E60009BB2002B14BF01230023DBB2002B7FF495
:103E70006DAF002318461037BD4680BD80B584B0B5
:103E800000AFF860B9607A6034E0F86800F0E3F8F9
:103E90000346002B01D0012334E0BB68B3F1FF3FA0
:103EA00028D0FEF713FC02467B68D31ABA689A4200
:103EB00002D3BB68002B1DD1FB681B685B6903F054
:103EC0008003802B16D0FB6800221A63FB68202237
:103ED00083F83D20FB68002283F83E20FB681B6CC2
:103EE00043F02002FB681A64FB68002283F83C2040
:103EF000012307E0FB681B685B6903F08003802BEC
:103F0000C3D1002318461037BD4680BD80B584B0AC
:103F100000AFF860B9607A6034E0F86800F09BF8B0
:103F20000346002B01D0012334E0BB68B3F1FF3F0F
:103F300028D0FEF7CBFB02467B68D31ABA689A42B8
:103F400002D3BB68002B1DD1FB681B685B6903F0C3
:103F50000403042B16D0FB6800221A63FB6820229E
:103F600083F83D20FB68002283F83E20FB681B6C31
:103F700043F02002FB681A64FB68002283F83C20AF
:103F8000012307E0FB681B685B6903F00403042B53
:103F9000C3D1002318461037BD4680BD80B584B01C
:103FA00000AFF860B9607A6049E0FB681B685B6944
:103FB00003F01003102B19D1FB681B686FF010027F
:103FC0005A61FB6800221A63FB68202283F83D20B7
:103FD000FB68002283F83E20FB681A6CFB681A64B9
:103FE000FB68002283F83C20012330E0FEF76EFBE3
:103FF00002467B68D31ABA689A4202D3BB68002B88
:104000001DD1FB681B685B6903F04003402B16D091
:10401000FB6800221A63FB68202283F83D20FB68BE
:10402000002283F83E20FB681B6C43F02002FB68F3
:104030001A64FB68002283F83C20012307E0FB6838
:104040001B685B6903F04003402BAED10023184688
:104050001037BD4680BD80B483B000AF78607B6808
:104060001B685B6903F48063B3F5806F1BD17B68C9
:104070001B686FF480625A617B6800221A637B6858
:10408000202283F83D207B68002283F83E207B6855
:104090001B6C43F004027B681A647B68002283F87F
:1040A0003C20012300E0002318460C37BD465DF894
:1040B000047B704780B483B000AF064B01221A60C6
:1040C000054B1B687B607B6800BF0C37BD465DF805
:1040D000047B704720000E420070004080B483B023
:1040E00000AF064B00221A60054B1B687B607B68A3
:1040F00000BF0C37BD465DF8047B704720000E42C0
:104100000070004080B586B000AF78607B68002BFF
:1041100001D1012367E27B681B6803F00103002BD8
:1041200075D0884B9B6803F00C03042B0CD0854B97
:104130009B6803F00C03082B12D1824B5B6803F4DD
:104140008003B3F5800F0BD17E4B1B6803F4003363
:10415000002B5BD07B685B68002B57D1012342E2C8
:104160007B685B68B3F5803F06D1764B1B68754A68
:1041700043F4803313601DE07B685B68B3F5A02FC8
:104180000CD1704B1B686F4A43F4802313606D4B56
:104190001B686C4A43F4803313600BE0694B1B6867
:1041A000684A23F480331360664B1B68654A23F426
:1041B000802313607B685B68002B13D0FEF786FAC0
:1041C000386108E0FEF782FA02463B69D31A642B95
:1041D00001D9032307E25B4B1B6803F40033002B78
:1041E000F0D014E0FEF772FA386108E0FEF76EFADC
:1041F00002463B69D31A642B01D90323F3E1514BE7
:104200001B6803F40033002BF0D100E000BF7B6893
:104210001B6803F00203002B63D04A4B9B6803F03A
:104220000C03002B0BD0474B9B6803F00C03082BAF
:104230001CD1444B5B6803F48003002B16D1414B27
:104240001B6803F00203002B05D07B68DB68012BA1
:1042500001D00123C7E13B4B1B6823F0F8027B68C8
:104260001B69DB00374913430B603AE07B68DB686E
:10427000002B20D0344B01221A60FEF727FA386158
:1042800008E0FEF723FA02463B69D31A022B01D954
:104290000323A8E12B4B1B6803F00203002BF0D093
:1042A000284B1B6823F0F8027B681B69DB0025495B
:1042B00013430B6015E0244B00221A60FEF706FA48
:1042C000386108E0FEF702FA02463B69D31A022B76
:1042D00001D9032387E11B4B1B6803F00203002B6A
:1042E000F0D17B681B6803F00803002B36D07B6895
:1042F0005B69002B16D0154B01221A60FEF7E6F918
:10430000386108E0FEF7E2F902463B69D31A022B56
:1043100001D9032367E10B4B5B6F03F00203002B12
:10432000F0D01BE0094B00221A60FEF7CFF938618C
:104330000EE0FEF7CBF902463B69D31A022B07D9F0
:10434000032350E10038024000004742800E4742FC
:10435000884B5B6F03F00203002BEAD17B681B687C
:1043600003F00403002B00F097800023FB75814BC2
:104370001B6C03F08053002B0FD10023BB607D4BDF
:104380001B6C7C4A43F0805313647A4B1B6C03F024
:104390008053BB60BB680123FB75774B1B6803F43C
:1043A0008073002B18D1744B1B68734A43F48073DD
:1043B0001360FEF78BF9386108E0FEF787F90246D3
:1043C0003B69D31A022B01D903230CE16A4B1B680A
:1043D00003F48073002BF0D07B689B68012B06D11F
:1043E000644B1B6F634A43F0010313671CE07B6857
:1043F0009B68052B0CD15F4B1B6F5E4A43F0040397
:1044000013675C4B1B6F5B4A43F0010313670BE0C0
:10441000584B1B6F574A23F001031367554B1B6F13
:10442000544A23F0040313677B689B68002B15D064
:10443000FEF74CF938610AE0FEF748F902463B699D
:10444000D31A41F28832934201D90323CBE0494B7E
:104450001B6F03F00203002BEED014E0FEF736F9D9
:1044600038610AE0FEF732F902463B69D31A41F29D
:104470008832934201D90323B5E03E4B1B6F03F012
:104480000203002BEED1FB7D012B05D1394B1B6CB8
:10449000384A23F0805313647B689B69002B00F03B
:1044A000A180344B9B6803F00C03082B5CD07B6825
:1044B0009B69022B41D1314B00221A60FEF706F9AD
:1044C000386108E0FEF702F902463B69D31A022B75
:1044D00001D9032387E0274B1B6803F00073002BEF
:1044E000F0D17B68DA697B681B6A1A437B685B6A78
:1044F0009B011A437B689B6A5B08013B1B041A43C0
:104500007B68DB6A1B061B4913434B601B4B012274
:104510001A60FEF7DBF8386108E0FEF7D7F80246CC
:104520003B69D31A022B01D903235CE0114B1B68B2
:1045300003F00073002BF0D054E0104B00221A60FF
:10454000FEF7C4F8386108E0FEF7C0F802463B69A0
:10455000D31A022B01D9032345E0064B1B6803F055
:104560000073002BF0D13DE07B689B69012B07D1E4
:10457000012338E0003802400070004060004742EC
:104580001B4B5B68FB607B689B69012B28D0FB6839
:1045900003F480027B68DB699A4221D1FB6803F057
:1045A0003F027B681B6A9A421AD1FA6847F6C073C9
:1045B00013407A68526A9201934211D1FB6803F466
:1045C00040327B689B6A5B08013B1B049A4207D11F
:1045D000FB6803F070627B68DB6A1B069A4201D0BD
:1045E000012300E0002318461837BD4680BD00BFF8
:1045F0000038024080B584B000AF786039607B68D5
:10460000002B01D10123CCE0684B1B6803F00703AA
:104610003A689A420CD9654B3A68D2B21A70634B29
:104620001B6803F007033A689A4201D00123B8E0FF
:104630007B681B6803F00203002B20D07B681B689B
:1046400003F00403002B05D0594B9B68584A43F4F0
:10465000E05393607B681B6803F00803002B05D0D0
:10466000534B9B68524A43F460439360504B9B68A2
:1046700023F0F0027B689B684D4913438B607B6895
:104680001B6803F00103002B44D07B685B68012B9F
:1046900007D1474B1B6803F40033002B19D10123CA
:1046A0007FE07B685B68022B03D07B685B68032B31
:1046B00007D13F4B1B6803F00073002B09D1012386
:1046C0006FE03B4B1B6803F00203002B01D1012379
:1046D00067E0374B9B6823F003027B685B683449D3
:1046E00013438B60FDF7F2FFF8600AE0FDF7EEFF81
:1046F0000246FB68D31A41F28832934201D9032360
:104700004FE02B4B9B6803F00C027B685B689B00BF
:104710009A42EBD1254B1B6803F007033A689A4293
:104720000CD2224B3A68D2B21A70204B1B6803F0AD
:1047300007033A689A4201D0012332E07B681B6884
:1047400003F00403002B08D0194B9B6823F4E052BC
:104750007B68DB68164913438B607B681B6803F03A
:104760000803002B09D0124B9B6823F460427B683E
:104770001B69DB000E4913438B6000F021F80246F1
:104780000B4B9B681B0903F00F030A49CB5C22FA11
:1047900003F3094A1360094B1B681846FDF752FFE3
:1047A000002318461037BD4680BD00BF003C0240C4
:1047B00000380240509B0008040000200800002040
:1047C0002DE9B04F90B000AF00237B630023FB6363
:1047D00000233B630023BB63594B9B6803F00C032E
:1047E000082B0DD0082B00F2A180002B02D0042B47
:1047F00003D09BE0534BBB639BE0534BBB6398E000
:104800004F4B5B6803F03F037B634D4B5B6803F4E6
:104810008003002B28D04A4B5B689B0900223B6237
:104820007A623B6AC3F308000021474B03FB01F2A5
:10483000002300FB03F31344434AA0FB0212FA6275
:104840000A46BA62FA6A1344FB627B6B0022BB61C0
:10485000FA61D7E90623D7E90A01FBF7C1FC024652
:104860000B461346FB6353E0354B5B689B09002204
:104870003B617A613B69C3F3080A4FF0000B524673
:104880005B464FF000004FF00001590141EAD26150
:10489000500102460B46B2EB0A0863EB0B094FF0DE
:1048A00000024FF000034FEA891343EA98634FEA8E
:1048B0008812B2EB080463EB09054FF000024FF0D9
:1048C0000003EB0043EA5473E20014461D4614EB68
:1048D0000A033B6045EB0B037B604FF000024FF097
:1048E0000003D7E9004529468B02214643EA91534C
:1048F00021468A02104619467B6B0022BB60FA6093
:10490000D7E90223FBF76CFC02460B461346FB6318
:104910000B4B5B681B0C03F0030301335B003B6331
:10492000FA6B3B6BB2FBF3F3BB6302E0054BBB637B
:1049300000BFBB6B18464037BD46BDE8B08F00BF17
:10494000003802400024F40040787D0180B400AFBC
:10495000034B1B681846BD465DF8047B704700BFDB
:104960000400002080B500AFFFF7F0FF0246054BC2
:104970009B689B0A03F007030349CB5C22FA03F30D
:10498000184680BD00380240609B000880B500AF2B
:10499000FFF7DCFF0246054B9B685B0B03F0070348
:1049A0000349CB5C22FA03F3184680BD003802406D
:1049B000609B000880B582B000AF78607B68002BF8
:1049C00001D1012341E07B6893F83D30DBB2002B3D
:1049D00006D17B68002283F83C207868FDF744FC10
:1049E0007B68022283F83D207B681A687B68043369
:1049F0001946104600F096FD7B68012283F8462098
:104A00007B68012283F83E207B68012283F83F20E7
:104A10007B68012283F840207B68012283F84120D3
:104A20007B68012283F842207B68012283F84320BF
:104A30007B68012283F844207B68012283F84520AB
:104A40007B68012283F83D20002318460837BD46C5
:104A500080BD000080B485B000AF78607B6893F8BB
:104A60003D30DBB2012B01D001234EE07B680222F6
:104A700083F83D207B681B68DA687B681B6842F01E
:104A80000102DA607B681B68234A934222D07B686C
:104A90001B68B3F1804F1DD07B681B681F4A93428F
:104AA00018D07B681B681E4A934213D07B681B6832
:104AB0001C4A93420ED07B681B681B4A934209D064
:104AC0007B681B68194A934204D07B681B68184AAC
:104AD000934211D17B681B689B6803F00703FB605E
:104AE000FB68062B10D07B681B681A687B681B6804
:104AF00042F001021A6007E07B681B681A687B6855
:104B00001B6842F001021A60002318461437BD46A4
:104B10005DF8047B704700BF0000014000040040C6
:104B200000080040000C004000040140004001402B
:104B30000018004080B582B000AF78607B68002B21
:104B400001D1012341E07B6893F83D30DBB2002BBB
:104B500006D17B68002283F83C20786800F039F8A1
:104B60007B68022283F83D207B681A687B680433E7
:104B70001946104600F0D6FC7B68012283F84620D7
:104B80007B68012283F83E207B68012283F83F2066
:104B90007B68012283F840207B68012283F8412052
:104BA0007B68012283F842207B68012283F843203E
:104BB0007B68012283F844207B68012283F845202A
:104BC0007B68012283F83D20002318460837BD4644
:104BD00080BD80B483B000AF786000BF0C37BD46A5
:104BE0005DF8047B7047000080B584B000AF78604A
:104BF00039603B68002B09D17B6893F83E30DBB20B
:104C0000012B14BF01230023DBB222E03B68042BFD
:104C100009D17B6893F83F30DBB2012B14BF01232D
:104C20000023DBB215E03B68082B09D17B6893F8C1
:104C30004030DBB2012B14BF01230023DBB208E0BC
:104C40007B6893F84130DBB2012B14BF01230023B2
:104C5000DBB2002B01D001237CE03B68002B04D1A8
:104C60007B68022283F83E2013E03B68042B04D1CA
:104C70007B68022283F83F200BE03B68082B04D1BD
:104C80007B68022283F8402003E07B68022283F8DD
:104C900041207B681B6801223968184600F032FF0A
:104CA0007B681B682D4A934204D07B681B682C4AA2
:104CB000934201D1012300E00023002B07D07B6841
:104CC0001B685A6C7B681B6842F400425A647B681C
:104CD0001B68224A934222D07B681B68B3F1804F45
:104CE0001DD07B681B681F4A934218D07B681B68E5
:104CF0001D4A934213D07B681B681C4A93420ED016
:104D00007B681B68164A934209D07B681B68184A67
:104D1000934204D07B681B68164A934211D17B688A
:104D20001B689B6803F00703FB60FB68062B10D031
:104D30007B681B681A687B681B6842F001021A6076
:104D400007E07B681B681A687B681B6842F00102F9
:104D50001A60002318461037BD4680BD0000014090
:104D6000000401400004004000080040000C004026
:104D7000004001400018004080B586B000AF786068
:104D800039607B68002B01D1012397E07B6893F8A1
:104D90003D30DBB2002B06D17B68002283F83C203B
:104DA0007868FDF7C7F97B68022283F83D207B68AD
:104DB0001B689B687A68126823F4804323F007031A
:104DC00093607B681A687B6804331946104600F0CC
:104DD000A9FB7B681B689B687B617B681B689B6980
:104DE0003B617B681B681B6AFB603B681B687A69D8
:104DF00013437B613B6923F4407323F003033B615E
:104E00003B689A683B689B691B0213433A691343EA
:104E10003B613B6923F4406323F00C033B613B6936
:104E200023F4704323F0F0033B613B68DA683B688E
:104E3000DB691B0213433A6913433B613B681B69FF
:104E40001A013B681B6A1B0313433A6913433B6116
:104E5000FB6823F02203FB60FB6823F08803FB6000
:104E60003B685A683B685B691B011343FA6813434C
:104E7000FB607B681B687A699A607B681B683A698B
:104E80009A617B681B68FA681A627B68012283F862
:104E900046207B68012283F83E207B68012283F84C
:104EA0003F207B68012283F842207B68012283F83F
:104EB00043207B68012283F83D20002318461837E1
:104EC000BD4680BD80B584B000AF786039607B6836
:104ED00093F83E30FB737B6893F83F30BB737B687D
:104EE00093F842307B737B6893F843303B733B68A5
:104EF000002B10D1FB7B012B02D17B7B012B01D03E
:104F0000012369E07B68022283F83E207B6802224D
:104F100083F8422031E03B68042B10D1BB7B012B8E
:104F200002D13B7B012B01D0012355E07B6802229B
:104F300083F83F207B68022283F843201DE0FB7B3F
:104F4000012B08D1BB7B012B05D17B7B012B02D12F
:104F50003B7B012B01D001233EE07B68022283F8DA
:104F60003E207B68022283F83F207B68022283F880
:104F700042207B68022283F843203B68002B03D049
:104F80003B68042B08D00FE07B681B6801220021DE
:104F9000184600F0B7FD16E07B681B68012204216B
:104FA000184600F0AFFD0EE07B681B68012200216F
:104FB000184600F0A7FD7B681B68012204211846F3
:104FC00000F0A0FD00BF7B681B681A687B681B6847
:104FD00042F001021A60002318461037BD4680BD1A
:104FE00080B584B000AF78607B681B68DB68FB60CD
:104FF0007B681B681B69BB60BB6803F00203002B66
:1050000020D0FB6803F00203002B1BD07B681B68D9
:105010006FF002021A617B6801221A777B681B68B5
:105020009B6903F00303002B03D0786800F05BFA60
:1050300005E0786800F04DFA786800F05EFA7B6869
:1050400000221A77BB6803F00403002B20D0FB6812
:1050500003F00403002B1BD07B681B686FF0040275
:105060001A617B6802221A777B681B689B6903F4CC
:105070004073002B03D0786800F035FA05E07868BB
:1050800000F027FA786800F038FA7B6800221A7777
:10509000BB6803F00803002B20D0FB6803F0080373
:1050A000002B1BD07B681B686FF008021A617B68BD
:1050B00004221A777B681B68DB6903F00303002B6B
:1050C00003D0786800F00FFA05E0786800F001FA84
:1050D000786800F012FA7B6800221A77BB6803F048
:1050E0001003002B20D0FB6803F01003002B1BD013
:1050F0007B681B686FF010021A617B6808221A77C0
:105100007B681B68DB6903F44073002B03D078686D
:1051100000F0E9F905E0786800F0DBF9786800F064
:10512000ECF97B6800221A77BB6803F00103002BBF
:105130000CD0FB6803F00103002B07D07B681B68D1
:105140006FF001021A617868FBF768FBBB6803F037
:105150008003002B0CD0FB6803F08003002B07D0EA
:105160007B681B686FF080021A61786800F0C8FDE8
:10517000BB6803F04003002B0CD0FB6803F0400336
:10518000002B07D07B681B686FF040021A617868BB
:1051900000F0BDF9BB6803F02003002B0CD0FB68C6
:1051A00003F02003002B07D07B681B686FF0200200
:1051B0001A61786800F09AFD00BF1037BD4680BDC7
:1051C00080B586B000AFF860B9607A600023FB75E7
:1051D000FB6893F83C30012B01D10223AEE0FB6861
:1051E000012283F83C207B680C2B00F29F8001A2F7
:1051F00052F823F0295200082D5300082D530008BF
:105200002D530008695200082D5300082D53000843
:105210002D530008AB5200082D5300082D530008F1
:105220002D530008EB520008FB681B68B96818464C
:1052300000F01EFAFB681B689A69FB681B6842F065
:1052400008029A61FB681B689A69FB681B6822F078
:1052500004029A61FB681B689969BB681A69FB685C
:105260001B680A439A6164E0FB681B68B9681846CA
:1052700000F06EFAFB681B689A69FB681B6842F4D1
:1052800000629A61FB681B689A69FB681B6822F4DC
:1052900080629A61FB681B689969BB681B691A0286
:1052A000FB681B680A439A6143E0FB681B68B968A6
:1052B000184600F0C3FAFB681B68DA69FB681B68D4
:1052C00042F00802DA61FB681B68DA69FB681B6858
:1052D00022F00402DA61FB681B68D969BB681A69AD
:1052E000FB681B680A43DA6123E0FB681B68B96846
:1052F000184600F017FBFB681B68DA69FB681B683F
:1053000042F40062DA61FB681B68DA69FB681B68BB
:1053100022F48062DA61FB681B68D969BB681B698B
:105320001A02FB681B680A43DA6102E00123FB757D
:1053300000BFFB68002283F83C20FB7D184618372D
:10534000BD4680BD80B584B000AF78603960002371
:10535000FB737B6893F83C30012B01D10223B4E04E
:105360007B68012283F83C207B68022283F83D2081
:105370007B681B689B68BB60BB6823F07703BB60DE
:10538000BB6823F47F43BB607B681B68BA689A6084
:105390003B681B68B3F5005F3ED0B3F5005F00F2D9
:1053A0008780B3F5805F00F08680B3F5805F7FD89B
:1053B000702B1AD0702B7BD8602B50D0602B77D8F5
:1053C000502B3CD0502B73D8402B58D0402B6FD84B
:1053D000302B64D0302B6BD8202B60D0202B67D89B
:1053E000002B5CD0102B5AD062E07B6818683B68B9
:1053F00099683B685A683B68DB6800F063FB7B6830
:105400001B689B68BB60BB6843F07703BB607B682D
:105410001B68BA689A604FE07B6818683B689968B7
:105420003B685A683B68DB6800F04CFB7B681B6894
:105430009A687B681B6842F480429A603CE07B6813
:1054400018683B6859683B68DB681A4600F0C0FA88
:105450007B681B685021184600F019FB2CE07B6824
:1054600018683B6859683B68DB681A4600F0DFFA49
:105470007B681B686021184600F009FB1CE07B6814
:1054800018683B6859683B68DB681A4600F0A0FA68
:105490007B681B684021184600F0F9FA0CE07B6835
:1054A0001A683B681B681946104600F0F0FA03E0E2
:1054B0000123FB7300E000BF7B68012283F83D20DD
:1054C0007B68002283F83C20FB7B18461037BD46E2
:1054D00080BD80B483B000AF786000BF0C37BD469C
:1054E0005DF8047B704780B483B000AF786000BF84
:1054F0000C37BD465DF8047B704780B483B000AFC5
:10550000786000BF0C37BD465DF8047B704780B4FF
:1055100083B000AF786000BF0C37BD465DF8047BF8
:105520007047000080B485B000AF786039607B6858
:105530001B68FB607B68434A934213D07B68B3F1DE
:10554000804F0FD07B68404A93420BD07B683F4A24
:10555000934207D07B683E4A934203D07B683D4A22
:10556000934208D1FB6823F07003FB603B685B68E3
:10557000FA681343FB607B68324A93422BD07B6806
:10558000B3F1804F27D07B682F4A934223D07B68AA
:105590002E4A93421FD07B682D4A93421BD07B68D2
:1055A0002C4A934217D07B682B4A934213D07B68D6
:1055B0002A4A93420FD07B68294A93420BD07B68DA
:1055C000284A934207D07B68274A934203D07B68DE
:1055D000264A934208D1FB6823F44073FB603B6882
:1055E000DB68FA681343FB60FB6823F080023B68CA
:1055F0005B691343FB603B689A687B68DA623B68CF
:105600001A687B689A627B680E4A934203D07B6873
:10561000104A934203D13B681A697B681A637B681E
:105620001B6843F004027B681A607B6801225A61A0
:105630007B68FA681A6000BF1437BD465DF8047BCA
:10564000704700BF00000140000400400008004017
:10565000000C0040000401400040014000440140B3
:105660000048014000180040001C0040002000409D
:1056700080B487B000AF786039607B681B6A7B615B
:105680007B681B6A23F001027B681A627B685B6897
:105690003B617B689B69FB60FB6823F07003FB60E8
:1056A000FB6823F00303FB603B681B68FA68134345
:1056B000FB607B6923F002037B613B689B687A692E
:1056C00013437B617B68204A934203D07B681F4A67
:1056D00093420CD17B6923F008037B613B68DB6854
:1056E0007A6913437B617B6923F004037B617B68E8
:1056F000154A934203D07B68144A934211D13B6907
:1057000023F480733B613B6923F400733B613B6886
:105710005B693A6913433B613B689B693A69134390
:105720003B617B683A695A607B68FA689A613B68BA
:105730005A687B685A637B687A691A6200BF1C37B3
:10574000BD465DF8047B7047000001400004014045
:1057500080B487B000AF786039607B681B6A7B617A
:105760007B681B6A23F010027B681A627B685B68A7
:105770003B617B689B69FB60FB6823F4E043FB6053
:10578000FB6823F44073FB603B681B681B02FA68EC
:105790001343FB607B6923F020037B613B689B68BC
:1057A0001B017A6913437B617B68224A934203D0D1
:1057B0007B68214A93420DD17B6923F080037B6192
:1057C0003B68DB681B017A6913437B617B6923F0CB
:1057D00040037B617B68174A934203D07B68164A7B
:1057E000934213D13B6923F480633B613B6923F40B
:1057F00000633B613B685B699B003A6913433B6113
:105800003B689B699B003A6913433B617B683A693B
:105810005A607B68FA689A613B685A687B689A6349
:105820007B687A691A6200BF1C37BD465DF8047B4D
:10583000704700BF000001400004014080B487B001
:1058400000AF786039607B681B6A7B617B681B6A8C
:1058500023F480727B681A627B685B683B617B68BB
:10586000DB69FB60FB6823F07003FB60FB6823F0DF
:105870000303FB603B681B68FA681343FB607B69AA
:1058800023F400737B613B689B681B027A691343B6
:105890007B617B68214A934203D07B68204A934214
:1058A0000DD17B6923F400637B613B68DB681B02DD
:1058B0007A6913437B617B6923F480637B617B6836
:1058C000164A934203D07B68154A934213D13B6931
:1058D00023F480533B613B6923F400533B613B68F5
:1058E0005B691B013A6913433B613B689B691B0180
:1058F0003A6913433B617B683A695A607B68FA688E
:10590000DA613B685A687B68DA637B687A691A6295
:1059100000BF1C37BD465DF8047B704700000140A6
:105920000004014080B487B000AF786039607B68C4
:105930001B6A3B617B681B6A23F480527B681A6296
:105940007B685B687B617B68DB69FB60FB6823F4D9
:10595000E043FB60FB6823F44073FB603B681B681B
:105960001B02FA681343FB603B6923F400533B615D
:105970003B689B681B033A6913433B617B68124A8F
:10598000934203D07B68114A934209D17B6923F487
:1059900080437B613B685B699B017A6913437B6150
:1059A0007B687A695A607B68FA68DA613B685A6892
:1059B0007B681A647B683A691A6200BF1C37BD466F
:1059C0005DF8047B704700BF000001400004014007
:1059D00080B487B000AFF860B9607A60FB681B6A7A
:1059E0007B61FB681B6A23F00102FB681A62FB689B
:1059F0009B693B613B6923F0F0033B617B681B01C2
:105A00003A6913433B617B6923F00A037B617A693E
:105A1000BB6813437B61FB683A699A61FB687A69EA
:105A20001A6200BF1C37BD465DF8047B704780B426
:105A300087B000AFF860B9607A60FB681B6A7B6171
:105A4000FB681B6A23F01002FB681A62FB689B6903
:105A50003B613B6923F470433B617B681B033A69FC
:105A600013433B617B6923F0A0037B61BB681B018F
:105A70007A6913437B61FB683A699A61FB687A69CA
:105A80001A6200BF1C37BD465DF8047B704780B4C6
:105A900085B000AF786039607B689B68FB60FB680D
:105AA00023F07003FB603A68FB68134343F007037D
:105AB000FB607B68FA689A6000BF1437BD465DF8EA
:105AC000047B704780B487B000AFF860B9607A603B
:105AD0003B60FB689B687B617B6923F47F437B6150
