:020000040800F2
:100000000000022051060008290600082B060008FF
:100010002D0600082F060008310600080000000029
:10002000000000000000000000000000330600088F
:1000300035060008000000003706000839060008F1
:10004000A1060008A1060008A1060008A1060008F4
:10005000A1060008A1060008A1060008A1060008E4
:10006000A1060008A1060008A1060008A1060008D4
:10007000A1060008A1060008A1060008A1060008C4
:10008000A1060008A1060008A1060008A1060008B4
:10009000A1060008A1060008A1060008A1060008A4
:1000A000A1060008A1060008A1060008A106000894
:1000B000A1060008A1060008A1060008A106000884
:1000C000A1060008A1060008A1060008A106000874
:1000D000A1060008A1060008A1060008A106000864
:1000E000A1060008A1060008A1060008A106000854
:1000F000A1060008A1060008A1060008A106000844
:10010000A1060008A1060008A1060008A106000833
:10011000A1060008A1060008A1060008A106000823
:10012000A1060008A1060008A1060008A106000813
:10013000A1060008A1060008A1060008A106000803
:10014000A1060008A1060008A1060008A1060008F3
:10015000A1060008A1060008A1060008A1060008E3
:10016000A1060008A1060008A1060008A1060008D3
:10017000A1060008A1060008A10600080000000072
:08018000A1060008A106000819
:1001880010B5054C237833B9044B13B10448AFF3C9
:1001980000800123237010BD0C0000200000000027
:1001A8002C0F000808B5034B1BB103490348AFF3F4
:1001B800008008BD00000000100000202C0F00087F
:1001C80053B94AB9002908BF00281CBF4FF0FF31B6
:1001D8004FF0FF3000F088B9ADF1080C6DE904CE9E
:1001E80000F006F8DDF804E0DDE9022304B070470A
:1001F8002DE9F047089D8E4604468846002B4AD1D3
:100208008A42174662D9B2FA82F64EB1C6F1200385
:1002180001FA06F820FA03F3B74043EA0808B440A5
:100228004FEA174E1FFA87FCB8FBFEF1230C0EFBB2
:10023800118843EA084301FB0CF29A4209D9FB18DA
:1002480001F1FF3080F0EA809A4240F2E7800239FB
:100258003B449A1AA3B2B2FBFEF00EFB102243EA0B
:10026800024300FB0CFC9C4509D9FB1800F1FF3246
:1002780080F0D6809C4540F2D3803B44023840EA67
:100288000140A3EB0C0300211DB1F3400022C5E996
:100298000032BDE8F0878B4205D90DB1C5E90001F0
:1002A80000210846F5E7B3FA83F1002946D17345E2
:1002B80002D3824200F20581841A6EEB0302012008
:1002C8009046002DE5D0C5E90048E2E7002A00F095
:1002D8009080B2FA82F6002E40F0A4808A1A030CAD
:1002E8004FEA174E80B2BCB20121B2FBFEFC0EFBF6
:1002F8001C2243EA024304FB0CF29A4207D9FB187A
:100308000CF1FF3802D29A4200F2E080C4469B1AF0
:10031800B3FBFEF20EFB123340EA034302FB04F484
:100328009C4207D9FB1802F1FF3002D29C4200F22E
:10033800CA8002461B1B42EA0C40A5E7C1F1200611
:100348008B4022FA06F71F430EFA01F420FA06F34F
:100358002EFA06FE4FEA1749234300FA01F81FFA5E
:1003680087FCBEFBF9F01C0C09FB10EE44EA0E44B6
:1003780000FB0CFEA64502FA01F209D93C1900F16E
:10038800FF3A80F09C80A64540F2998002383C44B0
:10039800A4EB0E041FFA83FEB4FBF9F309FB134424
:1003A8004EEA044403FB0CFCA44508D93C1903F1AC
:1003B800FF3E80F08280A4457FD9023B3C4443EA5B
:1003C8000040A4EB0C04A0FB02EC64457346E14634
:1003D80062D35FD05DB1B8EB030264EB090404FAA1
:1003E80006F622FA01F31E43CC40C5E90064002159
:1003F8004FE7B1FBF2FC010C41EA0E4180B240EA42
:1004080001423B4638463C46B846BE462026B1FB2C
:10041800F7F1A2EB080241EA0C4166E7014618E74A
:1004280010462CE7C6F120022EFA02F3B740B1407D
:1004380020FA02F24FEA174E0A43B3FBFEF8BCB2A9
:100448000EFB1833110C41EA034108FB04F9B040D4
:1004580089454FEA104380B23ED9791808F1FF3C2C
:1004680001D289451FD8A1EB0901B1FBFEF909FBAF
:1004780004F80EFB191192B242EA0142424529D210
:10048800BA1809F1FF31C4D24245C2D2A9F102011A
:100498003A44BEE7F0459DD2BEEB02036CEB070C75
:1004A8000138E14696E7A7EB09094944A8F1020C8F
:1004B800B1FBFEF909FB04F8DBE773467FE750461A
:1004C80066E70846FDE63B44023A33E7ACF1020C26
:1004D8003B441CE749469CE7A1EB0901C446B1FB34
:1004E800FEF909FB04F8C4E7704700BF00B595B0F2
:1004F8002C22002109A800F0E9FC1422002103A8FD
:1005080000F0E4FC0023194A0193116C41F080517A
:100518001164126C02F080520192019A144A0293FB
:10052800116841F48041116012680E9302F4804210
:100538000292029A0222089201201022CDE90B02AF
:1005480008A800F04DFA014608B172B6FEE70F237D
:10055800CDE90330CDE90500079003A800F01CFCA5
:1005680008B172B6FEE715B05DF804FB003802402A
:10057800007000407FB500F0B5F8FFF7B7FF142210
:10058800002101A800F0A2FC0024154B00941A6B6E
:10059800144842F010021A631B6B03F01003224642
:1005A80000934FF48071009B00F00CFA4FF48072B6
:1005B80001230C4801A9CDE90344CDE9012300F04A
:1005C80029F904F1804404F5043420464FF480717D
:1005D80000F0FDF94FF4FA6000F0B0F8F5E700BF5D
:1005E800003802400010024082B00C4B00210091FC
:1005F8005A6C42F480425A645A6C02F48042009267
:10060800009A01911A6C42F080521A641B6C03F034
:1006180080530193019B02B0704700BF003802402D
:10062800FEE7FEE7FEE7FEE7FEE770477047704724
:1006380000F072B8034AD2F8883043F47003C2F865
:100648008830704700ED00E0DFF834D0FFF7F2FFA4
:100658000C480D490D4A002302E0D458C450043315
:10066800C4188C42F9D30A4A0A4C002301E01360EB
:100678000432A242FBD300F031FCFFF77BFF704746
:1006880000000220000000200C000020640F000879
:100698000C0000202C000020FEE7000038B50E4BAF
:1006A8001A784FF47A73B3FBF2F30C4A05461068D4
:1006B800B0FBF3F000F09AF8044658B90F2D09D8AA
:1006C800024629464FF0FF3000F05EF8044B204602
:1006D8001D6038BD0120FCE7040000200000002058
:1006E8000800002008B50B4B1A6842F400721A6023
:1006F8001A6842F480621A601A6842F480721A60BA
:10070800032000F02FF80F20FFF7C8FFFFF76CFF5A
:10071800002008BD003C0240034A044B11681B78C6
:100728000B441360704700BF28000020040000201D
:10073800014B1868704700BF2800002038B50446F0
:10074800FFF7F6FF631C1CBF054B1B78054618BF57
:10075800E418FFF7EDFF431BA342FAD338BD00BFEF
:10076800040000200749CA6822F4E0620302120468
:1007780003F4E063120C134343F0BF6343F4003304
:10078800CB60704700ED00E0164B30B5DC68C4F371
:100798000224C4F10703251D042B28BF0423062DBA
:1007A8004FF0FF358CBF033C002405FA03F321EA20
:1007B8000303A54022EA0502A340002843EA0203F6
:1007C800ACBF00F16040084A4FEA0313B8BF00F01D
:1007D8000F00DBB2AABF00F56140135480F8003364
:1007E80030BD00BF00ED00E014ED00E00138B0F1CD
:1007F800807F0BD24FF0E023054A5861F02182F840
:1008080023100020072298611A6170470120704761
:1008180000ED00E02DE9F74FDFF8A491664A0023C8
:100828000D6801249C4004EA0506AC4340F0AF8003
:100838004D68032705F003044FEA430807FA08FC4C
:10084800671E012F6FEA0C0C34D8876807EA0C0E74
:10085800CF6807FA08F747EA0E078760476827EA6C
:10086800060EC5F300179F4047EA0E074760C768A2
:1008780007EA0C0E8F6807FA08F747EA0E07022CFA
:10088800C76019D14FEAD30A00EB8A0A03F0070BB5
:10089800DAF820704FEA8B0B4FF00F0E0EFA0BFEB2
:1008A80027EA0E0E0F6907FA0BF747EA0E07CAF890
:1008B800207001E0032CDAD1076804FA08F407EA8B
:1008C8000C073C4315F4403F046060D000240194B9
:1008D800D9F8444044F48044C9F84440D9F8444025
:1008E80023F0030707F1804704F4804407F59C3799
:1008F800019403F0030C019CD7F808E04FEA8C0C34
:100908000F2404FA0CF42EEA040E2C4CA04245D015
:1009180004F58064A04243D004F58064A04241D02D
:1009280004F58064A0423FD004F58064A0423DD025
:1009380004F58064A0423BD004F58064A04239D01D
:1009480004F58064A04214BF0824072404FA0CF4B8
:1009580044EA0E04BC609468F74315F4801F0CBF8A
:100968003C4034439460D46815F4001F0CBF3C40ED
:100978003443D460546815F4003F0CBF3C40344302
:1009880054601468ED0354BF3C4034431460013391
:10099800102B7FF445AF03B0BDE8F08F0024D5E7F6
:1009A8000124D3E70224D1E70324CFE70424CDE7C9
:1009B8000524CBE70624C9E7003C014000000240BB
:1009C800003802400AB1816170470904FBE74369B6
:1009D80001EA030221EA030141EA02418161704709
:1009E8002DE9F341044640B30368DE0710D42368B9
:1009F8009D075BD42368190700F19D8023685A0777
:100A080000F1BD80A369002B40F0248100202CE078
:100A18008D4B9A6802F00C02042A07D09A6802F0FB
:100A28000C02082A0BD15B68590208D5864B1B6853
:100A38009A03DCD56368002BD9D1012015E06368DF
:100A4800814DB3F5803F13D12B6843F480332B607D
:100A5800FFF76EFE7C4E054633689B03C7D4FFF74D
:100A680067FE401B6428F7D9032002B0BDE8F08177
:100A7800B3F5A02F04D12B6843F480232B60E3E760
:100A88002A6822F480322A602A6822F480222A60A6
:100A9800002BDDD1FFF74CFE06462B689F03A6D539
:100AA800FFF746FE801B6428F7D9DDE7664B9A6896
:100AB80012F00C0F07D09A6802F00C02082A11D124
:100AC8005B685D020ED4604A1368990702D5E36833
:100AD800012BB2D11368216923F0F80343EAC1035B
:100AE800136087E7E268594BB2B101221A60FFF739
:100AF8001FFE554D06462B689B0707D52B682269B4
:100B080023F0F80343EAC2032B6073E7FFF710FEF4
:100B1800801B0228EFD9A7E71A60FFF709FE4A4EA3
:100B2800054633689F077FF565AFFFF701FE401B59
:100B38000228F6D998E76269444B82B10122C3F8CA
:100B4800802EFFF7F5FD404E0546736F9B073FF576
:100B580055AFFFF7EDFD401B0228F6D984E7C3F82F
:100B6800802EFFF7E5FD384E0546736F9F077FF52A
:100B780045AFFFF7DDFD401B0228F6D974E7324B7D
:100B88001A6C12F0805228D101921A6C42F08052ED
:100B98001A641B6C03F080530193019B01272C4DB1
:100BA8002B68D8051BD5A368274D012B27D12B6FA0
:100BB80043F001032B67FFF7BBFD234E054641F2C7
:100BC8008838336F9A0739D5002F3FF41BAF1E4A78
:100BD800136C23F08053136414E70027DFE72B68B6
:100BE80043F480732B60FFF7A3FD06462B68D905F5
:100BF800D9D4FFF79DFD801B0228F7D934E7052BD0
:100C080004D12B6F43F004032B67D0E72A6F22F03F
:100C180001022A672A6F22F004022A67002BCAD130
:100C2800FFF786FD41F2883806462B6F9B07CBD528
:100C3800FFF77EFD801B4045F7D915E7FFF778FDE4
:100C4800401B4045BDD90FE700380240000047422D
:100C580000700040374DAA6802F00C02082A3ED006
:100C6800022B354B4FF000021A662BD1FFF760FDBF
:100C780006462B6899011FD4D4E907321343626AE8
:100C880043EA8213E26A43EA0263A26A5208013A1B
:100C980043EA02436B60284B264D01221A66FFF790
:100CA80047FD04462B689A013FF5B0AEFFF740FDBB
:100CB800001B0228F6D9D7E6FFF73AFD801B022869
:100CC800D7D9D1E6FFF734FD04462B689B017FF5A1
:100CD8009DAEFFF72DFD001B0228F6D9C4E6012BB7
:100CE8003FF4ABAE6B68E26903F4800191427FF494
:100CF800A4AE216A03F03F028A427FF49EAE616A85
:100D080047F6C0721A40B2EB811F7FF496AEA26A12
:100D1800520803F44031013AB1EB024F7FF48DAE33
:100D2800E26A03F07063B3EB026F14BF0120002086
:100D38009BE600BF0038024000004742134908B54F
:100D48008B6803F00C03042B1CD0082B1CD14A68B9
:100D58004B68496813F4800314BF0D480D48C1F36C
:100D6800881118BF002302F03F02A1FB0001FFF722
:100D780027FA064B5B68C3F3014301335B00B0FB02
:100D8800F3F008BD0248FCE70248FAE700380240E1
:100D980040787D010024F4002DE9F0410D46044619
:100DA80010B90120BDE8F081434B1A6802F0070230
:100DB8008A4228D321688F072DD4C80740D43E4BD8
:100DC8001A6802F00702AA4265D8226851076BD454
:100DD800130707D5394A2169936823F4604343EA26
:100DE800C1039360FFF7AAFF344B354A9B68C3F3EE
:100DF8000313D35CD840334B1860334B1868FFF7A4
:100E08004DFC0020CEE7CAB21A701B6803F0070336
:100E18008B42C6D1CEE7294B11F0040F1EBF9A684A
:100E280042F4E0529A600E0742BF9A6842F4604268
:100E38009A609A68A06822F0F00202439A60BCE7C0
:100E480062681E4B012A1CD11B6813F4003FA8D00E
:100E58001A4EB36823F003031343B360FFF768FC2B
:100E680041F288380746B368626803F00C03B3EBB5
:100E7800820FA4D0FFF75CFCC01B4045F3D90320C8
:100E880090E7911E01291B6802D813F0007FDEE766
:100E980013F0020FDBE7EAB21A701B6803F00703CE
:100EA800AB427FF47EAF90E70449E0688B6823F497
:100EB800E05303438B608BE7003C0240003802405C
:100EC800440F0008000000200800002002440346E8
:100ED800934200D1704703F8011BF9E770B50D4D37
:100EE8000D4C641BA4100026A64209D10B4D0C4CD6
:100EF80000F018F8641BA4100026A64205D170BDA6
:100F080055F8043B98470136EEE755F8043B9847F7
:100F18000136F2E75C0F00085C0F00085C0F000860
:100F2800600F0008F8B500BFF8BC08BC9E467047C3
:0C0F3800F8B500BFF8BC08BC9E4670472E
:100F44000000000000000000010203040607080975
:080F5400A4F2FF7F0100000080
:040F5C00AD010008DB
:040F600089010008FB
:0C0F64000024F400010000001000000058
:040000050800065198
:00000001FF
