:020000040800F2
:1000000000000220F15F00088D5D0008955D00088A
:100010009D5D0008A55D0008AD5D000800000000C2
:1000200000000000000000000000000031D40008C3
:10003000B55D00080000000081D60008C35D00081F
:10004000416000084160000841600008416000080C
:1000500041600008416000084160000841600008FC
:1000600041600008416000084160000841600008EC
:1000700041600008416000084160000841600008DC
:1000800041600008416000084160000841600008CC
:1000900041600008416000084160000841600008BC
:1000A00041600008416000084160000841600008AC
:1000B000416000084160000841600008416000089C
:1000C000416000084160000841600008416000088C
:1000D000416000084160000841600008DD5D0008E3
:1000E000416000084160000841600008F15D0008BF
:1000F000416000084160000841600008416000085C
:1001000041600008416000080D5E00084160000881
:10011000416000084160000841600008416000083B
:10012000416000084160000841600008416000082B
:10013000416000084160000841600008416000081B
:10014000416000084160000841600008416000080B
:1001500041600008416000084160000841600008FB
:1001600041600008416000084160000841600008EB
:100170004160000841600008416000080000000084
:08018000416000084160000825
:1001900010B5054C237833B9044B13B10448AFF3C1
:1001A00000800123237010BD3402002000000000F5
:1001B0001420010808B5034B1BB103490348AFF3F2
:1001C000008008BD00000000380200201420010853
:1001D00010F8012B11F8013B012A28BF9A42F7D0F1
:1001E000D01A70470000000000000000000000006E
:1001F00001F0FF01102A2BDB10F0070F08D010F8D8
:10020000013B013A8B422DD010F0070F42B3F6D1DB
:10021000F0B441EA012141EA014122F007047FF0F4
:1002200000070023F0E80256083C85EA010586EA4B
:10023000010685FA47F5A3FA87F586FA47F6A5FA87
:1002400087F68EB9EED1F0BC01F0FF0102F0070293
:1002500032B110F8013B013A83EA010313B1F8D13E
:100260000020704701387047002D06BF354603381F
:10027000073815F0010F07D1013015F4807F02BF58
:10028000013015F4C03F0130F0BC0138704700BFA9
:10029000034613F8012B002AFBD1181A01387047C6
:1002A00081F0004102E000BF83F0004330B54FEA27
:1002B00041044FEA430594EA050F08BF90EA020F94
:1002C0001FBF54EA000C55EA020C7FEA645C7FEA27
:1002D000655C00F0E2804FEA5454D4EB5555B8BF4A
:1002E0006D420CDD2C4480EA020281EA030382EABB
:1002F000000083EA010180EA020281EA0303362D4D
:1003000088BF30BD11F0004F4FEA01314FF4801C1F
:100310004CEA113102D0404261EB410113F0004F31
:100320004FEA03334CEA133302D0524263EB4303E8
:1003300094EA050F00F0A780A4F10104D5F1200E86
:100340000DDB02FA0EFC22FA05F2801841F10001E1
:1003500003FA0EF2801843FA05F359410EE0A5F1B5
:1003600020050EF1200E012A03FA0EFC28BF4CF0E6
:10037000020C43FA05F3C01851EBE37101F000459C
:1003800007D54FF0000EDCF1000C7EEB00006EEBA9
:100390000101B1F5801F1BD3B1F5001F0CD3490833
:1003A0005FEA30004FEA3C0C04F101044FEA44528A
:1003B00012F5800F80F09A80BCF1004F08BF5FEA11
:1003C000500C50F1000041EB045141EA050130BDF1
:1003D0005FEA4C0C404141EB0101013C28BFB1F503
:1003E000801FE9D291F0000F04BF01460020B1FA4E
:1003F00081F308BF2033A3F10B03B3F120020CDA21
:100400000C3208DD02F1140CC2F10C0201FA0CF0FE
:1004100021FA02F10CE002F11402D8BFC2F1200C63
:1004200001FA02F120FA0CFCDCBF41EA0C01904019
:10043000E41AA2BF01EB0451294330BD6FEA040462
:100440001F3C1CDA0C340EDC04F11404C4F120024D
:1004500020FA04F001FA02F340EA030021FA04F35F
:1004600045EA030130BDC4F10C04C4F1200220FAB6
:1004700002F001FA04F340EA0300294630BD21FAF4
:1004800004F0294630BD94F0000F83F4801306BFBA
:1004900081F480110134013D4EE77FEA645C18BFAE
:1004A0007FEA655C29D094EA050F08BF90EA020F45
:1004B00005D054EA000C04BF1946104630BD91EA3D
:1004C000030F1EBF0021002030BD5FEA545C05D140
:1004D0004000494128BF41F0004130BD14F580047F
:1004E0003CBF01F5801130BD01F0004545F0FE41F3
:1004F00041F470014FF0000030BD7FEA645C1ABF28
:10050000194610467FEA655C1CBF0B46024650EA5E
:10051000013406BF52EA033591EA030F41F400218A
:1005200030BD00BF90F0000F04BF0021704730B510
:100530004FF4806404F132044FF000054FF00001E5
:1005400050E700BF90F0000F04BF0021704730B5A6
:100550004FF4806404F1320410F0004548BF40427B
:100560004FF000013EE700BF42004FEAE2014FEAD0
:1005700031014FEA02701FBF12F07F4393F07F4FAB
:1005800081F06051704732F07F4208BF704793F0AE
:100590007F4F04BF41F40021704730B54FF46074C1
:1005A00001F0004521F000411CE700BF50EA0102C4
:1005B00008BF704730B54FF000050AE050EA01026D
:1005C00008BF704730B511F0004502D5404261EBDD
:1005D00041014FF4806404F132045FEA915C3FF41E
:1005E000D8AE4FF003025FEADC0C18BF03325FEABB
:1005F000DC0C18BF033202EBDC02C2F1200300FA6C
:1006000003FC20FA02F001FA03FE40EA0E0021FA90
:1006100002F11444BDE600BF70B54FF0FF0C4CF47E
:10062000E06C1CEA11541DBF1CEA135594EA0C0F30
:1006300095EA0C0F00F0DEF82C4481EA030621EA6B
:100640004C5123EA4C5350EA013518BF52EA0335A6
:1006500041F4801143F4801338D0A0FB02CE4FF058
:100660000005E1FB02E506F00042E0FB03E54FF088
:100670000006E1FB03569CF0000F18BF4EF0010E80
:10068000A4F1FF04B6F5007F64F5407404D25FEA7C
:100690004E0E6D4146EB060642EAC62141EA55512F
:1006A0004FEAC52040EA5E504FEACE2EB4F1FD0C71
:1006B00088BFBCF5E06F1ED8BEF1004F08BF5FEAEF
:1006C000500E50F1000041EB045170BD06F00046A1
:1006D00046EA010140EA020081EA0301B4EB5C044E
:1006E000C2BFD4EB0C0541EA045170BD41F4801146
:1006F0004FF0000E013C00F3AB8014F1360FDEBF6B
:10070000002001F0004170BDC4F10004203C35DA46
:100710000C341BDC04F11404C4F1200500FA05F3C9
:1007200020FA04F001FA05F240EA020001F000426A
:1007300021F0004110EBD37021FA04F642EB0601E0
:100740005EEA430E08BF20EAD37070BDC4F10C040A
:10075000C4F1200500FA04F320FA05F001FA04F2CE
:1007600040EA020001F0004110EBD37041F10001BA
:100770005EEA430E08BF20EAD37070BDC4F12005C5
:1007800000FA05F24EEA020E20FA04F301FA05F22D
:1007900043EA020321FA04F001F0004121FA04F2D5
:1007A00020EA020000EBD3705EEA430E08BF20EAA5
:1007B000D37070BD94F0000F0FD101F000464000DF
:1007C00041EB010111F4801F08BF013CF7D041EA61
:1007D000060195F0000F18BF704703F00046520065
:1007E00043EB030313F4801F08BF013DF7D043EA36
:1007F0000603704794EA0C0F0CEA135518BF95EAEC
:100800000C0F0CD050EA410618BF52EA4306D1D172
:1008100081EA030101F000414FF0000070BD50EA91
:10082000410606BF1046194652EA430619D094EA1B
:100830000C0F02D150EA013613D195EA0C0F05D105
:1008400052EA03361CBF104619460AD181EA030159
:1008500001F0004141F0FE4141F470014FF0000011
:1008600070BD41F0FE4141F4780170BD70B54FF0AC
:10087000FF0C4CF4E06C1CEA11541DBF1CEA13552C
:1008800094EA0C0F95EA0C0F00F0A7F8A4EB05040E
:1008900081EA030E52EA03354FEA013100F0888005
:1008A0004FEA03334FF0805545EA131343EA1263CE
:1008B0004FEA022245EA111545EA10654FEA002683
:1008C0000EF000419D4208BF964244F1FD0404F53C
:1008D000407402D25B084FEA3202B61A65EB030598
:1008E0005B084FEA32024FF480104FF4002CB6EB55
:1008F000020E75EB030E22BFB61A754640EA0C00D5
:100900005B084FEA3202B6EB020E75EB030E22BF14
:10091000B61A754640EA5C005B084FEA3202B6EB55
:10092000020E75EB030E22BFB61A754640EA9C0014
:100930005B084FEA3202B6EB020E75EB030E22BFE4
:10094000B61A754640EADC0055EA060E18D04FEAA2
:10095000051545EA16754FEA06164FEAC30343EA42
:1009600052734FEAC2025FEA1C1CC0D111F4801F0F
:100970000BD141EA00014FF000004FF0004CB6E708
:1009800011F4801F04BF01430020B4F1FD0C88BFA7
:10099000BCF5E06F3FF6AFAEB5EB030C04BFB6EBB2
:1009A000020C5FEA500C50F1000041EB045170BDA5
:1009B0000EF0004E4EEA113114EB5C04C2BFD4EBD2
:1009C0000C0541EA045170BD41F480114FF0000E56
:1009D000013C90E645EA060E8DE60CEA135594EAD2
:1009E0000C0F08BF95EA0C0F3FF43BAF94EA0C0FD5
:1009F0000AD150EA01347FF434AF95EA0C0F7FF44A
:100A000025AF104619462CE795EA0C0F06D152EA9D
:100A100003353FF4FDAE1046194622E750EA410681
:100A200018BF52EA43067FF4C5AE50EA41047FF492
:100A30000DAF52EA43057FF4EBAE12E74FF0FF3CF7
:100A400006E000BF4FF0010C02E000BF4FF0010CC8
:100A50004DF804CD4FEA410C7FEA6C5C4FEA430C41
:100A600018BF7FEA6C5C1BD001B050EA410C0CBF90
:100A700052EA430C91EA030F02BF90EA020F0020F2
:100A8000704710F1000F91EA030F58BF994208BF59
:100A900090422CBFD8176FEAE37040F00100704716
:100AA0004FEA410C7FEA6C5C02D150EA013C07D16D
:100AB0004FEA430C7FEA6C5CD6D152EA033CD3D0B8
:100AC0005DF8040B704700BF8446104662468C46B2
:100AD0001946634600E000BF01B5FFF7B7FF0028E5
:100AE00048BF10F1000F01BD4DF808EDFFF7F4FF0E
:100AF0000CBF012000205DF808FB00BF4DF808ED99
:100B0000FFF7EAFF34BF012000205DF808FB00BFBB
:100B10004DF808EDFFF7E0FF94BF012000205DF8DD
:100B200008FB00BF4DF808EDFFF7CEFF94BF012092
:100B300000205DF808FB00BF4DF808EDFFF7C4FF8B
:100B400034BF012000205DF808FB00BF4FEA410CD4
:100B50007FEA6C5C02D150EA013C0AD14FEA430CB7
:100B60007FEA6C5C02D152EA033C02D14FF00000F4
:100B700070474FF0010070474FEA410212F5001232
:100B800015D211D56FF47873B3EB625212D94FEAD4
:100B9000C12343F0004343EA505311F0004F23FABE
:100BA00002F018BF404270474FF00000704750EA13
:100BB000013005D111F0004008BF6FF000407047D0
:100BC0004FF00000704700BF4A0011D212F500122A
:100BD00011D20DD56FF47873B3EB62520ED44FEA95
:100BE000C12343F0004343EA505323FA02F0704715
:100BF0004FF00000704750EA013002D14FF0FF3053
:100C000070474FF0000070474FEA4102B2F1E043F5
:100C100024BFB3F5001CDCF1FE5C0DD901F0004CE3
:100C20004FEAC0024CEA5070B2F1004F40EB830033
:100C300008BF20F00100704711F0804F21D113F15F
:100C40003872BCBF01F00040704741F480114FEA98
:100C50005252C2F11802C2F1200C10FA0CF320FA21
:100C600002F018BF40F001004FEAC1234FEAD3233E
:100C700003FA0CFC40EA0C0023FA02F34FEA4303A8
:100C8000CCE77FEA625307D150EA01331EBF4FF031
:100C9000FE4040F44000704701F0004040F0FE404C
:100CA00040F40000704700BF53B94AB9002908BF9B
:100CB00000281CBF4FF0FF314FF0FF3000F0BEB9ED
:100CC000ADF1080C6DE904CE00F03CF8DDF804E06D
:100CD000DDE9022304B0704738B500220023044642
:100CE0000D46FFF70BFF28B920462946BDE83840DE
:100CF00000F00AB8204605F1004100F005F8404236
:100D000061EB410138BD00BFD0B50C4B0022064657
:100D10000F46FFF781FCFFF757FF0446FFF702FC81
:100D2000074B0022FFF778FC02460B463046394657
:100D3000FFF7BAFAFFF748FF2146D0BD0000F03DAB
:100D40000000F0412DE9F047089D8E460446884694
:100D5000002B4AD18A42174662D9B2FA82F64EB1C6
:100D6000C6F1200301FA06F820FA03F3B74043EA7C
:100D70000808B4404FEA174E1FFA87FCB8FBFEF193
:100D8000230C0EFB118843EA084301FB0CF29A4244
:100D900009D9FB1801F1FF3080F0EA809A4240F255
:100DA000E78002393B449A1AA3B2B2FBFEF00EFB75
:100DB000102243EA024300FB0CFC9C4509D9FB18B6
:100DC00000F1FF3280F0D6809C4540F2D3803B4456
:100DD000023840EA0140A3EB0C0300211DB1F340AF
:100DE0000022C5E90032BDE8F0878B4205D90DB17C
:100DF000C5E9000100210846F5E7B3FA83F10029AF
:100E000046D1734502D3824200F20581841A6EEB0B
:100E1000030201209046002DE5D0C5E90048E2E735
:100E2000002A00F09080B2FA82F6002E40F0A480F2
:100E30008A1A030C4FEA174E80B2BCB20121B2FBF2
:100E4000FEFC0EFB1C2243EA024304FB0CF29A4216
:100E500007D9FB180CF1FF3802D29A4200F2E08069
:100E6000C4469B1AB3FBFEF20EFB123340EA034367
:100E700002FB04F49C4207D9FB1802F1FF3002D2B6
:100E80009C4200F2CA8002461B1B42EA0C40A5E7C6
:100E9000C1F120068B4022FA06F71F430EFA01F437
:100EA00020FA06F32EFA06FE4FEA1749234300FA0A
:100EB00001F81FFA87FCBEFBF9F01C0C09FB10EED1
:100EC00044EA0E4400FB0CFEA64502FA01F209D9E1
:100ED0003C1900F1FF3A80F09C80A64540F29980D1
:100EE00002383C44A4EB0E041FFA83FEB4FBF9F372
:100EF00009FB13444EEA044403FB0CFCA44508D947
:100F00003C1903F1FF3E80F08280A4457FD9023B6B
:100F10003C4443EA0040A4EB0C04A0FB02EC644513
:100F20007346E14662D35FD05DB1B8EB030264EB78
:100F3000090404FA06F622FA01F31E43CC40C5E97F
:100F4000006400214FE7B1FBF2FC010C41EA0E41C5
:100F500080B240EA01423B4638463C46B846BE466F
:100F60002026B1FBF7F1A2EB080241EA0C4166E74B
:100F7000014618E710462CE7C6F120022EFA02F3CC
:100F8000B740B14020FA02F24FEA174E0A43B3FBD2
:100F9000FEF8BCB20EFB1833110C41EA034108FB0A
:100FA00004F9B04089454FEA104380B23ED9791820
:100FB00008F1FF3C01D289451FD8A1EB0901B1FB23
:100FC000FEF909FB04F80EFB191192B242EA014244
:100FD000424529D2BA1809F1FF31C4D24245C2D2E2
:100FE000A9F102013A44BEE7F0459DD2BEEB0203EF
:100FF0006CEB070C0138E14696E7A7EB0909494479
:10100000A8F1020CB1FBFEF909FB04F8DBE773461B
:101010007FE7504666E70846FDE63B44023A33E781
:10102000ACF1020C3B441CE749469CE7A1EB0901EB
:10103000C446B1FBFEF909FB04F8C4E7704700BFE2
:1010400080B58AB004AFF8600B467A60FB7200236B
:10105000FB757B68DBB21B01DBB27B75FB7A002B77
:1010600001D1682300E06923BB75BB7D9BB25B00A7
:1010700099B20A2302930123019307F11503009308
:1010800001237F22F86805F029FD0346FB75FB7DEF
:1010900018461837BD4680BD80B588B004AF78606B
:1010A000084611461A460346FB700B46BB701346B2
:1010B0007B700023FB73FB78002B01D1682300E0D9
:1010C0006923BB73BB7B9BB25B0099B2BB789AB2BE
:1010D0000A230293012301937B1C00930123786868
:1010E00005F0FCFC0346FB73FB7B18461037BD463E
:1010F00080BD80B588B004AF7860084611461A46B6
:101100000346FB700B46BB7013463B800023FB730A
:10111000FB78002B01D1682300E06923BB73BB7B04
:101120009BB25B0099B2BB789AB20A2302933B88C8
:101130000193BB6900930123786805F0C9FD03465C
:10114000FB73FB7B18461037BD4680BD80B584B06D
:1011500000AF786032230522D021786805F0EAFFDD
:101160000346FB73FB7B002B0CBF01230023DBB288
:1011700018461037BD4680BD80B584B000AF78609A
:1011800032230522D221786805F0D4FF0346FB7391
:10119000FB7B002B0CBF01230023DBB2184610376A
:1011A000BD4680BD80B584B000AF78600B46FB7053
:1011B0001346BB700023FB73FB7800221946786846
:1011C000FFF73EFF0346FB73F97880230622786819
:1011D000FFF762FF0346FB73C82004F0A5FFF97810
:1011E000012306227868FFF757FF0346FB73F9785F
:1011F000002307227868FFF74FFF0346FB73FB7855
:10120000022219467868FFF71BFF0346FB73BB7881
:1012100043F01803DBB2F97801227868FFF73CFF4E
:101220000346FB73F978192314227868FFF734FF1B
:101230000346FB73F978162300227868FFF72CFF2A
:101240000346FB73FB78002219467868FFF7F8FE27
:101250000346FB73F978002303227868FFF71CFF2D
:101260000346FB73F97802230F227868FFF714FF17
:101270000346FB7300BF1037BD4680BD80B586B006
:1012800002AFF8607B600B46FB721346BB72F97AC3
:101290000B4B009302233722F868FFF72AFF084B15
:1012A0001B781BB21B021AB2054B5B781BB21343AF
:1012B0001AB27B681A8000BF1037BD4680BD00BFE0
:1012C0005002002080B584B000AF78600B46FB7000
:1012D000FB78002219467868FFF7B2FE0346002B20
:1012E00002D04FF0FF331DE0F97800230322786825
:1012F000FFF7D2FE0346002B02D04FF0FF3311E080
:10130000012004F011FF0223FB73FB7BF9780F220D
:101310007868FFF7C1FE0346002B02D04FF0FF3381
:1013200000E0002318461037BD4680BD80B588B068
:1013300004AF78600B46FB70344B1B78002B01D058
:1013400000235FE0FB7819467868FFF7BBFF034690
:10135000002B02D04FF0FF3354E0052004F0E4FEF0
:101360000023FB730023BB73142302930123019317
:1013700007F10F030093012300221821786805F07C
:10138000A7FC142302930123019307F10E0300939A
:10139000012301221821786805F09AFC01237B7350
:1013A000142302930123019307F10D0300930123FA
:1013B00032221821786805F091FB0346002B02D0F9
:1013C0004FF0FF331EE0012004F0AEFE00237B73DC
:1013D000142302930123019307F10D0300930123CA
:1013E00031221821786805F079FB0346002B02D0E2
:1013F0004FF0FF3306E0022004F096FE034B01227B
:101400001A70002318461037BD4680BD52020020D6
:1014100080B582B000AF0F4B1B687B600CE07B682F
:101420009B693B607B681B6918460CF0AFFE7868CF
:101430000CF0ACFE3B687B607B68002BEFD1054B6A
:1014400000221A60044B00221A6000BF0837BD4614
:1014500080BD00BF540200205802002080B5ACB00F
:1014600000AFF860B9601346FB80FB68002B00F00A
:101470005082BB68002B00F04C82FB88002B00F0F0
:101480004882FB88802B00F24682FA8807F1140319
:10149000B96818460EF008F9FB88B0333B440022C7
:1014A00003F89C2CFB88013BB0333B4413F89C3C75
:1014B0000A2B06D1FB88013BB0333B44002203F8E2
:1014C0009C2C3B7D87F8A73097F8A730002B00F0C5
:1014D000248297F8A730502B00F01F8200F06DFA9D
:1014E000C7F8A000D7F8A030002B00F01882FB88C6
:1014F000DAB2D7F8A0301A75FB8818460CF03EFE19
:1015000003461A46D7F8A0301A61D7F8A0301B69F5
:10151000002B04D1D7F8A0000CF038FE00E2D7F879
:10152000A0301B69FA88B96818460EF0BDF8D7F8E4
:10153000A03000225A80D7F8A0304FF000025A6045
:10154000D7F8A0304FF000029A60D7F8A0300122FF
:101550005A73D7F8A03001221A70D7F8A0300022B1
:101560005A70D7F8A03000221A7307F114031946F5
:10157000D7F8A00000F0ACFA0346002B40F0A3819E
:101580003B7D87F89F3097F89F30002B03D097F86A
:101590009F30502B0AD1D7F8A0301B6918460CF0A9
:1015A000F5FDD7F8A0000CF0F1FDB9E10023C7F874
:1015B000AC307B7D002B2DD007F114030133C7F82D
:1015C000A830D7F8A8301B787C2B0AD1D7F8A830E0
:1015D0000133C7F8A83004E0D7F8A8300133C7F8C2
:1015E000A830D7F8A8301B78002B0AD0D7F8A8303D
:1015F0001B780133CC4A13441B7803F00803002BFB
:10160000EAD1D7F8A8301B78002B03D0D7F8A83040
:10161000C7F8AC30D7F8AC0000F03EFA87ED260AE8
:1016200097F89F30443B302B00F2428101A252F8E0
:1016300023F000BF9D180008B1180008B118000879
:10164000B1180008B1180008B1180008B118000856
:10165000B11800087D170008A7180008B118000885
:10166000B1180008B1180008B1180008C717000821
:10167000F91600080B170008B1180008B118000887
:101680002F170008B1180008B1180008B118000899
:10169000B1180008B1180008B1180008B118000806
:1016A000B1180008B1180008B1180008B1180008F6
:1016B000B1180008B1180008B1180008B1180008E6
:1016C000B1180008B1180008B1180008B1180008D6
:1016D000B11800080D180008B1180008B11800086A
:1016E000B1180008B1180008B11800085718000810
:1016F000B118000859170008D7F8A03003221A7053
:10170000D7F8A03000225A70DDE0D7F8A0300122CF
:101710001A70D7F8A03001225A70D7F8A0300022F2
:101720001A73D7F8A030D7F898209A60CBE0D7F892
:10173000A03001221A70D7F8A03001225A70D7F8D1
:10174000A03001221A73D7ED267AF0EEE77AD7F8A7
:10175000A030C3ED027AB6E0D7F8A03001221A70AB
:10176000D7F8A030FF225A70D7F8A03000221A73A1
:10177000D7F8A030D7F898209A60A4E0D7F8A03026
:1017800002221A70D7F8A03001225A70D7ED267ABB
:10179000F5EE407AF1EE10FA06D0D7ED267AF0EEAB
:1017A000E77AF1EE677A01E0FFEE007AD7F8A03031
:1017B000C3ED017AD7ED267AF0EEE77AD7F8A030BC
:1017C000C3ED027A7FE0D7F8A03002221A70D7F872
:1017D000A03001225A70D7ED267AF5EE407AF1EE6C
:1017E00010FA04D0D7ED267AF0EEE77A01E0F7EEB2
:1017F000007AD7F8A030C3ED017AD7ED267AF0EE63
:10180000E77AD7F8A030C3ED027A5CE0D7F8A030D1
:1018100002221A70D7F8A030FF225A70D7ED267A2C
:10182000F5EE407AF1EE10FA06D0D7ED267AF0EE1A
:10183000E77AF1EE677A01E0FFEE007AD7F8A030A0
:10184000C3ED017AD7ED267AF0EEE77AD7F8A0302B
:10185000C3ED027A37E0D7F8A03002221A70D7F829
:10186000A030FF225A70D7ED267AF5EE407AF1EEDD
:1018700010FA04D0D7ED267AF0EEE77A01E0F7EE21
:10188000007AD7F8A030C3ED017AD7ED267AF0EED2
:10189000E77AD7F8A030C3ED027A14E0D7F8A03089
:1018A00004221A700FE0D7F8A03005221A700AE05F
:1018B000D7F8A0301B6918460CF068FCD7F8A000D8
:1018C0000CF064FC2CE0194B1B68002B08D1174A64
:1018D000D7F8A0301360164AD7F8A030136008E09C
:1018E000134B1B68D7F8A0209A61114AD7F8A03093
:1018F0001360D7F8A0301B78062B03D14FF4FA7091
:1019000004F012FC7222D7F8A010F86800F085F8F5
:1019100006E000BF04E000BF02E000BF00E000BF3F
:10192000B037BD4680BD00BFC82E0108540200205C
:101930005802002080B483B000AF0D4B1B687B6061
:101940007B68002B0DD07B689B69094A1360084BAC
:101950001B68002B02D1074B00221A607B68002213
:101960009A617B6818460C37BD465DF8047B70476A
:10197000540200205802002080B582B000AF786089
:1019800039603B68002B14D07B68002B08D03B6883
:101990005B7B002B04D066223968786800F03DF844
:1019A0003B681B6918460CF0F1FB38680CF0EEFB45
:1019B00000E000BF0837BD4680BD80B582B000AFF3
:1019C0001C200CF0DBFB03467B607B68002B1FD0E8
:1019D0007B6801221A707B6800225A707B680022A3
:1019E0005A807B684FF000025A607B684FF000021B
:1019F0009A607B6800221A737B6801225A737B68A5
:101A000000221A617B6800221A757B6800229A61A5
:101A10007B6818460837BD4680BD80B586B000AFEC
:101A2000F860B9601346FB71FB68002B2ED0BB68D1
:101A3000002B2BD0BB681B69002B27D0BB681B7DFC
:101A4000012B23D9BB681B7D0133FB82FB8A18461F
:101A50000CF094FB03463B613B69002B18D03B69BB
:101A6000FA791A703B69581CBB681969BB681B7D01
:101A70001A460DF019FEFA8A4FF0FF333969F868FB
:101A800008F0EAFA38690CF081FB02E000BF00E0E0
:101A900000BF1837BD4680BD80B582B000AF78600A
:101AA0007B68002B03D07B681B78002B02D1DFED15
:101AB000077A05E0002178680DF086FCF0EE407AA8
:101AC000B0EE670A0837BD4680BD00BF00000000C9
:101AD00080B586B000AF786039607B68002B02D09B
:101AE0003B68002B01D1002355E004222C493868C3
:101AF0000DF085FD0346002B01D000234BE03B6831
:101B000004333B610023FB6007F10C030A221946F2
:101B100038690DF037FD7861FB68002B01D1002397
:101B200039E0FB681F491846FEF752FB0346002BBD
:101B300011D0FB681C491846FEF74AFB0346002BF0
:101B400009D0FB6819491846FEF742FB0346002BF3
:101B500001D000231FE07B69002B01DA00237B61A9
:101B60007B69134A934201DD114B7B617B6806223E
:101B70001A707B6800225A737B6907EE903AF8EE80
:101B8000E77A7B68C3ED027A7B6800225A707B6833
:101B900000221A73012318461837BD4680BD00BFC6
:101BA00030200108382001083C20010840200108AD
:101BB00040420F0080B400AF034B1B78DBB21846E5
:101BC000BD465DF8047B70471003002080B400AF71
:101BD000034B00221A7000BFBD465DF8047B7047BE
:101BE0001003002080B584B000AF194A3B1D07CA1E
:101BF00083E807003B1DDFED171A9FED171ADFED95
:101C0000160A9FED160A1946154803F09BF93B1D6D
:101C1000DFED101A9FED101ADFED0F0A9FED0F0A8E
:101C20001946104803F08EF902F03EFA03460E4AB8
:101C3000136002F047FA03460C4A13600C4B012272
:101C40001A700C4806F028FC00BF1037BD4680BD56
:101C5000442001080AD7233C000020420000C8426B
:101C60005C020020A8020020080300200C030020D2
:101C7000000000206C04002080B582B000AF7860C6
:101C800039607B68002B05D0304B1B68002B01D0DE
:101C9000012300E0002303F00103DBB2002B13D08B
:101CA0007B68002BCCBF01230023DAB2274B1B68D3
:101CB000002BCCBF01230023DBB25340DBB2002B4F
:101CC00002D0234803F09FFA3B68002B05D0214B3C
:101CD0001B68002B01D0012300E0002303F0010367
:101CE000DBB2002B13D03B68002BCCBF01230023B9
:101CF000DAB2184B1B68002BCCBF01230023DBB2E8
:101D00005340DBB2002B02D0134803F07CFA7B680F
:101D1000002B06D10D4B1B68002B02D00C4803F0A2
:101D200072FA3B68002B06D10A4B1B68002B02D0CD
:101D3000094803F068FA054A7B681360054A3B6866
:101D4000136000BF0837BD4680BD00BFF40200200D
:101D50005C020020F8020020A802002080B500AF3D
:101D600002F0A2F90346064A136002F0ABF90346FB
:101D7000044A1360044B01221A7000BF80BD00BFEB
:101D8000080300200C0300200000002080B58AB06A
:101D900000AF02F089F9386202F094F9F861524B11
:101DA0001B683A6AD31ABB61504B1B68FA69D31A95
:101DB0007B614D4A3B6A13604C4AFB6913604C4B94
:101DC0001B78002B03D04A4B00221A7088E0494A46
:101DD000BB691360484A7B691360484B1B68002B42
:101DE00012D1474B1B68002B0ED1464803F00BFA6B
:101DF000454803F008FA454B00221A70444B002274
:101E00001A7002F0F9F86BE0BB6907EE903AF8EE51
:101E1000E77A3A4B1B6807EE103AB8EEC77AF0EE55
:101E2000470AB0EE670A374803F0F0F887ED040A76
:101E30007B6907EE903AF8EEE77A314B1B6807EEC4
:101E4000103AB8EEC77AF0EE470AB0EE670A2E48AD
:101E500003F0DCF887ED030AD7ED047AFDEEE77AAC
:101E6000C7ED017A3B7987F82730D7ED037AFDEE8D
:101E7000E77AC7ED017A3B7987F826300523FB72B4
:101E800097F9272097F90B309A4209DA97F927201A
:101E900097F90B305B429A4202DD002387F8273026
:101EA00097F9262097F90B309A4209DA97F92620FC
:101EB00097F90B305B429A4202DD002387F8263007
:101EC000124A97F827301370114A97F8263013708A
:101ED00097F9262097F927301146184601F0BCFFE4
:101EE0002837BD4680BD00BF080300200C0300203A
:101EF00000000020FC02002000030020F40200206B
:101F0000F80200205C020020A80200200403002048
:101F10000503002080B483B000AF78607B681B6845
:101F2000054A934202D1054B01221A7000BF0C37BB
:101F3000BD465DF8047B7047000C00401003002094
:101F400080B400AF0A4B0B4A1A60094B6FF40002D1
:101F50005A60074B074A9A60054B6FF40002DA603B
:101F6000034B00221A7400BFBD465DF8047B704726
:101F700028030020FFFF7F7F80B483B000AF87ED90
:101F8000010AD7ED017A9FED157AF4EEC77AF1EEEA
:101F900010FA07DDD7ED017A9FED117A77EEC77A57
:101FA000C7ED017AD7ED017A9FED0E7AF4EEC77A8C
:101FB000F1EE10FA07D5D7ED017A9FED097A77EEA9
:101FC000877AC7ED017A7B6807EE903AB0EE670A30
:101FD0000C37BD465DF8047B704700BF00003443FA
:101FE0000000B443000034C380B586B000AF786011
:101FF000244B1B68002B40D07B68002B3DDD4FF04D
:1020000000037B6100233B6126E000237B811D4BA5
:1020100018681D4B19781D4B1A7807F10A03FFF752
:102020002DF9B7F90A3007EE903AF8EEE76A184B47
:1020300093ED007AC6EE877AC7ED037A97ED057ABD
:10204000D7ED037A77EE277AC7ED057A022004F000
:102050006BF83B6901333B613A697B689A42D4DB98
:102060007B6807EE903AB8EEE77AD7ED056AC6EEE0
:10207000877A084BC3ED007A00E000BF1837BD46F1
:1020800080BD00BF14030020180300200C000020B6
:10209000080000202003002080B584B000AF7860E5
:1020A0003960264A7B6813607868FFF74FF803466B
:1020B000002B03D0224B00221A700BE07868FFF748
:1020C0005BF80346002B03D01D4B01221A7001E080
:1020D00001F096FE3B68002B03D0194B1A783B6841
:1020E0001A700223FB73164B1B78FA7B194678682B
:1020F000FFF758F8134AFB7B1370134B134A1A600F
:10210000134B4FF07F521A60124B4FF000021A60CF
:102110000B4B1B7819467868FFF708F90346002B2C
:1021200005D10D4B01221A70FFF70AFF02E00A4B9E
:1021300000221A7000BF1037BD4680BD1403002076
:10214000180300200C00002008000020000083423B
:10215000200300201C0300202403002080B586B04B
:1021600000AF7860164B1B68002B24D07868FFF70F
:102170003BFF144B7B614FF07E533B61124B1B685E
:10218000FB6097ED047AD7ED037A27EE277AF7EE16
:10219000006AD7ED047A76EEE76AD7ED057A66EE47
:1021A000A77A77EE277A084BC3ED007A074B4FF0FA
:1021B00000021A6000E000BF1837BD4680BD00BFB6
:1021C00014030020B4C8B6BE200300201C03002066
:1021D00080B400AF044B1B6807EE903AB0EE670A7C
:1021E000BD465DF8047B70471C03002080B400AF3F
:1021F000044B4FF000021A6000BFBD465DF8047B3F
:10220000704700BF1C03002080B582B000AF2F4B89
:102210001B7883F00103DAB22C4B1A702B4B1B781E
:10222000002B4FD000237B80294B1868294B19784D
:10223000294B1A78BB1CFFF721F8B7F9023007EEDB
:10224000903AF8EEE76A254B93ED007AC6EE877A6E
:10225000C7ED017A224BD3ED007A97ED017A77EE44
:10226000677AC7ED017AD7ED017A9FED1E7AF4EE19
:10227000C77AF1EE10FA0BDDD7ED017A9FED1A7AED
:10228000F4EEC77AF1EE10FA02D54FF000037B604E
:10229000D7ED017A9FED157A27EE877A144BD3EDAF
:1022A000007A27EE277A134BD3ED007A77EE277A60
:1022B000B0EE670AFFF760FEF0EE407A0D4BC3ED1B
:1022C000007A00E000BF0837BD4680BD3C03002017
:1022D00014030020180300200C0000200800002038
:1022E00020030020CDCCCCBECDCCCC3E0AD7A33C25
:1022F000040000201C03002080B582B000AF78608D
:102300007B685B8A1946786803F0EBF900BF0837F1
:10231000BD4680BD80B584B000AF78607B681B6827
:102320001F4A934238D11F4B1B889BB2184601F0BD
:1023300073F90346FB811C4B1B889BB2FA899A42B6
:1023400009D1194B1B889BB2184601F065F9034669
:102350001A46154B1A80134B1B889BB21A46134B17
:102360001978134B99540F4AFB8913800F4B1B7834
:102370000133104A13441B7803F09703002B06D057
:102380000A4B1A780C4B1A700C4B01221A7001225E
:1023900006490B4807F0EBFE00BF1037BD4680BD75
:1023A000004800400C0800200E080020A008002073
:1023B0000C060020C82E0108090600200A0600208D
:1023C0008C05002080B582B000AF78607B681B6808
:1023D000074A934207D1074B00221A80012206497F
:1023E000064807F0C4FE00BF0837BD4680BD00BFE9
:1023F0000048004090080020A00800208C05002024
:1024000080B58AB000AF7860396000237B62454BAD
:102410003B6277E03B6A01333B623B6A1B78002BEF
:1024200007D03B6A1B78272B03D03B6A1B78222BF3
:10243000F0D13B6A1B78002B6ED03B6A01331B78CE
:10244000002B69D03B6A1B78FB763B6A01331B7813
:10245000BB763B6A0233FA7E114618460DF0C2F88D
:1024600078617B69002B56D07B690133FB6106E004
:10247000FB691B785B2B15D0FB690133FB61FB69A2
:102480001B78002B0FD0FB691B782D2B0BD0FB6921
:102490001B780133244A13441B7803F00403002BF8
:1024A000E6D000E000BFFB691B78002B03D0FB697E
:1024B0001B785B2B03D17B6901333B6222E0002355
:1024C000FB6007F10C030A221946F8690DF05AF86F
:1024D0003861FB68FA699A4203D17B6901333B6238
:1024E00010E07B6ADB007A681344BA7E1A707B6A5C
:1024F000DB007A6813443A695A607B6A01337B6275
:10250000FB683B623B6A1B78002B05D07A6A3B680C
:102510009A4282D300E000BF7B6A18462837BD4646
:1025200080BD00BF10000020C82E010880B586B015
:1025300002AF05F04DFFF860FB68BB601A4B5B68AB
:10254000013307EE903AB8EE677ABB6807EE903A2F
:10255000F8EE676A9FED156AC6EE267A67EE277A6F
:10256000C7ED017A40F67E13019340F2E2530093E7
:102570004FF4826397ED010A00220B490C4803F0E7
:1025800063F80B4803F089F80346002B04D04FF49E
:102590007A7008F083FEFAE70548FFF7ADFE00BF4A
:1025A0001037BD4680BD00BFB4040020002474492C
:1025B000E405002080B582B000AF0F4B01221A70F5
:1025C00001F01AFD44F620637B607868FFF7C6FDD2
:1025D000FFF70CFE084B00221A70084B4FF0000268
:1025E0005A60064B4FF000029A60044B00221A70AA
:1025F00000BF0837BD4680BDFD05002094080020BF
:1026000080B500AF01F00EFE00210020FFF734FB83
:10261000322001F00DFD01F0EFFC0D48FFF76CFEDC
:102620000C4B01221A70642008F038FEFFF7DEFD23
:10263000084B00221A70084B4FF000025A60064BFC
:102640004FF000029A60044B00221A7000BF80BD58
:10265000E4050020FD0500209408002080B500AFAF
:102660000648FFF749FE00210020FFF705FB01F0B7
:10267000C3FC034B00221A7000BF80BDE40500209C
:10268000FC05002080B5B4B002AF07F13003102183
:102690001846FFF7B5FEC7F8BC000023C7F8C430E2
:1026A000ABE0D7F8C430DB00C8333B4413F8983CA8
:1026B00087F8BB30D7F8C430DB00C8333B4453F84D
:1026C000943CC7F8B43097F8BB30542B03D097F83C
:1026D000BB30742B2DD197F8BB30742B0AD1D7F8AF
:1026E000B43007EE903AF8EEE77AF0EEE77AF1EEE2
:1026F000677A07E0D7F8B43007EE903AF8EEE77A59
:10270000F0EEE77AC7ED2C7A97F8BB203846D7F879
:10271000B430009313463F4A30210BF06DFF3B4627
:10272000184600F053FF322097ED2C0A00F07EF897
:1027300054E097F8BB304C2B0BD097F8BB30522BA2
:1027400007D097F8BB306C2B03D097F8BB30722BB7
:102750004DD1D7F8B43007EE903AF8EEE77AF0EEC4
:10276000E77AC7ED307AD7ED307AF5EEC07AF1EE40
:1027700010FA02D8284BC7F8C03097F8BB30D7ED15
:10278000307AFDEEE77A17EE902A38460092234A17
:1027900030210BF031FF3B46184600F017FFD7ED14
:1027A000307A9FED1F7A77EEC77AF0EEE77A9FEDE9
:1027B0001D7AF4EEC77AF1EE10FA06D597F8BB3021
:1027C0003221184600F092F807E097F8BB3032212A
:1027D00097ED300A184600F05DF800BF1248FFF789
:1027E0008BFD01F009FC142008F058FD00E000BF4B
:1027F000D7F8C4300133C7F8C430D7F8C420D7F8AD
:10280000BC309A42FFF44DAF00BF00BFC837BD4691
:1028100080BD00BF802001080000B4429020010864
:102820000000B442CDCCCC3DE405002080B582B0A0
:1028300000AF87ED010A3860D7ED017AF5EE407AF6
:10284000F1EE10FA20D0D7ED017AF5EEC07AF1EE74
:1028500010FA01DB542200E074220D4B1A7097ED40
:10286000010A01F007FD00F051FF094B00221A7028
:1028700000210020FFF700FA3B689BB2184601F0E8
:10288000D7FB01F0B9FB00E000BF0837BD4680BDB3
:10289000FC05002090B585B000AF034687ED020A25
:1028A0007960FB73104AFB7B1370FC7BB868FDF703
:1028B0005BFE02460B4643EC102B204601F096FDD2
:1028C00000F024FF084B00221A7000210020FFF7BF
:1028D000D3F97B689BB2184601F0AAFB01F08CFB90
:1028E00000BF1437BD4690BDFC05002080B584B004
:1028F00000AF03463960FB71FB79FB72FB794C2B0F
:1029000002D1184BFB600DE0FB79522B02D1164B24
:10291000FB6007E0FB796C2B02D1144BFB6001E0FC
:10292000134BFB60FB7A39689FED120A1846FFF7DC
:10293000B1FF642008F0B2FC386897ED030AFFF796
:1029400075FFC82008F0AAFCFB7A39689FED090AD8
:102950001846FFF79FFF642008F0A0FC00BF103767
:10296000BD4680BD33337BC1CDCC7CC19A998141BA
:10297000666682410000344280B582B000AF03F049
:1029800061FB00F095F800F02BFC00F0C5F900F0B9
:1029900033FB00F019F900F06BF900F03FFA00F09A
:1029A0008BFA00F0E3F800F0F1FB00F093FB02F08B
:1029B0003BFA01F02BFAFFF715F94FF400422949D1
:1029C000294802F0A7FC0023FB70FB1C194627488E
:1029D000FFF762FBFFF70AFC254B4FF000025A603D
:1029E000234B4FF000029A60214B00221A70FEF731
:1029F0000FFD01221F49204807F0B9FB1F4B7B60E8
:102A00007868FDF745FC03469AB24FF0FF337968CA
:102A1000194807F021FB08F065FB194A0021194805
:102A200008F0AAFB0346184A1360184A0021184808
:102A300008F0A2FB0346174A1360174A0021174803
:102A400008F09AFB0346164A1360164A00211648FE
:102A500008F092FB0346154A136008F067FB00BFBD
:102A6000FDE700BF000402404405002040030020B1
:102A700094080020A00800208C050020A420010854
:102A800094210108F93A0008D4050020B821010872
:102A9000D13B0008D8050020DC210108F93B0008E3
:102AA000DC05002000220108C13D0008E0050020EF
:102AB00080B594B000AF07F1200330220021184602
:102AC0000CF088FD07F10C0300221A605A609A602E
:102AD000DA601A610023BB60224B1B6C214A43F071
:102AE000805313641F4B1B6C03F08053BB60BB68A7
:102AF00000237B601C4B1B681B4A43F4804313601C
:102B0000194B1B6803F480437B607B6802233B62A4
:102B10000123FB6210233B630023BB6307F1200307
:102B2000184605F011F80346002B01D001F068F9B2
:102B30000F23FB6000233B6100237B610023BB610B
:102B40000023FB6107F10C030021184605F074FA1D
:102B50000346002B01D001F053F900BF5037BD46AA
:102B600080BD00BF003802400070004080B500AF5B
:102B7000124B134A1A60114B124A5A600F4B002233
:102B80009A600E4B0022DA600C4B4FF480421A61BF
:102B90000A4B00225A61094B00229A61074B00221E
:102BA000DA61064B00221A62044803F053FE034622
:102BB000002B01D001F024F900BF80BD40030020AC
:102BC00000580040A086010080B58CB000AF07F12E
:102BD0000C032422002118460CF0FCFC3B1D0022B3
:102BE0001A605A60214B4FF080421A601F4B00223E
:102BF0005A601E4B00229A601C4B4FF6FF72DA603F
:102C00001A4B00221A61194B00229A610323FB60C0
:102C100000233B6101237B610023BB610A23FB612D
:102C200000233B6201237B620023BB620A23FB6219
:102C300007F10C0319460D4805F0F0FF0346002B81
:102C400001D001F0DDF800237B600023BB603B1D59
:102C50001946064807F0CEF80346002B01D001F0D4
:102C6000CFF800BF3037BD4680BD00BF94030020C1
:102C700080B58CB000AF07F10C0324220021184668
:102C80000CF0A8FC3B1D00221A605A60204B214A20
:102C90001A601F4B00225A601D4B00229A601C4B89
:102CA0004FF6FF72DA601A4B00221A61184B0022AD
:102CB0009A610323FB6000233B6101237B610023B6
:102CC000BB610A23FB6100233B6201237B6200237B
:102CD000BB620A23FB6207F10C0319460C4805F09E
:102CE0009DFF0346002B01D001F08AF800237B6092
:102CF0000023BB603B1D1946054807F07BF80346DF
:102D0000002B01D001F07CF800BF3037BD4680BDFC
:102D1000DC0300200004004080B58EB000AF07F156
:102D2000280300221A605A609A60DA6007F12003D3
:102D300000221A605A603B1D00221A605A609A6095
:102D4000DA601A615A619A61324B334A1A60314B28
:102D500000225A602F4B00229A602E4B40F21F3205
:102D6000DA602C4B00221A612A4B80229A61294892
:102D700005F042FB0346002B01D001F041F84FF46F
:102D80008053BB6207F128031946224806F0C8FAAF
:102D90000346002B01D001F033F81E4805F0ECFB90
:102DA0000346002B01D001F02BF820233B620023C7
:102DB0007B6207F120031946164807F01BF803460B
:102DC000002B01D001F01CF860237B600023BB6066
:102DD0000023FB6000237B613B1D082219460D4840
:102DE00006F0DCF90346002B01D001F009F83B1D89
:102DF0000C221946074806F0D1F90346002B01D0F2
:102E000000F0FEFF034802F0E7FE00BF3837BD4682
:102E100080BD00BF240400200008004080B586B0BB
:102E200000AF07F1080300221A605A609A60DA6066
:102E30003B4600221A605A601D4B1E4A1A601C4B0A
:102E400040F23F625A601A4B00229A60184B63228C
:102E5000DA60174B00221A61154B00229A61144860
:102E600005F0CAFA0346002B01D000F0C9FF4FF469
:102E70008053BB6007F1080319460D4806F050FA6D
:102E80000346002B01D000F0BBFF00233B60002372
:102E90007B603B461946064806F0ACFF0346002B14
:102EA00001D000F0ADFF00BF1837BD4680BD00BFA8
:102EB0006C040020000C004080B596B000AF07F114
:102EC000480300221A605A609A60DA6007F14003F2
:102ED00000221A605A6007F1240300221A605A6027
:102EE0009A60DA601A615A619A613B1D20220021C2
:102EF00018460CF06FFB3E4B3E4A1A603C4B0F22CB
:102F00005A603B4B00229A60394B44F61F62DA60EC
:102F1000374B00221A61364B00225A61344B802213
:102F20009A61334805F068FA0346002B01D000F09F
:102F300067FF4FF48053BB6407F1480319462C48E0
:102F400006F0EEF90346002B01D000F059FF2848A7
:102F500005F012FB0346002B01D000F051FF0023C7
:102F60003B6400237B6407F140031946204806F0C8
:102F700041FF0346002B01D000F042FF60237B623B
:102F80000023BB620023FB6200233B6300237B63BF
:102F90000023BB630023FB6307F1240300221946CF
:102FA000134806F0FBF80346002B01D000F028FF81
:102FB00000237B600023BB600023FB6000233B6198
:102FC00000237B614FF40053BB6100233B623B1D38
:102FD0001946074806F08AFF0346002B01D000F08F
:102FE0000FFF034802F0F8FD00BF5837BD4680BD13
:102FF000B40400200004014080B58CB000AF07F19C
:10300000200300221A605A609A60DA603B1D002299
:103010001A605A609A60DA601A615A619A612B4BA1
:103020002B4A1A60294B00225A60284B00229A60D2
:10303000264B40F21F32DA60244B00221A61234BE8
:1030400080229A61214805F0D7F90346002B01D070
:1030500000F0D6FE4FF480533B6207F1200319467F
:103060001A4806F05DF90346002B01D000F0C8FEB7
:10307000164805F081FA0346002B01D000F0C0FE8F
:1030800060237B600023BB600023FB6000237B6127
:103090003B1D002219460D4806F080F80346002B20
:1030A00001D000F0ADFE3B1D04221946074806F092
:1030B00075F80346002B01D000F0A2FE034802F091
:1030C0008BFD00BF3037BD4680BD00BFFC04002033
:1030D0000040014080B588B000AF07F11003002226
:1030E0001A605A609A60DA603B4600221A605A60A1
:1030F0009A60DA60234B244A1A60224B0F225A60EE
:10310000204B00229A601F4B4FF6FF72DA601D4B76
:1031100000221A611B4B00229A611A4805F06CF9D3
:103120000346002B01D000F06BFE4FF480533B614F
:1031300007F110031946134806F0F2F80346002B76
:1031400001D000F05DFE0F4805F038FB0346002B70
:1031500001D000F055FE0A233B6001237B60002371
:10316000BB600023FB603B4600221946054805F082
:1031700079FF0346002B01D000F042FE00BF20374C
:10318000BD4680BD440500200018004080B500AF5A
:10319000114B124A1A60104B4FF4E1325A600E4B39
:1031A00000229A600C4B0022DA600B4B00221A615D
:1031B000094B0C225A61084B00229A61064B0022EF
:1031C000DA61054806F0F8FE0346002B01D000F056
:1031D00017FE00BF80BD00BF8C05002000480040E6
:1031E00080B58AB000AF07F1140300221A605A605C
:1031F0009A60DA601A6100233B61494B1B6B484AB5
:1032000043F010031363464B1B6B03F010033B6149
:103210003B690023FB60424B1B6B414A43F00203B6
:1032200013633F4B1B6B03F00203FB60FB6800233F
:10323000BB603B4B1B6B3A4A43F008031363384BAC
:103240001B6B03F00803BB60BB6800237B60344B3F
:103250001B6B334A43F004031363314B1B6B03F0C6
:1032600004037B607B6800233B602D4B1B6B2C4A67
:1032700043F0010313632A4B1B6B03F001033B6014
:103280003B6800224FF48071264803F0C9FA0022FF
:103290004FF40041244803F0C3FA00224FF4F041F8
:1032A000224803F0BDFA4FF480737B610123BB61B8
:1032B0000023FB6100233B6207F114031946194800
:1032C00003F0FAF84FF400437B610123BB61002354
:1032D000FB6100233B6207F114031946124803F017
:1032E000EBF84FF4F0437B610123BB610023FB61EA
:1032F00000233B6207F1140319460C4803F0DCF885
:1033000001237B610023BB610023FB6107F11403F0
:103310001946044803F0D0F800BF2837BD4680BDE9
:10332000003802400010024000040240000C02403D
:1033300080B500AF01F054FC094A0021002001F0E3
:1033400041FD084A1821002001F03CFD064A3021C9
:10335000002001F037FD01F0BDFB00BF80BD00BFC4
:10336000B8200108C4200108D020010880B58CB025
:1033700004AFF860B9607A6087ED000AD7ED007A93
:10338000B2EE047A67EE877A97ED007AB5EEC07AEE
:10339000F1EE10FA02DBB6EE007A01E0BEEE007A42
:1033A00077EE277AFDEEE77A17EE903AFB61FB693C
:1033B000002B02DA4FF0FF3300E00123BB61FB6911
:1033C000002B02DAFB695B42FB61FB69144A82FB5A
:1033D00003129210DB17D31A7B61FA69104B83FB3F
:1033E00002139910D317C91A0B469B000B445B00BC
:1033F000D31A3B61BB69002B01DA2D2300E02023A7
:103400003A6902927A69019200937B68054AB96829
:10341000F8680BF0F1F800BF2037BD4680BD00BF53
:1034200067666666DC20010880B58EB002AF87ED66
:10343000010AC7ED000A01F0D3FB5A4A002100201F
:1034400001F0C0FCD7ED017AF0EEE77A9FED567AF5
:10345000F4EEC77AF1EE10FA09DD07F1080397EDF3
:10346000010A524A15211846FFF780FF06E007F1CE
:1034700008034F4A152118460BF0BEF807F1080360
:103480001A461021002001F09DFCD7ED007AF0EEE5
:10349000E77A9FED457AF4EEC77AF1EE10FA09DD8E
:1034A00007F1080397ED000A424A15211846FFF775
:1034B0005DFF06E007F108033F4A152118460BF0AF
:1034C0009BF807F108031A462021002001F07AFC3E
:1034D000D7ED017AF0EEE77A9FED337AF4EEC77A12
:1034E000F1EE10FA49DDD7ED007AF0EEE77A9FEDC4
:1034F0002E7AF4EEC77AF1EE10FA3EDDD7ED016ACE
:1035000097ED007AC6EE877AC7ED0B7AD7ED0B7A86
:103510009FED2A7A67EE877A97ED0B7AB5EEC07A3F
:10352000F1EE10FA02DBB6EE007A01E0BEEE007AB0
:1035300077EE277AFDEEE77A17EE903ABB62BB6A28
:103540001F4A82FB03125211DB17D31A7B62BB6A3C
:103550001B4A82FB03125111DA178A1A642101FBFC
:1035600002F29B1A3B6207F108003B6A00937B6AF8
:10357000144A15210BF040F806E007F10803124A3F
:10358000152118460BF038F807F108031A463021C8
:10359000002001F017FC01F09DFA00BF3037BD4656
:1035A00080BD00BFEC2001080AD7233CFC200108A5
:1035B00004210108142101081C2101080000C8424F
:1035C0001F85EB512C2101083C21010880B584B0F6
:1035D00000AF78607B68002B15D07868FCF758FE48
:1035E000F860FB68002B10D0FB68B3F5803F02D376
:1035F0004FF6FF73FB60FB689AB264237968054855
:1036000006F02AFD02E000BF00E000BF1037BD4613
:1036100080BD00BF8C05002080B483B000AF03469E
:10362000FB80FB8801339BB2C3F308039BB21846AF
:103630000C37BD465DF8047B7047000080B582B052
:1036400000AF48E02A4B1B889BB21A46294B9B5C73
:10365000FB71274B1B889BB21846FFF7DDFF034623
:103660001A46234B1A80FB790D2B31D0224B1B7845
:10367000002B09D0FB790A2B2CD11F4B00221A708A
:103680001E4B00221A8025E01C4B1B887F2B0DD877
:103690001A4B1B885A1C91B2184A11801946184AB5
:1036A000FB795354FB790A2B15D106E0134B00220A
:1036B0001A80114B01221A700DE0104B1B881A461C
:1036C0000F491048FDF7CAFE0C4B00221A8002E099
:1036D00000BF00E000BF064B1B889AB20A4B1B8854
:1036E0009BB29A42AED100BF00BF0837BD4680BD35
:1036F0000E0800200C0600209208002090080020F0
:10370000100800208C0500200C08002080B500AFB8
:1037100004E0052007F0C2FDFFF790FF00F076FD02
:103720000346002BF5D100BF00BF80BD80B483B03D
:1037300000AF78607B68002B01D14C231BE07B68D5
:1037400093F90130002B0BDA7B68D3ED017AF5EEAB
:10375000C07AF1EE10FA01DB72230CE06C230AE070
:103760007B68D3ED017AF5EEC07AF1EE10FA01DB59
:10377000522300E04C2318460C37BD465DF8047B0D
:103780007047000080B584B000AF78607B68002B84
:1037900001D1002366E07B681B78013B052B4BD8E9
:1037A00001A252F823F000BFCF370008C537000848
:1037B000C13700082D3800083138000835380008B6
:1037C00053234FE07868FFF7B1FF03464AE07B6878
:1037D0001B7B052B28D801A252F823F0F5370008EF
:1037E00007380008193800081D380008213800087B
:1037F000253800087B6893F90130002B01DA742327
:1038000030E054232EE07B6893F90130002B01DA7D
:10381000772327E0572325E04C2323E0522321E0A0
:103820006C231FE072231DE000BF06E0442319E073
:103830004D2317E0432315E000BF7B681B69002B75
:103840000FD07B681B7D002B0BD07B681B691B781E
:10385000FB73FB7B002B04D0FB7B0A2B01D0FB7B93
:1038600000E0002318461037BD4680BD80B58CB0FF
:1038700000AF78607B68002B00F031817868FFF73B
:1038800081FF034687F82930974A97F8293013704B
:103890007B681B78013B052B00F20D8101A252F8D9
:1038A00023F000BFE5380008C7380008BD3800081D
:1038B000B73A0008B73A0008993A000800F0B2FC9D
:1038C00000F09AFBFEE07868FFF730FF034687F8C8
:1038D0002830864B7B6297F8283032211846FFF754
:1038E00005F8EFE07B681B7B002B29D17B68D3EDCB
:1038F000027AF0EEE77AC7ED0B7AD7ED0B7AF5EEA8
:10390000C07AF1EE10FA40F2D8807B6893F901306A
:10391000002B05DAD7ED0B7AF1EE677AC7ED0B7A5B
:1039200097ED0B0A00F0A6FCFFF7F0FE0021002047
:10393000FEF7A2F9322000F07BFB00F05DFBBEE059
:103940007B681B7B012B40F0BA807B68D3ED027A49
:10395000F0EEE77AC7ED087AD7ED087AF5EEC07A8F
:10396000F1EE10FA40F2AD80614BFB6197ED080A71
:1039700000F080FC002387F82B30002387F82A30E2
:103980003BE00A2007F08AFCFFF758FE01F0D6FC66
:10399000322007F083FC01F03DFD87ED060AD7EDEC
:1039A000067AF5EEC07AF1EE10FA23DD97ED067A8D
:1039B000D7ED077AB4EEE77AF1EE10FA1AD597F858
:1039C0002B30013387F82B3097F82B30012B14D98B
:1039D00000F028FC4748FEF78FFC322007F05EFC21
:1039E00000210020FEF748F900F006FB012387F8CC
:1039F0002A3007E0002387F82B3000F007FC03464D
:103A0000002BBED197F82A30002B0BD1FFF77EFE9A
:103A100000210020FEF730F9322000F009FB00F011
:103A2000EBFA4CE04FF47A637B616FF002033B6189
:103A300002F06EFBF86039693869FEF71DF93C2029
:103A400007F02CFCFFF7FAFD01F078FC322007F0BC
:103A500025FC01F0DFFC87ED020A97ED027AD7ED35
:103A6000077AB4EEE77AF1EE10FA08DC02F050FBC8
:103A70000246FB68D31A7A699A4202D3DFE700BF95
:103A800000E000BF00210020FEF7F6F8322000F031
:103A9000CFFA00F0B1FA12E000F0C4FB00210020E0
:103AA000FEF7EAF8322000F0C3FA00F0A5FA114858
:103AB000FEF722FC06E000BF04E000BF02E000BF0A
:103AC00000E000BF084B00221A700A48FEF714FC01
:103AD00000210020FEF7D0F800F08EFA00E000BFD1
:103AE0003037BD4680BD00BFFC0500200000B44259
:103AF0000000C841E405002080B584B000AF7860C4
:103B0000FEF714FDFEF7AAFDFEF754FD02F060FA81
:103B10000346FB730023BB7301237B73FFF78EFD0A
:103B200002F056FA03463B73FB7B002B04D13B7B30
:103B3000002B01D00123BB733B7BFB73BB7B002BB2
:103B400014D000F063FB0346002B0FD17B7B002BCE
:103B500005D1FEF72FFDFEF781FD01237B73FEF7F4
:103B600091FDFEF77BFD0023BB732CE000F04EFBC4
:103B70000346002B03D0052007F090FB23E0FDF760
:103B8000D9FEB860BB68002B03D1052007F086FB87
:103B900019E00D4B1B78002B06D10B4B01221A703C
:103BA000FEF72EFDFFF74AFDB868FFF75FFE052020
:103BB00007F074FBB9680548FDF7DEFEFFF73EFD30
:103BC000052007F06BFBA9E7FE0500208C0500200F
:103BD00080B582B000AF7860FDF7ECFF0346002BA4
:103BE00005D0FEF7D3F800F0CDFCFDF7EFFF012084
:103BF00007F054FBF0E7000080B592B002AF7860A8
:103C000002F086FAF863002387F83B30FFF790FB59
:103C1000604B1B7887F8333097F83330002B16D081
:103C200097F83B30002B0ED15B4BD3ED007A5B4B0A
:103C300093ED007AF0EE470AB0EE670AFFF7F4FB67
:103C4000012387F83B30322007F028FBA1E097F8EA
:103C50003B30002B07D0002387F83B30FFF768FB91
:103C600002F056FAF86302F053FAF862FA6AFB6B54
:103C7000D31AC72B40F28A80FB6AFB6301F05EFB1C
:103C8000322007F00BFB01F0C5FB87ED0A0AD7EDE8
:103C90000A7AB2EE047A67EE877A97ED0A7AB5EE81
:103CA000C07AF1EE10FA02DBB6EE007A01E0BEEE69
:103CB000007A77EE277AFDEEE77A17EE903A7B638B
:103CC0007B6B002B01DA00237B637B6B344A82FB26
:103CD00003129210DB17D31A7B627A6B304B83FB93
:103CE00002139910D317C91A0B469B000B445B00B3
:103CF000D31A3B6207F10C003B6A00937B6A294AA6
:103D000010210AF079FC284A0021482001F05AF8D5
:103D100007F10C031A460021482001F053F8234B09
:103D20001B78FB77224B1B78BB77FB7F002B0DD0DA
:103D3000204A1821482001F045F8BA7F012300935A
:103D40000C231821482000F0CBFF04E01A4A182168
:103D5000482001F037F8194B1B787B777B7F002BCD
:103D60000DD0144A3021302001F02CF87A7F012345
:103D700000930C233021302000F0B2FF04E00E4A03
:103D80003021302001F01EF800F0A4FE052007F0DD
:103D900085FA3DE708060020000600200406002002
:103DA000676666664C210108542101080A06002056
:103DB000090600205C21010860210108FC050020A3
:103DC00080B586B000AF78600023FB7532233B617D
:103DD0000023FB60FFF732FC02F09AF9B860FB7D2C
:103DE000002B06D10548FFF7F1FB0123FB75BB68EB
:103DF000FB60052007F052FAECE700BF64210108E0
:103E000080B400AF72B600BF00BFFDE780B500AF61
:103E10000C210D4804F00AFC08210B4804F006FCB4
:103E200000210A4804F002FC0421084804F0FEFBCB
:103E30003C21074804F098FF3C21064804F094FF19
:103E400000F0DAF800BF80BD24040020FC0400204C
:103E500094030020DC03002080B489B000AF034647
:103E60000A46FB711346BB7197F90730642B01DDDD
:103E70006423FB7197F9073013F1640F01DA9C2377
:103E8000FB7197F90630642B01DD6423BB7197F950
:103E9000063013F1640F01DA9C23BB71514B1B6890
:103EA000DB6AFB61504B1B68DB6ABB6197F907302B
:103EB000002B08D14B4B1B6800221A64494B1B682E
:103EC0000022DA633DE097F9073007EE903AF8EE0A
:103ED000E77AB0EEE77ADFED456AC7EE267A9FED26
:103EE000447A67EE877A9FED437A77EE877AC7ED5B
:103EF000057AFB69013307EE903AB8EE677AD7EDA1
:103F0000057A27EE277ADFED396AC7EE267AFCEECE
:103F1000E77A17EE903A3B6197F90730002B08DDFE
:103F2000304B1B683A691A642E4B1B680022DA6317
:103F300007E02C4B1B6800221A642A4B1B683A6965
:103F4000DA6397F90630002B08D1274B1B68002253
:103F50005A63254B1B6800229A633DE097F90630AF
:103F600007EE903AF8EEE77AB0EEE77ADFED1F6AF7
:103F7000C7EE267A9FED1E7A67EE877A9FED1D7A4F
:103F800077EE877AC7ED037ABB69013307EE903A83
:103F9000B8EE677AD7ED037A27EE277ADFED136A5A
:103FA000C7EE267AFCEEE77A17EE903ABB6097F9F7
:103FB0000630002B08DD0C4B1B6800225A630A4BAD
:103FC0001B68BA689A6307E0074B1B68BA685A63B4
:103FD000054B1B6800229A6300BF2437BD465DF87D
:103FE000047B704724040020FC0400200000C84229
:103FF000000038420000584280B400AF0A4B1B68F2
:104000000022DA63084B1B6800221A64074B1B6806
:1040100000225A63054B1B6800229A6300BFBD460D
:104020005DF8047B704700BF24040020FC040020DE
:1040300080B584B000AF0346FB80194B1B68DB6A78
:10404000FB60184B1B68DB6ABB60154B1B68FA688A
:104050001A64134B1B68FA68DA63124B1B68BA6860
:104060005A63104B1B68BA689A63FB88002B03D015
:10407000FB88184602F058F8094B1B680022DA63E7
:10408000074B1B6800221A64064B1B6800225A6308
:10409000044B1B6800229A6300BF1037BD4680BDE9
:1040A00024040020FC04002080B400AF044B1B68F3
:1040B0005B6A1BB21846BD465DF8047B704700BFC3
:1040C0009403002080B400AF044B1B685B6A1BB2F2
:1040D0005B421846BD465DF8047B7047DC03002058
:1040E00080B400AF064B1B6800225A62054B1B6868
:1040F00000225A6200BFBD465DF8047B704700BFD6
:1041000094030020DC03002080B582B000AF78600B
:104110007B685B8A1946786801F0E3FA00BF0837CC
:10412000BD4680BD80B400AF074B1B78002B01D18A
:10413000064B00E0064B07EE903AB0EE670ABD462C
:104140005DF8047B704700BFD0080020CDCCBF4293
:104150000000C84280B400AF074B1B78002B01D190
:10416000064B00E0064B07EE903AB0EE670ABD46FC
:104170005DF8047B704700BFD0080020CDCCAC3F79
:104180000000A04080B584B000AF87ED010A0D4B60
:10419000D3ED087A97ED017A77EE677AF0EEE77A59
:1041A000C7ED037AD7ED037A77EEA77AC7ED027AE7
:1041B00097ED020A0DF000FF034618461037BD4682
:1041C00080BD00BFA408002080B582B000AF0D4BB9
:1041D00093F91030002B02DD4FF4C86301E040F288
:1041E000AA53FB80FB881946074801F07AFA054B71
:1041F000012283F82820034B05225A8500BF083787
:10420000BD4680BDA4080020E405002080B400AFB6
:10421000034B1B781846BD465DF8047B704700BF12
:10422000A408002080B500AF104B1B78002B1AD0DB
:104230000E4B00221A700D4B00225A7000210020F4
:10424000FDF71AFDFFF7D8FE084B002283F828205F
:10425000064B00225A85054B4FF000021A620448B3
:10426000FFF752FF00E000BF80BD00BFA4080020A0
:10427000E405002080B588B000AF87ED010AFFF7A4
:104280002FFFFDF76BFDFDF7B1FF524B00221A70B7
:10429000504B01225A70D7ED017AF5EEC07AF1EE5B
:1042A00010FA01DB012201E04FF0FF32494B9A7016
:1042B000484B002283F82820464B00225A85464866
:1042C000FFF722FF9FED450AFFF75CFF78617B69EE
:1042D000002B02D0786906F0E1FF3E4B4FF0000260
:1042E0001A62D7ED017AF0EEE77A9FED3D7A67EE3C
:1042F000877AB0EE670A0DF05FFE0346354A5360D9
:10430000344B5B68092B60DD364BD3ED007AF5EE5C
:10431000C07AF1EE10FA02D54FF0000301E0314B04
:104320001B683B61304BD3ED007AF5EEC07AF1EEBD
:1043300010FA02D54FF0000301E02B4B1B68FB6025
:104340009FED277AD7ED047A67EE277AB0EE670AF9
:104350000DF032FEF8619FED227AD7ED037A67EE19
:10436000277AB0EE670A0DF027FEB861FB69002BD3
:1043700001DA0023FB61BB69002B01DA0023BB617A
:10438000144B5A68F969BB690B449A420CDC114B17
:104390005B68DA0F13445B101A460E4B9A600D4BA4
:1043A0009B680C4AD36008E00A4AFB699360094B9A
:1043B0005A68BB69D31A074AD36000210020FDF771
:1043C0005BFC044B01221A7000E000BF2037BD46A1
:1043D00080BD00BFA4080020E4050020000000000C
:1043E00049799642480000204C00002080B588B0F2
:1043F00000AF034687ED000AFB71FFF771FEFDF782
:10440000ADFCFDF7F3FE5A4B02225A70584B0022C6
:104410001A70574B002283F82820554B00225A85EA
:10442000FB794C2B06D1524B01221A74504B0122BE
:104430005A7419E0FB79522B06D14D4BFF221A74A6
:104440004B4B01225A740FE0FB796C2B06D1484B81
:1044500001221A74464BFF225A7405E0444BFF2296
:104460001A74434BFF225A74D7ED007AF0EEE77AC4
:10447000C7ED077AD7ED077A9FED3E7AF4EEC77A5B
:10448000F1EE10FA01D83C4BFB61394B93F9103037
:1044900007EE903AF8EEE77A97ED077A67EE277A1B
:1044A000C7ED067A324B93F91130002B05DAD7EDC0
:1044B000067AF1EE677AC7ED067A2D4ABB69536139
:1044C000FFF730FE87ED050A294B93F91030002BDA
:1044D00004DDD7ED057AF1EE677A01E0D7ED057AD4
:1044E000C7ED047A00210020FDF7C6FBFFF784FD2D
:1044F00097ED040A214801F03FF997ED040AFFF710
:1045000041FEF860FB68002B02D0F86806F0C6FE9A
:10451000174A3B691362164B4FF000029A61144B25
:104520004FF00002DA61164B1A88114BDA84104BF7
:10453000DA8C0F4B9A8400210020FDF79DFB0C4B79
:1045400001221A700A4B93F911301A4613465B0088
:104550001A44074B93F9113019460B465B000B4484
:1045600019461046FDF788FB00BF2037BD4680BDC9
:10457000A40800200AD7233C00003442E4050020B0
:104580005000002080B59EB000AFFDF73DFEBC4B53
:104590001B78002B20D1BA4B93F82830002B00F069
:1045A0008A82B74B5B8D002B05D0B54B5B8D013BF1
:1045B0009AB2B34B5A85B24B5B8D002B40F07B8295
:1045C000B048FFF7A1FDAE4B4FF000021A62AC4BB2
:1045D000002283F828206EE2FDF7FAFD87ED100A2D
:1045E000A74B5B78022B40F07081A54BD3ED077A87
:1045F00097ED107A77EE677AC7ED1D7AD7ED1D7AC1
:104600009FEDA17AF4EEC77AF1EE10FA08DDD7ED4E
:104610001D7A9FED9E7A77EEC77AC7ED1D7A10E07E
:10462000D7ED1D7A9FED9A7AF4EEC77AF1EE10FA83
:1046300007D5D7ED1D7A9FED957A77EE877AC7ED8E
:104640001D7A8F4B93ED067AD7ED1D7A77EE277A98
:104650008B4BC3ED067A8A4A3B6CD361884BD3ED12
:10466000087AB0EE670A874801F086F8844B93ED2C
:10467000057A834BD3ED067A77EE677AC7ED077A32
:104680007F4BD3ED057AF0EEE77AC7ED067A7C4BE7
:10469000D3ED067AF0EEE77AC7ED057AD7ED077A23
:1046A000F0EEE77AF5EEC07AF1EE10FA0FD9D7ED19
:1046B000067AF5EEC07AF1EE10FA1ADD97ED057A7A
:1046C000D7ED067AB4EEE77AF1EE10FA11DB6C4B17
:1046D00000221A706A4B00225A7000210020FDF758
:1046E000CBFA3220FFF7A4FCFFF786FCFFF76CFD46
:1046F000E2E1D7ED077AF0EEE77AC7ED047A604B96
:104700009B8C002B5CD05E4BDB8C7B817B89002BF0
:1047100005D112233B675A4B00229A8475E0584B0F
:104720009B8C7A89D31A3B813B8907EE903AF8EE4D
:10473000677AB7EE007A77EE876A7B8907EE903A60
:10474000B8EE677AC6EE877AC7ED1B7AD7ED1B7A8B
:10475000B7EE007AF4EEC77AF1EE10FA02DD4FF010
:104760007E53FB66D7ED1B7AB2EE0E7A67EE877A40
:10477000B0EE087A77EE877AC7ED1A7AD7ED1A7A13
:10478000B0EE087AF4EEC77AF1EE10FA01D5414B9B
:10479000BB66D7ED1A7AB3EE027AF4EEC77AF1EE81
:1047A00010FA01DD3C4BBB6697ED1A0A0DF004FCD4
:1047B0003867334B9B8C013B9AB2314B9A8424E08F
:1047C00012233B67D7ED047AB2EE087AF4EEC77A8B
:1047D000F1EE10FA19D597ED047AF2EE086AC7EEF9
:1047E000267AC7ED037AD7ED037AB3EE027A67EE45
:1047F000877AB0EE670A0DF0DFFB78667B6E022BDE
:1048000001DC03237B667B6E3B673B6F3B663B6E45
:10481000022B01DC03233B66FFF79CFC87ED170AA4
:10482000D7ED177AB7EE007AF4EEC77AF1EE10FA08
:1048300002D54FF07E53FB653B6E07EE903AB8EE23
:10484000E77AD7ED177A67EE277AB0EE670A0DF0B0
:10485000B3FBB865BB6D022B01DC0323BB65084BC2
:1048600093F91030002B01DD3B6E00E0BB6D7B60E7
:10487000034B93F91030002B10DDBB6D0FE000BF30
:10488000A4080020E4050020000034430000B443E5
:10489000000034C300004040000090413B6E3B608C
:1048A000874B93F911301A467B6802FB03F37B6058
:1048B000834B93F911301A463B6802FB03F33B60CC
:1048C00039687868FDF7D8F9F6E07D4A3B6CD3612A
:1048D000FFF7EAFBF863FFF7F5FBB863FB6B83EACE
:1048E000E372A2EBE372BB6B002BB8BF5B421344D5
:1048F000DA0F13445B107B63714B5B687A6B9A42EF
:104900000CDB6F4B00221A7000210020FDF7B4F978
:104910005020FFF78DFBFFF76FFBCDE0684B9B68E6
:104920007A6B9A421BDA7B6B07EE903AF8EEE76AF5
:10493000634B9B6807EE903AB8EEE77AC6EE877A4B
:10494000C7ED0B7AD7ED0B7A9FED5E7A67EE877A2B
:10495000B0EE087A77EE877AC7ED157A28E0584BE3
:10496000DB687A6B9A4221DD554B5A687B6BD31A10
:1049700007EE903AF8EEE76A514B5A68504BDB6805
:10498000D31A07EE903AB8EEE77AC6EE877AC7ED0B
:104990000C7AD7ED0C7A9FED4B7A67EE877AB0EE02
:1049A000087A77EE877AC7ED157A01E0464B7B658A
:1049B000D7ED157AB0EE087AF4EEC77AF1EE10FA78
:1049C00001D5424B7B653E4B5A687B6BD31A3B65E6
:1049D0003B6D002B01DA00233B6597ED150A0DF0C6
:1049E000EBFAF864FA6C3B6D9A4201DD3B6DFB64B7
:1049F000FB6C002B01DA0023FB64FB6C002B04D161
:104A00003B6D002B01DD0123FB64D7ED107AF1EE45
:104A1000677A9FED2F7A67EE877AB0EE670A0DF01E
:104A2000CBFAB864264B93F90230002B02DABB6C48
:104A30005B42BB64FB6CDA0F13445B101A46BB6C21
:104A4000934204DDFB6CDA0F13445B10BB64FB6C18
:104A5000DA0F13445B105B421A46BB6C934205DAD3
:104A6000FB6CDA0F13445B105B42BB64FA6CBB6CEB
:104A7000D31ABB62FA6CBB6C13447B62104B93F984
:104A800002301A46BB6A02FB03F37B640C4B93F9BA
:104A900002301A467B6A02FB03F33B62084B93F930
:104AA0000230002B02DA7B6C023B7B64396A786C43
:104AB000FDF7E2F800E000BF7837BD4680BD00BFDB
:104AC000A408002000000442000010420000404002
:104AD0006666964080B582B000AF0023FB7126E089
:104AE000FB79503BDBB20021184600F02BF8002187
:104AF000002000F027F80021102000F023F8002308
:104B0000BB710DE0BA79FB790D49D2000A44134418
:104B10001B780121184600F015F8BB790133BB71F1
:104B200097F90630002BEDDAFB790133FB71FB7945
:104B3000072BD5D900BF00BF0837BD4680BD00BFD9
:104B4000D408002080B584B000AF03460A46FB714C
:104B50001346BB71BB79002B06D001224FF40061D4
:104B60001E4801F05DFE05E000224FF400611B4885
:104B700001F056FE0023FB7322E000224FF4804137
:104B8000164801F04DFE97F90730002B06DA012296
:104B90004FF40051114801F043FE05E000224FF4AC
:104BA00000510E4801F03CFE01224FF480410B48B9
:104BB00001F036FEFB795B00FB71FB7B0133FB737D
:104BC000FB7B072BD9D901224FF40061034801F088
:104BD00027FE00BF1037BD4680BD00BF000C02405D
:104BE00080B582B000AF0023FB7114E00023BB71DD
:104BF0000AE0BA79FB790C49D2000A441344002236
:104C00001A70BB790133BB7197F90630002BF0DACB
:104C1000FB790133FB71FB79072BE7D9FFF75AFFCB
:104C200000BF0837BD4680BDD408002080B485B0E1
:104C300000AF0346FB710B46BB7113467B7100232B
:104C4000FB7397F90730002B41DBBB793F2B3ED834
:104C5000BB79DB08DBB2C3F10703BB73BB7903F09D
:104C600007037B737B7BC3F10703012202FA03F383
:104C7000FB737B79002B12D0FA79BB7B1749D200EA
:104C80000A4413441878FA79BB7BF97B0143C8B214
:104C90001249D2000A44134402461A7018E0FA7905
:104CA000BB7B0E49D2000A4413441B785AB297F9D1
:104CB0000F30DB435BB2134059B2FA79BB7BC8B209
:104CC0000649D2000A44134402461A7000E000BFAD
:104CD0001437BD465DF8047B704700BFD408002040
:104CE00090B585B000AF0446084611461A462346E3
:104CF000FB710346BB710B467B7113463B71BB795D
:104D00003B737B79203B7B710023BB734DE03B7988
:104D10000C2B0BD17A79B97B284813465B001344DE
:104D20009B0003440B441B78FB7307E07A79BB7B41
:104D3000234912010A4413441B78FB7300237B733D
:104D40002DE097F90F30002B07DA97F82020B9797A
:104D5000FB791846FFF76AFF0CE097F82030002B2C
:104D60000CBF01230023DBB21A46B979FB79184640
:104D7000FFF75CFFFB7B5B00FB73BB790133BB710F
:104D8000BA793B7BD21A3B799A4205D13B7BBB7106
:104D9000FB790133FB7105E07B7B01337B737B7B0C
:104DA000072BCED9BB7B0133BB73BA7B3B799A42CD
:104DB000ADD300BF00BF1437BD4690BD242201080B
:104DC0009826010880B584B002AF03463A60FB71B3
:104DD0000B46BB711FE0FB797A2B04D90023FB71D2
:104DE000BB791033BB71BB793A2B05D90023FB711A
:104DF000FB79BB71FFF7F4FE3B681A78B979F87953
:104E0000012300930C23FFF76BFFFB790833FB7141
:104E10003B6801333B603B681B78002BDBD100BF54
:104E200000BF0837BD4680BD80B500AF02F064FE0C
:104E3000424B1B6F414A23F0010313673F4B1B6F2B
:104E40003E4A23F00403136702F06AFE00224FF487
:104E500080513B4801F0E4FC642001F065F9012237
:104E60004FF48051364801F0DBFC0021AE20FFF703
:104E700069FE0021D520FFF765FE00215020FFF7D5
:104E800061FE0021A820FFF75DFE00213F20FFF713
:104E900059FE0021D320FFF755FE00210020FFF727
:104EA00051FE00214020FFF74DFE00218D20FFF72D
:104EB00049FE00211420FFF745FE00212020FFF7C6
:104EC00041FE00210220FFF73DFE0021A120FFF757
:104ED00039FE0021C020FFF735FE0021DA20FFF760
:104EE00031FE00211220FFF72DFE00218120FFF767
:104EF00029FE0021EF20FFF725FE0021D920FFF732
:104F000021FE0021F120FFF71DFE0021DB20FFF72D
:104F100019FE00213020FFF715FE0021A420FFF725
:104F200011FE0021A620FFF70DFE0021AF20FFF7A4
:104F300009FEFFF755FE00BF80BD00BF00380240EC
:104F4000000C024080B487B000AF7861396187ED12
:104F5000030AC7ED020A87ED011AC7ED001A7B6943
:104F6000002B4DD03B69002B4AD03B691A687B6906
:104F70001A603B6904331A687B695A603B690833DD
:104F80001A687B699A607B69FA685A627B69BA68B9
:104F90009A627B697A68DA627B693A681A637B692C
:104FA0004FF000029A647B699A6C7B695A647B6952
:104FB0005A6C7B691A647B694FF00002DA637B6983
:104FC000DA6B7B699A637B699A6B7B695A637B694D
:104FD0004FF000025A617B695A697B691A627B69EA
:104FE0001A6A7B69DA617B69DA697B699A617B6934
:104FF0004FF000021A617B691A697B69DA6000E090
:1050000000BF1C37BD465DF8047B704780B485B097
:1050100000AFF86087ED020AC7ED010AFB68002BBC
:1050200002D14FF00003E5E0FB689A6BFB68DA639E
:10503000FB685A6BFB689A63FB687A68DA60FB6806
:10504000BA681A6197ED017AD7ED027A77EE677A3E
:10505000FB68C3ED0D7AFB6893ED007AFB68D3ED36
:105060000D7A67EE277AFB68C3ED067AFB6893ED4D
:10507000077AFB68D3ED016AFB68D3ED0D7A66EE23
:10508000A76AFB68D3ED0C7A66EEA77A77EE277AEB
:10509000FB68C3ED077AFB6893ED077AFB68D3EDF5
:1050A0000A7AB4EEE77AF1EE10FA04DDFB689A6A48
:1050B000FB68DA6114E0FB6893ED077AFB68D3EDD7
:1050C0000A7AF1EE677AB4EEE77AF1EE10FA07D5D4
:1050D000FB68D3ED0A7AF1EE677AFB68C3ED077AD5
:1050E000FB685A6CFB689A64FB681A6CFB685A642C
:1050F000FB6893ED0D7AFB68D3ED0E7A77EE677A55
:10510000FB68C3ED107AFB68D3ED026AFB6893ED90
:10511000106AFB68D3ED0C7AF5EEC07AF1EE10FA66
:1051200003DDFB68D3ED0C7A01E0F7EE007A86EE42
:10513000277A66EE877AFB68C3ED087AFB6893ED01
:10514000087AFB68D3ED0B7AB4EEE77AF1EE10FA49
:1051500004DDFB68DA6AFB681A6214E0FB6893ED11
:10516000087AFB68D3ED0B7AF1EE677AB4EEE77A52
:10517000F1EE10FA07D5FB68D3ED0B7AF1EE677A02
:10518000FB68C3ED087AFB6893ED067AFB68D3ED04
:10519000077A37EE277AFB68D3ED087A77EE277A1D
:1051A000FB68C3ED057AFB6893ED057AFB68D3EDE8
:1051B000097AB4EEE77AF1EE10FA04DDFB685A6A78
:1051C000FB685A6114E0FB6893ED057AFB68D3ED48
:1051D000097AF1EE677AB4EEE77AF1EE10FA07D5C4
:1051E000FB68D3ED097AF1EE677AFB68C3ED057AC7
:1051F000FB685B6907EE903AB0EE670A1437BD466C
:105200005DF8047B704780B483B000AF78607B6842
:10521000002B30D07B684FF00002DA637B68DA6BDA
:105220007B689A637B689A6B7B685A637B684FF0F4
:1052300000029A647B689A6C7B685A647B685A6C3B
:105240007B681A647B684FF000021A627B681A6AF6
:105250007B68DA617B68DA697B689A617B689A6946
:105260007B685A617B684FF00002DA607B68DA681D
:105270007B681A6100E000BF0C37BD465DF8047B17
:105280007047000080B487B000AF78613961FA6080
:1052900087ED010A7B81184A7B691360174AFB6816
:1052A0001360174A7B891380164A3B691360D7ED58
:1052B000017AF5EEC07AF1EE10FA01DD7B6801E0CB
:1052C0004FF07E53104A13600B4B1B68002B08D025
:1052D000094B1B681A680D4B1B689A4201D10123C8
:1052E00000E00023DAB20A4B1A7000BF1C37BD463B
:1052F0005DF8047B704700BFD40C0020E00C002058
:10530000E40C0020D80C002054000020B40400203D
:10531000DC0C002080B584B000AFF860B9601346A3
:10532000FB80FB88B7EE000ABA680021F868FFF737
:10533000A9FF00BF1037BD4680BD000080B586B014
:1053400000AF2D4B1B78002B4FD12C4B1B68002B33
:105350004BD02B4B1B68002B47D02A4B1B78DBB262
:10536000002B44D1264B1B68274A1188012218467E
:1053700001F056FA00237B6102E07B6901337B6117
:105380007B69632BF9DD1E4B1B681F4A11880022C5
:10539000184601F045FA3B1D00221A605A609A60D7
:1053A000DA6000237B600123BB600023FB600023E5
:1053B0003B61124B1B68154A1268391D184603F0F1
:1053C00051FE134B01221A700E4B01221A700B4B27
:1053D0001B681B6800225A62084B1B680B4A126844
:1053E0001146184603F044FA02E000BF00E000BF97
:1053F0001837BD4680BD00BFDC0C0020D40C002057
:10540000E00C0020E60C0020E40C0020D80C00206A
:105410005800002080B400AF044B1B6807EE903AA0
:10542000B0EE670ABD465DF8047B7047F00C0020C3
:1054300080B58AB000AF78604B4B1B78002B40F0F2
:105440008F804A4B1B68002B00F08A807B681A68AB
:10545000464B1B681B689A4240F08380444B1B7884
:10546000DBB2002B32D0434B1B681946786804F03E
:105470001FF80346404A13603D4B00221A703F4B11
:1054800002221A7007F10C0300221A605A609A6017
:10549000DA600223FB6001233B6100237B61002370
:1054A000BB61344B1B681946786803F009FB314B2C
:1054B0001A6807F10C031946786803F0D3FD2D4BE9
:1054C0001B681946786803F0D3F94AE0294B1B683A
:1054D0001946786803F0ECFF0346294A1360254B10
:1054E0001B681946786803F0EBFA254B1A68224BC3
:1054F0001B689A4206D3224B1A681F4B1B68D31AAB
:105500007B620DE0194B1B681B68DB6A3B621A4B20
:105510001B683A6AD21A1A4B1B68134401337B6228
:105520007B6A07EE903AB8EE677A164BD3ED007AB5
:1055300067EE277AC7ED077AD7ED077A9FED127AE3
:1055400027EE877AF0EE006AC7EE267A0F4BC3ED9E
:10555000007A074B01221A70084B00221A7000E0F3
:1055600000BF2837BD4680BDDC0C0020D40C0020D5
:1055700058000020D80C0020E80C0020E60C002089
:10558000EC0C002054000020287E0C3DF00C002084
:1055900080B582B000AF78607B685B8A1946786816
:1055A00000F09FF800BF0837BD4680BD80B485B0CD
:1055B00000AF78600B467B807B8807EE903AF8EE70
:1055C000E76A7B6893ED027AC6EE877AC7ED037AC5
:1055D000D7ED037AF5EEC07AF1EE10FA02D54FF06E
:1055E0000003FB607B68DB6807EE903AF8EE677AB1
:1055F00097ED037AB4EEE77AF1EE10FA07DD7B68F7
:10560000DB6807EE903AF8EE677AC7ED037AD7EDDC
:10561000037AB6EE007A77EE877AFCEEE77A17EE39
:10562000903A18461437BD465DF8047B704780B445
:1056300083B000AF78607B681B68DB6A18460C3764
:10564000BD465DF8047B704780B586B000AF7861D9
:105650003961FA6087ED020AFB807B69002B18D064
:105660007B693A691A607B69FA685A607B69BA6833
:105670009A603869FFF7DBFF02467B69DA607B6975
:10568000FA881A827B693A8C5A827B69BA8C9A8230
:1056900000E000BF1837BD4680BD80B584B000AFC4
:1056A00078607B68002B03D07B681B68002B01D1DE
:1056B000012312E07B681A687B685B681946104614
:1056C00002F0B4FF0346FB73FB7B002B01D0FB7B96
:1056D00003E07868FFF75CFF002318461037BD46EB
:1056E00080BD80B584B000AF78600B467B807B685E
:1056F000002B3DD07B681B68002B39D07B681B8A50
:105700007A889A4202D27B681B8A7B807B689B8A5C
:105710007A889A4202D97B689B8A7B807B8819466B
:105720007868FFF743FFF8607B685B68002B05D162
:105730007B681B681B68FA685A631AE07B685B68C1
:10574000042B05D17B681B681A68FB68936310E023
:105750007B685B68082B05D17B681B681A68FB684F
:10576000D36306E07B681B681A68FB68136400E07B
:1057700000BF1037BD4680BD80B586B000AF7860F1
:1057800087ED000A7B68002B58D0D7ED007AF5EE44
:10579000C07AF1EE10FA28D597ED007ADFED296A8C
:1057A000C7EE267AC7ED037A7B685B8A07EE903AEC
:1057B000B8EE677A7B685B8A1A467B681B8AD31AC5
:1057C00007EE903AF8EEE76AD7ED037A66EEA77A2D
:1057D00077EE677AFCEEE77A17EE903A7B817B8969
:1057E00019467868FFF77DFF29E097ED007ADFED35
:1057F000166AC7EE267AC7ED057A7B685B8A07EEE4
:10580000903AB8EE677A7B689B8A1A467B685B8A17
:10581000D31A07EE903AF8EEE76AD7ED057A66EE0E
:10582000A77A77EE277AFCEEE77A17EE903A7B823A
:105830007B8A19467868FFF754FF00E000BF1837ED
:10584000BD4680BD0000C8C20000C84280B582B01D
:1058500000AF00237B60124B5B6C114A43F4804322
:1058600053640F4B5B6C03F480437B607B680023C5
:105870003B600B4B1B6C0A4A43F080531364084B8C
:105880001B6C03F080533B603B6800220F216FF0DC
:10589000010000F048FD00BF0837BD4680BD00BFD5
:1058A0000038024080B58AB000AF786007F1140379
:1058B00000221A605A609A60DA601A617B681B687D
:1058C000194A93422CD100233B61184B1B6B174A9A
:1058D00043F002031363154B1B6B03F002033B61A0
:1058E0003B694FF440637B611223BB610023FB6182
:1058F00003233B6204237B6207F1140319460C481F
:1059000000F0DAFD0023FB60084B1B6C074A43F4F0
:1059100080031364054B1B6C03F48003FB60FB687E
:1059200000BF2837BD4680BD005800400038024007
:105930000004024080B58CB000AF786007F11C0312
:1059400000221A605A609A60DA601A617B681B68EC
:10595000B3F1804F4BD10023BB613F4B1B6C3E4AE0
:1059600043F0010313643C4B1B6C03F00103BB6168
:10597000BB6900237B61384B1B6B374A43F0010343
:105980001363354B1B6B03F001037B617B690023C1
:105990003B61314B1B6B304A43F0020313632E4BC8
:1059A0001B6B03F002033B613B694FF40043FB6157
:1059B00002233B6200237B620023BB620123FB6264
:1059C00007F11C031946254800F076FD0823FB610A
:1059D00002233B6200237B620023BB620123FB6244
:1059E00007F11C0319461E4800F066FD30E07B6895
:1059F0001B681C4A93422BD10023FB60164B1B6C87
:105A0000154A43F002031364134B1B6C03F00203AB
:105A1000FB60FB680023BB600F4B1B6B0E4A43F01F
:105A2000020313630C4B1B6B03F00203BB60BB68E8
:105A30003023FB6102233B6200237B620023BB62B5
:105A40000223FB6207F11C031946054800F034FDF0
:105A500000BF3037BD4680BD003802400000024024
:105A6000000402400004004080B58EB000AF7860B2
:105A700007F1240300221A605A609A60DA601A6102
:105A80007B681B684D4A93420ED100233B624C4B0E
:105A90001B6C4B4A43F004031364494B1B6C03F02B
:105AA00004033B623B6A85E07B681B68454A93427E
:105AB00016D10023FB61424B1B6C414A43F00803A3
:105AC00013643F4B1B6C03F00803FB61FB6900226E
:105AD0000521322000F027FC322000F040FC69E074
